:100000000C945E040C9495040C9495040C94950443
:100010000C9495040C9495040C9495040C94E4337E
:100020000C9495040C9495040C9495040C949504EC
:100030000C9495040C9495040C9495040C949504DC
:100040000C9423320C9495040C9493320C946D32DE
:100050000C9495040C9495040C9495040C949504BC
:100060000C94C5320C949504444941474E4F535467
:100070004943533E00494E464F203E00414E414CBD
:10008000595345203E0050524F46494C4553203E5F
:100090000053455454494E4753203E005045524664
:1000A0004F524D414E4345203E0044454C4554453A
:1000B000203E0052454E414D45203E004C4F4144AC
:1000C000203E00414E414C5953452C53544152540B
:1000D000004D41580054494D450043415345533A62
:1000E0002000910086007C007500680046414E208B
:1000F0004F46460046414E204F4E004F4646004F69
:100100004E0044554D503A200052455354415254EC
:100110003A200053455454494E4753004F50454EE2
:10012000203E0050524F46494C452000BC00AC01D7
:10013000B300AA009C006C0620414354494F4E5323
:10014000007E4A00413A004E414D45205000444552
:100150004C455445203E0044454C455445205000F4
:100160005341564544004E4F204441544100454DB3
:100170005054590044454C45544544004C4F41446B
:1001800045440050524F46494C455300434F4E465C
:100190004947203E00524556494557203E004E45AE
:1001A00057203E00414E414C59534500534156455E
:1001B000203E0050524F46494C45200050524F4679
:1001C000494C453A20004D41582054494D453A206C
:1001D0000044524F503A200054494D453A20007E89
:1001E0004A3A20005045414B2044524F5000454E62
:1001F000455247590054494D4500545950453A20FD
:1002000000524551554952454400435552205345EB
:100210004E534F5200505245535320535441525461
:10022000004C4F4144204341534500414E414C59FD
:100230005345002C63757272656E745F6D613D008D
:10024000414E414C5953452C53414D504C452C7413
:100250005F6D733D007E4A0020413A0044554D5089
:10026000494E472E2E2E005253543A0020435552E9
:100270003A0054454D503A00444941474E4F53547B
:1002800049435300342E322E300046573A20003571
:10029000563A20002D2D00424153453A200025209A
:1002A0004E004C4F573A2000494E464F004155549E
:1002B0004F204F4646004155544F204F4E00434F6C
:1002C0004F4C444F574E00524551554952454400FA
:1002D0004355522053454E534F520054494D454FBC
:1002E00055540054415247455400434845434B2020
:1002F00054454D500054454D50204552524F5200E8
:1003000043555252454E54204C4F210043484543DB
:100310004B204341534500434845434B20434F49FD
:100320004C0021204641554C542021004845494766
:100330004854204F4B3F00434153450020262000A6
:1003400054494D45004341534553004C4F414400EF
:1003500044524F5050494E470041202000414E4EDC
:1003600045414C494E47002C7065616B5F6D613DA6
:10037000002C7065616B5F7063743D002C656E6569
:100380007267795F7063743D002C6D617463685FA0
:100390007063743D0050524F46494C452C524553B2
:1003A000554C542C736C6F743D002C7065616B5F01
:1003B0006D613D002C656666696369656E63795F92
:1003C0007063743D002C657374696D617465645F5E
:1003D000656E657267795F4A3D002C696E70757451
:1003E0005F656E657267795F4A3D00414E414C59C9
:1003F00053452C454E442C745F6D733D00414E4176
:100400004C5953452C41424F52542C726561736FC5
:100410006E3D555345522041424F52542C745F6DEE
:10042000733D00414E414C5953452C474154455F63
:100430004F50454E004F4E452053484F54004155B4
:10044000544F204645454400465245452052554E9E
:100450000020434F4F4C21007E4A00413A000E9E3F
:10046000FEFEDEDEDEDEDEDEDEDEDEDEDEDEDEDE6C
:10047000DEDEDEDEDEDEFEFE9E0E01C33F30C78026
:1004800001E33F30CFC001E30330CC4001B306307D
:10049000CC0001B30C3FCF80019B1C3FC3C0018B3C
:1004A0001830C0C0018F3030C8C001873F30CFC086
:1004B00001873F30CF8000000000000700000F00E0
:1004C000003C0000700000E000FFC001FF00018060
:1004D0000001800001800001800001800001800097
:1004E0000180000180000180000180000180000186
:1004F000800001FF0000FFC00000E000007000006D
:100500003C00000F00000700000000000000000099
:10051000005F00000007000700147F147F14242AE6
:100520007F2A1223130864623649562050000807B8
:100530000300001C2241000041221C002A1C7F1CD9
:100540002A08083E080800807030000808080808DB
:10055000000060600020100804023E5149453E0042
:10056000427F400072494949462141494D331814A0
:10057000127F1027454545393C4A494931412111EF
:1005800009073649494936464949291E00001400E1
:100590000000403400000008142241141414141404
:1005A000004122140802015909063E415D594E7C62
:1005B0001211127C7F494949363E414141227F4117
:1005C00041413E7F494949417F090909013E414175
:1005D00051737F0808087F00417F41002040413F60
:1005E000017F081422417F404040407F021C027F6F
:1005F0007F0408107F3E4141413E7F090909063EC4
:100600004151215E7F091929462649494932030192
:100610007F01033F4040403F1F2040201F3F4038A4
:10062000403F631408146303047804036159494D7F
:1006300043007F4141410204081020004141417FB5
:1006400004020102044040404040485454542400F5
:1006500000181800020102040225204E45585420BB
:1006600000252044524F5000252045004241434B75
:10067000203E00005EBCE2613FDD83C29C7E20A381
:10068000FD1F41009D23BE46DB65F88C11AF32CAC9
:1006900057E974AED580A81FD300408D142000A167
:1006A000C8DA02818FD9F1DB40A4A62EAF3E0F87B6
:1006B000C1F1F0001F07C3F0FCFC000FC3F1FC7F89
:1006C0007F8003F0FC7F1F8FC000FC3F1F87E3E0AB
:1006D000187F1FC7E1F8C03E1FC7F1F87E001F87D3
:1006E000E1F87E3F800FE1F87E1F8FC003F07E1F90
:1006F00087E3E030FC1F87E3F8E07C3F0FE3F8FE80
:10070000003E0FC3F0FC3F801F87F0FC3F0FC00787
:10071000E1FC3F0FC3E001F07E0F83E0E000F81F33
:1007200007C1F0000000003FFFFFFFFFFF80000057
:100730000003FE0007C001F07F8000003C1F0003A3
:10074000F000FC00780001C00FC001FC007F8004B5
:1007500000060003F0007F000FC00400180000FC3A
:10076000001F8003E00400E000007F0007E000C0FD
:1007700004030000001FC001F80000040C0000008A
:1007800007E0007E0000043000000001F8001F8038
:1007900000040C000000007E0007E00004030000DD
:1007A00030001F8003F8000400E0007C000FE00030
:1007B000FE00040018003E0003F0003F8004000625
:1007C000001F8000FC000FC0040001C007E0003FD4
:1007D0000003E00400003C01F0000F8000E078001E
:1007E0000003C0F80007C0007F800000003FFFFF4B
:1007F000FFFFFF80000060E05F0CC0A741F9F80038
:10080000F0F07D0CC03F01F9FC00F0F07D30303C91
:1008100081818C0198D828353154C1818C0198D8B8
:10082000283FDE5741F1F8030CCC02AFDCCF01F1D9
:10083000F003FCCC12AB333C01819803FCC617C318
:1008400033340181980606C61FCCC6C93DF98C0613
:1008500006C21F4CC6C97DF98C0000000024002789
:10086000002A0000000000250028002B0021007F46
:10087000220003000000080002010000030407003A
:1008800000000000000000000000002300260029F6
:100890000004040404040404040202020202020329
:1008A0000303030303010204081020408001020433
:1008B00008102001020408102000C13511241FBEB9
:1008C000CFEFD8E0DEBFCDBF84B78093460614BE1D
:1008D0000FB6F894A89580916000886180936000BD
:1008E000109260000FBE11E0A0E0B1E0E2EFF5E78A
:1008F00002C005900D92A834B107D9F726E0A8E40C
:10090000B1E001C01D92A534B207E1F714E0CEE5D5
:10091000D4E004C02197FE010E94D03ACD35D10722
:10092000C9F70E944F360C94F73A0C94000080E40B
:1009300080937C0080917A00806480937A0080911B
:100940007A0086FDFCCF809178009091790008951F
:10095000833081F028F4813099F08230A9F0089535
:100960008730A9F08830C9F08430B1F480918000DC
:100970008F7D03C0809180008F77809380000895E1
:1009800084B58F7784BD089584B58F7DFBCF80912A
:10099000B0008F778093B00008958091B0008F7D74
:1009A000F9CFCF93DF93282F30E0F901ED58F74FBF
:1009B0008491F901EB55F74FD491F901EF56F74FB8
:1009C000C491CC23A1F081110E94A804EC2FF0E087
:1009D000EE0FFF1FE957F74FA591B491EC91ED236E
:1009E00081E090E009F480E0DF91CF91089580E00C
:1009F00090E0FACF1F93CF93DF93282F30E0F901D7
:100A0000ED58F74F8491F901EB55F74FD491F90167
:100A1000EF56F74FC491CC23A9F0162F81110E94F5
:100A2000A804EC2FF0E0EE0FFF1FED59F74FA59152
:100A3000B4918FB7F894EC91111108C0D095DE23D2
:100A4000DC938FBFDF91CF911F910895DE2BF8CFFC
:100A5000ECE7F8E0E491E33019F140F4E130B1F073
:100A6000E230C9F060E089E00C94FA04E73011F15B
:100A7000E83041F1E430B1F720918000206220930A
:100A8000800090938B0080938A00089594B59068BD
:100A900094BD87BD089594B5906294BD88BD0895B6
:100AA000209180002068209380009093890080939B
:100AB000880008959091B00090689093B000809362
:100AC000B30008959091B00090629093B00080932D
:100AD000B4000895CF93DF9390E0FC01EB55F74FFE
:100AE00024918F56974FFC0184918823C9F090E0A0
:100AF000880F991FFC01E75AF74FA591B491FC01AB
:100B0000ED59F74FC591D49161110DC09FB7F8947D
:100B10008C91209582238C938881282328839FBFE2
:100B2000DF91CF910895623051F49FB7F8943C91D2
:100B3000822F809583238C93E8812E2BEFCF8FB764
:100B4000F894EC912E2B2C938FBFEACF3FB7F894FB
:100B500080910D0390910E03A0910F03B0911003AB
:100B600026B5A89B05C02F3F19F00196A11DB11D08
:100B70003FBFBA2FA92F982F8827BC01CD01620F44
:100B8000711D811D911D42E0660F771F881F991FFF
:100B90004A95D1F708958F929F92AF92BF92CF92CC
:100BA000DF92EF92FF926B017C010E94A6054B0140
:100BB0005C01C114D104E104F104B9F00E94A6055E
:100BC000681979098A099B09683E73408105910576
:100BD00080F321E0C21AD108E108F10888EE880EFE
:100BE00083E0981EA11CB11CE4CFFF90EF90DF9032
:100BF000CF90BF90AF909F908F9008952FB7F894AB
:100C00006091090370910A0380910B0390910C038A
:100C10002FBF089508950895DC01ED91FC91019096
:100C2000F081E02D0994EF92FF920F931F93CF93E1
:100C3000DF938C017B01D0E0C0E0F701EC0FFD1FDA
:100C40006491662361F0D801ED91FC910190F081EF
:100C5000E02DC8010995892B11F02196EECFCE0128
:100C6000DF91CF911F910F91FF90EF900895AF9278
:100C7000BF92CF92DF92EF92FF920F931F93CF9389
:100C8000DF936C017B018B01040F151FEB015E01EB
:100C9000AE18BF08C017D10759F06991D601ED9180
:100CA000FC910190F081E02DC6010995892B79F71F
:100CB000C501DF91CF911F910F91FF90EF90DF90D1
:100CC000CF90BF90AF900895FC01538D448D252F98
:100CD00030E0842F90E0821B930B541710F0CF96D6
:100CE000089501970895FC01918D828D981761F008
:100CF000A28DAE0FBF2FB11D5D968C91928D9F5F1F
:100D00009F73928F90E008958FEF9FEF0895FC01FD
:100D1000918D828D981731F0828DE80FF11D858DB0
:100D200090E008958FEF9FEF0895FC01918D228D43
:100D3000892F90E0805C9F4F821B91098F739927C8
:100D4000089581E693E00E94950621E0892B09F43D
:100D500020E0822F089580E090E0892B29F00E9406
:100D6000A10681110C9400000895FC01A48DA80F28
:100D7000B92FB11DA35ABF4F2C91848D90E00196DD
:100D80008F739927848FA689B7892C93A089B189FD
:100D90008C91837080648C93938D848D981306C09E
:100DA0000288F389E02D80818F7D80830895EF9202
:100DB000FF920F931F93CF93DF93EC0181E0888F15
:100DC0009B8D8C8D98131AC0E889F989808185FFE5
:100DD00015C09FB7F894EE89FF896083E889F98987
:100DE00080818370806480839FBF81E090E0DF9189
:100DF000CF911F910F91FF90EF900895F62E0B8DDC
:100E000010E00F5F1F4F0F731127E02E8C8D8E1196
:100E10000CC00FB607FCFACFE889F989808185FFFD
:100E2000F5CFCE010E94B506F1CFEB8DEC0FFD2F73
:100E3000F11DE35AFF4FF0829FB7F8940B8FEA89B8
:100E4000FB8980818062CFCFCF93DF93EC01888DC7
:100E50008823B9F0AA89BB89E889F9898C9185FD35
:100E600003C0808186FD0DC00FB607FCF7CF8C91C3
:100E700085FFF2CF808185FFEDCFCE010E94B506C0
:100E8000E9CFDF91CF910895DC0180E0615090F0CF
:100E90009D919827E92FEF70F0E0ED58F94F2491DC
:100EA000E92FE295EF70F0E0ED57F94FE491822FD2
:100EB0008E27ECCF0895FC011386158614861286C2
:100EC0001186108617821682158214821382089565
:100ED000DC012C911196ED91FC91F8948181822B8B
:100EE00081839281322F30959323928387E090E023
:100EF0000197F1F781818323818383E290E0019759
:100F0000F1F790817894EFECF0E03197F1F79223CC
:100F100081E009F480E00895FC0190810180F28174
:100F2000E02D292F209560FF14C0F8948281822340
:100F300082838181892B8183A3E2B0E01197F1F74D
:100F40008281982B9283789487ED90E00197F1F756
:100F50000895F8948281822382838181892B818301
:100F6000AFEFB0E01197F1F78281982B92837894DC
:100F70008FE090E0EBCFDF92EF92FF920F931F9301
:100F8000CF93DF93EC01D62EE42E08E010E0FF248F
:100F9000F39461E08D2D8F2109F460E0CE010E9471
:100FA0008C07FF0C01501109A1F7E11010C0F89453
:100FB000E981FA8191818881809589238183E98102
:100FC000FA81928188818095892382837894DF9148
:100FD000CF911F910F91FF90EF90DF900895EF92C6
:100FE000FF920F931F93CF93DF938C017B0140E01F
:100FF00065E50E94BB07E70188E0E80EF11C6991F6
:1010000040E0C8010E94BB07CE15DF05C1F7DF91A4
:10101000CF911F910F91FF90EF900895FC01908167
:101020000180F281E02DF8948181292F209582237F
:10103000818378943DE743E050E0315029F1DA01B3
:101040001197F1F780818923C1F3F894828182237B
:1010500082838181892B81837894ABE7B7E01197F4
:10106000F1F7F894818182238183A3E1B1E01197A4
:10107000F1F78081982381E009F080E07894E3E63D
:10108000F6E03197F1F7089580E008958F929F92EE
:10109000AF92BF92CF92DF92EF92FF92CF93DF9306
:1010A00000D000D01F92CDB7DEB780910704909199
:1010B00008040E940E0840E06CEC809107049091B7
:1010C00008040E94BB074091FE0364E4809107047A
:1010D000909108040E94BB070E94FE056B017C01F1
:1010E0008091020481111EC081E08983CA82DB8263
:1010F000EC82FD8229813A814B815C816D8170E0B7
:1011000080E090E00F900F900F900F900F90DF9184
:10111000CF91FF90EF90DF90CF90BF90AF909F90D6
:101120008F900895809103048823C1F08091FE037D
:10113000811114C080910704909108040E946807EF
:10114000813091F20E94FE056C197D098E099F097C
:101150006E3E72408105910568F3C6CFE0910104AF
:10116000E9508EEE92E0E33038F4F0E0EE0FFF1F2E
:10117000EA5FFE4F808191814C01B12CA12C8091BE
:10118000FF03882329F060E0809100040E94FA04A4
:10119000C501B4010E94CB058091FF03882309F4A7
:1011A000A3CF61E0809100040E94FA049DCF6F926A
:1011B0007F928F929F92AF92BF92CF92DF92EF92E7
:1011C000FF920F931F93CF93DF938C01EB018091DC
:1011D0000704909108040E940E08882309F43FC078
:1011E000B80180910704909108040E94EF0740E045
:1011F0006EEB80910704909108040E94BB077E016A
:101200006E0189E0C80ED11C8E01A0900704B09039
:10121000080488E0882E912C712C66246394C50103
:101220000E94680781117628660CE1E08E1A910809
:10123000B1F7F80171928F01CE16DF0631F7809178
:101240000704909108040E940E08813041F4F701D0
:1012500081917F01811105C0E017F107C1F790E08E
:1012600008C068E0CE010E94440791E02885281359
:10127000F6CF892FDF91CF911F910F91FF90EF90C3
:10128000DF90CF90BF90AF909F908F907F906F90A6
:1012900008950F931F93CF93DF93CDB7DEB72997B0
:1012A0000FB6F894DEBF0FBECDBF8C01BE016F5FDD
:1012B0007F4F0E94D708882361F08D81F8019081CB
:1012C0009B3311F487FD0BC08F3359F020F48F311D
:1012D000A1F080E007C08F3591F08F37D1F78CE017
:1012E00001C08AE029960FB6F894DEBF0FBECDBFCD
:1012F000DF91CF911F910F91089589E0F3CF8BE09B
:10130000F1CF2091B702260F3327331F2132310549
:10131000ECF420913703FC0190E080E0243069F088
:1013200082E00895A091B7022191AC0149565D4F2A
:10133000A40FB52FB11D2C930196861798F38091B9
:10134000B702680F6093B70280E0089581E00895C6
:101350001092370381E0809336031092110361E00D
:1013600082E10E94FA0461E083E10E94FA04E9EB61
:10137000F0E080818E7F808380818D7F808388E410
:101380008093B80085E48093BC000895CF93DF93E9
:1013900091E0909396028823B9F0C091B800D09163
:1013A000BA008091BC008A7B8093BC0060E082E13F
:1013B0000E94FA0460E083E10E94FA040E94A809F6
:1013C000D093BA00C093B800DF91CF910895CF9227
:1013D000DF92EF92FF920F931F93CF93DF93D09101
:1013E000600381E0D13208F09CC0C0915F030E948D
:1013F000A6056B017C018091370381116CC082E0EE
:101400008093370381E0809336038FEF8093350319
:1014100010923403D0933303AFE3B3E0E3E1F3E09E
:1014200080E0D8138DC01092120380911203CC0F6C
:10143000C82BC093120380911103813009F084C03E
:10144000109211030E94A6056B017C01809112038A
:101450008093BB008091390390913A03A0913B03A4
:10146000B0913C03892B8A2B8B2BA1F00E94A605FF
:101470000091390310913A0320913B0330913C03D2
:101480006C197D098E099F09061717072807390768
:1014900008F442C08091BC0083FDD8CF85EC8093D6
:1014A000BC000E94A6056B017C018091370382304D
:1014B00009F44CC0809135038F3F09F469C08091D5
:1014C0003503803209F466C080913503803309F416
:1014D00063C084E026C08091390390913A03A091C3
:1014E0003B03B0913C03892B8A2B8B2B09F483CFD0
:1014F0000E94A6050091390310913A0320913B0305
:1015000030913C036C197D098E099F090617170756
:101510002807390708F06FCF809138030E94C60969
:1015200085E010923E031092600310923D03DF911C
:10153000CF911F910F91FF90EF90DF90CF90089582
:101540009D9191938F5F6DCF85EEA9CF80913903E7
:1015500090913A03A0913B03B0913C03892B8A2BD5
:101560008B2B09F4A2CF0E94A6050091390310919C
:101570003A0320913B0330913C036C197D098E099D
:101580009F09061717072807390708F08ECFC4CF21
:1015900080E0C7CF82E0C5CF83E0C3CF0895E0915C
:1015A000DF028091DE02E81730F4F0E0EA58FD4FE8
:1015B000808190E008958FEF9FEF08959091DF0272
:1015C0008091DE022FEF3FEF981748F4E92FF0E00B
:1015D000EA58FD4F208130E09F5F9093DF02C90100
:1015E00008958091DE029091DF02891B990B089586
:1015F000CF92DF92EF92FF920F931F93CF93DF93DF
:101600007C01CB018A0120913D03222389F0EB016B
:101610006B01C40ED51ECC15DD0569F06991D701AB
:10162000ED91FC910190F081E02DC7010995F3CF78
:10163000642F0E948109C801DF91CF911F910F9102
:10164000FF90EF90DF90CF900895CF93DF931F929C
:10165000CDB7DEB7698320913D032223F9F02091B5
:101660006003203258F021E030E0FC013383228314
:1016700090E080E00F90DF91CF91089580913E033C
:10168000E82FF0E0E15CFC4F998190838F5F8093BD
:101690003E038093600381E090E0ECCF61E0CE01F7
:1016A00001960E948109F7CFDF92EF92FF920F938C
:1016B0001F93CF93DF937C01D62E072F142FDC01CD
:1016C0008D919C9121E020933D032CE320935F03B7
:1016D00010923E0310926003DC01ED91FC910190A9
:1016E000F081E02D60E00995CD2DD02F115070F0E4
:1016F000F70180819181FE016491DC01ED91FC9103
:101700000190F081E02D09952196F0CFDF91CF91E6
:101710001F910F91FF90EF90DF900C94E709CF920B
:10172000DF92EF92FF920F931F93CF93DF9320915D
:10173000350430913604409137045091380460E00C
:1017400074E284EF90E00E948F3A20513109410900
:10175000510956954795379527952093B80046E04F
:101760006DE678E083E394E00E94540BD0E0C0E0A3
:10177000FF24F3942CE3E22E8091330490913404FF
:10178000F0923D03E0925F0310923E0310926003DB
:10179000DC01ED91FC910190F081E02D60E4099570
:1017A0008E010B5B1B4F6E01BFE1CB0ED11CC1152F
:1017B000E2E0DE0790F480913304909134042196A6
:1017C000D8016D918D01DC01ED91FC910190F081CA
:1017D000E02D0995CC16DD0651F70E94E709C115E9
:1017E000B2E0DB0748F22091390430913A0440918D
:1017F0003B0450913C0460E074E284EF90E00E946E
:101800008F3A20513109410951095695479537952D
:1018100027952093B800DF91CF911F910F91FF90F2
:10182000EF90DF90CF9008952FB7F8948091BD018D
:101830009091BE01892B61F04091BD015091BE0194
:1018400080E89CE0841B950B9093BC018093BB01C6
:101850002FBF08952FB7F8948091BB019091BC01E0
:101860008057944F9093BC018093BB012FBF089584
:101870000E94970420910503309106032817390729
:1018800071F0AC01421B530B9A0141E3429FC0012E
:10189000439F900D1124893A51E6950710F090E08E
:1018A00080E0089560E084E00C94FA0460E086E053
:1018B0000C94FA042FB7F8946093B7017093B801B1
:1018C0008093B9019093BA012FBF089590910101BF
:1018D00081E020910201291301C080E008959FB7A3
:1018E000F8942091010120930201809301019FBF90
:1018F0000895882331F01092420481E080934304DC
:10190000089581E080934204F9CF24E630E0662315
:1019100011F024EF31E040E45FE1421B530B481724
:10192000590718F0820F931F089580ED97E00895EE
:1019300081E08093970161E085E00E94FA0461E014
:101940008BE00C94FA048F929F92AF92BF92EF9229
:10195000FF920F931F93CF93DF93EC018091BF0110
:101960009091C0017A01E81AF90A8091C70190911B
:10197000C8018A01081B190B4093C7015093C80185
:101980006093C9017093CA0120E4E2162FE1F206C8
:1019900020F04FE3E42E4FE1F42E9E01A4EAB5EBD4
:1019A0000E94D63A6C507E4F8F4F9F4F38EE832E59
:1019B00033E0932EA12CB12CA50194010E948F3A03
:1019C000D8010E94EC3A6C507E4F8F4F9F4FA5017B
:1019D00094010E948F3A8091CF019091D001A09103
:1019E000D101B091D201820F931FA41FB51F809324
:1019F000CF019093D001A093D101B093D2018091F7
:101A0000D3019091D4018C179D0720F4D093D40179
:101A1000C093D301B70190E080E027E0660F771F05
:101A2000881F991F2A95D1F720E43FE140E050E05C
:101A30000E948F3A8091D701821781F12093D701BC
:101A4000D093D901C093D80181E08093DC016091EB
:101A5000DC0170E08091D8019091D9010E94673A31
:101A6000CB017093DB016093DA01F9016AEF843DE9
:101A700020E3920720F462E370E00E94673AE154A9
:101A8000FE4F668FC801DF91CF911F910F91FF909C
:101A9000EF90BF90AF909F908F9008958091D80164
:101AA0009091D901C80FD91FD093D901C093D80103
:101AB0008091DC018F5FC9CF80915D02882349F05E
:101AC00080915E02882329F01092F30288E10C9441
:101AD0006F0C8FE0FCCF80E00C946F0CE091F6026D
:101AE000F0E0EA57FE4F8181803219F481E481836E
:101AF00008959FEB980F993110F48F5FF8CF8A35D6
:101B000011F480E3F4CF90ED980F9930B0F389335E
:101B100011F48DE2ECCF8D3211F48EE2E8CF80E249
:101B2000E6CF0F931F93CF93DF93CDB7DEB72997FF
:101B30000FB6F894DEBF0FBECDBF99E0ECE3F1E045
:101B4000DE01119601900D929A95E1F7FB0199EC57
:101B500091939B01255F3F4FDF0190E29D93A21778
:101B6000B307E1F78E010F5F1F4FAB01475F5F4F78
:101B70009F01D8019D918D01D9019D939D01A417CD
:101B8000B507B9F78F5CDB011A968C931A97809191
:101B9000ED029091EE021C969C938E931B97809180
:101BA00097011D968C938091EF029091F002911114
:101BB00092E02091F802B4E02B9F90011124822B37
:101BC000892BDB011E968C939B01215F3F4F80E0A8
:101BD000919189272E173F07D9F7FB01878729960F
:101BE0000FB6F894DEBF0FBECDBFDF91CF911F912E
:101BF0000F9108956038710508F540325105F0F4F1
:101C0000FA01A3E0F595E795AA95E1F7F695FE2F81
:101C1000EE27F795E795E60FF71FBA01677077276C
:101C200041E050E001C0440F6A95EAF7E80FF91F60
:101C300096892130310519F4492B468B0895232BC1
:101C400019F440954923F9CF4927F7CF2F923F92B6
:101C50004F925F926F927F928F929F92AF92BF92BC
:101C6000CF92DF92EF92FF920F931F93CF93DF9368
:101C70003C014A015901190127E0220E311C93E071
:101C8000359427949A95E1F7EB012801460E571EEB
:101C9000D12CC12C10E000E0F80183E0F595E79528
:101CA0008A95E1F7EC0DFD1DE80DF91DE491C801E1
:101CB0008770992720E830E002C0359527958A95EE
:101CC000E2F7C901F0E0E223F923EF2B49F0970195
:101CD000AE01B801660D771D8FE294E00E94FA0D07
:101CE0000F5F1F4FA016B106B9F6C20CD31C219688
:101CF000C415D50579F6DF91CF911F910F91FF9013
:101D0000EF90DF90CF90BF90AF909F908F907F909B
:101D10006F905F904F903F902F900895AF92BF9239
:101D2000CF92DF92EF92FF920F931F93CF93DF93A7
:101D30006C015B01E9011C161D0664F47A018FEF4A
:101D4000E81AF80A9801B501C6010E94FA0D219718
:101D5000A701F1CFDF91CF911F910F91FF90EF90ED
:101D6000DF90CF90BF90AF9008956F927F928F9247
:101D70009F92AF92BF92CF92DF92EF92FF920F931A
:101D80001F93CF93DF93782E6091DD01CFE16C9F9D
:101D9000B001112490E080E02AEF30E040E050E014
:101DA0000E948F3AC21BF12C8FE1E82E9AEF892E08
:101DB000912CA12CB12C662463948091D7018F15AE
:101DC000C0F1CF2CD12CF601E154FE4F268D30E02E
:101DD000AE2DB0E00E94D63AA50194010E948F3A40
:101DE000DE2DD21B4D2F50E021E030E0B6018FE216
:101DF00094E00E94FA0D7720B1F0FF20A1F04D2F62
:101E0000CD1708F44C2FCD1788F4262D2C1BC22F8C
:101E1000CD0F2C2F30E050E001E010E0B6018FE252
:101E200094E00E948E0EF394CD2FC7CFCF5FCD1BD1
:101E3000F0CFDF91CF911F910F91FF90EF90DF9046
:101E4000CF90BF90AF909F908F907F906F900895AC
:101E50004F925F926F927F928F929F92AF92BF92BA
:101E6000CF92DF92EF92FF920F931F93CF93DF9366
:101E7000EC015B016A01490128013701F12CE12CD9
:101E8000E814F9046CF4B7016A0D7B1D830192011B
:101E9000A601CE010E948E0E8FEFE81AF80AF0CF4D
:101EA000DF91CF911F910F91FF90EF90DF90CF9036
:101EB000BF90AF909F908F907F906F905F904F906A
:101EC00008952F923F924F925F926F927F928F92DE
:101ED0009F92AF92BF92CF92DF92EF92FF920F93B9
:101EE0001F93CF93DF9300D000D0CDB7DEB79C8394
:101EF0008B83DC0152968C91B6E08B9F900111246C
:101F0000EB81FC8195899923D1F046855785420F55
:101F1000531F413851059CF00088F189E02DAB81B9
:101F2000BC811F961C921E921E97B8E08B9FA00149
:101F300011244E0F5F1FEB81FC81518B408BAB81D5
:101F4000BC811E96CD90DC90B0E8CB16D1040CF08D
:101F50008CC0EB81FC81A088B188F0E2AF16B1049F
:101F60000CF083C02C0D3D1D121613060CF07DC025
:101F700028E0829FC00111248A0D9B1D18161906A6
:101F80000CF073C080EE860F803408F095C060526C
:101F9000770B25E0269FC001279F900D1124260175
:101FA000912C812CDC01A65FBA4FBA83A983E98109
:101FB000FA81E80DF91DE491712C612C2E2E312C43
:101FC0008E2F8170E0FF8AC0EB81FC81E388F12CC9
:101FD000811106C0EB81FC8194898389981781F077
:101FE000AB81BC8152962C915297213009F07BC075
:101FF0009701A501460D571DB201CD010E94FA0DB2
:10200000F101F595E795BFEF6B1A7B0AF8E06F16C3
:102010007104A1F62FEF821A920A3FEF431A530A76
:1020200085E08816910409F0C2CFAB81BC8154963B
:10203000EC90549753968C915397E816B1F05296C2
:102040008C91F12C282F30E0890193E0000F111FB3
:102050009A95E1F7B601B5E08B9F600D711D1124D3
:10206000A5018B819C810E94280FEB81FC81228934
:1020700086859785F6E02F9F800D911D1124AB81F9
:10208000BC811F969C938E931E970F900F900F907C
:102090000F90DF91CF911F910F91FF90EF90DF9004
:1020A000CF90BF90AF909F908F907F906F905F90F8
:1020B0004F903F902F90089580E491E0633709F4AA
:1020C0006ECF85E491E0683F09F469CF8AE491E03E
:1020D0006E3709F464CF8BE990E061CFAB81BC81AE
:1020E0005496EC9074CF30E0269DA001279D500DB2
:1020F000369D500D11244A0D5B1D289DB001299D70
:10210000700D389D700D11246C0D7D1D89018B8122
:102110009C810E94280F74CFFC016A3081F41786DD
:102120001686828998E0899F90011124808991897F
:10213000820F931F918B808B81E090E008956D302A
:10214000D9F30E94610FF8CFEF92FF920F931F9384
:10215000EE24E394F12C0CE110E028E130E046EBB2
:1021600054E062E070E090E080E00E94260E0AE019
:1021700010E020E330E04AE754E06BE070E088E2F2
:1021800090E00E94260E0CE110E028E030E04EE5E1
:1021900054E062E070E080E790E00E94260E02E0EA
:1021A00010E028E530E043E050E068E170E08FE2C5
:1021B00094E00E94280F28E530E04BE150E068E110
:1021C00070E08FE294E00E94280F1F910F91FF9022
:1021D000EF900895089590E080E00895BF92CF9227
:1021E000DF92EF92FF920F931F93CF93DF93EC0157
:1021F000B62EC72E8D85811105C0CE010E940E0816
:1022000081110EC01B861D861C8680E0DF91CF9158
:102210001F910F91FF90EF90DF90CF90BF900895A6
:1022200040E060EFCE010E94BB0701E0E12CD12C21
:1022300011E0CE010E946807F82ECE010E946807C7
:1022400091E0F91218C0813099F51134D8F2DB868B
:10225000D11002C081E08D878B81882399F223966B
:10226000EB2DFC2DCF01089629912193E817F90752
:10227000D9F781E0CBCFEE2DF0E0F8120FC08B85BF
:102280001817A0F4DE01AE0FBF1F13968C918023A8
:1022900079F4F12C193008F41C87D12EEC0FFD1FB6
:1022A0008381902F9095892383830AC08113F1CF76
:1022B000FE01EE0DF11D8381802B8383FF24F394B7
:1022C0006F2DCE010E948C071F5F000F11F4E39465
:1022D00001E087E08E1508F0ACCFB7CF61E089E070
:1022E0000E946A0585E090E00E94280561E08AE08E
:1022F0000C94FA0461E089E00E946A058FE090E0A6
:102300000E94280560E08AE00C94FA04E5E4F4E019
:1023100080E092E0DF019C011D9221503040E1F706
:1023200008950E948611EFE2F4E081E0828B838BB6
:10233000848B0895EFEBF1E0608371838283938354
:102340006483758386839783608771878287938789
:102350006487758786879787108A118A128A138AFD
:10236000158A148A178A168A8FEF808F128E118E23
:10237000148E138E158EEDEDF1E080E8DF011D92D5
:102380008A95E9F710925D0240935E020895FB0181
:1023900001900020E9F73197AF01461B570BDC0194
:1023A000ED91FC910280F381E02D09948F929F9230
:1023B000AF92BF92EF92FF920F931F93CF93DF9351
:1023C000CDB7DEB7A1970FB6F894DEBF0FBECDBF75
:1023D0007C01FA01CB0119A2223008F42AE08E0117
:1023E0000F5D1F4F822E912CB12CA12CBF01A50196
:1023F00094010E948F3AF901CA016A300CF5605DC0
:10240000D8016E938D01232B242B252B79F790E097
:1024100080E0109721F0BD01C7010E94C711A1966D
:102420000FB6F894DEBF0FBECDBFDF91CF911F91E5
:102430000F91FF90EF90BF90AF909F908F90089575
:10244000695CDECF462F50E070E060E02AE00C943B
:10245000D611CF92DF92EF92FF920F931F93CF93FB
:10246000DF936B01072E000CEE08FF0877FF1BC0FF
:10247000EC016DE20E940C068C0144275527BA013D
:102480004C195D096E097F092AE0CE010E94D61120
:10249000800F911FDF91CF911F910F91FF90EF90CF
:1024A000DF90CF9008952AE0B701A601DF91CF9188
:1024B0001F910F91FF90EF90DF90CF900C94D61169
:1024C000CF92DF92EF92FF920F931F93CF93AC01C5
:1024D0002AE030E0DC010E94E53A00E410E020E070
:1024E00030E057FF04C000EC1FEF2FEF3FEF600F0D
:1024F000711F821F931F20E830E040E050E00E94EF
:10250000B13A6901890188279927821B930B37FF0C
:10251000C9016AE070E00E947B3AC82F87EFC816B5
:102520008FEFD80628F06DE28FE294E00E94610FF1
:10253000C8016AE070E00E947B3A8FE294E00E945A
:1025400029126EE28FE294E00E94610F6C2F8FE2FD
:1025500094E0CF911F910F91FF90EF90DF90CF907B
:102560000C942212282F80910703882311F1CB01AC
:1025700048E350E050933E0440933D0430E03093F4
:10258000400420933F040E94601268EF8FE294E0C1
:102590000E940C0663E48FE294E00E94610F809138
:1025A0009901882331F061E574E08FE294E00C94A6
:1025B00013060895242FAB0170E060E00C94D6114F
:1025C000CF92DF92EF92FF920F931F93CF93C82F7A
:1025D0006B01F12CE12C08E010E020E830E048E14C
:1025E00050E070E060E08FE294E00E94280F81E00C
:1025F00080934104809342048093430410923E04EC
:1026000010923D04C13009F04BC008E110E0109376
:10261000400400933F04109242046CE676E08FE29F
:1026200094E00E941306C0934204C09343048AE2DC
:1026300090E090933E0480933D04109340040093F7
:102640003F046DE48FE294E00E94610F6091730299
:102650008FE294E00E94221265E28FE294E00E94F1
:10266000610F8EE490E090933E0480933D041093BC
:10267000400400933F0465E48FE294E00E94610F00
:1026800060916D0270916E024AE050E08FE294E03A
:102690000E94DA1265E28FE294E00E94610F29C085
:1026A00088E190E09093400480933F046DE48FE2D2
:1026B00094E00E94610F609173028FE294E00E94A7
:1026C000221268E676E08FE294E00E9413066091A1
:1026D0006D0270916E024AE050E08FE294E00E9439
:1026E000DA12C23079F461E676E08FE294E00E947B
:1026F0001306CF911F910F91FF90EF90DF90CF9035
:102700000C948F0B69E576E08FE294E00E9413064B
:10271000C60168EE73E00E94673A8C014AE050E01F
:102720008FE294E00E94DA126EE28FE294E00E945F
:10273000610FC80164E670E00E94673A4AE050E029
:102740008FE294E00E94DA1263E7A5CF4F925F9286
:102750006F927F92AF92BF92CF92DF92EF92FF92F1
:102760000F931F93CF93DF938FEBC82E81E0D82E6A
:10277000F6012089318942895389A0E5B0E00E94A1
:10278000EC3A6E5C7F4F8F4F9F4F24E630E040E085
:1027900050E00E948F3ACA01B9016C507E4F8F4FB2
:1027A0009F4F28EE33E040E050E00E948F3A29012D
:1027B000CFE2D4E081E08A8B8B8B8C8BF12CE12CE7
:1027C00008E010E02AE230E048E150E06AE270E020
:1027D000CE010E94280F8AE290E09F878E8798E1C1
:1027E000A92EB12CB98AA88A6BE574E0CE010E94AB
:1027F0001306F601838D948D08EE13E0B8010E9454
:10280000673A4AE050E0CE010E94DA126EE2CE0151
:102810000E94610FF601838D948DB8010E94673A82
:1028200064E670E00E94673A4AE050E0CE010E9400
:10283000DA1261E4CE010E94610F08E010E024E2A8
:1028400030E048E150E06CE570E0CE010E94280FD6
:102850008CE590E09F878E87B98AA88A68E574E046
:10286000CE010E9413064AE050E0B201CE01DF9192
:10287000CF911F910F91FF90EF90DF90CF90BF907D
:10288000AF907F906F905F904F900C94DA120E94FF
:1028900086118091D7018F3F19F080E00E94B50E1C
:1028A0000E94A6130C948F0B8F929F92AF92BF92AF
:1028B000CF92DF92EF92FF92CF93DF9328EE33E037
:1028C00040E050E00E948F3A49016B01EB012AE0A1
:1028D000BA01A40181E693E00E94D6116EE281E67E
:1028E00093E00E94D706C436D10560F460E381E628
:1028F00093E00E94D7062A9728F460E381E693E0EC
:102900000E94D7064AE050E0B60181E693E0DF91ED
:10291000CF91FF90EF90DF90CF90BF90AF909F90BE
:102920008F900C94DA120F931F93CF93DF93EC01E7
:102930000E9413068C0165E471E0CE010E94C7116C
:10294000800F911FDF91CF911F910F910895EF920A
:10295000FF920F931F93CF93DF937C018B010E9413
:102960008611CFE2D4E082E08A8B1F861E86198A08
:10297000188AB701CE010E9493141F861E8680E13B
:1029800090E0998B888BB801CE010E949314DF915F
:10299000CF911F910F91FF90EF900C948F0B282FE8
:1029A000862F48E350E050933E0440933D0430E0CE
:1029B0003093400420933F040E94790C809197014A
:1029C00068E474E0813031F06EE374E0823011F03D
:1029D00065E374E08FE294E00E94931481E08093B9
:1029E00042048093430408950E94560C0E94520CA6
:1029F0000E9447140E946E110E94FE0568577C4E8B
:102A00008F4F9F4F0E945A0C63E274E081E693E07F
:102A10000E94931481E10C946F0CCF92DF92EF929D
:102A2000FF920E94FE052091BF013091C001621B00
:102A3000730B61342FE1720708F020C17093D60147
:102A40006093D50181E09091D7019F3F09F480E028
:102A500080935D0210925E0280937502C0906302C3
:102A6000D0906402E0906502F0906602C114D10437
:102A7000E104F104A9F020915F02309160024091DD
:102A8000610250916202A4E6B0E00E94EC3AA70114
:102A900096010E948F3A253631054105510520F0F7
:102AA00024E630E040E050E084E6821B809373022D
:102AB000C0906702D0906802E0906902F0906A02CC
:102AC000C114D104E104F10409F4DFC02091CF0165
:102AD0003091D0014091D1015091D201A4E6B0E0F3
:102AE0000E94EC3AA70196010E948F3AC901DA01CF
:102AF000883E23E09207A105B10520F087EE93E020
:102B0000A0E0B0E090936E0280936D0240916B0262
:102B100050916C024115510509F4BCC02091D301BC
:102B20003091D401A4E6B0E00E94D63A9A0150E078
:102B300040E00E948F3AC901DA01883E23E0920703
:102B4000A105B10520F087EE93E0A0E0B0E09093FE
:102B5000700280936F0265E973E081E693E00E9462
:102B600013066091720270E06F5F7F4F81E693E021
:102B70000E94291269E873E081E693E00E9413063F
:102B80006091730281E693E00E9422126CE773E089
:102B900081E693E00E94130660916D0270916E02CF
:102BA0004AE050E081E693E00E94DA1261E773E0C8
:102BB00081E693E00E94130660916F0270917002AB
:102BC0004AE050E081E693E00E94DA126AED73E099
:102BD00081E693E00E9413066091CF017091D001CD
:102BE0008091D1019091D2010E94541465EC73E060
:102BF00081E693E00E9413062091CF013091D0012D
:102C00004091D1015091D201A0E5B0E00E94EC3A90
:102C10006E5C7F4F8F4F9F4F24E630E040E050E0E6
:102C20000E948F3ACA01B9010E94541464EB73E008
:102C300081E693E00E9413064AE050E060E570E010
:102C400081E693E00E94DA1267E673E081E693E0A2
:102C50000E9413066091D3017091D4014AE050E0C4
:102C600081E693E00E94DA1265E471E081E693E088
:102C7000FF90EF90DF90CF900C94C71180E49FE11C
:102C80009093D6018093D501DDCE20E030E040E086
:102C900050E02CCF20E030E040E050E04CCFCF932C
:102CA000C82F0E94560C0E94520C0E94FE052091D3
:102CB000BF013091C001621B730B61348FE1780753
:102CC00008F078C07093D6016093D50181E09091AF
:102CD000D7019F3F09F480E080935D026DEF73E0C0
:102CE000C11102C06BEE73E081E693E00E9413060F
:102CF0006091D5017091D6014AE050E081E693E001
:102D00000E94DA126AED73E081E693E00E941306F6
:102D10006091CF017091D0018091D1019091D20149
:102D20000E94541465EC73E081E693E00E94130660
:102D30002091CF013091D0014091D1015091D20129
:102D4000A0E5B0E00E94EC3A6E5C7F4F8F4F9F4F42
:102D500024E630E040E050E00E948F3ACA01B90119
:102D60000E94541464EB73E081E693E00E94130622
:102D70004AE050E060E570E081E693E00E94DA12FC
:102D80006AEA73E081E693E00E9413066091D30142
:102D90007091D4014AE050E081E693E00E94DA129B
:102DA00065E471E081E693E00E94C71182E1CF9172
:102DB0000C946F0C80E49FE19093D6018093D50131
:102DC00085CF85ED8093BC008091390390913A03C3
:102DD000A0913B03B0913C030796A11DB11D23E0D8
:102DE000B695A795979587952A95D1F72091BC0020
:102DF00024FD03C010923703089540913903509188
:102E00003A0360913B0370913C03452B462B472BC3
:102E100069F30097A105B10541F02AE22A95F1F77F
:102E200000C00197A109B109E1CF809138030C944A
:102E3000C6091F93CF93DF93EC01162F0E94453AEA
:102E4000181739F0612FCE01DF91CF911F910C94AB
:102E50004D3ADF91CF911F9108958093F00260E089
:102E6000882351F00E94980C1092EF0260E081E0FC
:102E700090E00E94191761E083E090E00C9419172C
:102E80000F931F93CF93DF93072F142F93E0899F06
:102E9000E0011124CE0180569F4F0E941917602F28
:102EA000CE018F559F4F0E941917612FCE018E556D
:102EB0009F4FDF91CF911F910F910C941917CF92D3
:102EC000DF92EF92FF920F931F93CF93DF93CDB7D3
:102ED000DEB760970FB6F894DEBF0FBECDBF082FE8
:102EE00010E00F5F1F4F94E0000F111F9A95E1F75C
:102EF00080E1FB01DE01119601900D928A95E1F7C8
:102F000089EC89836E0182E0C80ED11C9E01205F8E
:102F10003F4FF60180E091918927E217F307D9F737
:102F2000888B60E0C8010E941917EE24E394F12C0D
:102F3000F60161916F01C8018E0D9F1D0E94191746
:102F4000FFEFEF1AFF0A80E1E816F10489F769EC58
:102F5000C80160960FB6F894DEBF0FBECDBFDF91FB
:102F6000CF911F910F91FF90EF90DF90CF900C9435
:102F700019170C94453ACF92DF92EF92FF921F936C
:102F8000CF93DF93883008F05DC098E4899FE0011B
:102F90001124CE0180549F4F0E94B917883D09F03B
:102FA00051C06E0181ECC80ED11C11E0F12CC6019C
:102FB0000E94B917113418F48B3F08F043C0F8266B
:102FC0001F5F9FEFC91AD90A173489F7CE01895FAD
:102FD0009E4F0E94B9178F1135C0CE018F5F9E4F53
:102FE0000E94B917E82ECE018E5F9E4F0E94B9173E
:102FF000F82ECE018D5F9E4F0E94B917C82ECE01CC
:103000008C5F9E4F0E94B917182FCE018B5F9E4F89
:103010000E94B917D82ECE018A5F9E4F0E94B91721
:1030200095EDE91690E3F90668F4312F2C2D203147
:10303000374240F4382F2D2D2150310981E02034C2
:103040003F4108F080E0DF91CF911F91FF90EF901A
:10305000DF90CF900895AF92BF92DF92EF92FF92F0
:103060000F931F93CF93DF938C01FC01E384F484CF
:10307000F092EE02E092ED022685822F90E031E0A0
:10308000422F427021FF30E03093F00220FF02C057
:1030900021E0411120E02093EF02959587959595C9
:1030A00087958370833009F457C08093F802D090DD
:1030B000F402F3E0DF9E50011124C50180569F4FBA
:1030C0000E94B917C82FC5018F559F4F0E94B9178D
:1030D000D82FD093FA02C093F902C5018E559F4FA5
:1030E0000E94B9178093FB029091F8029130B9F5D4
:1030F0002197CF30D742C0F58D2D0E94BB1780930A
:1031000074028111D0927102F80185858093970134
:10311000C70164E670E00E94673A90E080E00E9498
:1031200019176091EF0281E090E00E9419176091F9
:10313000F00283E090E00E9419178091F00288234A
:10314000E9F0DF91CF911F910F91FF90EF90DF9009
:10315000BF90AF900C94980C1092F802A8CF9230C8
:1031600059F68150833640F21092F8021092FA021A
:103170001092F9028AE08093FB02BECF8091970102
:10318000823089F460E085E00E94FA0461E08BE01F
:10319000DF91CF911F910F91FF90EF90DF90BF9043
:1031A000AF900C94FA048111CCCF61E085E00E94CD
:1031B000FA0460E0ECCF70E06F537F4F9B0148E46E
:1031C000849F200D311D1124C9010C94B9178F92D1
:1031D0009F92AF92BF92EF92FF920F931F93CF9364
:1031E000DF93182F0E948611112351F1D0E0C0E027
:1031F0000FE19AEF892E912CA12CB12C2FE1E22E18
:10320000F12C6C2F809172020E94DB18809FC0010C
:103210001124BC0190E080E0A50194010E948F3A46
:10322000A701421B530BBE01660F771F21E030E060
:103230008FE294E00E94FA0D2196C034D10509F77F
:103240008091D7018F3F69F0812FDF91CF911F913E
:103250000F91FF90EF90BF90AF909F908F900C9444
:10326000B50EDF91CF911F910F91FF90EF90BF901E
:10327000AF909F908F900895CF92DF92EF92FF9240
:103280000F931F93CF93DF93883010F080E039C005
:103290008B01C82FD0E0219684E0CC0FDD1F8A95EA
:1032A000E1F76B0120E1C20ED11C7B01C61BD70BDD
:1032B000CE018E0D9F1D0E94453AF70181937F013B
:1032C000EC15FD05A9F7F8018081893CF9F6978591
:1032D00031969801215F3F4F80E041918427E217AA
:1032E000F307D9F79813D2CFF80183859485805DD1
:1032F00097408137974150F681E0F80195859330EA
:1033000028F6DF91CF911F910F91FF90EF90DF9002
:10331000CF9008952F923F924F925F926F927F923B
:103320008F929F92AF92BF92CF92DF92EF92FF92D5
:103330000F931F93CF93DF93CDB7DEB7A7970FB649
:10334000F894DEBF0FBECDBFA89580910101809398
:1033500047060E94FE05609382017093830180936B
:1033600084019093850182E00E94D1047C0181E078
:10337000E114F10409F080E08093810183E00E9470
:10338000D10421E0892B09F020E02093800180E125
:103390000E94D10421E0892B09F020E020937F01D5
:1033A00080910101803109F479C08091010182305E
:1033B00061F48091F802811171C0809174028823B8
:1033C00021F080910403811169C08091070300E816
:1033D00014EE882309F457C0BE016F5F7F4F8CEF56
:1033E00092E00E94D708882351F19A81812C912C78
:1033F000540197FF06C0812C912C38EFA32EBB24DB
:10340000BA944091FC0289814B3309F08AC02D8126
:1034100027FF87C080FF18C08B8100E011E82FEFE5
:103420003FEF80FD30C000E811E82FEF3FEF81FD56
:103430002AC000E012E82FEF3FEF82FD24C000E831
:1034400014EE2FEF3FEF1FC0082F10E030E020E018
:10345000B3E0000F111F221F331FBA95D1F7007E72
:10346000177022273327892F90E0B0E0A0E02BE0EF
:10347000880F991FAA1FBB1F2A95D1F7802B912B6C
:103480008C01082919290E94460829A33AA34BA3B5
:103490005CA36DA310937E0100937D01109107033F
:1034A0001123A9F080917D0190917E019C0121580A
:1034B000344E21153A4510F00C94E93120919901D0
:1034C000222329F08115944114F410929901EF28D8
:1034D00079F48091780181110BC0809101018111F3
:1034E000D4C08091F102843009F079C00E945C0D53
:1034F000809176019091800191115CC1882341F007
:1035000080917501882321F00E947A111092750133
:103510001092710110927201109273011092740155
:1035200071C1092F10E0102F0027110F110F110F7B
:1035300028E0829FB0011124062B172B012E000CCE
:10354000220B330B082919292A293B294832C9F4AF
:10355000803561F4953009F096CF8F818C3009F079
:1035600092CF00E812E82FEF3FEF8DCF8F3F09F0A9
:103570008ACF973009F087CF00E013E82FEF3FEFB5
:1035800082CF403109F07FCF6885662309F47BCF75
:1035900070E08F81AB01481B5109CA019695982FA5
:1035A0008827979587950E947B3ACB01770FAA0BC6
:1035B000BB0BF3E0000F111F221F331FFA95D1F749
:1035C0000078277033270052110921093109800F33
:1035D000911FA21FB31F8401082B192B54CF809178
:1035E0009901811185CF112381F080917D01909106
:1035F0007E0181389B414CF081E0809399011092CB
:10360000980185E00E946F0C73CF8091F8028823A7
:1036100031F080910403811102C08BE1F3CF10924D
:1036200098011092990110929A0110929B011092A8
:103630009C0110929D0110929F0110929E01109288
:10364000A0011092A1011092A2011092A301109268
:10365000A5011092A4011092A6011092A801109247
:10366000A7011092B3011092B4011092B50110920B
:10367000B60180910001882331F087E00E946F0C31
:103680001092000135CF82E0BDCF809101018730DB
:1036900011F480E0B7CF80910101883009F428CF80
:1036A00080910101893009F423CF809101018A3092
:1036B00009F41ECF809101018B3009F419CF80915C
:1036C00001018C3009F414CF809101018D3009F48F
:1036D0000FCF809101018E3009F40ACF8091010152
:1036E000883109F405CF80910101893109F400CFB7
:1036F00080910101833109F4FBCE80910101843175
:1037000009F4F6CE809101018F3009F03EC080911E
:103710000403882309F4ECCE809199018111E8CE4D
:10372000112341F080917D0190917E0181389B4170
:103730000CF0DECE0E94FE056B017C010E9486111A
:1037400041E0C701B6010E949A110E944714C701C7
:10375000B601605C704E8F4F9F4F0E945A0C61E023
:1037600085E00E94FA040E947A1161E084E00E94E0
:10377000FA0461E086E00E94FA0463EC70E081E6FE
:1037800093E00E94931480E13DCF8091010182314A
:1037900009F4AECE80910101853019F410929801A0
:1037A00078CF80910101853009F4A2CE81E0809329
:1037B00077019ECE8111FDC0809101018531F9F024
:1037C000809101018631D9F0809101018731B9F0F2
:1037D000809101018A3199F0809101018B3179F05A
:1037E00080910101811129C08091F10290E0019640
:1037F00067E070E00E947B3A8093F10203C080E0B2
:103800000E946F0C80910101811105C08091F1022D
:10381000882309F406C180910101893109F0F3C0C0
:103820008091EA029091E0029111E8C0813009F0A4
:10383000EAC0E1EEF2E000E0F7C0809101018630DD
:1038400099F280910101883059F48091F20290E060
:10385000019663E070E00E947B3A8093F202D2CF3F
:1038600080910101883149F48091F30290E0019642
:10387000837099278093F302C5CF8091010189312C
:10388000D1F49091EA0281E0890F2091E002213089
:1038900059F09150933010F40C94D031211104C0A0
:1038A000853011F40C94D431893018F48093EA02F5
:1038B000A9CF80E0FBCF80910101893059F480913C
:1038C000F40290E0019669E070E00E947B3A8093F8
:1038D000F40298CF809101018A3059F48091F50269
:1038E00090E0019666E070E00E947B3A8093F502DA
:1038F00089CF809101018B3009F484CF809101013F
:103900008C3059F48091F60290E001966CE070E002
:103910000E947B3A8093F60275CF809101018D3031
:1039200039F48091F70291E089278093F7026ACFFA
:10393000809101018E3009F465CF809101018431BD
:1039400059F480914F0190E0019663E070E00E948D
:103950007B3A80934F0156CF80910101813109F468
:1039600051CF80910101823109F44CCF8091010146
:103970008F3009F447CF80910101803159F40E94C2
:10398000FE056093710170937201809373019093AF
:10399000740138CF8091F002882309F433CF10915D
:1039A0009701113009F02ECF0E946E11109375010E
:1039B00029CF80910101803109F024CFC09071019D
:1039C000D0907201E0907301F0907401C114D104A1
:1039D000E104F10409F416CF0E94FE056C197D097B
:1039E0008E099F096C5271408109910997FD0ACF98
:1039F00081E00E944F160E94F4148ACDE3EEF2E0BB
:103A0000853009F418CF1092700110926E01109257
:103A10006A0110926B0110926C0110926D0110E01E
:103A200009C0EDEEF2E001E010917F01111129C013
:103A300010927001E0910101EC3110F00C94A93169
:103A4000F0E0EB5DF24E0C94D03A9E1DCF2DFF2896
:103A50000C2DE32DE93089319E2E8E1F4320BC2092
:103A60009C21AC2297232824EA2652270F285D2880
:103A7000CC2E5D2FB930C530CE309B242225D730D7
:103A8000E030809170018F5F809370018F30A8F0DB
:103A900080ED97E091838083002319F081E080938B
:103AA0006F011092700110926E0110926A011092D3
:103AB0006B0110926C0110926D018091690181116E
:103AC000AECF0E94FE05AB01BC0180916A019091CE
:103AD0006B01A0916C01B0916D010097A105B1053A
:103AE00039F16A017B01C81AD90AEA0AFB0AD7012F
:103AF000C601885E9340A109B109B7FF19C0809142
:103B00006E018530C8F040936A0150936B01609359
:103B10006C0170936D0111E080916E01853008F4A5
:103B200010E0002309F486CF81E080936F0182CFFB
:103B300081E080936E01E7CF8F5FFBCF8091010121
:103B40000E946F0C80917F018111C3C0E0906701DA
:103B5000F0906801C0907D01D0907E01B090660128
:103B60000E9486111091F10281E0809341048093BC
:103B700042048093430410923E0410923D0410923C
:103B8000400410923F048091F80261ED70E08111D1
:103B900002C065ED70E08FE294E00E9413061111FF
:103BA00005C06EE38FE294E00E94610F82E0809393
:103BB000410410923E0410923D0480E190E0909305
:103BC000400480933F048091ED029091EE0208EE54
:103BD00013E0B8010E94673A4AE050E08FE294E0B7
:103BE0000E94DA126EE28FE294E00E94610F8091EF
:103BF000ED029091EE02B8010E94673A64E670E02F
:103C00000E94673A4AE050E08FE294E00E94DA12A4
:103C100063E78FE294E00E94610F91E0909341048A
:103C20008091F102823008F01CC188E390E090930B
:103C30003E0480933D041092400410923F0464EFD0
:103C400070E0B11002C06CEE70E08FE294E00E9470
:103C5000931461E08091F102813009F060E088E026
:103C60000E94CF1488E390E090933E0480933D043B
:103C700080E190E09093400480933F046AED70E00F
:103C80008FE294E00E94130641E050E0B7018FE21A
:103C900094E00E94DA12B60188E10E94B21201E0BB
:103CA00010E020E230E050E040E066E370E08FE2B8
:103CB00094E00E948E0E0E948F0B0E94520C0E9474
:103CC000560C0E94380C909365018093640180E04B
:103CD00075C280916901811139CF8091F102811102
:103CE0007CC0612F8091ED029091EE020E94850CC4
:103CF0009093EE028093ED0280910101882309F4F4
:103D000025CF8091810180937801809180018093FB
:103D1000760180917F018093690180910101873153
:103D200011F00C94AF3161E087E00E94FA0481E069
:103D300080936601809101018031B1F08091010191
:103D4000823011F00C94C9318091F80281110CC0BD
:103D500080917402882311F40C94C931809104037A
:103D6000882311F40C94C93199E1C92ED12CE12C8E
:103D7000F12C04E610E00E94FE05809082019090F4
:103D80008301A0908401B09085018C0C9D1CAE1C19
:103D9000BF1C681979098A099B0997FD02C00C9418
:103DA0000A320E94FE057F73882799276F3F7F4361
:103DB0008105910501F780916F018823E1F28091DF
:103DC000ED029091EE02B8010E94673A90E080E027
:103DD0000E94191710926F01CECF813021F580918A
:103DE000F002882319F080E00E942D17809197013E
:103DF000811103C00E94980C7FCF813061F482E072
:103E00008093970160E085E00E94FA0461E08BE016
:103E10000E94FA0471CF1092970161E085E00E9440
:103E2000FA0460E0F4CF843019F40E945C0D64CF92
:103E3000823031F41092F20288E00E946F0C5CCF65
:103E4000833021F41092F40289E0F7CF853021F419
:103E500010924F0184E1F1CF863009F04DCF83E11C
:103E6000ECCF99249A94980E10E000E058E3A52E28
:103E7000B12C892E881A21E0921210C060E0802FA8
:103E80000E94CF149394085F1F4F0032110599F7D9
:103E900081E0809342048093430401CF32E0931287
:103EA00016C0B0923E04A0923D04109340040093CB
:103EB0003F046AED70E08FE294E00E94130641E057
:103EC00050E0B7018FE294E00E94DA12DBCF43E0CA
:103ED000941205C0B601802F0E94B212D3CFB092C7
:103EE0003E04A0923D041093400400933F0481E0FF
:103EF000982D990D933009F080E00E94790C892D5E
:103F00008450990BFC01EE0FFF1FEE51FF4F65919E
:103F100074918FE294E00E941306B4CF8091010166
:103F20000E946F0C80917F0181117FC00E949111CE
:103F300010923E0410923D041092400410923F04EF
:103F400063E171E08FE294E00E94130610923E0458
:103F500010923D0488E090E09093400480933F04E9
:103F600081E09091F202911180E00E94790C69E069
:103F700071E08FE294E00E9413068091EF026BEFF4
:103F800070E0882311F06FEF70E08FE294E00E9400
:103F9000130681E0809342048093430410923E0410
:103FA00010923D0480E190E09093400480933F04A0
:103FB00081E09091F202913009F080E00E94790C4A
:103FC00062E071E08FE294E00E9413068091F002BB
:103FD0006FEF70E0811102C06BEF70E08FE294E050
:103FE0000E94130681E08093420480934304109260
:103FF0003E0410923D0488E190E090934004809349
:104000003F0481E09091F202923009F080E00E943A
:10401000790C6CE676E08FE294E00E94130681E072
:10402000809342048093430494C08091690181117C
:104030007DCF8091F20281111BC08091EF0291E04F
:1040400089278093EF02882339F01092F00260E014
:1040500083E090E00E9419176091EF0281E090E008
:104060000E94191780910101883009F04ACE5ECF75
:10407000813031F49091F00289270E942D17F2CF00
:104080000E946B0DEFCF809101010E946F0C809117
:104090007F01882379F08091690181110BC08091A3
:1040A000F402883018F00E946B0D2BCE1092F502AE
:1040B0008AE084C00E94911110923E0410923D0447
:1040C0001092400410923F048091F40263E871E082
:1040D000883030F08FE294E00E9413060C944C2F4D
:1040E0008FE294E00E94130610923E0410923D0469
:1040F00088E090E09093400480933F04BE016F5F9E
:104100007F4F8091F4020E943C19882329F14AE0F4
:1041100050E0BE016E5F7F4F8FE294E00E94370651
:1041200010923E0410923D0488E190E09093400488
:1041300080933F041092420411E0109343046CE119
:1041400071E08FE294E00E941306109342041093F2
:1041500043040E948F0BD5CD63E271E08FE294E0BF
:104160000E9413066091F40270E06F5F7F4F8FE250
:1041700094E00E942912D4CF809101010E946F0C1B
:1041800080917F011091F502882309F488C0809105
:104190006901811184C0111116C0BE016F5E7F4F8D
:1041A0008091F4020E943C19882359F0CE01419677
:1041B0000E942B1881E0809396018EE00E946F0C84
:1041C000A0CD83E0F8CF143059F48091F4020E941E
:1041D000BB17882311F08BE0F1CF10939601EDCF40
:1041E000113009F049C0BE016F5E7F4F8091F4022B
:1041F0000E943C19082F1091F402BE016F5F7F4F9F
:10420000812F0E943C19811106C0BE016F5F7F4F54
:10421000812F0E94910D8091ED029091EE029D8779
:104220008C87809197018E878091EF029091F002A8
:10423000992301F192E02091F802A4E02A9F9001D5
:104240001124822B892B8F87BE016F5F7F4F812FB7
:104250000E945F176091F9027091FA024091FB028F
:10426000812F0E94401701112FC28091F4020E94F9
:10427000AE3547CD90E0DFCF1230B9F3133009F0FF
:104280001DC3BE016F5E7F4F8091F4020E943C19F6
:10429000882309F436CD1092F7028DE08FCF1F5F8F
:1042A000133008F413E03DEFE32EE10E0E9491116C
:1042B00010E000E0DD24D39410923E0410923D04FF
:1042C0001093400400933F04E1101BC060E58FE2AF
:1042D00094E00E94610F6091F40270E06F5F7F4F85
:1042E0008FE294E00E94291268E371E08FE294E08B
:1042F0000E941306085F1F4FE39400321105E1F698
:1043000028CFFF24FA94FE0C81E09091F5029F11D2
:1043100080E00E94790CEF2DF0E0EE0FFF1FE45DCE
:10432000FE4F659174918FE294E00E941306D09243
:104330004204D0924304DECF809101010E946F0CB1
:1043400080917F01882329F080916901882309F4F5
:10435000AFCE0091F40280915D02882389F08091B4
:104360005E0281110DC080917202081309C081E0C4
:104370000E94E71870E060E081E00E94E012C1CC8A
:10438000B8E40B9F80011124C8018F5F9E4F0E94EB
:10439000B917882EC8018E5F9E4F0E94B917982EBC
:1043A000C8018D5F9E4F0E94B917A82EC8018C5F6F
:1043B0009E4F0E94B917B82E0E94861160E080912E
:1043C000F4020E94DB181FE1819FC0011124BC018F
:1043D00090E080E02AEF30E040E050E00E948F3A29
:1043E000121BD12CC12CE12C8FE1782E9AEF292EB3
:1043F000312C412C512C662463946E2D8091F40253
:104400000E94DB18879DC0011124BC0190E080E070
:10441000A20191010E948F3AF72CF21A4F2D1F151D
:1044200008F4412F1F1508F094C0262D211B122FD0
:104430001F0D212F30E050E001E010E0B6018FE2C7
:1044400094E00E948E0E4F2D50E0B6016F5F7F4FBB
:1044500021E030E08FE294E00E94FA0DE394E2E084
:10446000CE0ED11C1F2DF0E4EF12C7CFF12CE12CA2
:1044700008E010E020E830E048E150E070E060E063
:104480008FE294E00E94280F11E0109341041092F3
:104490003E0410923D0408E1E02EF12CF09240041D
:1044A000E0923F0410924204109343046CE676E0DD
:1044B0008FE294E00E941306109342041093430489
:1044C0008AE290E090933E0480933D04F092400491
:1044D000E0923F0464E471E08FE294E00E941306EE
:1044E000C40168EE73E00E94673A8C014AE050E034
:1044F0008FE294E00E94DA126EE28FE294E00E9472
:10450000610FC80164E670E00E94673A4AE050E03B
:104510008FE294E00E94DA1261E48FE294E00E945C
:10452000610F84E590E090933E0480933D04F09207
:104530004004E0923F0461E471E08FE294E00E9465
:1045400013064AE050E0B5018FE294E00E94DA12CF
:1045500000CE1F5F1F196DCF809101010E946F0C6B
:1045600080917F01882311F40C94D7318091F60259
:10457000909169019111B2C08A3008F07CC00E940C
:104580006E0D0E94FE05609360017093610180933F
:1045900062019093630168517C4F8F4F9F4F6093EE
:1045A0005C0170935D0180935E0190935F010E94B6
:1045B000861181E08093410410923E0410923D04E4
:1045C0001092400410923F0467E471E08FE294E09F
:1045D0000E9413066091F40270E06F5F7F4F8FE2DC
:1045E00094E00E94291210923E0410923D048AE049
:1045F00090E09093400480933F044AE050E067E8E5
:1046000071E08FE294E00E9437068091F60256E056
:10461000859F9001112430933E0420933D0422E1B4
:1046200030E03093400420933F048A3028F46EE554
:104630008FE294E00E94610F10923E0410923D04BC
:1046400088E190E09093400480933F0481E0909152
:10465000F6029A3009F080E00E94790C8091F6020F
:104660006CEA71E08B3009F0D6CC1092420481E004
:1046700080934304CECC9091EC028A3051F5911195
:104680001DC08091ED029091EE0290939201809373
:10469000910180919701809393018091EF02909115
:1046A000F0029923A1F092E02091F80244E0249FC7
:1046B00090011124822B892B8093940166E871E08C
:1046C0008091F4020E945F171092960176CD90E0DF
:1046D000EBCF992309F4ECCC89E170CD8A3008F056
:1046E00066CF8091600190916101A0916201B091CB
:1046F0006301892B8A2B8B2B09F459CF0E94FE056D
:1047000000915C0110915D0120915E0130915F018B
:10471000601B710B820B930B97FD49CF0E946E0DAE
:104720000E94FE056A567F4F8F4F9F4F38CF809172
:1047300001010E946F0C80917F01882309F442C01F
:104740008091690181113EC08091F702882309F4AC
:10475000AFCC1091F402812F90E0019660E0B4E0BC
:10476000880F991FBA95E1F70E941917A3E01A9FC5
:10477000C00111246FEF80569F4F0E941917B8E4B3
:104780001B9FC001112460E080549F4F0E941917A5
:1047900080917402882331F080917102181302C055
:1047A0001092740280915D02882351F080915E0224
:1047B000811106C080917202181302C010925D022E
:1047C00082E0F9CC0E94861111E01093410410920E
:1047D0003E0410923D041092400410923F0467E59D
:1047E00071E08FE294E00E9413066091F40270E0A1
:1047F0006F5F7F4F8FE294E00E94291210923E0477
:1048000010923D048CE090E09093400480933F042C
:104810008091F7020E94790C6EE471E08FE294E0DF
:104820000E941306109342041093430410923E0416
:1048300010923D0488E190E09093400480933F04FF
:104840008091F70281270E94790C6CE676E079CCA2
:104850000E94660C882341F00E94FE0568517C4F3F
:104860008F4F9F4F0E945A0C809101010E946F0C44
:104870000E94FE050091B7011091B8012091B90185
:104880003091BA01601B710B820B930B97FD18C01E
:104890008091EC02882341F01092EC021092F30216
:1048A00084E08093F50204CC80919601813019F464
:1048B0001092F102F8CB843009F4FACB89E07ECC77
:1048C0000E94911110923E0410923D0410924004F7
:1048D00010923F0463E871E08FE294E00E941306B7
:1048E00082E08093410410923E0410923D048CE0DB
:1048F00090E09093400480933F048091960164E798
:1049000071E0823081F038F46CE771E0813059F069
:1049100060E671E008C06EE671E0833021F066E683
:1049200071E08430A9F78FE294E00E94130681E0E1
:10493000809341040ECC809101010E946F0C809104
:104940007F011091F3028823D1F1809169018111D7
:1049500036C0111102C08FE031CC113061F480916A
:104960005D028823C1F380915E028823A1F30E9437
:10497000471482E123CC123009F095CB1092E0026B
:104980008091ED029091EE029093E2028093E10219
:1049900080E49FE19093E4028093E302E5EEF2E08D
:1049A00084E0DF011D928A95E9F78AE08093E902AD
:1049B0001092EA021092EB021092EC028DCE1F5F71
:1049C000133008F413E00E9491111450F12CE12CE3
:1049D000DD24D39410923E0410923D04F0924004E2
:1049E000E0923F0401E0010F79F464EA71E08FE2A4
:1049F00094E00E941306B8E0EB0EF11C102FE0E2E9
:104A0000EE16F10439F7A5CB81E09091F3029113F2
:104A100080E00E94790C6EE971E0112351F065E9A4
:104A200071E0113031F06CE871E0123011F06CE699
:104A300076E08FE294E00E941306D0924204D09276
:104A40004304D9CF809101010E946F0C80917F01B6
:104A5000811157C01091E0028091EA02882341F051
:104A6000853008F4D0C093E0111101C094E0891B97
:104A7000833008F483E00DEF080F0E94911185E068
:104A8000111101C086E0F12CE12CEEEF5E2E580EE4
:104A9000F8EECF2EF3E0DF2EA4E6AA2EB12C4424AC
:104AA000439410E0002329F0152D100F013009F474
:104AB00011E010923E0410923D04F0924004E09206
:104AC0003F041111A2C081E09091EA02911180E0AF
:104AD0000E94790C6AEF71E08FE294E00E94130665
:104AE0008091E00265EF71E0882331F06EEE71E0B5
:104AF000813011F064EE71E08FE294E00E941306C1
:104B0000B0C0809169018111A5CFE091EA02E11165
:104B100010C08091E00290E0019663E070E00E9496
:104B20007B3A8093E00280910101893109F0E9C864
:104B300091CF8FEF8E0F843040F58091E00281306D
:104B400061F4E150FF0BE052FD4F8581893018F48C
:104B50008F5F8583E8CF80E0FCCF81110CC0612F8F
:104B60008091E1029091E2020E94850C9093E20212
:104B70008093E102D8CF8091E902833620F48F5FE1
:104B80008093E902D0CF81E0FBCFE53061F4612F63
:104B90008091E3029091E4020E94850C9093E402DC
:104BA0008093E302C0CFE63049F48091EB0290E0BD
:104BB0000196877099278093EB02B5CFE730E1F437
:104BC0008091E002813099F48091E50281110FC05B
:104BD0008091E60281110BC08091E702811107C02C
:104BE0008091E802811103C081E08093E802809106
:104BF000EB020E94733497CF82E08093F30288E146
:104C00000E946F0C90CF81E033CF113009F07FC04C
:104C10008091E002813099F56FED71E08FE294E0D0
:104C20000E94130665EE862E62E0962E662463943B
:104C3000712C9091EA0281E09615170409F080E04A
:104C40000E94790CD4016D914D01605D8FE294E07A
:104C50000E948C10BFEF6B1A7B0AE5E06E167104A0
:104C600041F740924204409243040F5FF8E0EF0E98
:104C7000F11C20E2E216F10409F013CF6ACA81E0C8
:104C80009091EA02913009F080E00E94790C8091C5
:104C9000E00281112AC068ED71E08FE294E00E9489
:104CA00013068091E1029091E202B6010E94673AF8
:104CB0004AE050E08FE294E00E94DA126EE28FE266
:104CC00094E00E94610F8091E1029091E202B601AE
:104CD0000E94673AB5010E94673A4AE050E08FE2CD
:104CE00094E00E94DA1263E70DC061ED71E08FE29B
:104CF00094E00E9413066091E9028FE294E00E9422
:104D0000221265E28FE294E00E94610FAACF909197
:104D1000EA0281E0153011F5953009F080E00E943B
:104D2000790C66EC71E08FE294E00E9413068091AA
:104D3000E3029091E402B6010E94673A4AE050E033
:104D40008FE294E00E94DA126EE28FE294E00E9419
:104D5000610F8091E3029091E402B9CF163071F5B2
:104D6000963009F080E00E94790C6CEB71E08FE2E4
:104D700094E00E941306BE016F5F7F4F8091EB02AB
:104D80000E943C19882351F04AE050E0BE016E5F5A
:104D90007F4F8FE294E00E94370663CF63EB71E0B0
:104DA0008FE294E00E9413066091EB0270E06F5F67
:104DB0007F4F8FE294E00E94291253CF191380E0B5
:104DC0000E94790C6CEA71E0173009F495CE6CE61C
:104DD00076E092CE809101010E946F0C80917F015C
:104DE000882391F08091690181110EC080915D024C
:104DF000882311F40C94671E80915E02882311F4BD
:104E00000C94671E88E1DAC90E94861182E08093C3
:104E1000410410923E0410923D04109240041092FE
:104E20003F046BE272E08FE294E00E94931481E011
:104E30008093410410923E0410923D0481E190E081
:104E40009093400480933F04809104038823B9F039
:104E500061E272E08FE294E00E94931410923E04AB
:104E600010923D0489E190E09093400480933F04C8
:104E700065E172E08FE294E00E9413066AC96AE07D
:104E800072E08FE294E00E94931410923E0410921C
:104E90003D0489E190E09093400480933F0461E0F9
:104EA00072E0E8CF0E94FE054B015C018091010198
:104EB0000E946F0C8091C3019091C401A091C50123
:104EC000B091C60175016401C81AD90AEA0AFB0A41
:104ED000D701C601B7FD5CC0D501C4014996A11D2B
:104EE000B11D8093C3019093C401A093C501B093F9
:104EF000C6018091BF019091C0018401081B190B6C
:104F00000E94380C7C01B501A4010E94A30C60E44E
:104F100072E081E693E00E941306B80100341F415D
:104F200010F06FE37FE14AE050E081E693E00E94F9
:104F3000DA1263E372E081E693E00E9413064AE02E
:104F400050E0B70181E693E00E94DA126AED73E067
:104F500081E693E00E9413066091CF017091D00129
:104F60008091D1019091D2010E94541465E471E0C6
:104F700081E693E00E94C7113CE0E31630E3F306BC
:104F800038F00E94560C0E94520C85E10E946F0C72
:104F900080910101803111F00C94811E8091BF013C
:104FA0009091C001A091C101B091C201750164014D
:104FB000C81AD90AEA0AFB0AD701C60180549F41E0
:104FC000A109B109B7FD07C080E00E944F160E94F9
:104FD000F4140C94811E8091CB019091CC01A0918E
:104FE000CD01B091CE01A5019401281B390B4A0BCC
:104FF0005B0BDA01C90184569109A109B109B7FF18
:1050000002C00C94811E0E9447148092CB019092A2
:10501000CC01A092CD01B092CE010C94811E0E94D1
:10502000FE056B017C018090B7019090B801A090C3
:10503000B901B090BA01809101010E946F0CD701B3
:10504000C60188199909AA09BB09B7FD03C00E94C6
:105050007A118FCCC818D908EA08FB0830EAC30EC9
:105060003FE0D31EE11CF11CF7FE23C0DD24D394E6
:10507000D0924104F12CE12C08E010E020E830E06F
:1050800048E150E070E060E08FE294E00E94280F79
:1050900010923E0410923D0488E190E09093400409
:1050A00080933F04D0924204D09243046CE572E0B6
:1050B000E1CE0E9447140C94811E809101010E9450
:1050C0006F0C80917F01882341F0809169018111EB
:1050D00004C081E08093F30295CEDD24D394D09276
:1050E0004104F12CE12C08E010E020E830E048E138
:1050F00050E070E060E08FE294E00E94280F109290
:105100003E0410923D0408E110E010934004009327
:105110003F0410924204D09243046CE676E08FE2A2
:1051200094E00E941306D0924204D092430468E5B2
:1051300072E08FE294E00E9413068091D301909177
:10514000D40158EEE52E53E0F52EB7010E94673AE0
:105150004AE050E08FE294E00E94DA126EE28FE2C1
:1051600094E00E94610F8091D3019091D401B70126
:105170000E94673A64E670E00E94673A4AE050E0B5
:105180008FE294E00E94DA1261E48FE294E00E94E0
:10519000610F8CE590E090933E0480933D04109362
:1051A000400400933F0465E572E08FE294E00E94C2
:1051B00013062091CF013091D0014091D10150913F
:1051C000D201A0E5B0E00E94EC3A6E5C7F4F8F4FB9
:1051D0009F4F24E630E040E050E00E948F3ACA0141
:1051E000B9016C507E4F8F4F9F4F28EE33E040E067
:1051F00050E00E948F3AB9014AE050E0A5C90E94F0
:10520000FE056B017C010E94660C3090040388232C
:1052100009F48FC00E94FE052091ED023091EE024C
:10522000620F731F811D911D0E945A0C10929A01EA
:1052300010929B0110929C0110929D0110929F016F
:1052400010929E011092A0011092A1011092A20151
:105250001092A3011092A5011092A4011092510185
:10526000109252011092530110925401C0925501B4
:10527000D0925601E0925701F092580110925A01D3
:105280001092590110925B01109275028091740284
:10529000882389F1332079F140E0C701B6010E94EB
:1052A0009A1110925F0210926002109261021092A5
:1052B00062021092630210926402109265021092D0
:1052C00066021092670210926802109269021092B0
:1052D0006A0210926C0210926B0210926E0210928F
:1052E0006D021092700210926F0210927302809100
:1052F0007102809372021092500161E084E00E947A
:10530000FA0461E086E00E94FA040E94FE05605201
:105310007C468B4F9F4F6093790170937A01809305
:105320007B0190937C0180919701823011F40E945F
:105330002A0C809101010E946F0C311002C010E014
:1053400087C10E94380C8C019093650180936401A1
:105350002C01712C612C8091A0019091A101A09150
:10536000A201B091A301840D951DA61DB71D8093C8
:10537000A0019093A101A093A201B093A3018091F9
:10538000A4019091A50101969093A5018093A40199
:105390008091F802813009F044C0809155019091CC
:1053A0005601A601481B590B5FA34EA3C09255019D
:1053B000D0925601E0925701F09258019801A4EA68
:1053C000B5EB0E94D63A6C507E4F8F4F9F4F48EE00
:1053D000842E43E0942EA12CB12CA50194010E94AF
:1053E0008F3AAEA1BFA10E94EC3A6C507E4F8F4F16
:1053F0009F4FA50194010E948F3A80915101909195
:105400005201A0915301B0915401820F931FA41F28
:10541000B51F8093510190935201A0935301B09313
:1054200054010C3050E3150738F00E94560C0E94CE
:10543000520C85E10C94DE2080919A0190919B01A1
:10544000A0919C01B0919D01840D951DA61DB71DD5
:1054500080939A0190939B01A0939C01B0939D012E
:1054600080919E0190919F01019690939F0180935E
:105470009E0180917402882309F4B0C0B701A6018F
:10548000C8010E94A30C4C018091BF019091C00102
:10549000B601681B790B60348FE1780710F06FE379
:1054A0007FE190E080E036E0660F771F881F991F4C
:1054B0003A95D1F720E43FE140E050E00E948F3A76
:1054C000622F809171020E94DB18482F8091DA01CF
:1054D0009091DB016AEF843DA0E39A0720F462E338
:1054E00070E00E94673A461708F012C1641BE2E3BD
:1054F0004E9F50011124262F30E0D4010E94D63A4D
:1055000040905F0250906002609061027090620271
:10551000DC01CB01840D951DA61DB71D80935F0294
:1055200090936002A0936102B0936202242F30E056
:10553000D4010E94D63A4090630250906402609079
:10554000650270906602DC01CB01840D951DA61DDD
:10555000B71D8093630290936402A0936502B09399
:1055600066029501A4EAB5EB0E94D63A6C507E4FD4
:105570008F4F9F4F28EE422E23E0522E612C712C2C
:10558000A30192010E948F3AD4010E94EC3A6C5020
:105590007E4F8F4F9F4FA30192010E948F3A8091BF
:1055A000670290916802A0916902B0916A02820F2D
:1055B000931FA41FB51F8093670290936802A09366
:1055C0006902B0936A0280916B0290916C028A1515
:1055D0009B0520F4B0926C02A0926B028091F802BD
:1055E000882309F4ACCE2091590130915A0120173B
:1055F000310720F410935A0100935901813009F0CA
:105600008BC02091F9023091FA02A8EEB3E00E941B
:10561000D63A4B015C0120915101309152014091E9
:10562000530150915401A0E5B0E00E94EC3A6E5C49
:105630007F4F8F4F9F4F24E630E040E050E00E94C4
:105640008F3A11E0281539054A055B0508F477CE35
:105650004091B7015091B8016091B9017091BA01C0
:1056600046015701841A950AA60AB70A8091F802E2
:1056700081110DC0D501C40180959095A095B0957C
:105680008827B7FD83959927AA27BB27182F1111C3
:1056900002C0B7FC1BC10E94560C8091F8028823FF
:1056A00049F0111107C081E0809350018093770188
:1056B00010929801332009F487C02091A401309101
:1056C000A5012115310509F46FC08091A601882339
:1056D00009F46AC050E040E06091A0017091A1011E
:1056E0008091A2019091A3010E948F3A2536310545
:1056F00008F05AC01092EF0260E081E090E00E9452
:105700001917109298010E94520C86E10C94DE2029
:10571000B42FB61B6B2FEBCE4091B7015091B8015F
:105720006091B9017091BA018091ED029091EE0201
:10573000B0E0A0E0841B950BA60BB70B805D9740F3
:10574000A109B1098C0D9D1DAE1DBF1DB7FDF7CD83
:105750004091590150915A014536510508F4EFCD59
:105760009801A4E6B0E00E94D63A4B015C0180911A
:10577000FB02A81BB1099A010E94E53A6815790558
:105780008A059B0570F080915B01833018F48F5F70
:1057900080935B0111E080915B01833008F058CF6A
:1057A000CECD10925B01F6CF20919E0130919F01EA
:1057B0002115310549F08091B301811118C081E0B4
:1057C0008093B3011092B60180917402882329F06E
:1057D0008091040381110E940D158091A6018F5FB5
:1057E0008093A6010E946E1183E00C94DE2050E0AD
:1057F00040E060919A0170919B0180919C01909191
:105800009D010E948F3A69018091B401853010F5A5
:10581000E82FF0E0EE0FFF1FE856FE4F328B218B92
:105820008F5F8093B40165E00E945B3A9093B5016D
:105830002091B401E9EAF1E030E060E070E0CB01F2
:105840002317D1F141915191640F751F811D911D55
:105850003F5FF6CFA4E6B0E0442755270E94EC3A1C
:105860004B015C012091A7013091A801A5E5B0E0B2
:105870000E94D63A86169706A806B90648F4809183
:10588000B6018F5F8093B601882309F49DCF39CF8D
:105890001092B6018091B50190E0FC01EE0FFF1F60
:1058A000E856FE4FD28AC18A019665E070E00E94F8
:1058B0007B3A8093B501BCCF30E050E040E00E94DD
:1058C0008F3A3093A8012093A7017ECF8091740274
:1058D000882359F1332049F18091CB019091CC017B
:1058E000A091CD01B091CE01A7019601281B390BE3
:1058F0004A0B5B0BDA01C90184569109A109B10970
:10590000B7FF02C00C94811E81E00E94E7180E943C
:10591000A6130E948F0BC092CB01D092CC01E092D3
:10592000CD01F092CE010C94811EDB01CA018C19CD
:105930009D09AE09BF096C017D010E94861182E0BC
:105940008093410410923E0410923D041092400452
:1059500010923F046DE573E08FE294E00E9493148F
:1059600080910403882359F180916401909165012D
:1059700008EE13E0B8010E94673A4AE050E08FE277
:1059800094E00E94DA126EE28FE294E00E94610FCE
:105990008091640190916501B8010E94673A64E6C4
:1059A00070E00E94673A4AE050E08FE294E00E9483
:1059B000DA1269E573E08FE294E00E941306C701F2
:1059C000B60128EE33E040E050E00E948F3A4901F2
:1059D0006B017C012AE0BA01A4018FE294E00E94ED
:1059E000D6116EE28FE294E00E94610FC701B6010A
:1059F00024E630E040E050E00E948F3ABA01A9016D
:105A00002AE08FE294E00E94D61163E78FE294E0EF
:105A10000E94610F0C94A9200E94660C882399F0C3
:105A20002FB7F8948091BB019091BC012FBF892BB7
:105A300011F00C94811E0E94FE056C507E4F8F4F1A
:105A40009F4F0E945A0C809101010E946F0C0E948E
:105A5000FE050091B7011091B8012091B901309174
:105A6000BA01601B710B820B930B97FF3CC08091B6
:105A70007502882341F081E00E94E71870E060E041
:105A800082E00C94BD210E94861182E08093410443
:105A900010923E0410923D041092400410923F0474
:105AA00060E573E08FE294E00E9493148091070315
:105AB000882311F40C94A92010923E0410923D0406
:105AC00080E190E09093400480933F0480917D01B9
:105AD00090917E010E94601268EF8FE294E00E9434
