:100000000C945E040C9495040C9495040C94950443
:100010000C9495040C9495040C9495040C94613301
:100020000C9495040C9495040C9495040C949504EC
:100030000C9495040C9495040C9495040C949504DC
:100040000C94A0310C9495040C9410320C94EA3169
:100050000C9495040C9495040C9495040C949504BC
:100060000C9442320C949504444941474E4F5354EA
:100070004943533E00494E464F203E00414E414CBD
:10008000595345203E0050524F46494C4553203E5F
:100090000053455454494E4753203E005045524664
:1000A0004F524D414E4345203E0044454C4554453A
:1000B000203E0052454E414D45203E004C4F4144AC
:1000C000203E00414E414C5953452C53544152540B
:1000D000004D41580054494D450043415345533A62
:1000E0002000910086007C007500680046414E208B
:1000F0004F46460046414E204F4E004F4646004F69
:100100004E0044554D503A200052455354415254EC
:100110003A200053455454494E4753004F50454EE2
:10012000203E0050524F46494C452000BC00AC01D7
:10013000B300AA009C006C0620414354494F4E5323
:10014000007E4A00413A004E414D45205000444552
:100150004C455445203E0044454C455445205000F4
:100160005341564544004E4F204441544100454DB3
:100170005054590044454C45544544004C4F41446B
:1001800045440050524F46494C455300434F4E465C
:100190004947203E00524556494557203E004E45AE
:1001A00057203E00414E414C59534500534156455E
:1001B000203E0050524F46494C45200050524F4679
:1001C000494C453A20004D41582054494D453A206C
:1001D0000044524F503A200054494D453A20007E89
:1001E0004A3A20005045414B2044524F5000454E62
:1001F000455247590054494D4500545950453A20FD
:1002000000524551554952454400435552205345EB
:100210004E534F5200505245535320535441525461
:10022000004C4F4144204341534500414E414C59FD
:100230005345002C63757272656E745F6D613D008D
:10024000414E414C5953452C53414D504C452C7413
:100250005F6D733D007E4A0020413A0044554D5089
:10026000494E472E2E2E005253543A0020435552E9
:100270003A0054454D503A00444941474E4F53547B
:1002800049435300342E322E300046573A20003571
:10029000563A20002D2D00424153453A200025209A
:1002A0004E004C4F573A2000494E464F004155549E
:1002B0004F204F4646004155544F204F4E00434F6C
:1002C0004F4C444F574E00524551554952454400FA
:1002D0004355522053454E534F520054494D454FBC
:1002E00055540054415247455400434845434B2020
:1002F00054454D500054454D50204552524F5200E8
:1003000043555252454E54204C4F210043484543DB
:100310004B204341534500434845434B20434F49FD
:100320004C0021204641554C542021004845494766
:100330004854204F4B3F00434153450020262000A6
:1003400054494D45004341534553004C4F414400EF
:1003500044524F5050494E470041202000414E4EDC
:1003600045414C494E47002C7065616B5F6D613DA6
:10037000002C7065616B5F7063743D002C656E6569
:100380007267795F7063743D002C6D617463685FA0
:100390007063743D0050524F46494C452C524553B2
:1003A000554C542C736C6F743D002C7065616B5F01
:1003B0006D613D002C656666696369656E63795F92
:1003C0007063743D002C657374696D617465645F5E
:1003D000656E657267795F4A3D002C696E70757451
:1003E0005F656E657267795F4A3D00414E414C59C9
:1003F00053452C454E442C745F6D733D00414E4176
:100400004C5953452C41424F52542C726561736FC5
:100410006E3D555345522041424F52542C745F6DEE
:10042000733D00414E414C5953452C474154455F63
:100430004F50454E004F4E452053484F54004155B4
:10044000544F204645454400465245452052554E9E
:100450000020434F4F4C21007E4A00413A000E9E3F
:10046000FEFEDEDEDEDEDEDEDEDEDEDEDEDEDEDE6C
:10047000DEDEDEDEDEDEFEFE9E0E01C33F30C78026
:1004800001E33F30CFC001E30330CC4001B306307D
:10049000CC0001B30C3FCF80019B1C3FC3C0018B3C
:1004A0001830C0C0018F3030C8C001873F30CFC086
:1004B00001873F30CF8000000000000700000F00E0
:1004C000003C0000700000E000FFC001FF00018060
:1004D0000001800001800001800001800001800097
:1004E0000180000180000180000180000180000186
:1004F000800001FF0000FFC00000E000007000006D
:100500003C00000F00000700000000000000000099
:10051000005F00000007000700147F147F14242AE6
:100520007F2A1223130864623649562050000807B8
:100530000300001C2241000041221C002A1C7F1CD9
:100540002A08083E080800807030000808080808DB
:10055000000060600020100804023E5149453E0042
:10056000427F400072494949462141494D331814A0
:10057000127F1027454545393C4A494931412111EF
:1005800009073649494936464949291E00001400E1
:100590000000403400000008142241141414141404
:1005A000004122140802015909063E415D594E7C62
:1005B0001211127C7F494949363E414141227F4117
:1005C00041413E7F494949417F090909013E414175
:1005D00051737F0808087F00417F41002040413F60
:1005E000017F081422417F404040407F021C027F6F
:1005F0007F0408107F3E4141413E7F090909063EC4
:100600004151215E7F091929462649494932030192
:100610007F01033F4040403F1F2040201F3F4038A4
:10062000403F631408146303047804036159494D7F
:1006300043007F4141410204081020004141417FB5
:1006400004020102044040404040485454542400F5
:1006500000181800020102040225204E45585420BB
:1006600000252044524F5000252045004241434B75
:10067000203E00005EBCE2613FDD83C29C7E20A381
:10068000FD1F41009D23BE46DB65F88C11AF32CAC9
:1006900057E974AED580A81FD300408D142000A167
:1006A000C8DA02818FD9F1DB40A4A62EAF3E0F87B6
:1006B000C1F1F0001F07C3F0FCFC000FC3F1FC7F89
:1006C0007F8003F0FC7F1F8FC000FC3F1F87E3E0AB
:1006D000187F1FC7E1F8C03E1FC7F1F87E001F87D3
:1006E000E1F87E3F800FE1F87E1F8FC003F07E1F90
:1006F00087E3E030FC1F87E3F8E07C3F0FE3F8FE80
:10070000003E0FC3F0FC3F801F87F0FC3F0FC00787
:10071000E1FC3F0FC3E001F07E0F83E0E000F81F33
:1007200007C1F0000000003FFFFFFFFFFF80000057
:100730000003FE0007C001F07F8000003C1F0003A3
:10074000F000FC00780001C00FC001FC007F8004B5
:1007500000060003F0007F000FC00400180000FC3A
:10076000001F8003E00400E000007F0007E000C0FD
:1007700004030000001FC001F80000040C0000008A
:1007800007E0007E0000043000000001F8001F8038
:1007900000040C000000007E0007E00004030000DD
:1007A00030001F8003F8000400E0007C000FE00030
:1007B000FE00040018003E0003F0003F8004000625
:1007C000001F8000FC000FC0040001C007E0003FD4
:1007D0000003E00400003C01F0000F8000E078001E
:1007E0000003C0F80007C0007F800000003FFFFF4B
:1007F000FFFFFF80000060E05F0CC0A741F9F80038
:10080000F0F07D0CC03F01F9FC00F0F07D30303C91
:1008100081818C0198D828353154C1818C0198D8B8
:10082000283FDE5741F1F8030CCC02AFDCCF01F1D9
:10083000F003FCCC12AB333C01819803FCC617C318
:1008400033340181980606C61FCCC6C93DF98C0613
:1008500006C21F4CC6C97DF98C0000000024002789
:10086000002A0000000000250028002B0021007F46
:10087000220003000000080002010000030407003A
:1008800000000000000000000000002300260029F6
:100890000004040404040404040202020202020329
:1008A0000303030303010204081020408001020433
:1008B000081020010204081020003E3511241FBE3C
:1008C000CFEFD8E0DEBFCDBF84B78093420614BE21
:1008D0000FB6F894A89580916000886180936000BD
:1008E000109260000FBE11E0A0E0B1E0ECEEF4E782
:1008F00002C005900D92A834B107D9F726E0A8E40C
:10090000B1E001C01D92A134B207E1F714E0CEE5D9
:10091000D4E004C02197FE010E944D3ACD35D107A5
:10092000C9F70E94CC350C94743A0C94000080E412
:1009300080937C0080917A00806480937A0080911B
:100940007A0086FDFCCF809178009091790008951F
:10095000833081F028F4813099F08230A9F0089535
:100960008730A9F08830C9F08430B1F480918000DC
:100970008F7D03C0809180008F77809380000895E1
:1009800084B58F7784BD089584B58F7DFBCF80912A
:10099000B0008F778093B00008958091B0008F7D74
:1009A000F9CFCF93DF93282F30E0F901ED58F74FBF
:1009B0008491F901EB55F74FD491F901EF56F74FB8
:1009C000C491CC23A1F081110E94A804EC2FF0E087
:1009D000EE0FFF1FE957F74FA591B491EC91ED236E
:1009E00081E090E009F480E0DF91CF91089580E00C
:1009F00090E0FACF1F93CF93DF93282F30E0F901D7
:100A0000ED58F74F8491F901EB55F74FD491F90167
:100A1000EF56F74FC491CC23A9F0162F81110E94F5
:100A2000A804EC2FF0E0EE0FFF1FED59F74FA59152
:100A3000B4918FB7F894EC91111108C0D095DE23D2
:100A4000DC938FBFDF91CF911F910895DE2BF8CFFC
:100A5000ECE7F8E0E491E33019F140F4E130B1F073
:100A6000E230C9F060E089E00C94FA04E73011F15B
:100A7000E83041F1E430B1F720918000206220930A
:100A8000800090938B0080938A00089594B59068BD
:100A900094BD87BD089594B5906294BD88BD0895B6
:100AA000209180002068209380009093890080939B
:100AB000880008959091B00090689093B000809362
:100AC000B30008959091B00090629093B00080932D
:100AD000B4000895CF93DF9390E0FC01EB55F74FFE
:100AE00024918F56974FFC0184918823C9F090E0A0
:100AF000880F991FFC01E75AF74FA591B491FC01AB
:100B0000ED59F74FC591D49161110DC09FB7F8947D
:100B10008C91209582238C938881282328839FBFE2
:100B2000DF91CF910895623051F49FB7F8943C91D2
:100B3000822F809583238C93E8812E2BEFCF8FB764
:100B4000F894EC912E2B2C938FBFEACF3FB7F894FB
:100B50008091090390910A03A0910B03B0910C03BB
:100B600026B5A89B05C02F3F19F00196A11DB11D08
:100B70003FBFBA2FA92F982F8827BC01CD01620F44
:100B8000711D811D911D42E0660F771F881F991FFF
:100B90004A95D1F708958F929F92AF92BF92CF92CC
:100BA000DF92EF92FF926B017C010E94A6054B0140
:100BB0005C01C114D104E104F104B9F00E94A6055E
:100BC000681979098A099B09683E73408105910576
:100BD00080F321E0C21AD108E108F10888EE880EFE
:100BE00083E0981EA11CB11CE4CFFF90EF90DF9032
:100BF000CF90BF90AF909F908F9008952FB7F894AB
:100C0000609105037091060380910703909108039A
:100C10002FBF089508950895DC01ED91FC91019096
:100C2000F081E02D0994EF92FF920F931F93CF93E1
:100C3000DF938C017B01D0E0C0E0F701EC0FFD1FDA
:100C40006491662361F0D801ED91FC910190F081EF
:100C5000E02DC8010995892B11F02196EECFCE0128
:100C6000DF91CF911F910F91FF90EF900895AF9278
:100C7000BF92CF92DF92EF92FF920F931F93CF9389
:100C8000DF936C017B018B01040F151FEB015E01EB
:100C9000AE18BF08C017D10759F06991D601ED9180
:100CA000FC910190F081E02DC6010995892B79F71F
:100CB000C501DF91CF911F910F91FF90EF90DF90D1
:100CC000CF90BF90AF900895FC01538D448D252F98
:100CD00030E0842F90E0821B930B541710F0CF96D6
:100CE000089501970895FC01918D828D981761F008
:100CF000A28DAE0FBF2FB11D5D968C91928D9F5F1F
:100D00009F73928F90E008958FEF9FEF0895FC01FD
:100D1000918D828D981731F0828DE80FF11D858DB0
:100D200090E008958FEF9FEF0895FC01918D228D43
:100D3000892F90E0805C9F4F821B91098F739927C8
:100D400008958DE593E00E94950621E0892B09F432
:100D500020E0822F089580E090E0892B29F00E9406
:100D6000A10681110C9400000895FC01A48DA80F28
:100D7000B92FB11DA35ABF4F2C91848D90E00196DD
:100D80008F739927848FA689B7892C93A089B189FD
:100D90008C91837080648C93938D848D981306C09E
:100DA0000288F389E02D80818F7D80830895EF9202
:100DB000FF920F931F93CF93DF93EC0181E0888F15
:100DC0009B8D8C8D98131AC0E889F989808185FFE5
:100DD00015C09FB7F894EE89FF896083E889F98987
:100DE00080818370806480839FBF81E090E0DF9189
:100DF000CF911F910F91FF90EF900895F62E0B8DDC
:100E000010E00F5F1F4F0F731127E02E8C8D8E1196
:100E10000CC00FB607FCFACFE889F989808185FFFD
:100E2000F5CFCE010E94B506F1CFEB8DEC0FFD2F73
:100E3000F11DE35AFF4FF0829FB7F8940B8FEA89B8
:100E4000FB8980818062CFCFCF93DF93EC01888DC7
:100E50008823B9F0AA89BB89E889F9898C9185FD35
:100E600003C0808186FD0DC00FB607FCF7CF8C91C3
:100E700085FFF2CF808185FFEDCFCE010E94B506C0
:100E8000E9CFDF91CF910895DC0180E0615090F0CF
:100E90009D919827E92FEF70F0E0ED58F94F2491DC
:100EA000E92FE295EF70F0E0ED57F94FE491822FD2
:100EB0008E27ECCF0895FC011386158614861286C2
:100EC0001186108617821682158214821382089565
:100ED000DC012C911196ED91FC91F8948181822B8B
:100EE00081839281322F30959323928387E090E023
:100EF0000197F1F781818323818383E290E0019759
:100F0000F1F790817894EFECF0E03197F1F79223CC
:100F100081E009F480E00895FC0190810180F28174
:100F2000E02D292F209560FF14C0F8948281822340
:100F300082838181892B8183A3E2B0E01197F1F74D
:100F40008281982B9283789487ED90E00197F1F756
:100F50000895F8948281822382838181892B818301
:100F6000AFEFB0E01197F1F78281982B92837894DC
:100F70008FE090E0EBCFDF92EF92FF920F931F9301
:100F8000CF93DF93EC01D62EE42E08E010E0FF248F
:100F9000F39461E08D2D8F2109F460E0CE010E9471
:100FA0008C07FF0C01501109A1F7E11010C0F89453
:100FB000E981FA8191818881809589238183E98102
:100FC000FA81928188818095892382837894DF9148
:100FD000CF911F910F91FF90EF90DF900895EF92C6
:100FE000FF920F931F93CF93DF938C017B0140E01F
:100FF00065E50E94BB07E70188E0E80EF11C6991F6
:1010000040E0C8010E94BB07CE15DF05C1F7DF91A4
:10101000CF911F910F91FF90EF900895FC01908167
:101020000180F281E02DF8948181292F209582237F
:10103000818378943DE743E050E0315029F1DA01B3
:101040001197F1F780818923C1F3F894828182237B
:1010500082838181892B81837894ABE7B7E01197F4
:10106000F1F7F894818182238183A3E1B1E01197A4
:10107000F1F78081982381E009F080E07894E3E63D
:10108000F6E03197F1F7089580E008958F929F92EE
:10109000AF92BF92CF92DF92EF92FF92CF93DF9306
:1010A00000D000D01F92CDB7DEB78091030490919D
:1010B00004040E940E0840E06CEC809103049091BF
:1010C00004040E94BB074091FA0364E48091030486
:1010D000909104040E94BB070E94FE056B017C01F5
:1010E0008091FE0381111EC081E08983CA82DB8268
:1010F000EC82FD8229813A814B815C816D8170E0B7
:1011000080E090E00F900F900F900F900F90DF9184
:10111000CF91FF90EF90DF90CF90BF90AF909F90D6
:101120008F9008958091FF038823C1F08091FA0386
:10113000811114C080910304909104040E946807F7
:10114000813091F20E94FE056C197D098E099F097C
:101150006E3E72408105910568F3C6CFE091FD03B4
:10116000E9508EEE92E0E33038F4F0E0EE0FFF1F2E
:10117000EA5FFE4F808191814C01B12CA12C8091BE
:10118000FB03882329F060E08091FC030E94FA04AD
:10119000C501B4010E94CB058091FB03882309F4AB
:1011A000A3CF61E08091FC030E94FA049DCF6F926F
:1011B0007F928F929F92AF92BF92CF92DF92EF92E7
:1011C000FF920F931F93CF93DF938C01EB018091DC
:1011D0000304909104040E940E08882309F43FC080
:1011E000B80180910304909104040E94EF0740E04D
:1011F0006EEB80910304909104040E94BB077E0172
:101200006E0189E0C80ED11C8E01A0900304B0903D
:10121000040488E0882E912C712C66246394C50107
:101220000E94680781117628660CE1E08E1A910809
:10123000B1F7F80171928F01CE16DF0631F7809178
:101240000304909104040E940E08813041F4F701D8
:1012500081917F01811105C0E017F107C1F790E08E
:1012600008C068E0CE010E94440791E02885281359
:10127000F6CF892FDF91CF911F910F91FF90EF90C3
:10128000DF90CF90BF90AF909F908F907F906F90A6
:1012900008950F931F93CF93DF93CDB7DEB72997B0
:1012A0000FB6F894DEBF0FBECDBF8C01BE016F5FDD
:1012B0007F4F0E94D708882361F08D81F8019081CB
:1012C0009B3311F487FD0BC08F3359F020F48F311D
:1012D000A1F080E007C08F3591F08F37D1F78CE017
:1012E00001C08AE029960FB6F894DEBF0FBECDBFCD
:1012F000DF91CF911F910F91089589E0F3CF8BE09B
:10130000F1CF2091B302260F3327331F213231054D
:10131000ECF420913303FC0190E080E0243069F08C
:1013200082E00895A091B3022191AC014D565D4F2A
:10133000A40FB52FB11D2C930196861798F38091B9
:10134000B302680F6093B30280E0089581E00895CE
:101350001092330381E08093320310920D0361E019
:1013600082E10E94FA0461E083E10E94FA04E9EB61
:10137000F0E080818E7F808380818D7F808388E410
:101380008093B80085E48093BC000895CF93DF93E9
:1013900091E0909392028823B9F0C091B800D09167
:1013A000BA008091BC008A7B8093BC0060E082E13F
:1013B0000E94FA0460E083E10E94FA040E94A809F6
:1013C000D093BA00C093B800DF91CF910895CF9227
:1013D000DF92EF92FF920F931F93CF93DF93D09101
:1013E0005C0381E0D13208F09CC0C0915B030E9495
:1013F000A6056B017C018091330381116CC082E0F2
:101400008093330381E0809332038FEF8093310325
:1014100010923003D0932F03ABE3B3E0EFE0F3E09F
:1014200080E0D8138DC010920E0380910E03CC0F74
:10143000C82BC0930E0380910D03813009F084C046
:1014400010920D030E94A6056B017C0180910E0392
:101450008093BB008091350390913603A0913703B0
:10146000B0913803892B8A2B8B2BA1F00E94A60503
:1014700000913503109136032091370330913803E2
:101480006C197D098E099F09061717072807390768
:1014900008F442C08091BC0083FDD8CF85EC8093D6
:1014A000BC000E94A6056B017C0180913303823051
:1014B00009F44CC0809131038F3F09F469C08091D9
:1014C0003103803209F466C080913103803309F41E
:1014D00063C084E026C08091350390913603A091CB
:1014E0003703B0913803892B8A2B8B2B09F483CFD8
:1014F0000E94A60500913503109136032091370311
:10150000309138036C197D098E099F09061717075A
:101510002807390708F06FCF809134030E94C6096D
:1015200085E010923A0310925C0310923903DF9128
:10153000CF911F910F91FF90EF90DF90CF90089582
:101540009D9191938F5F6DCF85EEA9CF80913503EB
:1015500090913603A0913703B0913803892B8A2BE1
:101560008B2B09F4A2CF0E94A605009135031091A0
:10157000360320913703309138036C197D098E09A9
:101580009F09061717072807390708F08ECFC4CF21
:1015900080E0C7CF82E0C5CF83E0C3CF0895E0915C
:1015A000DB028091DA02E81730F4F0E0EE58FD4FEC
:1015B000808190E008958FEF9FEF08959091DB0276
:1015C0008091DA022FEF3FEF981748F4E92FF0E00F
:1015D000EE58FD4F208130E09F5F9093DB02C90100
:1015E00008958091DA029091DB02891B990B08958E
:1015F000CF92DF92EF92FF920F931F93CF93DF93DF
:101600007C01CB018A0120913903222389F0EB016F
:101610006B01C40ED51ECC15DD0569F06991D701AB
:10162000ED91FC910190F081E02DC7010995F3CF78
:10163000642F0E948109C801DF91CF911F910F9102
:10164000FF90EF90DF90CF900895CF93DF931F929C
:10165000CDB7DEB76983209139032223F9F02091B9
:101660005C03203258F021E030E0FC013383228318
:1016700090E080E00F90DF91CF91089580913A0340
:10168000E82FF0E0E55CFC4F998190838F5F8093B9
:101690003A0380935C0381E090E0ECCF61E0CE01FF
:1016A00001960E948109F7CFDF92EF92FF920F938C
:1016B0001F93CF93DF937C01D62E072F142FDC01CD
:1016C0008D919C9121E0209339032CE320935B03BF
:1016D00010923A0310925C03DC01ED91FC910190B1
:1016E000F081E02D60E00995CD2DD02F115070F0E4
:1016F000F70180819181FE016491DC01ED91FC9103
:101700000190F081E02D09952196F0CFDF91CF91E6
:101710001F910F91FF90EF90DF900C94E709CF920B
:10172000DF92EF92FF920F931F93CF93DF9320915D
:10173000310430913204409133045091340460E01C
:1017400074E284EF90E00E940C3A20513109410983
:10175000510956954795379527952093B80046E04F
:101760006DE678E08FE294E00E94540BD0E0C0E098
:10177000FF24F3942CE3E22E80912F049091300407
:10178000F0923903E0925B0310923A0310925C03EB
:10179000DC01ED91FC910190F081E02D60E4099570
:1017A0008E010F5B1B4F6E01BFE1CB0ED11CC1152B
:1017B000E2E0DE0790F480912F04909130042196AE
:1017C000D8016D918D01DC01ED91FC910190F081CA
:1017D000E02D0995CC16DD0651F70E94E709C115E9
:1017E000B2E0DB0748F22091350430913604409195
:1017F00037045091380460E074E284EF90E00E9476
:101800000C3A2051310941095109569547953795B0
:1018100027952093B800DF91CF911F910F91FF90F2
:10182000EF90DF90CF9008952FB7F8948091B90191
:101830009091BA01892B61F04091B9015091BA01A0
:1018400080E89CE0841B950B9093B8018093B701CE
:101850002FBF08952FB7F8948091B7019091B801E8
:101860008057944F9093B8018093B7012FBF08958C
:101870000E94970420910103309102032817390731
:1018800071F0AC01421B530B9A0141E3429FC0012E
:10189000439F900D1124893A51E6950710F090E08E
:1018A00080E0089560E084E00C94FA0460E086E053
:1018B0000C94FA042FB7F8946093B3017093B401B9
:1018C0008093B5019093B6012FBF089590910101C7
:1018D00081E020910201291301C080E008959FB7A3
:1018E000F8942091010120930201809301019FBF90
:1018F0000895882331F010923E0481E080933F04E4
:10190000089581E080933E04F9CF24E630E0662319
:1019100011F024EF31E040E45FE1421B530B481724
:10192000590718F0820F931F089580ED97E00895EE
:1019300081E08093930161E085E00E94FA0461E018
:101940008BE00C94FA04EF92FF920F931F93CF93C6
:10195000DF93EC018091BB019091BC017A01E81A00
:10196000F90A8091C3019091C4018A01081B190BE7
:101970004093C3015093C4016093C5017093C601A5
:1019800020E4E2162FE1F20620F03FE3E32E3FE1F0
:10199000F32E9E01A0E3B0E00E94533A9B01AC01FC
:1019A000D8010E94693A28EE33E040E050E00E94FE
:1019B0000C3A8091CB019091CC01A091CD01B091D6
:1019C000CE01820F931FA41FB51F8093CB0190936C
:1019D000CC01A093CD01B093CE018091CF01909125
:1019E000D0018C179D0720F4D093D001C093CF0174
:1019F000B70190E080E027E0660F771F881F991FEE
:101A00002A95D1F720E43FE140E050E00E940C3AF3
:101A10008091D301821761F12093D301D093D50136
:101A2000C093D40181E08093D8016091D80170E027
:101A30008091D4019091D5010E94E439CB0170933B
:101A4000D7016093D601F9016AEF843D20E3920744
:101A500020F462E370E00E94E439E554FE4F668FA3
:101A6000C801DF91CF911F910F91FF90EF900895E2
:101A70008091D4019091D501C80FD91FD093D50181
:101A8000C093D4018091D8018F5FCDCF809159024E
:101A9000882349F080915A02882329F01092EF029E
:101AA00088E10C946F0C8FE0FCCF80E00C946F0CFD
:101AB000E091F202F0E0EE57FE4F8181803219F49E
:101AC00081E4818308959FEB980F993110F48F5F23
:101AD000F8CF8A3511F480E3F4CF90ED980F993068
:101AE000B0F3893311F48DE2ECCF8D3211F48EE234
:101AF000E8CF80E2E6CF0F931F93CF93DF93CDB76C
:101B0000DEB729970FB6F894DEBF0FBECDBF99E0C0
:101B1000ECE3F1E0DE01119601900D929A95E1F768
:101B2000FB0198EC91939B01255F3F4FDF0190E211
:101B30009D93A217B307E1F78E010F5F1F4FAB0113
:101B4000475F5F4F9F01D8019D918D01D9019D9302
:101B50009D01A417B507B9F78F5CDB011A968C932A
:101B60001A978091E9029091EA021C969C938E93B9
:101B70001B97809193011D968C938091EB0290911D
:101B8000EC02911192E02091F402B4E02B9F9001BD
:101B90001124822B892BDB011E968C939B01215FE4
:101BA0003F4F80E0919189272E173F07D9F7FB011E
:101BB000878729960FB6F894DEBF0FBECDBFDF91A1
:101BC000CF911F910F9108956038710508F540324B
:101BD0005105F0F4FA01A3E0F595E795AA95E1F730
:101BE000F695FE2FEE27F795E795E60FF71FBA015A
:101BF0006770772741E050E001C0440F6A95EAF72B
:101C0000E80FF91F96892130310519F4492B468BCD
:101C10000895232B19F440954923F9CF4927F7CF8D
:101C20002F923F924F925F926F927F928F929F92EC
:101C3000AF92BF92CF92DF92EF92FF920F931F93DA
:101C4000CF93DF933C014A015901190127E0220E8D
:101C5000311C93E0359427949A95E1F7EB01280124
:101C6000460E571ED12CC12C10E000E0F80183E095
:101C7000F595E7958A95E1F7EC0DFD1DE80DF91D49
:101C8000E491C8018770992720E830E002C03595BB
:101C900027958A95E2F7C901F0E0E223F923EF2BBB
:101CA00049F09701AE01B801660D771D8BE294E013
:101CB0000E94E40D0F5F1F4FA016B106B9F6C20CCB
:101CC000D31C2196C415D50579F6DF91CF911F91CC
:101CD0000F91FF90EF90DF90CF90BF90AF909F90CB
:101CE0008F907F906F905F904F903F902F900895CE
:101CF000AF92BF92CF92DF92EF92FF920F931F931A
:101D0000CF93DF936C015B01E9011C161D0664F49F
:101D10007A018FEFE81AF80A9801B501C6010E940E
:101D2000E40D2197A701F1CFDF91CF911F910F9182
:101D3000FF90EF90DF90CF90BF90AF9008956F929B
:101D40007F928F929F92AF92BF92CF92DF92EF924B
:101D5000FF920F931F93CF93DF93782E6091D90159
:101D6000CFE16C9FB001112490E080E02AEF30E0D9
:101D700040E050E00E940C3AC21BF12C8FE1E82EAB
:101D80009AEF892E912CA12CB12C6624639480911A
:101D9000D3018F15C0F1CF2CD12CF601E554FE4FA5
:101DA000268D30E0AE2DB0E00E94533AA50194019B
:101DB0000E940C3ADE2DD21B4D2F50E021E030E086
:101DC000B6018BE294E00E94E40D7720B1F0FF2091
:101DD000A1F04D2FCD1708F44C2FCD1788F4262DE8
:101DE0002C1BC22FCD0F2C2F30E050E001E010E073
:101DF000B6018BE294E00E94780EF394CD2FC7CF0A
:101E0000CF5FCD1BF0CFDF91CF911F910F91FF904E
:101E1000EF90DF90CF90BF90AF909F908F907F908A
:101E20006F9008954F925F926F927F928F929F92E0
:101E3000AF92BF92CF92DF92EF92FF920F931F93D8
:101E4000CF93DF93EC015B016A014901280137015F
:101E5000F12CE12CE814F9046CF4B7016A0D7B1D38
:101E600083019201A601CE010E94780E8FEFE81A3D
:101E7000F80AF0CFDF91CF911F910F91FF90EF9073
:101E8000DF90CF90BF90AF909F908F907F906F909A
:101E90005F904F9008952F923F924F925F926F9272
:101EA0007F928F929F92AF92BF92CF92DF92EF92EA
:101EB000FF920F931F93CF93DF9300D000D0CDB745
:101EC000DEB79C838B83DC0152968C91B6E08B9FAE
:101ED00090011124EB81FC8195899923D1F04685ED
:101EE0005785420F531F413851059CF00088F189F6
:101EF000E02DAB81BC811F961C921E921E97B8E00C
:101F00008B9FA00111244E0F5F1FEB81FC81518B31
:101F1000408BAB81BC811E96CD90DC90B0E8CB1697
:101F2000D1040CF08CC0EB81FC81A088B188F0E278
:101F3000AF16B1040CF083C02C0D3D1D1216130614
:101F40000CF07DC028E0829FC00111248A0D9B1DEA
:101F5000181619060CF073C080EE860F803408F056
:101F600095C06052770B25E0269FC001279F900DFA
:101F700011242601912C812CDC01A65FBA4FBA8373
:101F8000A983E981FA81E80DF91DE491712C612C96
:101F90002E2E312C8E2F8170E0FF8AC0EB81FC81C8
:101FA000E388F12C811106C0EB81FC81948983893F
:101FB000981781F0AB81BC8152962C9152972130B9
:101FC00009F07BC09701A501460D571DB201CD0157
:101FD0000E94E40DF101F595E795BFEF6B1A7B0ABE
:101FE000F8E06F167104A1F62FEF821A920A3FEF04
:101FF000431A530A85E08816910409F0C2CFAB81D9
:10200000BC815496EC90549753968C915397E81654
:10201000B1F052968C91F12C282F30E0890193E099
:10202000000F111F9A95E1F7B601B5E08B9F600D87
:10203000711D1124A5018B819C810E94120FEB81DF
:10204000FC81228986859785F6E02F9F800D911D62
:102050001124AB81BC811F969C938E931E970F9089
:102060000F900F900F90DF91CF911F910F91FF90E4
:10207000EF90DF90CF90BF90AF909F908F907F9028
:102080006F905F904F903F902F90089580E491E083
:10209000633709F46ECF85E491E0683F09F469CFB6
:1020A0008AE491E06E3709F464CF8BE990E061CF68
:1020B000AB81BC815496EC9074CF30E0269DA0019A
:1020C000279D500D369D500D11244A0D5B1D289DF6
:1020D000B001299D700D389D700D11246C0D7D1D72
:1020E00089018B819C810E94120F74CFFC016A30A0
:1020F00081F417861686828998E0899F90011124C1
:1021000080899189820F931F918B808B81E090E071
:1021100008956D30D9F30E944B0FF8CFEF92FF92E4
:102120000F931F93EE24E394F12C0CE110E028E1CF
:1021300030E046EB54E062E070E090E080E00E9426
:10214000100E0AE010E020E330E04AE754E06BE0D4
:1021500070E088E290E00E94100E0CE110E028E0B0
:1021600030E04EE554E062E070E080E790E00E94ED
:10217000100E02E010E028E530E043E050E068E1B6
:1021800070E08BE294E00E94120F28E530E04BE112
:1021900050E068E170E08BE294E00E94120F1F9122
:1021A0000F91FF90EF900895089590E080E00895DA
:1021B000BF92CF92DF92EF92FF920F931F93CF9334
:1021C000DF93EC01B62EC72E8D85811105C0CE019F
:1021D0000E940E0881110EC01B861D861C8680E0A1
:1021E000DF91CF911F910F91FF90EF90DF90CF90F3
:1021F000BF90089540E060EFCE010E94BB0701E070
:10220000E12CD12C11E0CE010E946807F82ECE01FE
:102210000E94680791E0F91218C0813099F51134D5
:10222000D8F2DB86D11002C081E08D878B818823B4
:1022300099F22396EB2DFC2DCF010896299121933D
:10224000E817F907D9F781E0CBCFEE2DF0E0F812CF
:102250000FC08B851817A0F4DE01AE0FBF1F1396B9
:102260008C91802379F4F12C193008F41C87D12E3D
:10227000EC0FFD1F8381902F9095892383830AC0E3
:102280008113F1CFFE01EE0DF11D8381802B83833D
:10229000FF24F3946F2DCE010E948C071F5F000F67
:1022A00011F4E39401E087E08E1508F0ACCFB7CFCE
:1022B00061E089E00E946A0585E090E00E942805BF
:1022C00061E08AE00C94FA0461E089E00E946A050A
:1022D0008FE090E00E94280560E08AE00C94FA0408
:1022E000E1E4F4E080E092E0DF019C011D922150E6
:1022F0003040E1F708950E947011EBE2F4E081E0D4
:10230000828B838B848B0895EBEBF1E06083718388
:1023100082839383648375838683978360877187C1
:10232000828793876487758786879787108A118A43
:10233000128A138A158A148A178A168A8FEF808F59
:10234000128E118E148E138E158EE9EDF1E080E859
:10235000DF011D928A95E9F71092590240935A02C3
:102360000895FB0101900020E9F73197AF01461B6A
:10237000570BDC01ED91FC910280F381E02D099473
:102380008F929F92AF92BF92EF92FF920F931F9303
:10239000CF93DF93CDB7DEB7A1970FB6F894DEBF2A
:1023A0000FBECDBF7C01FA01CB0119A2223008F487
:1023B0002AE08E010F5D1F4F822E912CB12CA12C93
:1023C000BF01A50194010E940C3AF901CA016A30CB
:1023D0000CF5605DD8016E938D01232B242B252BEA
:1023E00079F790E080E0109721F0BD01C7010E94CD
:1023F000B111A1960FB6F894DEBF0FBECDBFDF912D
:10240000CF911F910F91FF90EF90BF90AF909F9051
:102410008F900895695CDECF462F50E070E060E059
:102420002AE00C94C011CF92DF92EF92FF920F93AB
:102430001F93CF93DF936B01072E000CEE08FF086C
:1024400077FF1BC0EC016DE20E940C068C01442753
:102450005527BA014C195D096E097F092AE0CE01A2
:102460000E94C011800F911FDF91CF911F910F919A
:10247000FF90EF90DF90CF9008952AE0B701A6017A
:10248000DF91CF911F910F91FF90EF90DF90CF9050
:102490000C94C011CF92DF92EF92FF920F931F9393
:1024A000CF93AC012AE030E0DC010E94623A00E404
:1024B00010E020E030E057FF04C000EC1FEF2FEFEA
:1024C0003FEF600F711F821F931F20E830E040E054
:1024D00050E00E942E3A6901890188279927821BC2
:1024E000930B37FFC9016AE070E00E94F839C82FEA
:1024F00087EFC8168FEFD80628F06DE28BE294E0E4
:102500000E944B0FC8016AE070E00E94F8398BE22C
:1025100094E00E9413126EE28BE294E00E944B0F53
:102520006C2F8BE294E0CF911F910F91FF90EF9071
:10253000DF90CF900C940C12282F809103038823F6
:1025400011F1CB0148E350E050933A044093390431
:1025500030E030933C0420933B040E944A1268EF21
:102560008BE294E00E940C0663E48BE294E00E940C
:102570004B0F80919501882331F061E574E08BE287
:1025800094E00C9413060895242FAB0170E060E0F2
:102590000C94C011CF92DF92EF92FF920F931F9392
:1025A000CF93C82F6B01F12CE12C08E010E020E85C
:1025B00030E048E150E070E060E08BE294E00E949F
:1025C000120F81E080933D0480933E0480933F048A
:1025D00010923A0410923904C13009F04BC008E15E
:1025E00010E010933C0400933B0410923E046CE610
:1025F00076E08BE294E00E941306C0933E04C09301
:102600003F048AE290E090933A0480933904109357
:102610003C0400933B046DE48BE294E00E944B0F7A
:1026200060916F028BE294E00E940C1265E28BE2F3
:1026300094E00E944B0F8EE490E090933A048093D4
:10264000390410933C0400933B0465E48BE294E06E
:102650000E944B0F6091690270916A024AE050E05B
:102660008BE294E00E94C41265E28BE294E00E9447
:102670004B0F29C088E190E090933C0480933B0489
:102680006DE48BE294E00E944B0F60916F028BE24D
:1026900094E00E940C1268E676E08BE294E00E94DF
:1026A00013066091690270916A024AE050E08BE281
:1026B00094E00E94C412C23079F461E676E08BE2C5
:1026C00094E00E941306CF911F910F91FF90EF901D
:1026D000DF90CF900C948F0B69E576E08BE294E06D
:1026E0000E941306C60168EE73E00E94E4398C0173
:1026F0004AE050E08BE294E00E94C4126EE28BE26A
:1027000094E00E944B0FC80164E670E00E94E43937
:102710004AE050E08BE294E00E94C41263E7A5CF48
:102720004F925F926F927F92AF92BF92CF92DF9261
:10273000EF92FF920F931F93CF93DF938BEBC82EF3
:1027400081E0D82EF6012089318942895389A0E59C
:10275000B0E00E94693A6E5C7F4F8F4F9F4F24E636
:1027600030E040E050E00E940C3ACA01B9016C50E0
:102770007E4F8F4F9F4F28EE33E040E050E00E94A5
:102780000C3A2901CBE2D4E081E08A8B8B8B8C8BD5
:10279000F12CE12C08E010E02AE230E048E150E0C2
:1027A0006AE270E0CE010E94120F8AE290E09F87F9
:1027B0008E8798E1A92EB12CB98AA88A6BE574E0BE
:1027C000CE010E941306F601838D948D08EE13E06E
:1027D000B8010E94E4394AE050E0CE010E94C412E0
:1027E0006EE2CE010E944B0FF601838D948DB801ED
:1027F0000E94E43964E670E00E94E4394AE050E067
:10280000CE010E94C41261E4CE010E944B0F08E089
:1028100010E024E230E048E150E06CE570E0CE01E9
:102820000E94120F8CE590E09F878E87B98AA88A54
:1028300068E574E0CE010E9413064AE050E0B20160
:10284000CE01DF91CF911F910F91FF90EF90DF901C
:10285000CF90BF90AF907F906F905F904F900C940F
:10286000C4120E9470118091D3018F3F19F080E053
:102870000E949F0E0E9490130C948F0B8F929F9238
:10288000AF92BF92CF92DF92EF92FF92CF93DF93FE
:1028900028EE33E040E050E00E940C3A49016B0121
:1028A000EB012AE0BA01A4018DE593E00E94C0117A
:1028B0006EE28DE593E00E94D706C436D10560F440
:1028C00060E38DE593E00E94D7062A9728F460E341
:1028D0008DE593E00E94D7064AE050E0B6018DE511
:1028E00093E0DF91CF91FF90EF90DF90CF90BF907A
:1028F000AF909F908F900C94C4120F931F93CF931F
:10290000DF93EC010E9413068C0165E471E0CE01B7
:102910000E94B111800F911FDF91CF911F910F91F4
:102920000895EF92FF920F931F93CF93DF937C0153
:102930008B010E947011CBE2D4E082E08A8B1F866B
:102940001E86198A188AB701CE010E947D141F863F
:102950001E8680E190E0998B888BB801CE010E94A1
:102960007D14DF91CF911F910F91FF90EF900C9408
:102970008F0B282F862F48E350E050933A04409362
:10298000390430E030933C0420933B040E94790CDE
:102990008091930168E474E0813031F06EE374E07B
:1029A000823011F065E374E08BE294E00E947D14C4
:1029B00081E080933E0480933F0408950E94560C6A
:1029C0000E94520C0E9431140E9458110E94FE0570
:1029D00068577C4E8F4F9F4F0E945A0C63E274E001
:1029E0008DE593E00E947D1481E10C946F0CCF92F1
:1029F000DF92EF92FF920E94FE052091BB01309181
:102A0000BC01621B730B61342FE1720708F020C117
:102A10007093D2016093D10181E09091D3019F3FE7
:102A200009F480E08093590210925A028093710257
:102A3000C0905F02D0906002E0906102F09062026C
:102A4000C114D104E104F104A9F020915B0230919A
:102A50005C0240915D0250915E02A4E6B0E00E94EB
:102A6000693AA70196010E940C3A253631054105C5
:102A7000510520F024E630E040E050E084E6821B7F
:102A800080936F02C0906302D0906402E090650270
:102A9000F0906602C114D104E104F10409F4DFC02E
:102AA0002091CB013091CC014091CD015091CE01CC
:102AB000A4E6B0E00E94693AA70196010E940C3A90
:102AC000C901DA01883E23E09207A105B10520F093
:102AD00087EE93E0A0E0B0E090936A0280936902F1
:102AE00040916702509168024115510509F4BCC03C
:102AF0002091CF013091D001A4E6B0E00E94533A7A
:102B00009A0150E040E00E940C3AC901DA01883E87
:102B100023E09207A105B10520F087EE93E0A0E045
:102B2000B0E090936C0280936B0265E973E08DE5F1
:102B300093E00E94130660916E0270E06F5F7F4F1A
:102B40008DE593E00E94131269E873E08DE593E050
:102B50000E94130660916F028DE593E00E940C12B3
:102B60006CE773E08DE593E00E94130660916902C3
:102B700070916A024AE050E08DE593E00E94C41231
:102B800061E773E08DE593E00E94130660916B02AC
:102B900070916C024AE050E08DE593E00E94C4120F
:102BA0006AED73E08DE593E00E9413066091CB011E
:102BB0007091CC018091CD019091CE010E943E1484
:102BC00065EC73E08DE593E00E9413062091CB0144
:102BD0003091CC014091CD015091CE01A0E5B0E003
:102BE0000E94693A6E5C7F4F8F4F9F4F24E630E022
:102BF00040E050E00E940C3ACA01B9010E943E1424
:102C000064EB73E08DE593E00E9413064AE050E028
:102C100060E570E08DE593E00E94C41267E673E022
:102C20008DE593E00E9413066091CF017091D00171
:102C30004AE050E08DE593E00E94C41265E471E043
:102C40008DE593E0FF90EF90DF90CF900C94B11161
:102C500080E49FE19093D2018093D101DDCE20E00A
:102C600030E040E050E02CCF20E030E040E050E0A9
:102C70004CCFCF93C82F0E94560C0E94520C0E943A
:102C8000FE052091BB013091BC01621B730B6134C6
:102C90008FE1780708F078C07093D2016093D1017A
:102CA00081E09091D3019F3F09F480E08093590225
:102CB0006DEF73E0C11102C06BEE73E08DE593E040
:102CC0000E9413066091D1017091D2014AE050E058
:102CD0008DE593E00E94C4126AED73E08DE593E008
:102CE0000E9413066091CB017091CC018091CD01BF
:102CF0009091CE010E943E1465EC73E08DE593E067
:102D00000E9413062091CB013091CC014091CD015E
:102D10005091CE01A0E5B0E00E94693A6E5C7F4F11
:102D20008F4F9F4F24E630E040E050E00E940C3A85
:102D3000CA01B9010E943E1464EB73E08DE593E093
:102D40000E9413064AE050E060E570E08DE593E0F4
:102D50000E94C4126AEA73E08DE593E00E941306B4
:102D60006091CF017091D0014AE050E08DE593E091
:102D70000E94C41265E471E08DE593E00E94B111F8
:102D800082E1CF910C946F0C80E49FE19093D2018B
:102D90008093D10185CF85ED8093BC008091350370
:102DA00090913603A0913703B09138030796A11D87
:102DB000B11D23E0B695A795979587952A95D1F7EC
:102DC0002091BC0024FD03C010923303089540916C
:102DD0003503509136036091370370913803452BCA
:102DE000462B472B69F30097A105B10541F02AE274
:102DF0002A95F1F700C00197A109B109E1CF8091AF
:102E000034030C94C6091F93CF93DF93EC01162F64
:102E10000E94C239181739F0612FCE01DF91CF918E
:102E20001F910C94CA39DF91CF911F91089580931F
:102E3000EC0260E0882351F00E94980C1092EB02A3
:102E400060E081E090E00E94031761E083E090E0A1
:102E50000C9403170F931F93CF93DF93072F142F17
:102E600093E0899FE0011124CE0180569F4F0E947C
:102E70000317602FCE018F559F4F0E940317612FBC
:102E8000CE018E559F4FDF91CF911F910F910C94E2
:102E90000317CF92DF92EF92FF920F931F93CF937E
:102EA000DF93CDB7DEB760970FB6F894DEBF0FBEE5
:102EB000CDBF082F10E00F5F1F4F94E0000F111FD0
:102EC0009A95E1F780E1FB01DE01119601900D92E8
:102ED0008A95E1F788EC89836E0182E0C80ED11CE7
:102EE0009E01205F3F4FF60180E091918927E21714
:102EF000F307D9F7888B60E0C8010E940317EE241E
:102F0000E394F12CF60161916F01C8018E0D9F1DB4
:102F10000E940317FFEFEF1AFF0A80E1E816F104A1
:102F200089F768ECC80160960FB6F894DEBF0FBE53
:102F3000CDBFDF91CF911F910F91FF90EF90DF9068
:102F4000CF900C9403170C94C239CF92DF92EF927A
:102F5000FF921F93CF93DF93883008F05DC098E411
:102F6000899FE0011124CE0180549F4F0E94A31736
:102F7000873D09F051C06E0181ECC80ED11C11E0F3
:102F8000F12CC6010E94A317113418F48B3F08F0EE
:102F900043C0F8261F5F9FEFC91AD90A173489F773
:102FA000CE01895F9E4F0E94A3178F1135C0CE01BD
:102FB0008F5F9E4F0E94A317E82ECE018E5F9E4F1B
:102FC0000E94A317F82ECE018D5F9E4F0E94A3177B
:102FD000C82ECE018C5F9E4F0E94A317182FCE01E2
:102FE0008B5F9E4F0E94A317D82ECE018A5F9E4F03
:102FF0000E94A31795EDE91690E3F90668F4312FC6
:103000002C2D2031374240F4382F2D2D21503109FD
:1030100081E020343F4108F080E0DF91CF911F91A3
:10302000FF90EF90DF90CF900895AF92BF92DF9224
:10303000EF92FF920F931F93CF93DF938C01FC01CC
:10304000E384F484F092EA02E092E9022685822F7A
:1030500090E031E0422F427021FF30E03093EC02EB
:1030600020FF02C021E0411120E02093EB02959562
:103070008795959587958370833009F457C0809321
:10308000F402D090F002F3E0DF9E50011124C5015C
:1030900080569F4F0E94A317C82FC5018F559F4F81
:1030A0000E94A317D82FD093F602C093F502C50152
:1030B0008E559F4F0E94A3178093F7029091F402C0
:1030C0009130B9F52197CF30D742C0F58D2D0E94B0
:1030D000A517809370028111D0926D02F801858549
:1030E00080939301C70164E670E00E94E43990E0A8
:1030F00080E00E9403176091EB0281E090E00E9463
:1031000003176091EC0283E090E00E940317809126
:10311000EC028823E9F0DF91CF911F910F91FF908E
:10312000EF90DF90BF90AF900C94980C1092F40247
:10313000A8CF923059F68150833640F21092F402B3
:103140001092F6021092F5028AE08093F702BECF49
:1031500080919301823089F460E085E00E94FA0456
:1031600061E08BE0DF91CF911F910F91FF90EF9085
:10317000DF90BF90AF900C94FA048111CCCF61E046
:1031800085E00E94FA0460E0ECCF70E06F537F4F5F
:103190009B0148E4849F200D311D1124C9010C942A
:1031A000A3178F929F92AF92BF92EF92FF920F93CD
:1031B0001F93CF93DF93182F0E947011112351F1A9
:1031C000D0E0C0E00FE19AEF892E912CA12CB12C18
:1031D0002FE1E22EF12C6C2F80916E020E94C51817
:1031E000809FC0011124BC0190E080E0A501940102
:1031F0000E940C3AA701421B530BBE01660F771FBA
:1032000021E030E08BE294E00E94E40D2196C0348E
:10321000D10509F78091D3018F3F69F0812FDF91AC
:10322000CF911F910F91FF90EF90BF90AF909F9023
:103230008F900C949F0EDF91CF911F910F91FF9073
:10324000EF90BF90AF909F908F900895CF92DF92B4
:10325000EF92FF920F931F93CF93DF93883010F07C
:1032600080E039C08B01C82FD0E0219684E0CC0FDC
:10327000DD1F8A95E1F76B0120E1C20ED11C7B01B5
:10328000C61BD70BCE018E0D9F1D0E94C239F701C0
:1032900081937F01EC15FD05A9F7F8018081883C39
:1032A000F9F6978531969801215F3F4F80E0419173
:1032B0008427E217F307D9F79813D2CFF801838553
:1032C0009485805D97408137974150F681E0F80101
:1032D0009585933028F6DF91CF911F910F91FF9044
:1032E000EF90DF90CF9008952F923F924F925F9290
:1032F0006F927F928F929F92AF92BF92CF92DF9206
:10330000EF92FF920F931F93CF93DF93CDB7DEB76A
:10331000A5970FB6F894DEBF0FBECDBFA8958091DC
:103320000101809343060E94FE0560937E01709325
:103330007F01809380019093810182E00E94D104FB
:103340007C0181E0E114F10409F080E080937D01CB
:1033500083E00E94D10421E0892B09F020E0209332
:103360007C0180E10E94D10421E0892B09F020E05A
:1033700020937B0180910101803109F479C0809113
:103380000101823061F48091F402811171C0809159
:103390007002882321F080910003811169C080911F
:1033A000030300E814EE882309F457C0BE016F5FE1
:1033B0007F4F88EF92E00E94D708882351F19A81CD
:1033C000812C912C540197FF06C0812C912CF8EF91
:1033D000AF2EBB24BA944091F80289814B3309F097
:1033E0008AC02D8127FF87C080FF18C08B8100E035
:1033F00011E82FEF3FEF80FD30C000E811E82FEF1C
:103400003FEF81FD2AC000E012E82FEF3FEF82FD81
:1034100024C000E814EE2FEF3FEF1FC0082F10E08C
:1034200030E020E073E0000F111F221F331F7A9558
:10343000D1F7007E177022273327892F90E0B0E064
:10344000A0E0EBE0880F991FAA1FBB1FEA95D1F7F8
:10345000802B912B8C01082919290E94460829A349
:103460003AA34BA35CA36DA310937A010093790157
:10347000109103031123A9F08091790190917A01B1
:103480009C012158344E21153A4510F00C946631B8
:1034900020919501222329F08115944114F4109272
:1034A0009501EF2879F48091740181110BC080910E
:1034B00001018111D4C08091ED02843009F079C0FE
:1034C0000E94460D8091720190917C0191115CC126
:1034D000882341F080917101882321F00E946411BA
:1034E0001092710110926D0110926E0110926F0195
:1034F0001092700171C1092F10E0102F0027110FD9
:10350000110F110F28E0829FB0011124062B172BF9
:10351000012E000C220B330B082919292A293B29DB
:103520004832C9F4803561F4953009F096CF8F8127
:103530008C3009F092CF00E812E82FEF3FEF8DCFEB
:103540008F3F09F08ACF973009F087CF00E013E86A
:103550002FEF3FEF82CF403109F07FCF68856623A0
:1035600009F47BCF70E08F81AB01481B5109CA0180
:103570009695982F8827979587950E94F839CB01C3
:10358000770FAA0BBB0B53E0000F111F221F331F35
:103590005A95D1F700782770332700521109210975
:1035A0003109800F911FA21FB31F8401082B192B13
:1035B00054CF80919501811185CF112381F08091A5
:1035C000790190917A0181389B414CF081E08093A0
:1035D00095011092940185E00E946F0C73CF809149
:1035E000F402882331F080910003811102C08BE145
:1035F000F3CF1092940110929501109296011092BF
:103600009701109298011092990110929B011092CB
:103610009A0110929C0110929D0110929E011092AD
:103620009F011092A1011092A0011092A20110928C
:10363000A4011092A3011092AF011092B001109258
:10364000B1011092B20180910001882331F087E02E
:103650000E946F0C1092000135CF82E0BDCF8091A7
:103660000101873011F480E0B7CF809101018830EB
:1036700009F428CF80910101893009F423CF80918A
:1036800001018A3009F41ECF809101018B3009F4C9
:1036900019CF809101018C3009F414CF8091010180
:1036A0008D3009F40FCF809101018E3009F40ACFDB
:1036B00080910101883109F405CF809101018931A0
:1036C00009F400CF80910101833109F4FBCE809190
:1036D0000101843109F4F6CE809101018F3009F0A7
:1036E0003EC080910003882309F4ECCE80919501BF
:1036F0008111E8CE112341F08091790190917A01F6
:1037000081389B410CF0DECE0E94FE056B017C01EE
:103710000E94701141E0C701B6010E9484110E940D
:103720003114C701B601605C704E8F4F9F4F0E94ED
:103730005A0C61E085E00E94FA040E94641161E085
:1037400084E00E94FA0461E086E00E94FA0463ECDF
:1037500070E08DE593E00E947D1480E13DCF809183
:103760000101823109F4AECE80910101853019F456
:103770001092940178CF80910101853009F4A2CE96
:1037800081E0809373019ECE8111FDC08091010183
:103790008531F9F0809101018631D9F080910101E4
:1037A0008731B9F0809101018A3199F0809101014E
:1037B0008B3179F080910101811129C08091ED0256
:1037C00090E0019667E070E00E94F8398093ED0286
:1037D00003C080E00E946F0C80910101811105C03F
:1037E0008091ED02882309F406C18091010189319D
:1037F00009F0F3C08091E6029091DC029111E8C0DB
:10380000813009F0EAC0EDEDF2E000E0F7C0809110
:103810000101863099F280910101883059F480913C
:10382000EE0290E0019663E070E00E94F839809328
:10383000EE02D2CF80910101883149F48091EF02EC
:1038400090E00196837099278093EF02C5CF809115
:1038500001018931D1F49091E60281E0890F209134
:10386000DC02213059F09150933010F40C944D311A
:10387000211104C0853011F40C945131893018F4B1
:103880008093E602A9CF80E0FBCF809101018930CF
:1038900059F48091F00290E0019669E070E00E9496
:1038A000F8398093F00298CF809101018A3059F461
:1038B0008091F10290E0019666E070E00E94F83994
:1038C0008093F10289CF809101018B3009F484CF7C
:1038D000809101018C3059F48091F20290E00196C0
:1038E0006CE070E00E94F8398093F20275CF80910D
:1038F00001018D3039F48091F30291E089278093A2
:10390000F3026ACF809101018E3009F465CF809176
:103910000101843159F480914F0190E0019663E0F8
:1039200070E00E94F83980934F0156CF80910101D9
:10393000813109F451CF80910101823109F44CCFDA
:10394000809101018F3009F447CF809101018031CE
:1039500059F40E94FE0560936D0170936E0180938F
:103960006F019093700138CF8091EC02882309F4A5
:1039700033CF10919301113009F02ECF0E945811CE
:103980001093710129CF80910101803109F024CF7A
:10399000C0906D01D0906E01E0906F01F0907001C9
:1039A000C114D104E104F10409F416CF0E94FE050C
:1039B0006C197D098E099F096C527140810991092A
:1039C00097FD0ACF81E00E9439160E94DE148ACD4D
:1039D000EFEDF2E0853009F418CF10926C011092EF
:1039E0006A011092660110926701109268011092AC
:1039F000690110E009C0E9EEF2E001E010917B01FD
:103A0000111129C010926C01E0910101EC3110F00C
:103A10000C942631F0E0E15FF24E0C944D3A881D93
:103A20004C2DE928892C602D663006311B2E781F1D
:103A30002D20A6208621962281231224D4263C27DD
:103A4000F9274728492EDA2E363042304B3085246C
:103A50000C2554305D3080916C018F5F80936C0138
:103A60008F30A8F080ED97E091838083002319F0D8
:103A700081E080936B0110926C0110926A011092A8
:103A8000660110926701109268011092690180919D
:103A900065018111AECF0E94FE05AB01BC01809192
:103AA000660190916701A0916801B091690100974A
:103AB000A105B10539F16A017B01C81AD90AEA0AE0
:103AC000FB0AD701C601885E9340A109B109B7FF7F
:103AD00019C080916A018530C8F040936601509307
:103AE0006701609368017093690111E080916A0138
:103AF000853008F410E0002309F486CF81E080933C
:103B00006B0182CF81E080936A01E7CF8F5FFBCFAB
:103B1000809101010E946F0C80917B018111C3C0D3
:103B2000E0906301F0906401C0907901D0907A0137
:103B3000B09062010E9470111091ED0281E08093BB
:103B40003D0480933E0480933F0410923A04109207
:103B5000390410923C0410923B048091F40261ED10
:103B600070E0811102C065ED70E08BE294E00E948C
:103B70001306111105C06EE38BE294E00E944B0F17
:103B800082E080933D0410923A041092390480E15F
:103B900090E090933C0480933B048091E9029091E3
:103BA000EA0208EE13E0B8010E94E4394AE050E06E
:103BB0008BE294E00E94C4126EE28BE294E00E94D9
:103BC0004B0F8091E9029091EA02B8010E94E4391A
:103BD00064E670E00E94E4394AE050E08BE294E051
:103BE0000E94C41263E78BE294E00E944B0F91E0C5
:103BF00090933D048091ED02823008F01CC188E36F
:103C000090E090933A048093390410923C0410920F
:103C10003B0464EF70E0B11002C06CEE70E08BE228
:103C200094E00E947D1461E08091ED02813009F002
:103C300060E088E00E94B91488E390E090933A0431
:103C40008093390480E190E090933C0480933B049E
:103C50006AED70E08BE294E00E94130641E050E0D0
:103C6000B7018BE294E00E94C412B60188E10E9481
:103C70009C1201E010E020E230E050E040E066E31A
:103C800070E08BE294E00E94780E0E948F0B0E94FD
:103C9000520C0E94560C0E94380C90936101809344
:103CA000600180E075C280916501811139CF8091FA
:103CB000ED0281117CC0612F8091E9029091EA02AE
:103CC0000E94850C9093EA028093E90280910101A1
:103CD000882309F425CF80917D0180937401809120
:103CE0007C018093720180917B01809365018091BA
:103CF0000101873111F00C942C3161E087E00E94C2
:103D0000FA0481E080936201809101018031B1F079
:103D100080910101823011F00C9446318091F402BF
:103D200081110CC080917002882311F40C944631EB
:103D300080910003882311F40C94463199E1C92E37
:103D4000D12CE12CF12C04E610E00E94FE058090BD
:103D50007E0190907F01A0908001B09081018C0C39
:103D60009D1CAE1CBF1C681979098A099B0997FD27
:103D700002C00C9487310E94FE057F738827992723
:103D80006F3F7F438105910501F780916B01882387
:103D9000E1F28091E9029091EA02B8010E94E439CF
:103DA00090E080E00E94031710926B01CECF81302B
:103DB00021F58091EC02882319F080E00E9417170A
:103DC00080919301811103C00E94980C7FCF8130B4
:103DD00061F482E08093930160E085E00E94FA0440
:103DE00061E08BE00E94FA0471CF1092930161E0D0
:103DF00085E00E94FA0460E0F4CF843019F40E9458
:103E0000460D64CF823031F41092EE0288E00E94B9
:103E10006F0C5CCF833021F41092F00289E0F7CF71
:103E2000853021F410924F0184E1F1CF863009F002
:103E30004DCF83E1ECCF99249A94980E10E000E0E6
:103E400038E3A32EB12C892E881A21E0921210C0DB
:103E500060E0802F0E94B9149394085F1F4F0032D6
:103E6000110599F781E080933E0480933F0401CFD0
:103E700032E0931216C0B0923A04A0923904109323
:103E80003C0400933B046AED70E08BE294E00E94F6
:103E9000130641E050E0B7018BE294E00E94C412A7
:103EA000DBCF43E0941205C0B601802F0E949C1224
:103EB000D3CFB0923A04A092390410933C040093FB
:103EC0003B0481E0982D990D933009F080E00E9429
:103ED000790C892D8450990BFC01EE0FFF1FEE51D8
:103EE000FF4F659174918BE294E00E941306B4CF6A
:103EF000809101010E946F0C80917B0181117FC034
:103F00000E947B1110923A041092390410923C04E2
:103F100010923B0463E171E08BE294E00E9413068F
:103F200010923A041092390488E090E090933C0497
:103F300080933B0481E09091EE02911180E00E9419
:103F4000790C69E071E08BE294E00E9413068091A5
:103F5000EB026BEF70E0882311F06FEF70E08BE203
:103F600094E00E94130681E080933E0480933F0416
:103F700010923A041092390480E190E090933C044E
:103F800080933B0481E09091EE02913009F080E053
:103F90000E94790C62E071E08BE294E00E941306CB
:103FA0008091EC026FEF70E0811102C06BEF70E066
:103FB0008BE294E00E94130681E080933E0480939C
:103FC0003F0410923A041092390488E190E09093F3
:103FD0003C0480933B0481E09091EE02923009F022
:103FE00080E00E94790C6CE676E08BE294E00E941F
:103FF000130681E080933E0480933F0494C0809137
:10400000650181117DCF8091EE0281111BC08091ED
:10401000EB0291E089278093EB02882339F010921C
:10402000EC0260E083E090E00E9403176091EB02F5
:1040300081E090E00E94031780910101883009F02F
:104040004ACE5ECF813031F49091EC0289270E94F4
:104050001717F2CF0E94550DEFCF809101010E94FA
:104060006F0C80917B01882379F08091650181112B
:104070000BC08091F002883018F00E94550D2BCEB5
:104080001092F1028AE084C00E947B1110923A04DF
:104090001092390410923C0410923B048091F0027B
:1040A00063E871E0883030F08BE294E00E94130600
:1040B0000C94C92E8BE294E00E94130610923A04ED
:1040C0001092390488E090E090933C0480933B0484
:1040D000BE016F5F7F4F8091F0020E9426198823F6
:1040E00029F14AE050E0BE016E5F7F4F8BE294E021
:1040F0000E94370610923A041092390488E190E049
:1041000090933C0480933B0410923E0411E0109382
:104110003F046CE171E08BE294E00E94130610937F
:104120003E0410933F040E948F0BD5CD63E271E0F3
:104130008BE294E00E9413066091F00270E06F5FE2
:104140007F4F8BE294E00E941312D4CF8091010143
:104150000E946F0C80917B011091F102882309F479
:1041600088C080916501811184C0111116C0BE0103
:104170006F5E7F4F8091F0020E942619882359F0CC
:10418000CE0141960E94151881E0809392018EE045
:104190000E946F0CA0CD83E0F8CF143059F48091C9
:1041A000F0020E94A517882311F08BE0F1CF109345
:1041B0009201EDCF113009F049C0BE016F5E7F4F13
:1041C0008091F0020E942619082F1091F002BE0182
:1041D0006F5F7F4F812F0E942619811106C0BE019B
:1041E0006F5F7F4F812F0E947B0D8091E90290913C
:1041F000EA029D878C87809193018E878091EB02E4
:104200009091EC02992301F192E02091F402A4E054
:104210002A9F90011124822B892B8F87BE016F5F0B
:104220007F4F812F0E9449176091F5027091F6022D
:104230004091F702812F0E942A1701112FC280910D
:10424000F0020E942B3547CD90E0DFCF1230B9F35A
:10425000133009F01DC3BE016F5E7F4F8091F002E5
:104260000E942619882309F436CD1092F3028DE0BE
:104270008FCF1F5F133008F413E09DEFE92EE10E9E
:104280000E947B1110E000E0DD24D39410923A04E8
:104290001092390410933C0400933B04E1101BC0BE
:1042A00060E58BE294E00E944B0F6091F00270E0B9
:1042B0006F5F7F4F8BE294E00E94131268E371E01E
:1042C0008BE294E00E941306085F1F4FE3940032D4
:1042D0001105E1F628CFFF24FA94FE0C81E09091BD
:1042E000F1029F1180E00E94790CEF2DF0E0EE0FBB
:1042F000FF1FE45DFE4F659174918BE294E00E9494
:104300001306D0923E04D0923F04DECF809101018B
:104310000E946F0C80917B01882329F080916501B8
:10432000882309F4AFCE0091F002809159028823CE
:1043300089F080915A0281110DC080916E0208139C
:1043400009C081E00E94D11870E060E081E00E9425
:10435000CA12C1CCB8E40B9F80011124C8018F5F41
:104360009E4F0E94A317882EC8018E5F9E4F0E9409
:10437000A317982EC8018D5F9E4F0E94A317A82EE9
:10438000C8018C5F9E4F0E94A317B82E0E94701127
:1043900060E08091F0020E94C5181FE1819FC0017A
:1043A0001124BC0190E080E02AEF30E040E050E0D2
:1043B0000E940C3A121BD12CC12CE12CBFE17B2EA8
:1043C0000AEF202E312C412C512C662463946E2D43
:1043D0008091F0020E94C518879DC0011124BC0184
:1043E00090E080E0A20191010E940C3AF72CF21AB1
:1043F0004F2D1F1508F4412F1F1508F094C0262DCE
:10440000211B122F1F0D212F30E050E001E010E0A2
:10441000B6018BE294E00E94780E4F2D50E0B60179
:104420006F5F7F4F21E030E08BE294E00E94E40D6B
:10443000E394E2E0CE0ED11C1F2DF0E4EF12C7CFC3
:10444000F12CE12C08E010E020E830E048E150E0F9
:1044500070E060E08BE294E00E94120F11E0109394
:104460003D0410923A0410923904A8E1EA2EF12C8E
:10447000F0923C04E0923B0410923E0410933F04FF
:104480006CE676E08BE294E00E94130610933E0403
:1044900010933F048AE290E090933A0480933904A9
:1044A000F0923C04E0923B0464E471E08BE294E01F
:1044B0000E941306C40168EE73E00E94E4398C0187
:1044C0004AE050E08BE294E00E94C4126EE28BE27C
:1044D00094E00E944B0FC80164E670E00E94E4394A
:1044E0004AE050E08BE294E00E94C41261E48BE267
:1044F00094E00E944B0F84E590E090933A048093FF
:104500003904F0923C04E0923B0461E471E08BE2F8
:1045100094E00E9413064AE050E0B5018BE294E07B
:104520000E94C41200CE1F5F1F196DCF8091010140
:104530000E946F0C80917B01882311F40C945431FC
:104540008091F202909165019111B2C08A3008F019
:104550007CC00E94580D0E94FE0560935C01709320
:104560005D0180935E0190935F0168517C4F8F4F96
:104570009F4F609358017093590180935A01909313
:104580005B010E94701181E080933D0410923A0417
:104590001092390410923C0410923B0467E471E0DD
:1045A0008BE294E00E9413066091F00270E06F5F6E
:1045B0007F4F8BE294E00E94131210923A04109203
:1045C00039048AE090E090933C0480933B044AE0F5
:1045D00050E063E871E08BE294E00E94370680913E
:1045E000F20256E0859F9001112430933A04209303
:1045F000390422E130E030933C0420933B048A30BC
:1046000028F46EE58BE294E00E944B0F10923A047E
:104610001092390488E190E090933C0480933B042D
:1046200081E09091F2029A3009F080E00E94790CCA
:104630008091F2026CEA71E08B3009F0D6CC1092D6
:104640003E0481E080933F04CECC9091E8028A3012
:1046500051F591111DC08091E9029091EA02909369
:104660008E0180938D018091930180938F018091C1
:10467000EB029091EC029923A1F092E02091F402D8
:1046800044E0249F90011124822B892B8093900178
:1046900062E871E08091F0020E9449171092920145
:1046A00076CD90E0EBCF992309F4ECCC89E170CD85
:1046B0008A3008F066CF80915C0190915D01A091F5
:1046C0005E01B0915F01892B8A2B8B2B09F459CFA6
:1046D0000E94FE05009158011091590120915A0144
:1046E00030915B01601B710B820B930B97FD49CFDF
:1046F0000E94580D0E94FE056A567F4F8F4F9F4FB4
:1047000038CF809101010E946F0C80917B0188233A
:1047100009F442C08091650181113EC08091F3028D
:10472000882309F4AFCC1091F002812F90E001961C
:1047300060E0F4E0880F991FFA95E1F70E940317F3
:10474000A3E01A9FC00111246FEF80569F4F0E9473
:104750000317B8E41B9FC001112460E080549F4FF1
:104760000E94031780917002882331F080916D02BE
:10477000181302C01092700280915902882351F0E0
:1047800080915A02811106C080916E02181302C0F6
:104790001092590282E0F9CC0E94701111E010933E
:1047A0003D0410923A041092390410923C04109285
:1047B0003B0467E571E08BE294E00E941306609190
:1047C000F00270E06F5F7F4F8BE294E00E94131263
:1047D00010923A04109239048CE090E090933C04DB
:1047E00080933B048091F3020E94790C6EE471E0A7
:1047F0008BE294E00E94130610933E0410933F0452
:1048000010923A041092390488E190E090933C04AD
:1048100080933B048091F30281270E94790C6CE61F
:1048200076E079CC0E94660C882341F00E94FE0558
:1048300068517C4F8F4F9F4F0E945A0C809101010D
:104840000E946F0C0E94FE050091B3011091B4010B
:104850002091B5013091B601601B710B820B930B57
:1048600097FD18C08091E802882341F01092E80279
:104870001092EF0284E08093F10204CC80919201C7
:10488000813019F41092ED02F8CB843009F4FACBA0
:1048900089E07ECC0E947B1110923A041092390478
:1048A00010923C0410923B0463E871E08BE294E0C8
:1048B0000E94130682E080933D0410923A04109205
:1048C00039048CE090E090933C0480933B04809109
:1048D000920164E771E0823081F038F46CE771E0B6
:1048E000813059F060E671E008C06EE671E0833017
:1048F00021F066E671E08430A9F78BE294E00E9433
:10490000130681E080933D040ECC809101010E944A
:104910006F0C80917B011091EF028823D1F180917F
:104920006501811136C0111102C08FE031CC113008
:1049300061F4809159028823C1F380915A0288233F
:10494000A1F30E94311482E123CC123009F095CBFF
:104950001092DC028091E9029091EA029093DE02CB
:104960008093DD0280E49FE19093E0028093DF0278
:10497000E1EEF2E084E0DF011D928A95E9F78AE03A
:104980008093E5021092E6021092E7021092E8028C
:104990008DCE1F5F133008F413E00E947B1114507A
:1049A000F12CE12CDD24D39410923A0410923904B6
:1049B000F0923C04E0923B0401E0010F79F464EAD8
:1049C00071E08BE294E00E941306B8E0EB0EF11C5C
:1049D000102FE0E2EE16F10439F7A5CB81E09091BB
:1049E000EF02911380E00E94790C6EE971E01123CF
:1049F00051F065E971E0113031F06CE871E012308E
:104A000011F06CE676E08BE294E00E941306D092FF
:104A10003E04D0923F04D9CF809101010E946F0CD7
:104A200080917B01811157C01091DC028091E602D8
:104A3000882341F0853008F4D0C093E0111101C003
:104A400094E0891B833008F483E00DEF080F0E9487
:104A50007B1185E0111101C086E0F12CE12C6EEF95
:104A6000562E580E78EEC72E73E0D72EE4E6AE2E03
:104A7000B12C4424439410E0002329F0152D100F8D
:104A8000013009F411E010923A0410923904F092C6
:104A90003C04E0923B041111A2C081E09091E60237
:104AA000911180E00E94790C6AEF71E08BE294E052
:104AB0000E9413068091DC0265EF71E0882331F0DB
:104AC0006EEE71E0813011F064EE71E08BE294E003
:104AD0000E941306B0C0809165018111A5CFE091BD
:104AE000E602E11110C08091DC0290E0019663E0E3
:104AF00070E00E94F8398093DC02809101018931D5
:104B000009F0E9C891CF8FEF8E0F843040F5809186
:104B1000DC02813061F4E150FF0BE452FD4F8581EE
:104B2000893018F48F5F8583E8CF80E0FCCF811156
:104B30000CC0612F8091DD029091DE020E94850CF5
:104B40009093DE028093DD02D8CF8091E502833618
:104B500020F48F5F8093E502D0CF81E0FBCFE5307A
:104B600061F4612F8091DF029091E0020E94850C38
:104B70009093E0028093DF02C0CFE63049F4809149
:104B8000E70290E00196877099278093E702B5CFFE
:104B9000E730E1F48091DC02813099F48091E10208
:104BA00081110FC08091E20281110BC08091E3025C
:104BB000811107C08091E402811103C081E08093DC
:104BC000E4028091E7020E94F03397CF82E0809365
:104BD000EF0288E10E946F0C90CF81E033CF11305B
:104BE00009F07FC08091DC02813099F56FED71E0B2
:104BF0008BE294E00E94130641EE842E42E0942E54
:104C000066246394712C9091E60281E09615170456
:104C100009F080E00E94790CD4016D914D01605D36
:104C20008BE294E00E947610BFEF6B1A7B0AE5E0FE
:104C30006E16710441F740923E0440923F040F5FAC
:104C4000F8E0EF0EF11C20E2E216F10409F013CFB8
:104C50006ACA81E09091E602913009F080E00E94FA
:104C6000790C8091DC0281112AC068ED71E08BE241
:104C700094E00E9413068091DD029091DE02B6015D
:104C80000E94E4394AE050E08BE294E00E94C412B2
:104C90006EE28BE294E00E944B0F8091DD029091D6
:104CA000DE02B6010E94E439B5010E94E4394AE00F
:104CB00050E08BE294E00E94C41263E70DC061ED06
:104CC00071E08BE294E00E9413066091E5028BE2B2
:104CD00094E00E940C1265E28BE294E00E944B0F7C
:104CE000AACF9091E60281E0153011F5953009F0D8
:104CF00080E00E94790C66EC71E08BE294E00E9407
:104D000013068091DF029091E002B6010E94E4391F
:104D10004AE050E08BE294E00E94C4126EE28BE223
:104D200094E00E944B0F8091DF029091E002B9CF96
:104D3000163071F5963009F080E00E94790C6CEB2A
:104D400071E08BE294E00E941306BE016F5F7F4F1B
:104D50008091E7020E942619882351F04AE050E032
:104D6000BE016E5F7F4F8BE294E00E94370663CFF7
:104D700063EB71E08BE294E00E9413066091E7021E
:104D800070E06F5F7F4F8BE294E00E94131253CF6D
:104D9000191380E00E94790C6CEA71E0173009F475
:104DA00095CE6CE676E092CE809101010E946F0C68
:104DB00080917B01882391F08091650181110EC063
:104DC00080915902882311F40C94511E80915A024B
:104DD000882311F40C94511E88E1DAC90E947011E5
:104DE00082E080933D0410923A04109239041092AC
:104DF0003C0410923B046BE272E08BE294E00E9470
:104E00007D1481E080933D0410923A04109239049D
:104E100081E190E090933C0480933B0480910003F7
:104E20008823B9F061E272E08BE294E00E947D1485
:104E300010923A041092390489E190E090933C0476
:104E400080933B0465E172E08BE294E00E941306DC
:104E50006AC96AE072E08BE294E00E947D141092CD
:104E60003A041092390489E190E090933C048093D5
:104E70003B0461E072E0E8CF0E94FE054B015C015B
:104E8000809101010E946F0C8091BF019091C0013F
:104E9000A091C101B091C20175016401C81AD90A7B
:104EA000EA0AFB0AD701C601B7FD5CC0D501C401FF
:104EB0004996A11DB11D8093BF019093C001A0939D
:104EC000C101B093C2018091BB019091BC018401EA
:104ED000081B190B0E94380C7C01B501A4010E942B
:104EE000A30C60E472E08DE593E00E941306B80124
:104EF00000341F4110F06FE37FE14AE050E08DE5A0
:104F000093E00E94C41263E372E08DE593E00E9497
:104F100013064AE050E0B7018DE593E00E94C41209
:104F20006AED73E08DE593E00E9413066091CB017A
:104F30007091CC018091CD019091CE010E943E14E0
:104F400065E471E08DE593E00E94B1113CE0E31669
:104F500030E3F30638F00E94560C0E94520C85E1B3
:104F60000E946F0C80910101803111F00C946B1E36
:104F70008091BB019091BC01A091BD01B091BE0197
:104F800075016401C81AD90AEA0AFB0AD701C601E9
:104F900080549F41A109B109B7FD07C080E00E947C
:104FA00039160E94DE140C946B1E8091C7019091FB
:104FB000C801A091C901B091CA01A5019401281BA3
:104FC000390B4A0B5B0BDA01C90184569109A1091F
:104FD000B109B7FF02C00C946B1E0E94311480927D
:104FE000C7019092C801A092C901B092CA010C9465
:104FF0006B1E0E94FE056B017C018090B3019090B6
:10500000B401A090B501B090B601809101010E9459
:105010006F0CD701C60188199909AA09BB09B7FD08
:1050200003C00E9464118FCCC818D908EA08FB0895
:1050300030EAC30E3FE0D31EE11CF11CF7FE23C093
:10504000DD24D394D0923D04F12CE12C08E010E053
:1050500020E830E048E150E070E060E08BE294E06E
:105060000E94120F10923A041092390488E190E0E5
:1050700090933C0480933B04D0923E04D0923F0432
:105080006CE572E0E1CE0E9431140C946B1E8091AD
:1050900001010E946F0C80917B01882341F0809177
:1050A0006501811104C081E08093EF0295CEDD247B
:1050B000D394D0923D04F12CE12C08E010E020E8DC
:1050C00030E048E150E070E060E08BE294E00E9464
:1050D000120F10923A041092390408E110E0109374
:1050E0003C0400933B0410923E04D0923F046CE6D3
:1050F00076E08BE294E00E941306D0923E04D092B8
:105100003F0468E572E08BE294E00E941306809110
:10511000CF019091D00138EEE32E33E0F32EB701AA
:105120000E94E4394AE050E08BE294E00E94C4120D
:105130006EE28BE294E00E944B0F8091CF01909140
:10514000D001B7010E94E43964E670E00E94E439BE
:105150004AE050E08BE294E00E94C41261E48BE2EA
:1051600094E00E944B0F8CE590E090933A0480937A
:10517000390410933C0400933B0465E572E08BE234
:1051800094E00E9413062091CB013091CC01409114
:10519000CD015091CE01A0E5B0E00E94693A6E5C6D
:1051A0007F4F8F4F9F4F24E630E040E050E00E9459
:1051B0000C3ACA01B9016C507E4F8F4F9F4F28EEB9
:1051C00033E040E050E00E940C3AB9014AE050E080
:1051D000A5C90E94FE054B015C010E94660C7090FF
:1051E0000003882309F49BC00E94FE052091E90278
:1051F0003091EA02620F731F811D911D0E945A0CAB
:1052000010929601109297011092980110929901B4
:1052100010929B0110929A0110929C0110929D0194
:1052200010929E0110929F011092A1011092A00174
:10523000A091F502B091F60220E930ED43E050E094
:105240000E94693A61517F4F8F4F9F4F20EF30E0AE
:1052500040E050E00E940C3A2093510130935201FB
:1052600040935301509354011092560110925501EE
:10527000109257011092710280917002882389F177
:10528000772079F140E0C501B4010E9484111092A9
:105290005B0210925C0210925D0210925E0210920C
:1052A0005F021092600210926102109262021092EC
:1052B00063021092640210926502109266021092CC
:1052C00068021092670210926A02109269021092AC
:1052D0006C0210926B0210926F0280916D028093AB
:1052E0006E021092500161E084E00E94FA0461E0D5
:1052F00086E00E94FA040E94FE0560527C468B4FB5
:105300009F4F60937501709376018093770190931E
:10531000780180919301823011F40E942A0C8091CF
:1053200001010E946F0C711002C010E019C10E94AF
:10533000380C8C019093610180936001AC0170E0A6
:1053400060E020909C0130909D0140909E01509023
:105350009F01240E351E461E571E20929C0130923E
:105360009D0140929E0150929F012091A001309199
:10537000A1012F5F3F4F3093A1012093A0010C307A
:1053800080E3180738F00E94560C0E94520C85E109
:105390000C94C8208091960190919701A09198015A
:1053A000B0919901840F951FA61FB71F8093960196
:1053B00090939701A0939801B093990180919A01DD
:1053C00090919B01019690939B0180939A0180910B
:1053D0007002882309F4A2C0B501A401C8010E948B
:1053E000A30C6C018091BB019091BC01B401681BBE
:1053F000790B60349FE1790710F06FE37FE190E073
:1054000080E026E0660F771F881F991F2A95D1F745
:1054100020E43FE140E050E00E940C3A622F80918E
:105420006D020E94C518E82F8091D6019091D70196
:105430006AEF843DA0E39A0720F462E370E00E94E3
:10544000E439E61708F0ECC06E1BF2E3EF9F700141
:105450001124262F30E0D6010E94533A20915B029E
:1054600030915C0240915D0250915E02DC01CB0103
:10547000820F931FA41FB51F80935B0290935C0261
:10548000A0935D02B0935E022E2F30E0D6010E9401
:10549000533A20915F023091600240916102509135
:1054A0006202DC01CB01820F931FA41FB51F809302
:1054B0005F0290936002A0936102B0936202960132
:1054C000A0E3B0E00E94533A9B01AC01D7010E94D7
:1054D000693A28EE33E040E050E00E940C3A8091B7
:1054E000630290916402A0916502B0916602820FFE
:1054F000931FA41FB51F8093630290936402A0932F
:105500006502B093660280916702909168028E15E1
:105510009F0520F4F0926802E09267028091F40205
:10552000882309F402CF20915501309156012017AC
:10553000310720F41093560100935501813009F092
:1055400073C011E08091510190915201A0915301DB
:10555000B0915401281639064A065B0608F4E5CED8
:105560004091B3015091B4016091B5017091B601C1
:1055700075016401C41AD50AE60AF70A8091F4029B
:1055800081110DC0D701C60180959095A095B09569
:105590008827B7FD83959927AA27BB27182F1111B4
:1055A00002C0F7FC1BC10E94560C8091F4028823B4
:1055B00049F0111107C081E080935001809373017D
:1055C00010929401772009F487C02091A0013091B6
:1055D000A1012115310509F46FC08091A201882332
:1055E00009F46AC050E040E060919C0170919D0117
:1055F00080919E0190919F010E940C3A25363105C1
:1056000008F05AC01092EB0260E081E090E00E9446
:105610000317109294010E94520C86E10C94C8204A
:10562000BE2FB61B6B2F11CF4091B3015091B40127
:105630006091B5017091B6018091E9029091EA0202
:10564000B0E0A0E0841B950BA60BB70B805D9740E4
:10565000A109B109880D991DAA1DBB1DB7FD65CE15
:1056600040915501509156014536510508F45DCEE3
:105670009801A4E6B0E00E94533A6B017C0180914E
:10568000F702A81BB1099A010E94623A6C157D05C8
:105690008E059F0570F080915701833018F48F5F5D
:1056A0008093570111E080915701833008F058CF63
:1056B0003CCE10925701F6CF20919A0130919B0178
:1056C0002115310549F08091AF01811118C081E0A9
:1056D0008093AF011092B20180917002882329F06B
:1056E0008091000381110E94F7148091A2018F5FC5
:1056F0008093A2010E94581183E00C94C82050E0CE
:1057000040E060919601709197018091980190918D
:1057100099010E940C3A69018091B001853010F521
:10572000E82FF0E0EE0FFF1FEC56FE4F328B218B7F
:105730008F5F8093B00165E00E94D8399093B101EA
:105740002091B001E5EAF1E030E060E070E0CB01EB
:105750002317D1F141915191640F751F811D911D46
:105760003F5FF6CFA4E6B0E0442755270E94693A90
:105770004B015C012091A3013091A401A5E5B0E0AB
:105780000E94533A86169706A806B90648F48091F7
:10579000B2018F5F8093B201882309F49DCF39CF86
:1057A0001092B2018091B10190E0FC01EE0FFF1F59
:1057B000EC56FE4FD28AC18A019665E070E00E94E5
:1057C000F8398093B101BCCF30E050E040E00E9456
:1057D0000C3A3093A4012093A3017ECF80917002F4
:1057E000882311F1772001F18091C7019091C801C0
:1057F000A091C901B091CA0175016401C81AD90A02
:10580000EA0AFB0AD701C60184569109A109B10928
:10581000B7FF02C00C946B1E81E00E94D1180E9459
:1058200090130E948F0BDBCB6A017B01C818D9084B
:10583000EA08FB080E94701182E080933D041092F8
:105840003A041092390410923C0410923B046DE526
:1058500073E08BE294E00E947D1480910003882322
:1058600059F1809160019091610108EE13E0B80157
:105870000E94E4394AE050E08BE294E00E94C412B6
:105880006EE28BE294E00E944B0F80916001909158
:105890006101B8010E94E43964E670E00E94E439D5
:1058A0004AE050E08BE294E00E94C41269E573E0A4
:1058B0008BE294E00E941306C701B60128EE33E0A4
:1058C00040E050E00E940C3A49016B017C012AE063
:1058D000BA01A4018BE294E00E94C0116EE28BE257
:1058E00094E00E944B0FC701B60124E630E040E08F
:1058F00050E00E940C3ABA01A9012AE08BE294E040
:105900000E94C01163E78BE294E00E944B0F0C945D
:1059100093200E94660C882399F02FB7F894809109
:10592000B7019091B8012FBF892B11F00C946B1E19
:105930000E94FE056C507E4F8F4F9F4F0E945A0C65
:10594000809101010E946F0C0E94FE050091B3013D
:105950001091B4012091B5013091B601601B710B1B
:10596000820B930B97FF3CC080917102882341F01A
:1059700081E00E94D11870E060E082E00C94A721E1
:105980000E94701182E080933D0410923A041092BC
:10599000390410923C0410923B0460E573E08BE202
:1059A00094E00E947D1480910303882311F40C94E9
:1059B000932010923A041092390480E190E0909381
:1059C0003C0480933B048091790190917A010E947C
:1059D0004A1268EF8BE294E00E940C0663E493CFD6
:1059E0000E946411809163019091640101969093EB
:1059F0006401809363018091500120910303109111
:105A000093018823B9F01092500110927301222360
:105A100051F08091790190917A0181389B411CF07D
:105A200081E080939501123011F40E94140C8AE1F8
:105A30000C94C820909173012223F9F020917901F0
:105A400030917A0121383B41C4F021E02093950147
:105A50003091EB02332321F0112311F0892F82279B
:105A60008093940185E00E946F0C123011F00C9429
:105A70006B1E0E94140C0C946B1E992331F080E075
:105A80000E946F0C10927301F0CF112311F40C944B
:105A9000511E84E00C94C8200E94660C81110E9463
:105AA0002A0C809101010E946F0C2FB7F89480910D
:105AB000B7019091B8012FBF892B59F30C946B1E3D
:105AC0000E94660C8823B1F00E94FE0568577C4E48
:105AD0008F4F9F4F0E945A0C80919301823051F456
