:100000000C9421060C9458060C9458060C9458062F
:100010000C9458060C9458060C9458060C94D7343B
:100020000C9458060C9458060C9458060C945806D8
:100030000C9458060C9458060C9458060C945806C8
:100040000C9416330C9458060C9486330C9460333D
:100050000C9458060C9458060C9458060C945806A8
:100060000C94B8330C94580644454C455445203EF6
:100070000052454E414D45203E004C4F4144203EEC
:1000800000414E414C5953452C5354415254004465
:100090004941474E4F53544943533E00494E464F02
:1000A000203E00414E414C595345203E0050524F96
:1000B00046494C4553203E0053455454494E4753FE
:1000C000203E0046414E204F46460046414E204FBE
:1000D0004E0044554D503A20004F4646004F4E00CA
:1000E000524553544152543A200053455454494EBA
:1000F0004753004F50454E203E0050524F46494C0A
:100100004520007A00160171006800DF012041439C
:1001100054494F4E530053415645203E004E414DE9
:100120004520500044454C455445203E0044454C34
:1001300045544520500053415645440050524F46C7
:10014000494C455300524556494557203E004E45BF
:1001500057203E00414E414C5953450052455155A0
:1001600049524544004355522053454E534F520087
:100170005052455353205354415254004C4F414424
:10018000204341534500414E414C595345002C6397
:10019000757272656E745F6D613D00414E414C59E0
:1001A00053452C53414D504C452C745F6D733D00AD
:1001B0004A3A0020413A0044554D50494E472E2EB0
:1001C0002E005253543A00204355523A0054454DA4
:1001D000503A00444941474E4F535449435300421B
:1001E00041434B203E00342E302E300046573A20FB
:1001F0000035563A20002D2D00424153453A20004B
:1002000025204E004C4F573A2000494E464F0041A2
:1002100055544F204F4646004155544F204F4E00F5
:10022000434F4F4C444F574E00434845434B205497
:10023000454D500054454D50204552524F520043B9
:10024000555252454E54204C4F2100434845434B94
:10025000204341534500434845434B20434F494CBD
:100260000021204641554C5420210048454947482B
:1002700054204F4B3F00434153450020262000545B
:10028000494D45004341534553004C4F41440044C0
:10029000524F5050494E470041202000414E4E459C
:1002A000414C494E47002C7065616B5F6D613D00AC
:1002B0002C696E7075745F656E657267795F4A3D13
:1002C00000414E414C5953452C454E442C745F6DB2
:1002D000733D00414E414C5953452C41424F5254BD
:1002E0002C726561736F6E3D555345522041424FEC
:1002F00052542C745F6D733D00414E414C5953452F
:100300002C474154455F4F50454E004F4E452053BA
:10031000484F54004155544F2046454544004652ED
:1003200045452052554E0020434F4F4C210043413C
:100330005345533A200054494D450054494D453EDC
:10034000004A3A00413A0000000000003E5B4F5B6B
:100350003E3E6B4F6B3E1C3E7C3E1C183C7E3C1868
:100360001C577D571C1C5E7F5E1C00183C1800FF4C
:10037000E7C3E7FF0018241800FFE7DBE7FF30487A
:100380003A060E2629792926407F050507407F0574
:10039000253F5A3CE73C5A7F3E1C1C08081C1C3E6B
:1003A0007F14227F22145F5F005F5F06097F017F59
:1003B000006689956A606060606094A2FFA29408FC
:1003C000047E040810207E201008082A1C08081C3F
:1003D0002A08081E101010100C1E0C1E0C30383E7F
:1003E0003830060E3E0E06000000000000005F00E0
:1003F000000007000700147F147F14242A7F2A12AC
:100400002313086462364956205000080703000091
:100410001C2241000041221C002A1C7F1C2A0808C3
:100420003E080800807030000808080808000060D6
:10043000600020100804023E5149453E00427F40C2
:100440000072494949462141494D331814127F1021
:1004500027454545393C4A4949314121110907366B
:1004600049494936464949291E0000140000004008
:100470003400000008142241141414141400412202
:10048000140802015909063E415D594E7C121112B1
:100490007C7F494949363E414141227F4141413EAD
:1004A0007F494949417F090909013E414151737F13
:1004B0000808087F00417F41002040413F017F083C
:1004C0001422417F404040407F021C027F7F04088D
:1004D000107F3E4141413E7F090909063E415121BD
:1004E0005E7F09192946264949493203017F0103E4
:1004F0003F4040403F1F2040201F3F4038403F6367
:100500001408146303047804036159494D43007FC0
:100510004141410204081020004141417F04020191
:100520000204404040404000030708002054547833
:10053000407F284444383844444428384444287F81
:10054000385454541800087E090218A4A49C787FDB
:100550000804047800447D40002040403D007F10A6
:1005600028440000417F40007C047804787C080423
:1005700004783844444438FC1824241818242418D7
:10058000FC7C08040408485454542404043F4424C4
:100590003C4040207C1C2040201C3C4030403C44DF
:1005A000281028444C9090907C4464544C4400089B
:1005B00036410000007700000041360800020102C9
:1005C00004023C2623263C1EA1A161123A40402091
:1005D0007A3854545559215555794122545478420A
:1005E000215554784020545579400C1E52721239CE
:1005F0005555555939545454593955545458000087
:10060000457C410002457D420001457C407D121140
:10061000127DF0282528F07C545545002054547C48
:10062000547C0A097F4932494949323A4444443AA0
:10063000324A4848303A4141217A3A4240207800D3
:100640009DA0A07D3D4242423D3D4040403D3C2476
:10065000FF2424487E4943662B2FFC2F2BFF0929BA
:10066000F620C0887E090320545479410000447D5F
:10067000413048484A32384040227A007A0A0A72A9
:100680007D0D19317D2629292F2826292929263053
:10069000484D4020380808080808080808382F1076
:1006A000C8ACBA2F102834FA00007B000008142AC6
:1006B000142222142A14085500550055AA55AA558B
:1006C000AAFF55FF55FF000000FF00101010FF00AB
:1006D000141414FF001010FF00FF1010F010F0149D
:1006E0001414FC001414F700FF0000FF00FF1414A2
:1006F000F404FC141417101F10101F101F141414EE
:100700001F00101010F0000000001F101010101F2C
:1007100010101010F010000000FF1010101010103A
:10072000101010FF10000000FF140000FF00FF0079
:10073000001F10170000FC04F414141710171414F1
:10074000F404F40000FF00F714141414141414F744
:1007500000F7141414171410101F101F141414F49D
:10076000141010F010F000001F101F0000001F14E4
:10077000000000FC140000F010F01010FF10FF1437
:100780001414FF141010101F00000000F010FFFFE1
:10079000FFFFFFF0F0F0F0F0FFFFFF0000000000AF
:1007A000FFFF0F0F0F0F0F3844443844FC4A4A4AEA
:1007B000347E02020606027E027E026355494163D0
:1007C0003844443C04407E201E2006027E020299EA
:1007D000A5E7A5991C2A492A1C4C7201724C304A83
:1007E0004D4D303048784830BC625A463D3E49490C
:1007F00049007E0101017E2A2A2A2A2A44445F44B4
:100800004440514A444040444A51400000FF0103E3
:10081000E080FF000008086B6B08361236243606AD
:100820000F090F06000018180000001010003040DB
:10083000FF0101001F01011E00191D1712003C3CA1
:100840003C3C0000000000000103070F1F3F7F0039
:1008500080C0E0F0F8FCFE005EBCE2613FDD83C2D8
:100860009C7E20A3FD1F41009D23BE46DB65F88CC6
:1008700011AF32CA57E974AED580A81FD300408D9E
:10088000142000A1C8DA02818FD9F1DB40A4A62E82
:10089000AF3E0F87C1F1F0001F07C3F0FCFC000F53
:1008A000C3F1FC7F7F8003F0FC7F1F8FC000FC3F03
:1008B0001F87E3E0187F1FC7E1F8C03E1FC7F1F8AC
:1008C0007E001F87E1F87E3F800FE1F87E1F8FC01A
:1008D00003F07E1F87E3E030FC1F87E3F8E07C3FF6
:1008E0000FE3F8FE003E0FC3F0FC3F801F87F0FCD3
:1008F0003F0FC007E1FC3F0FC3E001F07E0F83E034
:10090000E000F81F07C1F0000000003FFFFFFFFFFD
:10091000FF8000000003FE0007C001F07F800000A0
:100920003C1F0003F000FC00780001C00FC001FC78
:10093000007F800400060003F0007F000FC0040069
:10094000180000FC001F8003E00400E000007F00AE
:1009500007E000C004030000001FC001F80000040D
:100960000C00000007E0007E0000043000000001E1
:10097000F8001F8000040C000000007E0007E0006B
:100980000403000030001F8003F8000400E0007C36
:10099000000FE000FE00040018003E0003F0003FDE
:1009A00080040006001F8000FC000FC0040001C08E
:1009B00007E0003F0003E00400003C01F0000F806E
:1009C00000E078000003C0F80007C0007F8000004E
:1009D000003FFFFFFFFFFF80000060E05F0CC0A74B
:1009E00041F9F800F0F07D0CC03F01F9FC00F0F097
:1009F0007D30303C81818C0198D828353154C181BB
:100A00008C0198D8283FDE5741F1F8030CCC02AF97
:100A1000DCCF01F1F003FCCC12AB333C0181980335
:100A2000FCC617C333340181980606C61FCCC6C95D
:100A30003DF98C0606C21F4CC6C97DF98C0000002A
:100A400000000000000000000000000E000007FF92
:100A5000FFFFFFFFFFFFFFFFFFFF9E00000FFFFFF5
:100A6000FFFFFFFFFFFFFFFFFFFE00003C00000055
:100A70000000000000000000FE0000700000000008
:100A800000000000000000DE0000E00000000000A8
:100A9000000000000000DE00FFC0000000000000B9
:100AA0000000000000DE01FF000000000000000068
:100AB00000000000DE0180000000000000000000D7
:100AC000000000DE018000000001C33F30C780004D
:100AD0000000DE018000000001E33F30CFC00000D5
:100AE00000DE018000000001E30330CC4000000084
:100AF000DE018000000001B30630CC00000000DE03
:100B0000018000000001B30C3FCF80000000DE0137
:100B100080000000019B1C3FC3C0000000DE01807C
:100B2000000000018B1830C0C0000000DE01800012
:100B30000000018F3030C8C0000000DE01800000DE
:100B40000001873F30CFC0000000DE0180000000C0
:100B500001873F30CF80000000DE018000000000F0
:100B60000000000000000000DE01FF0000000000A7
:100B700000000000000000DE00FFC00000000000D8
:100B8000000000000000DE0000E0000000000000A7
:100B90000000000000DE0000700000000000000007
:100BA00000000000DE00003C00000000000000002B
:100BB000000000FE00000FFFFFFFFFFFFFFFFFFF31
:100BC000FFFFFE000007FFFFFFFFFFFFFFFFFFFF2C
:100BD000FF9E000000000000000000000000000078
:100BE0000E00000000240027002A0000000000255D
:100BF0000028002B002200FF210000000800020155
:100C000000000304070000000000000000000000D6
:100C10000023002600290004040404040404040240
:100C20000202020202030303030303010204081089
:100C30002040800102040810200102040810200056
:100C4000663511241FBECFEFD8E0DEBFCDBF84B71D
:100C50008093590614BE0FB6F894A8958091600051
:100C6000886180936000109260000FBE11E0A0E0E8
:100C7000B1E0EEEFF5E702C005900D92A636B107A0
:100C8000D9F726E0A6E6B1E001C01D92A835B2076B
:100C9000E1F716E0C1E2D6E004C02197FE010E9410
:100CA000CA3AC032D107C9F70E9417360C94FD3AF0
:100CB0000C94000080E480937C0080917A00806432
:100CC00080937A0080917A0086FDFCCF8091780035
:100CD0009091790008950895833081F028F481304F
:100CE00099F08230A9F008958730A9F08830C9F0D2
:100CF0008430B1F4809180008F7D03C080918000AA
:100D00008F7780938000089584B58F7784BD089590
:100D100084B58F7DFBCF8091B0008F778093B0003A
:100D200008958091B0008F7DF9CFCF93DF93282F66
:100D300030E0F901E750F44F8491F901E55DF34F9C
:100D4000D491F901E95EF34FC491CC23A1F0811154
:100D50000E946C06EC2FF0E0EE0FFF1FE35FF34FF5
:100D6000A591B491EC91ED2381E090E009F480E04D
:100D7000DF91CF91089580E090E0FACF1F93CF9359
:100D8000DF93282F30E0F901E750F44F8491F90107
:100D9000E55DF34FD491F901E95EF34FC491CC23A3
:100DA000A9F0162F81110E946C06EC2FF0E0EE0FD7
:100DB000FF1FE551F44FA591B4918FB7F894EC91D2
:100DC000111108C0D095DE23DC938FBFDF91CF9146
:100DD0001F910895DE2BF8CFE2E0FCE0E491E330D0
:100DE00019F140F4E130B1F0E230C9F060E089E09F
:100DF0000C94BE06E73011F1E83041F1E430B1F770
:100E00002091800020622093800090938B0080933B
:100E10008A00089594B5906894BD87BD089594B5EF
:100E2000906294BD88BD0895209180002068209331
:100E30008000909389008093880008959091B0007D
:100E400090689093B0008093B30008959091B000A3
:100E500090629093B0008093B4000895CF93DF9395
:100E600090E0FC01E55DF34F2491895E934FFC0116
:100E700084918823C9F090E0880F991FFC01EF51FD
:100E8000F44FA591B491FC01E551F44FC591D49173
:100E900061110DC09FB7F8948C91209582238C939B
:100EA0008881282328839FBFDF91CF9108956230E6
:100EB00051F49FB7F8943C91822F809583238C93B3
:100EC000E8812E2BEFCF8FB7F894EC912E2B2C933B
:100ED0008FBFEACF3FB7F8948091420390914303CC
:100EE000A0914403B091450326B5A89B05C02F3FB0
:100EF00019F00196A11DB11D3FBFBA2FA92F982F40
:100F00008827BC01CD01620F711D811D911D42E03A
:100F1000660F771F881F991F4A95D1F708958F9202
:100F20009F92AF92BF92CF92DF92EF92FF926B01AE
:100F30007C010E946A074B015C01C114D104E104E9
:100F4000F104B9F00E946A07681979098A099B09B6
:100F5000683E73408105910580F321E0C21AD108F3
:100F6000E108F10888EE880E83E0981EA11CB11CF0
:100F7000E4CFFF90EF90DF90CF90BF90AF909F9025
:100F80008F9008952FB7F89460913E0370913F03BE
:100F900080914003909141032FBF089508950895D3
:100FA000EF92FF920F931F93CF93DF938C017B01FE
:100FB000D0E0C0E0F701EC0FFD1F6491662361F003
:100FC000D801ED91FC910190F081E02DC8010995C7
:100FD000892B11F02196EECFCE01DF91CF911F9199
:100FE0000F91FF90EF900895AF92BF92CF92DF9252
:100FF000EF92FF920F931F93CF93DF936C017B01CE
:101000008B01040F151FEB015E01AE18BF08C0175E
:10101000D10759F06991D601ED91FC910190F081D1
:10102000E02DC6010995892B79F7C501DF91CF9194
:101030001F910F91FF90EF90DF90CF90BF90AF90F6
:101040000895FC01538D448D252F30E0842F90E0CE
:10105000821B930B541710F0CF96089501970895B3
:10106000FC01918D828D981761F0A28DAE0FBF2F7C
:10107000B11D5D968C91928D9F5F9F73928F90E0D2
:1010800008958FEF9FEF0895FC01918D828D981741
:1010900031F0828DE80FF11D858D90E008958FEF7E
:1010A0009FEF0895FC01918D228D892F90E0805C47
:1010B0009F4F821B91098F73992708958AE493E0CB
:1010C0000E94520821E0892B09F420E0822F089524
:1010D00080E090E0892B29F00E945E0881110C9439
:1010E00000000895FC01A48DA80FB92FB11DA35ACB
:1010F000BF4F2C91848D90E001968F739927848F38
:10110000A689B7892C93A089B1898C91837080645A
:101110008C93938D848D981306C00288F389E02DFB
:1011200080818F7D80830895EF92FF920F931F93AC
:10113000CF93DF93EC0181E0888F9B8D8C8D98138A
:101140001AC0E889F989808185FF15C09FB7F89496
:10115000EE89FF896083E889F989808183708064E2
:1011600080839FBF81E090E0DF91CF911F910F912D
:10117000FF90EF900895F62E0B8D10E00F5F1F4F3C
:101180000F731127E02E8C8D8E110CC00FB607FC4B
:10119000FACFE889F989808185FFF5CFCE010E94D9
:1011A0007208F1CFEB8DEC0FFD2FF11DE35AFF4FCD
:1011B000F0829FB7F8940B8FEA89FB898081806267
:1011C000CFCFCF93DF93EC01888D8823B9F0AA8924
:1011D000BB89E889F9898C9185FD03C0808186FDF2
:1011E0000DC00FB607FCF7CF8C9185FFF2CF808141
:1011F00085FFEDCFCE010E947208E9CFDF91CF913C
:101200000895DC0180E0615090F09D919827E92FCE
:10121000EF70F0E0E95AF74F2491E92FE295EF7073
:10122000F0E0E959F74FE491822F8E27ECCF089533
:10123000FC01138615861486128611861086178285
:1012400016821582148213820895DC012C91119666
:10125000ED91FC91F8948181822B81839281322FD0
:1012600030959323928387E090E00197F1F7818195
:101270008323818383E290E00197F1F79081789452
:10128000EFECF0E03197F1F7922381E009F480E090
:101290000895FC0190810180F281E02D292F209595
:1012A00060FF14C0F8948281822382838181892B1C
:1012B0008183A3E2B0E01197F1F78281982B9283AA
:1012C000789487ED90E00197F1F70895F894828182
:1012D000822382838181892B8183AFEFB0E01197D4
:1012E000F1F78281982B928378948FE090E0EBCF96
:1012F000DF92EF92FF920F931F93CF93DF93EC0156
:10130000D62EE42E08E010E0FF24F39461E08D2D4A
:101310008F2109F460E0CE010E944909FF0C0150C1
:101320001109A1F7E11010C0F894E981FA819181C7
:101330008881809589238183E981FA8192818881DE
:101340008095892382837894DF91CF911F910F91AB
:10135000FF90EF90DF900895EF92FF920F931F930D
:10136000CF93DF938C017B0140E065E50E94780913
:10137000E70188E0E80EF11C699140E0C8010E9495
:101380007809CE15DF05C1F7DF91CF911F910F913D
:10139000FF90EF900895FC0190810180F281E02D93
:1013A000F8948181292F20958223818378943DE7C9
:1013B00043E050E0315029F1DA011197F1F78081D3
:1013C0008923C1F3F8948281822382838181892BCE
:1013D00081837894ABE7B7E01197F1F7F8948181B6
:1013E00082238183A3E1B1E01197F1F780819823F3
:1013F00081E009F080E07894E3E6F6E03197F1F7D8
:10140000089580E008958F929F92AF92BF92CF92FD
:10141000DF92EF92FF92CF93DF9300D000D01F9224
:10142000CDB7DEB78091F0039091F1030E94CB0914
:1014300040E06CEC8091F0039091F1030E947809F8
:101440004091E70364E48091F0039091F1030E94DE
:1014500078090E94C2076B017C018091EB03811126
:101460001EC081E08983CA82DB82EC82FD822981F1
:101470003A814B815C816D8170E080E090E00F905B
:101480000F900F900F900F90DF91CF91FF90EF9002
:10149000DF90CF90BF90AF909F908F9008958091F4
:1014A000EC038823C1F08091E703811114C080917F
:1014B000F0039091F1030E942509813091F20E947E
:1014C000C2076C197D098E099F096E3E7240810525
:1014D000910568F3C6CFE091EA03E9508EEE92E001
:1014E000E33038F4F0E0EE0FFF1FED5FFE4F808138
:1014F00091814C01B12CA12C8091E803882329F023
:1015000060E08091E9030E94BE06C501B4010E941B
:101510008F078091E803882309F4A3CF61E08091CD
:10152000E9030E94BE069DCF6F927F928F929F9299
:10153000AF92BF92CF92DF92EF92FF920F931F93E1
:10154000CF93DF938C01EB018091F0039091F10335
:101550000E94CB09882309F43FC0B8018091F003B1
:101560009091F1030E94AC0940E06EEB8091F00392
:101570009091F1030E9478097E016E0189E0C80E06
:10158000D11C8E01A090F003B090F10388E0882E6A
:10159000912C712C66246394C5010E942509811148
:1015A0007628660CE1E08E1A9108B1F7F801719285
:1015B0008F01CE16DF0631F78091F0039091F10391
:1015C0000E94CB09813041F4F70181917F018111A3
:1015D00005C0E017F107C1F790E008C068E0CE0150
:1015E0000E94010991E028852813F6CF892FDF9109
:1015F000CF911F910F91FF90EF90DF90CF90BF9010
:10160000AF909F908F907F906F9008950F931F934E
:10161000CF93DF93CDB7DEB729970FB6F894DEBF2F
:101620000FBECDBF8C01BE016F5F7F4F0E94940A39
:10163000882361F08D81F80190819B3311F487FD3F
:101640000BC08F3359F020F48F31A1F080E007C038
:101650008F3591F08F37D1F78CE001C08AE0299661
:101660000FB6F894DEBF0FBECDBFDF91CF911F91B3
:101670000F91089589E0F3CF8BE0F1CFEF92FF92C5
:101680000F931F93CF93DF93EC01EC80FD806E15D9
:101690007F050CF070C057FF04C0240F351F50E0C9
:1016A00040E08E819F81FA01E20FF31F8E179F07A2
:1016B0001CF49C01241B350B121613060CF05BC0A6
:1016C000922F842F8695869586958E9DD0018F9D2D
:1016D000B00D11246A0F7B1FAF8DB8A1A60FB71FE5
:1016E000477049F188E0841B482F682F70E0FB01A8
:1016F000E15BF74FE491281708F063C0621B7109A2
:101700002FEF30E002C0359527956A95E2F7E22386
:101710000130110539F0B0F10230110561F58C91FD
:10172000E82702C08C91E82BEC93941720F12C81D0
:101730003D81A20FB31FE92FE41BE83078F002309F
:10174000110521F58E2F9C9190959C932C813D81C4
:10175000A20FB31F88508830B0F7E770EE2359F01E
:10176000F0E0E95BF74FE49101301105F9F010F179
:101770000230110519F1DF91CF911F910F91FF9068
:10178000EF900895E0958C91E823CECF81E001158C
:10179000110509F480E081959E2F8C932C813D8169
:1017A000A20FB31F98509830C0F7D7CF8C91E82B79
:1017B000EC93E1CFE0958C91E823FACF8C91E82768
:1017C000F7CF0130110509F4ADCFE0F20230110579
:1017D00009F4A5CFAE0DBF1DAECF0F931F93CF93CE
:1017E000DF9377FF04C0260F371F70E060E0DC0155
:1017F0001496CD91DC91FB01E20FF31FCE17DF07AA
:101800001CF49E01261B370B121613064CF5FA0129
:1018100057FD3796A3E0F595E795AA95E1F7EC9F7C
:10182000D001ED9FB00DFC9FB00D11246A0F7B1FFE
:10183000DC015F96ED91FC91E60FF71F477055278D
:1018400081E090E001C0880F4A95EAF7482F013007
:10185000110559F0A8F02E0F3F1F02301105E1F0DD
:10186000DF91CF911F910F9108952E0F3F1FE21727
:10187000F307B1F38191DF011197842B8C93F7CF9C
:1018800080952E0F3F1FE217F30751F39191DF016F
:10189000119798239C93F7CFE217F30709F38191EF
:1018A000DF01119784278C93F7CF0F931F93FA01D1
:1018B000DC0156964C9156974230E9F04330A1F145
:1018C000413061F514964D915C91DA01AE1BBF0B6E
:1018D000FD01E21BF30B77FD0BC0DC0116964D9169
:1018E0005C916417750724F4AB01BF010E94ED0BF6
:1018F0001F910F91089514964D915C91DA01A61BEA
:10190000B70BBD0161507109DC0116964D915C91D8
:10191000DA01AE1BBF0BFD01E21BF30B77FDE8CF35
:10192000AF010E943E0BE4CF16964D915C91DA0117
:10193000A61BB70BBD0161507109CDCF0F931F934B
:10194000FA01DC0156964C9156974230A9F043308B
:1019500091F1413019F514964D915C91DA01AE1B6D
:10196000BF0BFD013197F7FD04C0AB01BF010E9421
:101970003E0B1F910F91089514964D915C91DA01E1
:10198000A61BB70BBD01DC0116964D915C91DA01E7
:10199000AE1BBF0BFD013197621B730BF7FDE9CF47
:1019A000DC0116964D915C91E417F50714F7AF0131
:1019B0000E94ED0BDECF16964D915C91DA01A61BCD
:1019C000B70BBD01621B730BCECFFC0177FD64C06A
:1019D00080859185681779070CF05EC057FD5CC063
:1019E00082859385481759070CF056C08689823046
:1019F000B1F0833029F1813041F484819581841BD9
:101A0000950BAB01BC01615071092130310509F121
:101A100008F443C02230310509F463C0089584817D
:101A20009581DC01A61BB70BBD0161507109868150
:101A30009781DC01A41BB50BAD0141505109E5CFE5
:101A400086819781861B970BBA01AC0141505109E1
:101A5000DCCFCA0157FD0796A3E095958795AA9517
:101A6000E1F7A481B5818A9F90018B9F300D9A9FE9
:101A7000300D1124620F731F078CF0A1E02DE60FCB
:101A8000F71F4770552721E030E001C0220F4A952B
:101A9000EAF78081822B80830895CA0157FD07965B
:101AA00033E0959587953A95E1F7A481B5818A9FB2
:101AB00090018B9F300D9A9F300D1124620F731F80
:101AC000078CF0A1E02DE60FF71F4770552781E046
:101AD00090E001C0880F4A95EAF7809590818923AC
:101AE000DACFCA0157FD079623E0959587952A9589
:101AF000E1F7A481B5818A9F90018B9F300D9A9F59
:101B0000300D1124620F731F078CF0A1E02DE60F3A
:101B1000F71F4770552721E030E001C0220F4A959A
:101B2000EAF780818227B7CF08958EBD00000DB4FB
:101B300007FEFDCF8EB508958CBD9DBD0895089517
:101B4000FC016370668B84819581268137816130C9
:101B500039F0633029F09187808733872287089591
:101B6000318720879387828708952F923F924F92E3
:101B70005F926F927F928F929F92AF92BF92CF921D
:101B8000DF92EF92FF920F931F93CF93DF93CDB726
:101B9000DEB76A970FB6F894DEBF0FBECDBF9A8F3F
:101BA000898F7A8369834A01D22E18870F83370180
:101BB000BC2CDC0159962D913C915A972115310589
:101BC00009F015C118968D919C911997681779079E
:101BD0000CF0D7C11A968D919C91481759070CF0BB
:101BE000D0C14C2C512CB6E0CB9E600D711D112440
:101BF0007C876B87161617060CF0C3C1EA2DF0E040
:101C0000FA87E98793E0EE0FFF1F9A95E1F7F88BCB
:101C1000EF87CF01840F951F181619060CF0B1C17C
:101C2000A98DBA8D58968C91811104C0BFEABD155B
:101C300008F4D394A98DBA8DED91FC91119702848B
:101C4000F385E02DCD010995B5E0DB9EC00111249F
:101C5000E981FA81FC83EB83312C212C9C01295BE7
:101C60003C4F388F2F8B4A2D50E05E8B4D8BEF8988
:101C7000F88DE20DF31D44919E828D82D12CC12CF2
:101C800069817A81620D731D7A8B698B842F90E054
:101C90009C8B8B8BE98DFA8DA081B18140FF82C036
:101CA000F1E0BF126FC0AF126DC01C96ED91FC91B8
:101CB0002F813885A4014C0D5D1D69897A89898D34
:101CC0009A8D0995EB89FC89F595E7954E2F5FEF85
:101CD000C51AD50A6D817E818D899E89680F791F0D
:101CE0007E836D8398E0C916D10481F6AFEF2A1A7E
:101CF0003A0AEB81FC81E40DF51DFC83EB83F5E0F2
:101D00002F16310409F0B3CF2F81388526153705FA
:101D1000B9F0A98DBA8DED91FC91B1E0BB1257C01D
:101D2000AB1255C069817A816B5F7F4F0088F18962
:101D3000E02D830128E030E0A401898D9A8D09957A
:101D4000A98DBA8DED91FC9111970688F789E02D48
:101D5000CD016A960FB6F894DEBF0FBECDBFDF91FE
:101D6000CF911F910F91FF90EF90DF90CF90BF9098
:101D7000AF909F908F907F906F905F904F903F902B
:101D80002F9009941E96ED91FC91EF80F8840985BF
:101D90001A8592014D815E816B817C81898D9A8D3E
:101DA000099590CF2F8138852615370509F48ACFFC
:101DB00031E0B31207C0A31205C01C96ED91FC914F
:101DC000930178CF1E96ED91FC917301E0CF6B8566
:101DD0007C85641975090684F785E02D73010F85EC
:101DE00018899201A401898D9A8D0995A9CFF901CD
:101DF00034969491329745915491D91AB7E0DB9E6D
:101E0000400D511D1124F901259134913C8B2B8BF0
:101E1000FA0125903490FA013296749031963491FB
:101E2000398B329664903196449041E04C1518F00D
:101E30004A1508F07FC0662D062C000C770B7C83BA
:101E40006B83842D042C000C990B9E838D83A98DAC
:101E5000BA8DED91FC9111970284F385E02DCD01AF
:101E60000995512CD12CC12CEA2DF0E0FA87E98795
:101E70002B2D30E03C872B87A401440D511D47FCDE
:101E80005A95588F4F8B69817A81660D711D67FC59
:101E90007A957E876D877989C71608F051CF2C2DEA
:101EA00030E04D815E81420F531FA985BA854A9F5C
:101EB000C0014B9F900D5A9F900D1124FC01E80D1D
:101EC000F91DF88BEF87852D612C4F89588D420FB6
:101ED000531F5E8B4D8B671408F050C0442443940D
:101EE000480E877041F4C1010196EB89FC89E20D2F
:101EF000F31DD4901C01D7FE19C0A98DBA8DED91A8
:101F0000FC91662D70E0B1E0BB1219C0AB1217C096
:101F10002D853E85620F731F0484F585E02D2F818A
:101F200038854D895E89898D9A8D0995DD0C63947C
:101F3000842DD1CF1E821D821C821B8288CF4B81B3
:101F40005C81640F751FAB85BC856A9FC0016B9F68
:101F5000900D7A9F900D112469817A81680F791F05
:101F60000684F785E02DEF80F88409851A859D01A8
:101F70004F855889898D9A8D0995D8CF570CC39470
:101F80008ACF6A960FB6F894DEBF0FBECDBFDF9141
:101F9000CF911F910F91FF90EF90DF90CF90BF9066
:101FA000AF909F908F907F906F905F904F903F90F9
:101FB0002F9008958F929F92AF92CF92EF92FF92BF
:101FC0000F931F93CF93DF93EC01262F898D9A8D6A
:101FD000009709F051C06A30D1F41D861C868D89A6
:101FE00048E0849F900111248E859F85820F931F66
:101FF0009F878E8781E090E0DF91CF911F910F91B5
:10200000FF90EF90CF90AF909F908F9008956D309C
:1020100089F3CC88AD888F898823C1F08C859D8514
:1020200036E0C39E800D911D1124488559854817BF
:10203000590764F44E855F851D861C8638E0A39E93
:10204000C0011124840F951F9F878E87EA88FB8823
:10205000088919894E855F856C857D85CE010E9432
:10206000B50D2C898C859D8546E0249F800D911DA2
:1020700011249D878C87BECF6A3069F41D861C862B
:10208000FC013896E4912D898E859F85E29F800D15
:10209000911D1124ADCF6D3009F4ACCFFC01349605
:1020A0003491631708F4A6CF3296E491E61708F44A
:1020B000A1CFFC01329685909490462F431B342F7C
:1020C00047E0349F800C911C1124F4013296349126
:1020D0003196E4913323A9F1EE2399F1CC88F401F0
:1020E0003596E491AD884F89442301F10E2E000C02
:1020F000FF0BE30FF11DCE9EA001CF9E500D1124CA
:102100006C857D85460F571F68857985641775072F
:102110006CF44E855F851D861C86FC013896E49123
:10212000AE9E400D511D11245F874E87EA88FB88C3
:10213000088919894E855F856C857D85CE010E9451
:10214000B50DF4013496E4912C898C859D85E29F30
:10215000800D911D11248DCF682F88E194E00C949F
:10216000DA0F6F927F928F929F92AF92BF92CF922F
:10217000DF92EF92FF920F931F93CF93DF93EC01C7
:102180006B015A0139014801E881F9810284F38524
:10219000E02D0995E881F9810288F389E02D870116
:1021A0009301A501B601CE010995A501480D591D60
:1021B00041505109E881F9810288F389E02D9301AA
:1021C000B601CE010995E881F9810088F189E02DF9
:1021D0009401A501B601CE010995C60CD71CB60124
:1021E00061507109E881F9810088F189E02D94013D
:1021F000A501CE010995E881F9810688F789E02DCE
:10220000CE01DF91CF911F910F91FF90EF90DF9062
:10221000CF90BF90AF909F908F907F906F900994D8
:102220006F927F928F929F92AF92BF92CF92DF92E6
:10223000EF92FF920F931F93CF93DF935C01EB011B
:102240006A01490138018701DC01ED91FC916217B7
:10225000730719F5641675062CF0962D872D3A0133
:10226000C92ED82E9601261937092F5F3F4F048CAF
:10227000F58DE02DA301BE01C5010995DF91CF9138
:102280001F910F91FF90EF90DF90CF90BF90AF9094
:102290009F908F907F906F9008954615570591F409
:1022A0002617370724F0892D4B01C22FD82F9E0106
:1022B000281939092F5F3F4F068CF78DE02DA601B5
:1022C000B401DACF0284F385E02D0995D501ED91B3
:1022D000FC910488F589E02D83019401A601BE01DB
:1022E000C5010995D501ED91FC910688F789E02D8E
:1022F000C501DF91CF911F910F91FF90EF90DF907B
:10230000CF90BF90AF909F908F907F906F900994E7
:10231000EF92FF920F931F93DC011A960D911C917F
:102320001B9718962D913C911997ED91FC9100A067
:10233000F1A1E02D7B0150E040E070E060E0099504
:102340001F910F91FF90EF9008954F925F926F92BF
:102350007F928F929F92AF92BF92CF92DF92EF9235
:10236000FF920F931F93CF93DF936C012B015A01C0
:1023700039014801DC01ED91FC910284F385E02DE7
:102380000995E201640C751CD601ED91FC91C6150E
:10239000D7055CF40088F189E02D87019401A5013F
:1023A000BE01C60109952196EFCF0688F789E02D79
:1023B000C601DF91CF911F910F91FF90EF90DF90B9
:1023C000CF90BF90AF909F908F907F906F905F90D5
:1023D0004F9009948F929F92AF92BF92CF92DF92CB
:1023E000EF92FF920F931F93CF93DF93EC015B016A
:1023F0004A016901E881F9810284F385E02D09959C
:1024000095012C0D3D1D21503109E881F981048889
:10241000F589E02D78018401A401B501CE0109956B
:10242000E881F9810688F789E02DCE01DF91CF910F
:102430001F910F91FF90EF90DF90CF90BF90AF90E2
:102440009F908F9009948F929F92AF92BF92CF925C
:10245000DF92EF92FF920F931F93CF93DF93EC01E4
:102460005B014A0169017801E881F9810284F38501
:10247000E02D0995C80CD91C860101501109E8818D
:10248000F9810488F589E02D9501A401B501CE01FB
:102490000995E881F9810688F789E02DCE01DF9161
:1024A000CF911F910F91FF90EF90DF90CF90BF9051
:1024B000AF909F908F900994EF92FF920F931F938C
:1024C000DC01ED91FC9100A0F1A1E02D09951F9197
:1024D0000F91FF90EF9008950F931F93DC01ED9102
:1024E000FC91068CF78DE02D09951F910F910895B1
:1024F0000F931F93DC01ED91FC91048CF58DE02D81
:1025000009951F910F910895DC01ED91FC910084D4
:10251000F185E02D09943F924F925F926F927F92E6
:102520008F929F92AF92BF92CF92DF92EF92FF92E3
:102530000F931F93CF93DF9300D000D0CDB7DEB7BA
:102540003C016B014A015901290187E0480E511CE9
:1025500093E0559447949A95E1F7CB01800F911F32
:102560009A83898310E000E0312C1C821B828B81CE
:102570009C8187709927330C892B61F4EB81FC8156
:1025800083E0F595E7958A95E1F7E00FF11FE80DF7
:10259000F91D349037FE0AC09701A6016B817C813A
:1025A000660D771D88E194E00E9484128B819C81E6
:1025B00001969C838B83A816B906C9F69FEFC91AAA
:1025C000D90A040D151D89819A81C816D90669F6A4
:1025D0000F900F900F900F90DF91CF911F910F915F
:1025E000FF90EF90DF90CF90BF90AF909F908F9033
:1025F0007F906F905F904F903F9008952F923F9201
:102600004F925F926F927F928F929F92AF92BF9202
:10261000CF92DF92EF92FF920F931F93CF93DF93AE
:1026200000D000D000D0CDB7DEB73C016A013E83B8
:102630002D83FC82EB825801A41AB50AB7FE03C0B1
:10264000B194A194B1088D809E80861A970A97FE56
:1026500003C09194819491088A149B045CF0902F9C
:10266000812F0D811E819D838E839C2D8D2D6B016D
:10267000692F782F0C151D055CF09D818E817E835E
:102680006D83692F782F902F812F8601C92ED82E28
:102690001601201A310A2B012D813E81421A530A5C
:1026A00057FE03C0519441945108710137FE03C095
:1026B0003FEFE31AF30AF594E7948D819E81861724
:1026C00097075CF5A1E0B0E0BA83A983C016D106F4
:1026D0004CF1D301ED91FC910484F585E02D2B8123
:1026E0003C81A8016D817E818A149B041CF04D8180
:1026F0005E81B801C3010995E418F508F7FE0AC028
:102700002D813E8189819A81280F391F3E832D8337
:10271000E20CF31C0F5F1F4FD9CF2FEF3FEF3A832F
:102720002983D4CF26960FB6F894DEBF0FBECDBF57
:10273000DF91CF911F910F91FF90EF90DF90CF909D
:10274000BF90AF909F908F907F906F905F904F90D1
:102750003F902F9008952091D602260F3327331FE4
:1027600021323105ECF42091FA02FC0190E080E086
:10277000243069F082E00895A091D6022191AC0145
:102780004A545D4FA40FB52FB11D2C9301968617A7
:1027900098F38091D602680F6093D60280E0089586
:1027A00081E008951092FA0281E08093FC02109279
:1027B000FB0261E082E10E94BE0661E083E10E94CB
:1027C000BE06E9EBF0E080818E7F808380818D7F83
:1027D000808388E48093B80085E48093BC000895EA
:1027E000CF93DF9391E09093B5028823B9F0C09125
:1027F000B800D091BA008091BC008A7B8093BC0065
:1028000060E082E10E94BE0660E083E10E94BE06B5
:102810000E94D213D093BA00C093B800DF91CF9139
:102820000895E091250380912403E81730F4F0E047
:10283000E057FD4F808190E008958FEF9FEF08955E
:1028400090912503809124032FEF3FEF981748F4D0
:10285000E92FF0E0E057FD4F208130E09F5F90933B
:102860002503C90108958091240390912503891BB4
:10287000990B0895CF92DF92EF92FF920F931F93DF
:10288000CF93DF937C01CB018A012091490322235E
:1028900089F0EB016B01C40ED51ECC15DD0569F086
:1028A0006991D701ED91FC910190F081E02DC70174
:1028B0000995F3CF642F0E94AB13C801DF91CF912C
:1028C0001F910F91FF90EF90DF90CF900895CF93DD
:1028D000DF931F92CDB7DEB769832091490322238E
:1028E000F9F020914603203258F021E030E0FC015D
:1028F0003383228390E080E00F90DF91CF910895A1
:1029000080914703E82FF0E0E059FD4F99819083D3
:102910008F5F809347038093460381E090E0ECCF84
:1029200061E0CE0101960E94AB13F7CFCF92DF9208
:10293000EF92FF920F931F93CF93DF93D0914603B3
:1029400081E0D13208F09CC0C09148030E946A0720
:102950006B017C018091FA0281116CC082E080934E
:10296000FA0281E08093FC028FEF8093F9021092CB
:102970001E03D0931D03A0E7B2E0EDEFF2E080E08C
:10298000D8138DC010921F0380911F03CC0FC82B4A
:10299000C0931F038091FB02813009F084C0109224
:1029A000FB020E946A076B017C0180911F038093E8
:1029B000BB008091B1029091B202A091B302B0919C
:1029C000B402892B8A2B8B2BA1F00E946A070091FD
:1029D000B1021091B2022091B3023091B4026C198D
:1029E0007D098E099F09061717072807390708F47C
:1029F00042C08091BC0083FDD8CF85EC8093BC00A1
:102A00000E946A076B017C018091FA02823009F40E
:102A10004CC08091F9028F3F09F469C08091F9029E
:102A2000803209F466C08091F902803309F463C0F2
:102A300084E026C08091B1029091B202A091B302CD
:102A4000B091B402892B8A2B8B2B09F483CF0E947F
:102A50006A070091B1021091B2022091B302309145
:102A6000B4026C197D098E099F09061717072807FC
:102A7000390708F06FCF8091B0020E94F01385E013
:102A8000109247031092460310924903DF91CF91B1
:102A90001F910F91FF90EF90DF90CF9008959D913F
:102AA00091938F5F6DCF85EEA9CF8091B102909108
:102AB000B202A091B302B091B402892B8A2B8B2B66
:102AC00009F4A2CF0E946A070091B1021091B202EC
:102AD0002091B3023091B4026C197D098E099F09CF
:102AE000061717072807390708F08ECFC4CF80E0F4
:102AF000C7CF82E0C5CF83E0C3CFCF92DF92EF9202
:102B0000FF920F931F93CF93DF93EC016B01142F70
:102B10008D8D9E8D009709F454C029A131E030932A
:102B20004903209348031092470310924603DC01A7
:102B3000ED91FC910190F081E02D60E00995760126
:102B4000CC24C394D12C01E011508D8D9E8D1F3F5C
:102B500071F1B0E2CB16D104C0F00E9496148D8DB5
:102B60009E8D29A1009349032093480310924703A7
:102B700010924603DC01ED91FC910190F081E02D73
:102B800060E00995CC24C394D12C8D8D9E8DF701E6
:102B90006491DC01ED91FC910190F081E02D0995AB
:102BA000BFEFCB1ADB0AEFEFEE1AFE0ACDCFDF91B3
:102BB000CF911F910F91FF90EF90DF90CF900C94E9
:102BC0009614EDA5FEA590818BA98095892380831D
:102BD0007B01115070F1F70184912B8D3C8D232BDB
:102BE00031F00E94950DFFEFEF1AFF0AF2CF28E0B7
:102BF00030E040E8E9A5FAA599A9582F5423A9F097
:102C00005081952B9083EBA5FCA590815AA9952B1B
:102C10009083EBA5FCA550819AA99095952390836C
:102C200046952150310931F7DECF5081909595239B
:102C3000E9CFDF91CF911F910F91FF90EF90DF903F
:102C4000CF9008951F93CF93DF93EC018D8D9E8DD0
:102C5000009721F1162F29A131E0309349032093E9
:102C600048031092470310924603DC01ED91FC915A
:102C70000190F081E02D60E009958D8D9E8DDC0145
:102C8000ED91FC910190F081E02D612F09958D8DE2
:102C90009E8DDF91CF911F910C949614ADA5BEA58A
:102CA0009C918BA9809589238C938B8D9C8D892BEE
:102CB00031F0862FDF91CF911F910C94950D28E074
:102CC00030E080E8A9A5BAA599A9462F4823C1F00C
:102CD0004C91942B9C93ABA5BCA59C914AA9942B99
:102CE0009C93ABA5BCA54C919AA9909594239C93D9
:102CF00086952150310931F7DF91CF911F910895C9
:102D00004C9190959423E6CFDF92EF92FF920F9330
:102D10001F93CF93DF938091350490913604892BD4
:102D200009F4A7C020914D0430914E0440914F0406
:102D30005091500460E074E284EF90E00E94893A80
:102D400020513109410951095695479537952795E5
:102D50002093B80044E065EF7BE088E194E00E94B6
:102D60007D1580911C0490911D048034910509F01B
:102D700097C060E288E194E00E94221660911C04F2
:102D8000615E88E194E00E94221620911E04309139
:102D90001F04C901079697FD079633E0959587951F
:102DA0003A95E1F720911C0430911D04829F800127
:102DB000839F100D929F100D1124C0913704D09164
:102DC000380480913504909136040C0F1D1F009734
:102DD00009F498C02091390431E0309349032093DD
:102DE00048031092470310924603DC01ED91FC91D9
:102DF0000190F081E02D60E40995EE24E394F12C3C
:102E0000DD24D39480913504909136040C171D076E
:102E100009F44FC0B0E2EB16F104D8F00E9496140A
:102E2000809135049091360420913904D092490361
:102E3000209348031092470310924603DC01ED9162
:102E4000FC910190F081E02D60E40995EE24E3947B
:102E5000F12C80913504909136046991DC01ED915B
:102E6000FC910190F081E02D0995BFEFEB1AFB0A70
:102E7000C9CF8091330490913404892B31F0809133
:102E80005604909157040E949C0DE0914704F091E4
:102E90004804908180914C048095892380835ACF87
:102EA00060E088E194E00E94221660911C04615069
:102EB00068CF0E9496148091350490913604892B36
:102EC00009F461C02091510430915204409153049F
:102ED0005091540460E074E284EF90E00E94893ADB
:102EE0002051310941095109569547953795279544
:102EF0002093B800DF91CF911F910F91FF90EF9039
:102F0000DF900895E0914504F0914604808190910E
:102F10004B04892B80830C171D0769F2899120913E
:102F2000330430913404232B19F00E94950DF3CF14
:102F300028E030E040E8E0914104F09142049091B3
:102F40004904582F5423D9F05081952B9083E09158
:102F50004304F0914404908150914A04952B90834E
:102F6000E0914304F0914404508190914A0490957B
:102F700095239083469521503109E9F6CCCF5081B5
:102F800090959523E3CFE0914704F0914804808128
:102F900090914C04892B8083ADCF1F93CF93DF9307
:102FA000EC01162F8D8D9E8D892BB1F12DA93EA997
:102FB0004FA958AD60E074E284EF90E00E94893A36
:102FC0002051310941095109569547953795279563
:102FD0002093B80066EA111167EACE010E9422161A
:102FE0008D8D9E8D892B41F129AD3AAD4BAD5CADF8
:102FF00060E074E284EF90E00E94893A2051310948
:103000004109510956954795379527952093B80062
:10301000DF91CF911F9108958B8D9C8D892B21F08D
:103020008EAD9FAD0E949C0DEFA5F8A990818CA953
:10303000809589238083CECFEFA5F8A980819CA9B4
:10304000892B8083E5CF2FB7F89480916E02909101
:103050006F02892B61F040916E0250916F0280E8FF
:103060009CE0841B950B90936D0280936C022FBFA4
:1030700008952FB7F89480916C0290916D0280575B
:10308000944F90936D0280936C022FBF08950E941D
:103090005A0620913A0330913B032817390771F003
:1030A000AC01421B530B9A0141E3429FC001439F75
:1030B000900D1124893A51E6950710F090E080E0D8
:1030C000089560E084E00C94BE0660E086E00C9415
:1030D000BE062FB7F89460936802709369028093DC
:1030E0006A0290936B022FBF08959091010181E0D5
:1030F00020910201291301C080E008959FB7F89440
:103100002091010120930201809301019FBF089546
:1031100081E08093A80161E085E00E94BE0661E045
:103120008BE00C94BE0680916702882329F01092F0
:103130002C0387E10C947E188EE0FCCF80E00C9489
:103140007E18E0912F03F0E0E856FE4F8181803237
:1031500019F481E4818308959FEB980F993110F45D
:103160008F5FF8CF8A3511F480E3F4CF90ED980F9C
:103170009930B0F3893311F48DE2ECCF8D3211F434
:103180008EE2E8CF80E2E6CF0F931F93CF93DF93D9
:10319000CDB7DEB729970FB6F894DEBF0FBECDBF0F
:1031A00099E0E9E5F1E0DE01119601900D929A9522
:1031B000E1F7FB0197EC91939B01255F3F4FDF0106
:1031C00090E29D93A217B307E1F78E010F5F1F4FA7
:1031D000AB01475F5F4F9F01D8019D918D01D901E0
:1031E0009D939D01A417B507B9F78F5CDB011A9673
:1031F0008C931A9780912603909127031C969C9399
:103200008E931B978091A8011D968C939091280313
:1032100080912903811182E0892BDB011E968C931A
:103220009B01215F3F4F80E0919189272E173F0737
:10323000D9F7FB01878729960FB6F894DEBF0FBE3A
:10324000CDBFDF91CF911F910F910895089590E028
:1032500080E00895BF92CF92DF92EF92FF920F939A
:103260001F93CF93DF93EC01B62EC72E8D8581116E
:1032700005C0CE010E94CB0981110EC01B861D86A0
:103280001C8680E0DF91CF911F910F91FF90EF900E
:10329000DF90CF90BF90089540E060EFCE010E9494
:1032A000780901E0E12CD12C11E0CE010E94250922
:1032B000F82ECE010E94250991E0F91218C0813044
:1032C00099F51134D8F2DB86D11002C081E08D87E8
:1032D0008B81882399F22396EB2DFC2DCF01089644
:1032E00029912193E817F907D9F781E0CBCFEE2D8B
:1032F000F0E0F8120FC08B851817A0F4DE01AE0FB6
:10330000BF1F13968C91802379F4F12C193008F4A7
:103310001C87D12EEC0FFD1F8381902F9095892360
:1033200083830AC08113F1CFFE01EE0DF11D83816D
:10333000802B8383FF24F3946F2DCE010E944909D3
:103340001F5F000F11F4E39401E087E08E1508F091
:10335000ACCFB7CF61E089E00E942E0785E090E016
:103360000E94EC0661E08AE00C94BE0661E089E010
:103370000E942E078FE090E00E94EC0660E08AE059
:103380000C94BE060E94F13AFB0101900020E9F77F
:103390003197AF01461B570BDC01ED91FC91028088
:1033A000F381E02D09948F929F92AF92BF92EF929A
:1033B000FF920F931F93CF93DF93CDB7DEB7A19703
:1033C0000FB6F894DEBF0FBECDBF7C01FA01CB0172
:1033D00019A2223008F42AE08E010F5D1F4F822EC1
:1033E000912CB12CA12CBF01A50194010E94893A16
:1033F000F901CA016A300CF5605DD8016E938D0148
:10340000232B242B252B79F790E080E0109721F0D7
:10341000BD01C7010E94C419A1960FB6F894DEBF82
:103420000FBECDBFDF91CF911F910F91FF90EF9015
:10343000BF90AF909F908F900895695CDECFCF9240
:10344000DF92EF92FF92CF93DF936C01092E000C75
:10345000EE08FF0897FF19C08DE20E94AC10EC0146
:1034600044275527BA014C195D096E097F092AE0E6
:1034700088E194E00E94D3198C0F9D1FDF91CF91BA
:10348000FF90EF90DF90CF9008952AE0B701A6015A
:1034900088E194E0DF91CF91FF90EF90DF90CF90A3
:1034A0000C94D319242FAB0170E060E00C94D31975
:1034B000CF93DF9391E090932C0490932D0421E01F
:1034C00030E030932B0420932A0430932904209376
:1034D00028041092250410922404109227041092BC
:1034E000260466E373E0882311F06BE373E088E160
:1034F00094E00E94D00782E080932C0480932D04F6
:10350000109225041092240480E190E09093270407
:10351000809326048091260390912703C8EED3E080
:10352000BE010E94613A4AE050E088E194E00E94C6
:10353000521A6EE288E194E00E94DA0F809126032D
:1035400090912703BE010E94613A64E670E00E94F8
:10355000613A4AE050E088E194E00E94521A63E741
:1035600088E194E00E94DA0F81E080932C0480933C
:103570002D04DF91CF910895CF93DF93EB01E8E124
:10358000F4E028E330E03587248790E0978786874A
:103590006EE273E0CF010E94D00741E050E0BE012F
:1035A00088E194E0DF91CF910C94521A8F929F9210
:1035B000AF92BF92CF92DF92EF92FF92CF93DF93C1
:1035C00028EE33E040E050E00E94893A49016B0167
:1035D000EB012AE0BA01A4018AE493E00E94D31926
:1035E0006EE28AE493E00E949408C436D10560F448
:1035F00060E38AE493E00E9494082A9728F460E349
:103600008AE493E00E9494084AE050E0B6018AE41C
:1036100093E0DF91CF91FF90EF90DF90CF90BF903C
:10362000AF909F908F900C94521ACF92DF92EF92AE
:10363000FF920F931F93CF93AC012AE030E0DC019F
:103640000E94DF3A00E410E020E030E057FF04C0C1
:1036500000EC1FEF2FEF3FEF600F711F821F931FD2
:1036600020E830E040E050E00E94AB3A6901890177
:1036700088279927821B930B37FFC9016AE070E006
:103680000E94753AC82F87EFC8168FEFD80628F02A
:103690006DE288E194E00E94DA0FC8016AE070E010
:1036A0000E94753ACB010E941F1A6EE288E194E0F5
:1036B0000E94DA0F4C2F50E070E060E02AE088E1D1
:1036C00094E0CF911F910F91FF90EF90DF90CF90FA
:1036D0000C94D319282F80913C03882301F1CB014E
:1036E00048E350E0509325044093240430E03093A5
:1036F0002704209326040E94151B88EF0E94AC101B
:1037000063E488E194E00E94DA0F8091AA018823A3
:1037100031F067E273E088E194E00C94D0070895FB
:103720000F931F93CF93DF93EC010E94D0078C017E
:1037300062E671E0CE010E94C419800F911FDF91F3
:10374000CF911F910F91089528E330E03093250425
:103750002093240490E0909327048093260466230A
:1037600051F0109229041092280481E090E0909387
:103770002B0480932A048091A8016EE173E08130CC
:1037800031F064E173E0823011F06BE073E088E1C6
:1037900094E00E94901B81E090E090932B04809332
:1037A0002A0490932904809328040895CF93C82F66
:1037B0000E9465180E9461180E94C2072091C801EA
:1037C0003091C901621B730B61348FE1780708F0F7
:1037D0004AC07093DF016093DE0181E09091E001C7
:1037E0009F3F09F480E08093670263ED72E0C111AE
:1037F00002C061EC72E08AE493E00E94D00760911D
:10380000DE017091DF014AE050E08AE493E00E941B
:10381000521A60EB72E08AE493E00E94D007609154
:10382000D8017091D9018091DA019091DB010E9459
:10383000D61A66EA72E08AE493E00E94D0076091AB
:10384000DC017091DD014AE050E08AE493E00E94DF
:10385000521A62E671E08AE493E00E94C41981E1A1
:10386000CF910C947E1880E49FE19093DF018093C8
:10387000DE01B3CFFC01868197819C01295F3F4F18
:1038800037FF02C0295F3F4F83E0359527958A9522
:10389000E1F784819581289FA001299F500D389FD1
:1038A000500D112470E060E0878D90A10C94F63AE1
:1038B0008F929F92AF92BF92EF92FF920F931F93BE
:1038C000CF93DF936091D8017091D9018091DA0193
:1038D0009091DB016C507E4F8F4F9F4F28EE33E06D
:1038E00040E050E00E94893A490188E194E00E945A
:1038F0003A1C8091E0018F3FC1F0C0E00FE110E081
:103900008091E0018C1788F06C2F70E0FB01E85388
:10391000FE4F878DA801481B510921E030E088E166
:1039200094E00E94E50CCF5FEBCF81E080932C0404
:1039300080932D0481E090E090932B0480932A04DF
:103940009093290480932804F12CE12C08E010E0E6
:103950002AE230E048E150E06AE270E088E194E079
:103960000E94A5118AE290E090932504809324049C
:10397000C8E1D0E0D0932704C093260464E473E048
:1039800088E194E00E94D0078091E3019091E401E6
:1039900008EE13E0B8010E94613A4AE050E088E185
:1039A00094E00E94521A6EE288E194E00E94DA0FDD
:1039B0008091E3019091E401B8010E94613A64E6CC
:1039C00070E00E94613A4AE050E088E194E00E9491
:1039D000521A61E488E194E00E94DA0F08E010E0F6
:1039E00024E230E048E150E06CE570E088E194E0EA
:1039F0000E94A5118CE590E0909325048093240407
:103A0000D0932704C093260461E473E088E194E036
:103A10000E94D0074AE050E0B40188E194E00E949F
:103A2000521ADF91CF911F910F91FF90EF90BF90AD
:103A3000AF909F908F900C9484160E9465180E94FE
:103A400061180E94581C0E94AA190E94C207685758
:103A50007C4E8F4F9F4F0E94691869EF72E08AE495
:103A600093E00E94901B80E10C947E1885ED80937A
:103A7000BC008091B1029091B202A091B302B091CA
:103A8000B4020796A11DB11D23E0B695A7959795A1
:103A900087952A95D1F72091BC0024FD03C0109290
:103AA000FA0208954091B1025091B2026091B302BE
:103AB0007091B402452B462B472B69F30097A10563
:103AC000B10541F02AE22A95F1F700C00197A1095A
:103AD000B109E1CF8091B0020C94F0131F93CF9302
:103AE000DF93EC01162F0E943F3A181739F0612F2F
:103AF000CE01DF91CF911F910C94473ADF91CF9186
:103B00001F9108958093290360E0882351F00E945B
:103B100088181092280360E081E090E00E946E1DFA
:103B200061E083E090E00C946E1DCF92DF92EF9203
:103B3000FF920F931F93CF93DF93CDB7DEB76097BC
:103B40000FB6F894DEBF0FBECDBF082F10E00F5F99
:103B50001F4F94E0000F111F9A95E1F780E1FB01E0
:103B6000DE01119601900D928A95E1F787EC898329
:103B70006E0182E0C80ED11C9E01205F3F4FF6010E
:103B800080E091918927E217F307D9F7888B60E0ED
:103B9000C8010E946E1DEE24E394F12CF6016191A0
:103BA0006F01C8018E0D9F1D0E946E1DFFEFEF1A61
:103BB000FF0A80E1E816F10489F767ECC801609616
:103BC0000FB6F894DEBF0FBECDBFDF91CF911F912E
:103BD0000F91FF90EF90DF90CF900C946E1D0C949E
:103BE0003F3ACF92DF92EF92FF920F931F93CF93C2
:103BF000DF93883010F080E039C08B01C82FD0E00F
:103C0000219684E0CC0FDD1F8A95E1F76B0120E15E
:103C1000C20ED11C7B01C61BD70BCE018E0D9F1D82
:103C20000E943F3AF70181937F01EC15FD05A9F74A
:103C3000F8018081873CF9F6978531969801215FDC
:103C40003F4F80E041918427E217F307D9F798139B
:103C5000D2CFF80183859485805D97408137974165
:103C600050F681E0F8019585933028F6DF91CF91E9
:103C70001F910F91FF90EF90DF90CF900895CF9319
:103C8000C82F68E971E00E94F11D811105C068E943
:103C900071E08C2F0E94C41810922F038BE0CF91FB
:103CA0000C947E184F925F926F927F928F929F92A8
:103CB000AF92BF92CF92DF92EF92FF920F931F933A
:103CC000CF93DF93CDB7DEB7A5970FB6F894DEBFDD
:103CD0000FBECDBFA8958091010180935A060E9426
:103CE000C20760939401709395018093960190931D
:103CF000970182E00E9495067C0181E0E114F104C5
:103D000009F080E08093930183E00E94950621E012
:103D1000892B09F020E02093920180E10E94950612
:103D200021E0892B09F020E020939101809101018D
:103D30008F3009F469C080913C0300E814EE8823B9
:103D400009F457C0BE016F5F7F4F81E393E00E948B
:103D5000940A882351F19A81812C912C540197FF68
:103D600006C0812C912CE8EFAE2EBB24BA94409172
:103D7000310389814B3309F08AC02D8127FF87C029
:103D800080FF18C08B8100E011E82FEF3FEF80FD2E
:103D900030C000E811E82FEF3FEF81FD2AC000E0BE
:103DA00012E82FEF3FEF82FD24C000E814EE2FEF62
:103DB0003FEF1FC0082F10E030E020E063E0000F6D
:103DC000111F221F331F6A95D1F7007E177022271B
:103DD0003327892F90E0B0E0A0E07BE0880F991FA7
:103DE000AA1FBB1F7A95D1F7802B912B8C01082934
:103DF00019290E94030A29A33AA34BA35CA36DA32C
:103E00001093900100938F0110913C031123A9F0AE
:103E100080918F01909190019C012158344E211581
:103E20003A4510F00C94DE322091AA01222329F0A9
:103E30008115944114F41092AA01EF2879F480912D
:103E40008A0181110BC0809101018111CAC080914A
:103E50002A03843009F079C00E9493188091880168
:103E60009091920191118DC1882341F08091870139
:103E7000882321F00E94B6191092870110928301C5
:103E80001092840110928501109286019AC1092F27
:103E900010E0102F0027110F110F110F28E0829F43
:103EA000B0011124062B172B012E000C220B330B13
:103EB000082919292A293B294832C9F4803561F497
:103EC000953009F096CF8F818C3009F092CF00E8C1
:103ED00012E82FEF3FEF8DCF8F3F09F08ACF973059
:103EE00009F087CF00E013E82FEF3FEF82CF40319A
:103EF00009F07FCF6885662309F47BCF70E08F815E
:103F0000AB01481B5109CA019695982F88279795B0
:103F100087950E94753ACB01770FAA0BBB0B43E044
:103F2000000F111F221F331F4A95D1F70078277009
:103F300033270052110921093109800F911FA21F57
:103F4000B31F8401082B192B54CF8091AA01811132
:103F500085CF112381F080918F019091900181385C
:103F60009B414CF081E08093AA011092A90185E069
:103F70000E947E1873CF1092A9011092AA0110928C
:103F8000AB011092AC011092AD011092AE011092F3
:103F9000B0011092AF011092B1011092B2011092D3
:103FA000B3011092B4011092B6011092B5011092B3
:103FB000B7011092B9011092B8011092C401109289
:103FC000C5011092C6011092C7018091000188239B
:103FD00031F087E00E947E18109200013FCF82E00E
:103FE000C7CF80910101873011F480E0C1CF80916B
:103FF0000101883009F432CF80910101893009F440
:104000002DCF809101018A3009F428CF80910101E0
:104010008B3009F423CF809101018C3009F41ECF3D
:10402000809101018D3009F419CF80910101873110
:1040300009F414CF80910101823109F40FCF8091EE
:104040000101833109F40ACF809101018E3009F01A
:1040500083C080913903882309F400CF8091AA019D
:104060008111FCCE112341F080918F01909190013C
:1040700081389B410CF0F2CE0E94C2076B017C019B
:1040800088E194E00E943A1CC092C801D092C90114
:10409000E092CA01F092CB01C092CC01D092CD0146
:1040A000E092CE01F092CF01C092D001D092D10126
:1040B000E092D201F092D301C092D401D092D50106
:1040C000E092D601F092D7011092D8011092D90156
:1040D0001092DA011092DB011092DD011092DC01E6
:1040E0001092DF011092DE018FEF8093E0011092B9
:1040F000E2011092E1011092E4011092E3011092AA
:10410000E5011092E601E7EEF1E080E8DF011D92A3
:104110008A95E9F7109267020E94581CC701B60100
:10412000605C704E8F4F9F4F0E94691861E085E080
:104130000E94BE060E94B61961E084E00E94BE069D
:1041400061E086E00E94BE0661E870E08AE493E0E8
:104150000E94901B8FE00CCF80910101813109F406
:104160007DCE80910101853019F41092A9013DCFD7
:1041700080910101853009F471CE81E0809389013D
:104180006DCE8111D9C0809101018431B9F0809147
:104190000101853199F080910101863179F080919A
:1041A0000101811131C080912A0390E0019667E0FE
:1041B00070E00E94753A80932A0303C080E00E9459
:1041C0007E18E0910101E83110F00C948632F0E0A5
:1041D000E451FF4D0C94CA3AC1216F2EFA2BD12D18
:1041E000832EC2316632212F6E245725F9250C27E4
:1041F000F4276D284E29B529052B5A2B552FEA2F68
:10420000543172319A31BF2880910101863009F40E
:10421000CACF80910101883059F480912B0390E03E
:10422000019663E070E00E94753A80932B03C9CF3A
:1042300080910101873159F480912C0390E001961F
:1042400063E070E00E94753A80932C03BACF8091AE
:104250000101893059F480912D0390E0019669E0C5
:1042600070E00E94753A80932D03ABCF80910101DD
:104270008A3059F480912E0390E0019665E070E059
:104280000E94753A80932E039CCF809101018B3060
:1042900059F480912F0390E001966CE070E00E9449
:1042A000753A80932F038DCF809101018C3039F4C2
:1042B0008091300391E089278093300382CF8091F1
:1042C0000101833159F480916D0190E0019663E022
:1042D00070E00E94753A80936D0173CF8091010167
:1042E000803109F46ECF80910101813109F469CFE9
:1042F000809101018E3009F464CF809101018F30EB
:1043000059F40E94C20760938301709384018093E3
:1043100085019093860155CF80912903882309F464
:1043200050CF8091A801813009F04BCF0E94AA198B
:1043300081E08093870145CF809101018F3009F0A2
:1043400040CFC0908301D0908401E0908501F0902F
:104350008601C114D104E104F10409F432CF0E94B2
:10436000C2076C197D098E099F096C527140810941
:10437000910997FD26CF81E00E94D61B0E941D1D4A
:104380007DCD809101010E947E1880912A03909139
:10439000910181112CC191115EC010928201E090B7
:1043A0007901F0907A0100918F0110919001D090E5
:1043B000780188E194E00E943A1C81E090912A0300
:1043C000911180E00E94581A80912A03823008F0EF
:1043D0005AC188E390E090932504809324041092BE
:1043E0002704109226046BEC70E0D11002C063EC3D
:1043F00070E088E194E00E94901B61E080912A03C4
:10440000813009F060E088E00E94A41BB70180E1E0
:104410000E94BC1AB80188E10E946A1BEE24E39452
:10442000F12C00E210E026E330E050E040E066E3EB
:1044300070E088E194E00E9410110E9484160E94AE
:1044400061180E9465180E94471890937701809325
:10445000760180E080C4909182019F5F90938201F9
:104460009F30A8F020ED37E03093270320932603F8
:1044700091E090938101109282011092800110923C
:104480007C0110927D0110927E0110927F0190912B
:104490007B01911184CF81110C94A6320E94C20736
:1044A000AB01BC0180917C0190917D01A0917E01C6
:1044B000B0917F010097A105B10509F4A7C08A0159
:1044C0009B01081B190B2A0B3B0BD901C801885E05
:1044D0009340A109B109B7FF99C08091800185304F
:1044E00008F498C040937C0150937D0160937E0155
:1044F00070937F018091800191E09093810124EF7E
:1045000031E0853010F424E630E08091260390916C
:10451000270340E45FE1421B530B4817590708F497
:104520007BC0820F931F9093270380932603809173
:104530000101882309F433CF8091930180938A018C
:1045400080919201809388018091910180937B01F9
:1045500080910101863111F00C948C3261E087E08A
:104560000E94BE0681E0809378018091010199E16B
:10457000C92ED12CE12CF12C8F3029F088E7C82EE0
:10458000D12CE12CF12C04E610E00E94C2078090AF
:10459000940190909501A0909601B09097018C0C99
:1045A0009D1CAE1CBF1C681979098A099B0997FDDF
:1045B00002C00C94FF320E94C2077F73882799279C
:1045C0006F3F7F438105910501F780918101882329
:1045D000E1F28091260390912703B8010E94613A8D
:1045E00090E080E00E946E1D10928101CECF10926B
:1045F00082011092800110927C0110927D01109234
:104600007E0110927F01911142CFC9CE81E080934B
:10461000800168CF8F5FFBCF80ED97E084CF813042
:1046200061F482E08093A80160E085E00E94BE060C
:1046300061E08BE00E94BE067ACF1092A80161E093
:1046400085E00E94BE0660E0F4CF843019F40E9439
:1046500093186DCF823031F410922B0388E00E94C2
:104660007E1865CF833021F410922D0389E0F7CFB7
:10467000853021F410926D0183E1F1CF863009F08D
:1046800056CF82E1ECCF823089F560E080E00E9475
:10469000A41BB70188E00E94BC1AB80180E10E9407
:1046A0006A1B88E390E0909325048093240488E1BA
:1046B00090E090932704809326041092290410928E
:1046C000280401E010E010932B0400932A0468EB07
:1046D00070E088E194E00E94D00710932B040093CF
:1046E0002A04109329040093280498CE833089F576
:1046F000B70180E00E94BC1AB80188E00E946A1BE2
:1047000008E310E0109325040093240480E190E076
:10471000909327048093260468EB70E088E194E08E
:104720000E94D007109325040093240488E190E0B0
:104730009093270480932604109229041092280451
:1047400001E010E010932B0400932A046DEA70E05E
:10475000C0CF8430E9F5B80180E00E946A1B08E30D
:1047600010E0109325040093240488E090E09093D7
:1047700027048093260468EB70E088E194E00E94AF
:10478000D007109325040093240480E190E09093D7
:104790002704809326046DEA70E088E194E00E948B
:1047A000D007109325040093240488E190E09093AF
:1047B000270480932604109229041092280401E013
:1047C00010E010932B0400932A0463EA70E081CF79
:1047D00008E310E0109325040093240410922704AA
:1047E000109226048530E9F568EB70E088E194E0EA
:1047F0000E94D007109325040093240488E090E0E1
:1048000090932704809326046DEA70E088E194E099
:104810000E94D007109325040093240480E190E0C7
:10482000909327048093260463EA70E088E194E083
:104830000E94D007109325040093240488E190E09F
:104840009093270480932604109229041092280440
:1048500001E010E010932B0400932A046CE970E04F
:1048600038CF6DEA70E088E194E00E94D0071093A1
:1048700025040093240488E090E09093270480931B
:10488000260463EA70E088E194E00E94D007109368
:1048900025040093240480E190E090932704809302
:1048A00026046CE970E088E194E00E94D007109340
:1048B00025040093240488E190E0909327048093DA
:1048C0002604109229041092280401E010E01093AD
:1048D0002B0400932A046FE870E0FBCE8091010165
:1048E0000E947E18809191018111A8C088E194E016
:1048F0000E943A1C80E00E94581A08E310E01093CE
:1049000025040093240410922704109226046AEED2
:1049100070E088E194E00E94D00710932504009392
:10492000240488E090E090932704809326048091EB
:104930002B03882309F4B0C060EE70E088E194E0B6
:104940000E94D007809128036DED70E0811102C0B4
:1049500069ED70E088E194E00E94D00781E090E08A
:1049600090932B0480932A04909329048093280425
:1049700088E390E0909325048093240480E190E004
:10498000909327048093260480912B03813021F497
:10499000109229041092280462ED70E088E194E0FE
:1049A0000E94D007809129036DED70E0811102C053
:1049B00069ED70E088E194E00E94D00781E090E02A
:1049C00090932B0480932A049093290480932804C5
:1049D00088E390E0909325048093240488E190E09C
:1049E000909327048093260480912B03823021F436
:1049F00010922904109228046FED71E088E194E090
:104A00000E94D00781E090E090932B0480932A04C9
:104A10009093290480932804EE24E394F12C00E27F
:104A200010E026E330E050E040E066E370E088E12B
:104A300094E00E9410110E9484167ECD80917B012B
:104A4000811154CF80912B0381111BC080912803C9
:104A500091E0892780932803882339F01092290355
:104A600060E083E090E00E946E1D6091280381E089
:104A700090E00E946E1D80910101883009F05CCDAC
:104A800035CF813031F49091290389270E94821D0E
:104A9000F2CF0E949E18EFCF1092290410922804A2
:104AA00081E090E090932B0480932A0445CF80917D
:104AB00001010E947E18809191018823B1F08091BC
:104AC0007B01811112C080912D03883018F00E9463
:104AD0009E1832CDBE016F5F7F4F0E94F11D91E0A5
:104AE000892780932E038AE036C188E194E00E94F2
:104AF0003A1C80E00E94581A08E310E01093250445
:104B000000932404109227041092260480912D0310
:104B10006CE371E08830D8F088E194E00E94D0071F
:104B2000109325040093240488E190E090932704D7
:104B300080932604109229041092280401E010E0CA
:104B400010932B0400932A046FED71E038C088E1C4
:104B500094E00E94D007109325040093240488E079
:104B600090E09093270480932604BE016F5F7F4FEF
:104B700080912D030E94F11D882371F14AE050E0DD
:104B8000BE016E5F7F4F88E194E00E94F40788E3E6
:104B900090E0909325048093240488E190E0909322
:104BA000270480932604109229041092280401E01F
:104BB00010E010932B0400932A0463EF70E088E167
:104BC00094E00E94D00710932B0400932A041093C2
:104BD00029040093280420CF6AEF70E088E194E074
:104BE0000E94D00780912D0390E001960E941F1A29
:104BF000CECF809101010E947E188091910188237F
:104C000009F4ACC010917B011111A8C080912E0352
:104C1000811155C0BE016F5E7F4F80912D030E94B0
:104C2000F11D882309F488CC2C8D3D8D309327030A
:104C3000209326039F8D81E0492F427091FF80E0F1
:104C40008093290390FF03C011E0411110E01093FD
:104C500028038E8D8093A801C90164E670E00E944C
:104C6000613A90E080E00E946E1D6091280381E02F
:104C700090E00E946E1D6091290383E090E00E9405
:104C80006E1D80912903882329F00E9488181092B4
:104C90002A031DCF8091A801823049F460E085E0AD
:104CA0000E94BE0661E08BE00E94BE06F0CF81113B
:104CB000ECCF61E085E00E94BE0660E0F4CF813079
:104CC000C1F510912D03BE016F5E7F4F812F0E94B1
:104CD000F11D082FBE016F5F7F4F812F0E94F11DD4
:104CE000811106C0BE016F5F7F4F812F0E94C418E3
:104CF00080912603909127039D878C878091A8013E
:104D00008E879091280380912903882381F082E087
:104D1000892B8F87BE016F5F7F4F812F0E94951D6A
:104D2000011135C180912D030E943F1E05CC80E00A
:104D3000EFCF8230B9F3833009F073C1BE016F5EEB
:104D40007F4F80912D030E94F11D882309F4F4CB3D
:104D5000109230038CE00E947E18EECB88E194E044
:104D60000E943A1C80E00E94581A88E390E09093D9
:104D7000250480932404109227041092260460E5F1
:104D800088E194E00E94DA0F80912D0390E0019673
:104D90000E941F1A6DE071E088E194E00E94D00744
:104DA00008E010E0B12C68E3C62ED12CEE24E39489
:104DB000F12C80912E03E82FEB0DE53008F02CCE7E
:104DC000D0922504C0922404109327040093260453
:104DD0008E1308C01092290410922804F0922B041C
:104DE000E0922A04F0E0EE0FFF1FED5FFE4F6591A9
:104DF000749188E194E00E94D007F0922B04E09235
:104E00002A04F0922904E0922804B394085F1F4F0B
:104E100023E0B212CECF00CE809101010E947E1815
:104E200080919101882311F40C94BA3280912F0360
:104E300090917B019111AFC08A3008F089C00E9427
:104E4000A1180E94C207609372017093730180934E
:104E500074019093750168517C4F8F4F9F4F609301
:104E60006E0170936F01809370019093710188E1DE
:104E700094E00E943A1C81E080932C0480932D04DE
:104E800010922504109224041092270410922604F4
:104E90006DE171E088E194E00E94D00780912D03DC
:104EA00090E001960E941F1A10922504109224048B
:104EB0008AE090E090932704809326044AE050E033
:104EC00069E971E088E194E00E94F40780912F0382
:104ED00046E0849F900111243093250420932404FC
:104EE00022E130E030932704209326048A3028F40E
:104EF0006EE588E194E00E94DA0F1092250410928A
:104F0000240488E190E09093270480932604809104
:104F10002F038A3011F00C94CC3210922904109295
:104F2000280481E090E090932B0480932A0466E1AA
:104F300071E088E194E00E94D00781E090E09093D6
:104F40002B0480932A04909329048093280473CD22
:104F50008A3009F0C8CD8091260390912703909361
:104F6000A4018093A3018091A8018093A501909151
:104F7000280380912903882361F082E0892B8093A4
:104F8000A60168E971E080912D030E94951D8DE0D6
:104F9000E2CE80E0F3CF8A3008F069CF80917201D1
:104FA00090917301A0917401B0917501892B8A2BA6
:104FB0008B2B09F45CCF0E94C20700916E01109107
:104FC0006F012091700130917101601B710B820B98
:104FD000930B97FD4CCF0E94A1180E94C2076A56FE
:104FE0007F4F8F4F9F4F3BCF809101010E947E18D2
:104FF000809191018823B9F080917B01811113C0C8
:1050000080913003882309F46ECD80912D0390E0C8
:10501000019660E044E0880F991F4A95E1F70E94ED
:105020006E1D89E098CE88E194E00E943A1C81E0F0
:1050300080932C0480932D04109225041092240454
:1050400010922704109226046DE271E088E194E04A
:105050000E94D00780912D0390E001960E941F1AB4
:1050600010922504109224048CE090E09093270481
:105070008093260480913003882351F010922904F4
:105080001092280481E090E090932B0480932A04EE
:1050900064E271E088E194E00E94D00781E090E052
:1050A00090932B0480932A049093290480932804DE
:1050B000109225041092240488E190E09093270434
:1050C000809326048091300381110C94DA3210927F
:1050D0002904109228040C94DA320E94751888234F
:1050E00041F00E94C20768517C4F8F4F9F4F0E9432
:1050F0006918809101010E947E180E94C2070091E8
:1051000068021091690220916A0230916B02601B63
:10511000710B820B930B97FF84CF88E194E00E9480
:105120003A1C80E00E94581A08E310E0109325040E
:105130000093240410922704109226046CE371E07B
:1051400088E194E00E94D00782E080932C04809351
:105150002D0410932504009324048CE090E0909398
:1051600027048093260466E371E088E194E00E94BE
:10517000D00781E080932C0480932D044DCC809146
:1051800001010E947E18809191018823A9F08091ED
:105190007B01811111C080912C03811102C08EE02E
:1051A000DACD813009F093CC809167028823B9F37E
:1051B0000E94581C81E1CFCD88E194E00E943A1C06
:1051C00080E00E94581A08E310E010932504009331
:1051D0002404109227041092260464E571E088E10B
:1051E00094E00E94D007109325040093240488E0E3
:1051F00090E0909327048093260480912C038111E2
:105200000AC0109229041092280481E090E0909343
:105210002B0480932A046EE471E088E194E00E94FC
:10522000D00781E090E090932B0480932A04909320
:1052300029048093280488E390E0909325048093C8
:10524000240480E190E090932704809326048091C9
:105250002C03813021F4109229041092280465E473
:1052600071E088E194E00E94D00781E090E09093A3
:105270002B0480932A04909329048093280488E3C4
:1052800090E0909325048093240488E190E090932B
:1052900027048093260480912C03A8CB80910101E0
:1052A0000E947E1880919101882359F080917B01A2
:1052B000811107C080916702882309F4CAC887E179
:1052C0004ACD88E194E00E943A1C82E080932C044D
:1052D00080932D0410922504109224041092270428
:1052E0001092260466E871E088E194E00E94901B29
:1052F00081E080932C0480932D0410922504109259
:10530000240481E190E09093270480932604809107
:1053100039038823B9F06CE771E088E194E00E94DA
:10532000901B109225041092240489E190E0909340
:1053300027048093260460E771E088E194E00E94EE
:10534000D00779CB65E671E088E194E00E94901B7C
:10535000109225041092240489E190E09093270490
:10536000809326046CE571E0E8CF0E94C2076B01D0
:105370007C01809101010E947E188091CC01909166
:10538000CD01A091CE01B091CF0197018601081BFC
:10539000190B2A0B3B0BD901C801B7FDDFC0D701A0
:1053A000C6014996A11DB11D8093CC019093CD01FA
:1053B000A093CE01B093CF018091C8019091C90113
:1053C0005601A81AB90A10E4A1161FE1B10620F08F
:1053D0003FE3A32E3FE1B32E0E9447188C0180913A
:1053E000D0019091D101A091D201B091D301A70138
:1053F0009601281B390B4A0B5B0BC092D001D0924F
:10540000D101E092D201F092D301A0E3B0E00E947A
:10541000E63A9B01AC01D8010E94E63A28EE33E05F
:1054200040E050E00E94893A8091D8019091D901E2
:10543000A091DA01B091DB01820F931FA41FB51F69
:105440008093D8019093D901A093DA01B093DB0146
:105450008091DC019091DD018017910720F4109379
:10546000DD010093DC01B50190E080E027E0660FEC
:10547000771F881F991F2A95D1F720E43FE140E06C
:1054800050E00E94893A29018091E001821709F4D5
:1054900088C02093E0011093E2010093E10181E0D4
:1054A0008093E5016091E50170E08091E1019091C8
:1054B000E2010E94613A9B017093E4016093E30171
:1054C000643D704308F07BC0AFE1B0E00E94D03A89
:1054D00024ED30E340E050E00E94893A2093E60159
:1054E000F201E853FE4F278F6BE971E08AE493E005
:1054F0000E94D0074AE050E0B5018AE493E00E94A0
:10550000521A6EE871E08AE493E00E94D0074AE004
:1055100050E0B8018AE493E00E94521A60EB72E016
:105520008AE493E00E94D0076091D8017091D9017C
:105530008091DA019091DB010E94D61A62E671E057
:105540008AE493E00E94C4190C30104338F00E94A2
:1055500065180E94611884E10E947E188091010103
:105560008F3011F00C949C228091C8019091C90158
:10557000A091CA01B091CB0197018601081B190BBC
:105580002A0B3B0BD901C80180549F41A109B109E5
:10559000B7FD17C080E00E94D61B0E941D1D0C9411
:1055A0009C228091E1019091E201800F911F9093E4
:1055B000E2018093E1018091E5018F5F71CF2FE1DE
:1055C0008DCF8091D4019091D501A091D601B09159
:1055D000D701A7019601281B390B4A0B5B0BDA0197
:1055E000C90184569109A109B109B7FF02C00C9401
:1055F0009C220E94581CC092D401D092D501E09206
:10560000D601F092D7010C949C220E94C2076B0134
:105610007C018090680290906902A0906A02B0902C
:105620006B02809101010E947E18D701C601881982
:105630009909AA09BB09B7FD03C00E94B619BACDE2
:10564000C818D908EA08FB0830EAC30E3FE0D31EA9
:10565000E11CF11CF7FE2AC081E080932C048093AA
:105660002D04F12CE12C08E010E020E830E048E1C6
:1056700050E070E060E088E194E00E94A511109293
:1056800025041092240488E190E0909327048093ED
:10569000260481E090E090932B0480932A04909359
:1056A00029048093280467EB71E047CE0E94581CC0
:1056B0000C949C22809101010E947E18809191019E
:1056C000882341F080917B01811104C081E08093A7
:1056D0002C03F5CD81E080932C0480932D04F12CD4
:1056E000E12C08E010E020E830E048E150E070E014
:1056F00060E088E194E00E94A511109225041092C8
:10570000240418E1E12EF12CF0922704E092260403
:10571000109229041092280401E010E010932B0449
:1057200000932A046FED71E088E194E00E94D007B5
:1057300010932B0400932A04109329040093280447
:1057400063EB71E088E194E00E94D0078091DC0176
:105750009091DD0108EE13E0B8010E94613A4AE041
:1057600050E088E194E00E94521A6EE288E194E0F1
:105770000E94DA0F8091DC019091DD01B8010E9456
:10578000613A64E670E00E94613A4AE050E088E1E4
:1057900094E00E94521A61E488E194E00E94DA0FDA
:1057A0008CE590E09093250480932404F0922704E4
:1057B000E092260460EB71E088E194E00E94D0075B
:1057C0006091D8017091D9018091DA019091DB014B
:1057D0006C507E4F8F4F9F4F28EE33E040E050E0FB
:1057E0000E94893ABA01A9012AE088E194E00E9466
:1057F000D31921C90E947518882309F440C00E945A
:10580000C2072091260330912703620F731F811D69
:10581000911D0E9469181092AB011092AC01109278
:10582000AD011092AE011092B0011092AF01109232
:10583000B1011092B2011092B3011092B401109212
:10584000B6011092B50161E084E00E94BE0661E0FD
:1058500086E00E94BE060E94C20760527C468B4FC3
:105860009F4F60938B0170938C0180938D01909377
:105870008E018091A801823011F40E943918809124
:1058800001010E947E1810913903112309F44DC0C3
:105890000E94471890937701809376016C01F12C58
:1058A000E12C4091B1015091B2016091B30170912E
:1058B000B4014C0D5D1D6E1D7F1D4093B1015093D1
:1058C000B2016093B3017093B4012091B50130919E
:1058D000B6012F5F3F4F3093B6012093B5018C3056
:1058E000904330F00E9465180E94611884E133CA29
:1058F0008091AB019091AC01A091AD01B091AE014E
:105900008C0D9D1DAE1DBF1D8093AB019093AC010E
:10591000A093AD01B093AE018091AF019091B00121
:1059200001969093B0018093AF01C0906802D0902F
:105930006902E0906A02F0906B020E94C2074B017C
:105940005C018C189D08AE08BF08B7FCB3C00E946C
:1059500065181123B9F12091B5013091B6012115D7
:10596000310501F18091B7018823E1F050E040E07A
:105970006091B1017091B2018091B3019091B40135
:105980000E94893A2536310568F41092280360E0B8
:1059900081E090E00E946E1D1092A9010E946118A2
:1059A00085E1D9C92091AF013091B00121153105B0
:1059B00049F08091C40181110EC081E08093C4013F
:1059C0001092C7018091B7018F5F8093B7010E9449
:1059D000AA1983E0C0C950E040E06091AB0170912A
:1059E000AC018091AD019091AE010E94893A6901AC
:1059F0008091C501853010F5E82FF0E0EE0FFF1F14
:105A0000E755FE4F328B218B8F5F8093C50165E098
:105A10000E94553A9093C6012091C501EAEBF1E04E
:105A200030E060E070E0CB012317D1F1419151915A
:105A3000640F751F811D911D3F5FF6CFA4E6B0E096
:105A4000442755270E94E63A4B015C012091B8019A
:105A50003091B901A5E5B0E00E94D03A86169706CC
:105A6000A806B90648F48091C7018F5F8093C701EB
:105A7000882309F4A7CF90CF1092C7018091C60167
:105A800090E0FC01EE0FFF1FE755FE4FD28AC18A5E
:105A9000019665E070E00E94753A8093C601BCCF24
:105AA00030E050E040E00E94893A3093B901209301
:105AB000B80188CFC61AD70AE80AF90A88E194E043
:105AC0000E943A1C82E080932C0480932D04109253
:105AD00025041092240410922704109226046CE9E5
