:020000040000FA
:100000000C948E0A0C94C50A0C94C50A0C94C50A6B
:100010000C94C50A0C94C50A0C94C50A0C94FB26D2
:100020000C94C50A0C94C50A0C94C50A0C94C50A14
:100030000C94C50A0C94C50A0C94C50A0C94C50A04
:100040000C9492250C94C50A0C94C50A0C94C50A0C
:100050000C94C50A0C94C50A0C94C50A0C94C50AE4
:100060000C94DC250C94C50ADB40A4A62EAF20001E
:10007000A1C8D300408DAED580A80000600000006C
:100080000000000000000000000000E00000000090
:1000900000000000000000000001E000000000007F
:1000A000000000000000000001F00000000000005F
:1000B0000000000000000003F0000000000000004D
:1000C00000000000000007F0000000000000000039
:1000D000000000000007F800000000000000000021
:1000E000000000000FF800000003C0007E000001C7
:1000F000E0007F0FF800000003C000FE000001E0F8
:1001000000FFEFF800000003C000FE000001E00067
:10011000FFFFF800000003C000F00000000F007FA8
:10012000FE7FC0000003C000F00000000F003FFE93
:100130007FF83FF1FBCFFCFEF3BC3DEFE01FFE7FFD
:10014000FF7FFBFFDFFEFEFFBC3DEFE01FC6FFFFB2
:100150007FFBFFDFFEFEFFBC3DEFE00FE3C7FE7855
:100160007BC3DE1EF0FFBC3DEF0007FF87FC787B02
:10017000C3DE1EF0F83C3DEF0001FFFFF0007BC343
:10018000C01EF0F03C3DEF0001F37FE03FFBC3CF2A
:10019000FEF0F03C3DEF0003E33F807FFBC3DFFE5A
:1001A000F0F03C3DEF0007E73C00787BC3DE1EF03B
:1001B000F03C3DEF0007FFBE00787BC3DE1EF0F091
:1001C0003C3DEF0007FFFE00787BC3DE1EF0F03CF5
:1001D0003DEF000FFFFE007FFBFFDFFEF0F03FFD75
:1001E000EFE00FFFFF007FFBFFDFFEF0F03FFDEFD2
:1001F000E00FF9FF003E79F9CF9EF0F01F3DE7E0F8
:100200001FF1FF0000000000000000000000001FC0
:1002100080FF007FFFFFFFFFFFFFFFFFFFE01C00ED
:100220007F007FFFFFFFFEB46D888D18E000001F88
:10023000007FFFFFFFFE95AD7DB577E000000F006A
:100240007FFFFFFFFEA5AD9D8D19E0000006007F3A
:10025000FFFFFFFEB5ADEDB57EE000000000000140
:10026000800000000000000000000380000000008B
:10027000000000000007C0000000000000000000B7
:1002800007C00000000000000000000FC0000000D8
:100290000000000000001FE000000000000000005F
:1002A000001FE00000000000000000003FE0000030
:1002B000000000000000003FF0000000000000000F
:1002C00000007FF0000000000000001FF87FF00039
:1002D0000000000000003FFE7FF000000000000072
:1002E000003FFF7FF0000000000000001FFFFBE068
:1002F000000000000000000FFFF9FFC00000000038
:1003000000000FFFF9FFF800000000000007FFF1F8
:10031000FFFF00000000000003FC73FFFF800000EF
:1003200000000001FE3FFFFF80000000000000FF12
:100330001E0FFF000000000000007FFE1FFC0000F9
:1003400000000000003FFFFFF80000000000000078
:100350000FDFFFE0000000000000001F19FFC000D9
:100360000000000000003F3CFF0000000000000013
:10037000007E7CF800000000000000007FFE7C0092
:1003800000000000000000FFFFFC00000000000073
:100390000000FFFFFE0000000000000000FFFFFE65
:1003A0000000000000000001FFEFFE000000000060
:1003B000000001FFCFFE0000000000000003FF0767
:1003C000FE0000000000000003FC07FE000000002B
:1003D00000000003F003FE000000000000000180A8
:1003E00000FE000000000000000000007E00000091
:1003F000000000000000003E0000000000000000BF
:1004000000000C000000000000078000FC0000035A
:10041000C0000000078001FC000003C000000007CE
:100420008001FC000003C0000000078001E0000024
:10043000001E000000078001E00000001E007FE3B6
:10044000F79FF9FDE7787BDFC0FFF7FFBFFDFDFFFA
:10045000787BDFC0FFF7FFBFFDFDFF787BDFC0F0DB
:10046000F787BC3DE1FF787BDE00F0F787BC3DE11C
:10047000F0787BDE0000F787803DE1E0787BDE00EE
:100480007FF7879FFDE1E0787BDE00FFF787BFFD08
:10049000E1E0787BDE00F0F787BC3DE1E0787BDED1
:1004A00000F0F787BC3DE1E0787BDE00F0F787BC29
:1004B0003DE1E0787BDE00FFF7FFBFFDE1E07FFB81
:1004C000DFC0FFF7FFBFFDE1E07FFBDFC07CF3F3A0
:1004D0009F3DE1E03E7BCFC0000000000000000037
:1004E000000000FFFFFFFFFFFFFFFFFFFFC0FFFF58
:1004F000FFFFFD68DB111A31C0FFFFFFFFFD2B5A24
:10050000FB6AEFC0FFFFFFFFFD4B5B3B1A33C0FFF1
:10051000FFFFFFFD6B5BDB6AFDC000000000000019
:1005200000000000000000000000000000000000CB
:1005300000000000000000000000000000000000BB
:1005400000000000000000000000000000000000AB
:10055000000000000000000000000000000000009B
:10056000000000000000000000000000000000008B
:100570000000000000000000000000000000003F3C
:10058000FFFFFFFFFF80000000000000000003C02D
:100590000F8001F0007F80000000000000003C00A0
:1005A00007C000FC00007800000000000001C0004F
:1005B00003F0007F000004000000000000060000BF
:1005C00000FC001F80000400000000000018000074
:1005D000003F0007E00004000000000000E00018F9
:1005E000001FC001F8000400000000000300003EEE
:1005F0000007F0007E000400000000000C00001F57
:100600008001F8003F800400000000003000000F6F
:10061000E0007E000FC00400000000000C0000039A
:10062000F0001F8003E00400000000000300000051
:10063000FC0007E000E004000000000000E0000013
:100640003F0003F800000400000000000018000054
:100650000FC000FC000004000000000000060000C5
:1006600007F0003F00000400000000000001C0008F
:1006700001FC000FC00004000000000000003C006E
:10068000007E0003E000780000000000000003C0CE
:10069000001F0001F07F8000000000000000003F0C
:1006A000FFFFFFFFFF8000000000000000000000CF
:1006B000000000000000000000000000000000003A
:1006C000000000000000000000000000000000002A
:1006D000000000000000000000000000000000001A
:1006E000000000000000000000000000000000000A
:1006F00000000000000000000000000000000000FA
:1007000000000000000000000000000000000000E9
:1007100000000000000000000000000000000000D9
:1007200000000000000000000000000000000000C9
:1007300000000000000000000000000000000000B9
:1007400000000000000000000000000000000000A9
:100750000000000000000000000000000000000099
:100760000000000000000000000000000000000089
:100770000000000000000000000000000000003F3A
:10078000FFFFFFFFFF80000000000000000003FEED
:100790000007C001F07F80000000000000003C1F47
:1007A0000003F000FC007800000000000001C00F12
:1007B000C001FC007F800400000000000006000370
:1007C000F0007F000FC004000000000000180000CF
:1007D000FC001F8003E004000000000000E00000B7
:1007E0007F0007E000C004000000000003000000DC
:1007F0001FC001F800000400000000000C00000011
:1008000007E0007E0000040000000000300000004F
:1008100001F8001F80000400000000000C00000030
:10082000007E0007E000040000000000030000302C
:10083000001F8003F80004000000000000E0007CBE
:10084000000FE000FE000400000000000018003E61
:100850000003F0003F800400000000000006001FBD
:100860008000FC000FC00400000000000001C00771
:10087000E0003F0003E004000000000000003C0135
:10088000F0000F8000E0780000000000000003C0CE
:10089000F80007C0007F8000000000000000003F5B
:1008A000FFFFFFFFFF8000000000000000000000CD
:1008B0000000000000000000000000000000000038
:1008C0000000000000000000000000000000000028
:1008D0000000000000000000000000000000000018
:1008E0000000000000000000000000000000000008
:1008F00000000000000000000000000000000000F8
:1009000000000000000000000000000000000000E7
:1009100000000000000000000000000000000000D7
:1009200000000000000000000000000000000000C7
:1009300000000000000000000000000000000000B7
:1009400000000000000000000E00000007FFFFFF95
:10095000FFFFFFFFFFFFFFFF9E0000000FFFFFFFF5
:10096000FFFFFFFFFFFFFFFFFE0000003C00000055
:100970000000000000000000FE0000007000000009
:100980000000000000000000DE000000E0000000A9
:100990000000000000000000DE0000FFC0000000BA
:1009A0000000000000000000DE0001FF0000000069
:1009B0000000000000000000DE00018000000000D8
:1009C0000000000000000000DE000180000060E187
:1009D0009C33F060C1F9F800DE0001800000F0F106
:1009E0009E33F0F0C1F9FC00DE0001800000F0F160
:1009F0009E3300F0C1818C00DE000180000198D997
:100A00009B330198C1818C00DE000180000198D9E0
:100A10009B33E198C1F1F800DE00018000030CCDAA
:100A200099B3E30CC1F1F000DE0001800003FCCDBE
:100A300099B303FCC1819800DE0001800003FCC76C
:100A400098F303FCC1819800DE000180000606C710
:100A500098F3F606FDF98C00DE000180000606C35F
:100A60009873F606FDF98C00DE000180000000009E
:100A70000000000000000000DE0001FF0000000098
:100A80000000000000000000DE0000FFC0000000C9
:100A90000000000000000000DE000000E000000098
:100AA0000000000000000000DE00000070000000F8
:100AB0000000000000000000DE0000003C0000001C
:100AC0000000000000000000FE0000000FFFFFFF1C
:100AD000FFFFFFFFFFFFFFFFFE00000007FFFFFF1C
:100AE000FFFFFFFFFFFFFFFF9E0000000000000070
:100AF00000000000000000000E00000000000000E8
:100B000000000000000000000000000000000000E5
:100B100000000000000000000000000000000000D5
:100B200000000000000000000000000000000000C5
:100B300000000000000000000000000000000000B5
:100B400000000000000000000E00000007FFFFFF93
:100B5000FFFFFFFFFFFFFFFF9E0000000FFFFFFFF3
:100B6000FFFFFFFFFFFFFFFFFE0000003C00000053
:100B70000000000000000000FE0000007000000007
:100B80000000000000000000DE000000E0000000A7
:100B90000000000000000000DE0000FFC0000000B8
:100BA0000000000000000000DE0001FF0000000067
:100BB0000000000000000000DE00018000000000D6
:100BC0000000000000000000DE00018000000001C5
:100BD000C33F30C780000000DE000180000000013C
:100BE000E33F30CFC0000000DE00018000000001C4
:100BF000E30330CC40000000DE0001800000000173
:100C0000B30630CC00000000DE00018000000001CF
:100C1000B30C3FCF80000000DE0001800000000127
:100C20009B1C3FC3C0000000DE00018000000001EB
:100C30008B1830C0C0000000DE0001800000000101
:100C40008F3030C8C0000000DE00018000000001CD
:100C5000873F30CFC0000000DE00018000000001AF
:100C6000873F30CF80000000DE00018000000000E0
:100C70000000000000000000DE0001FF0000000096
:100C80000000000000000000DE0000FFC0000000C7
:100C90000000000000000000DE000000E000000096
:100CA0000000000000000000DE00000070000000F6
:100CB0000000000000000000DE0000003C0000001A
:100CC0000000000000000000FE0000000FFFFFFF1A
:100CD000FFFFFFFFFFFFFFFFFE00000007FFFFFF1A
:100CE000FFFFFFFFFFFFFFFF9E000000000000006E
:100CF00000000000000000000E00000000000000E6
:100D000000000000000000000000000000000000E3
:100D1000000000000000000000004F4E4520534836
:100D20004F54004155544F204645454400465245D6
:100D3000452052554E00430043415345533A20004D
:100D400054494D450054494D453E0073002E000066
:100D5000000000003E5B4F5B3E3E6B4F6B3E1C3E17
:100D60007C3E1C183C7E3C181C577D571C1C5E7F2B
:100D70005E1C00183C1800FFE7C3E7FF00182418AA
:100D800000FFE7DBE7FF30483A060E2629792926DF
:100D9000407F050507407F05253F5A3CE73C5A7FC9
:100DA0003E1C1C08081C1C3E7F14227F22145F5F1F
:100DB000005F5F06097F017F006689956A60606059
:100DC000606094A2FFA29408047E040810207E2094
:100DD0001008082A1C08081C2A08081E10101010E9
:100DE0000C1E0C1E0C30383E3830060E3E0E06002F
:100DF0000000000000005F00000007000700147FF3
:100E0000147F14242A7F2A12231308646236495659
:100E100020500008070300001C2241000041221C52
:100E2000002A1C7F1C2A08083E0808008070300039
:100E30000808080808000060600020100804023E4E
:100E40005149453E00427F4000724949494621418F
:100E5000494D331814127F1027454545393C4A49FE
:100E6000493141211109073649494936464949293D
:100E70001E0000140000004034000000081422414D
:100E80001414141414004122140802015909063ED6
:100E9000415D594E7C1211127C7F494949363E41D1
:100EA0004141227F4141413E7F494949417F0909F2
:100EB00009013E414151737F0808087F00417F418D
:100EC000002040413F017F081422417F40404040C4
:100ED0007F021C027F7F0408107F3E4141413E7F1C
:100EE000090909063E4151215E7F09192946264913
:100EF00049493203017F01033F4040403F1F2040EA
:100F0000201F3F4038403F631408146303047804F3
:100F1000036159494D43007F4141410204081020BB
:100F2000004141417F040201020440404040400032
:100F30000307080020545478407F2844443838443C
:100F4000444428384444287F385454541800087EB8
:100F5000090218A4A49C787F0804047800447D400A
:100F6000002040403D007F1028440000417F4000A9
:100F70007C047804787C080404783844444438FCC1
:100F80001824241818242418FC7C08040408485445
:100F900054542404043F44243C4040207C1C204002
:100FA000201C3C4030403C44281028444C909090F9
:100FB0007C4464544C440008364100000077000033
:100FC000004136080002010204023C2623263C1E92
:100FD000A1A161123A4040207A3854545559215504
:100FE0005579412254547842215554784020545523
:100FF00079400C1E52721239555555593954545472
:101000005939555454580000457C410002457D42F1
:101010000001457C407D1211127DF0282528F07CCE
:10102000545545002054547C547C0A097F49324968
:101030004949323A4444443A324A4848303A4141B4
:10104000217A3A42402078009DA0A07D3D42424254
:101050003D3D4040403D3C24FF2424487E494366BA
:101060002B2FFC2F2BFF0929F620C0887E09032097
:10107000545479410000447D413048484A32384058
:1010800040227A007A0A0A727D0D19317D262929BB
:101090002F28262929292630484D402038080808BD
:1010A0000808080808382F10C8ACBA2F102834FADE
:1010B00000007B000008142A142222142A14085568
:1010C00000550055AA55AA55AAFF55FF55FF000027
:1010D00000FF00101010FF00141414FF001010FF88
:1010E00000FF1010F010F0141414FC001414F7009A
:1010F000FF0000FF00FF1414F404FC141417101F69
:1011000010101F101F1414141F00101010F00000F6
:1011100000001F101010101F10101010F010000011
:1011200000FF101010101010101010FF1000000021
:10113000FF140000FF00FF00001F10170000FC0458
:10114000F414141710171414F404F40000FF00F73B
:1011500014141414141414F700F71414141714109E
:10116000101F101F141414F4141010F010F00000CD
:101170001F101F0000001F14000000FC140000F0EE
:1011800010F01010FF10FF141414FF141010101F93
:1011900000000000F010FFFFFFFFFFF0F0F0F0F0A4
:1011A000FFFFFF0000000000FFFF0F0F0F0F0F38C1
:1011B00044443844FC4A4A4A347E02020606027E0F
:1011C000027E0263554941633844443C04407E201A
:1011D0001E2006027E020299A5E7A5991C2A492A2B
:1011E0001C4C7201724C304A4D4D303048784830BA
:1011F000BC625A463D3E494949007E0101017E2AB2
:101200002A2A2A2A44445F444440514A44404044E4
:101210004A51400000FF0103E080FF000008086B16
:101220006B083612362436060F090F060000181810
:101230000000001010003040FF0101001F01011EDE
:1012400000191D1712003C3C3C3C0000000000004F
:101250000103070F1F3F7F0080C0E0F0F8FCFE0095
:101260005EBCE2613FDD83C29C7E20A3FD1F410086
:101270009D23BE46DB65F88C11AF32CA57E9744432
:101280004941474E4F53544943533E00494E464F00
:10129000203E0050524F46494C4553203E00534596
:1012A0005454494E4753203E00494E464F203E007D
:1012B00050524F46494C4553203E005345545449E3
:1012C0004E4753203E0050524F46494C4553203E16
:1012D0000053455454494E4753203E0053455454FF
:1012E000494E4753203E0046414E204F4646004659
:1012F000414E204F4E004241434B203E004F464658
:10130000004F4E0044554D503A20004F4646004F86
:101310004E00524553544152543A200053455454C0
:10132000494E4753004F50454E203E0050524F46C5
:10133000494C45200050524F46494C4553004241CC
:10134000434B203E0050524F46494C4553002041EC
:101350004354494F4E5300500053415645203E00E0
:101360004241434B203E0053415645203E005E0023
:101370004E414D452050004241434B203E004445E4
:101380004C455445203E0044454C455445205000B2
:1013900053415645440050524F46494C4553003F37
:1013A00000530043005200440041007C002D0050D7
:1013B000004500420057005253543A004E00590075
:1013C0004241434B203E00204355523A0054454D84
:1013D000503A00444941474E4F5354494353004209
:1013E00041434B203E00342E302E300046573A20E9
:1013F0000056002E0035563A20002D2D0041002EBB
:1014000000424153453A200025204E004C4F573AA8
:101410002000494E464F004155544F204F4646004C
:101420004155544F204F4E004300434F4F4C444FC3
:10143000574E00434845434B2054454D50005445BA
:101440004D50204552524F520043555252454E5432
:10145000204C4F2100434845434B20434153450016
:10146000434845434B20434F494C002120464155BA
:101470004C54202100484549474854204F4B3F00D9
:1014800043415345002026200054494D4500434127
:10149000534553004C4F414400430044524F505079
:1014A000494E470073002E00412020002E00414E7F
:1014B0004E45414C494E47000000000024002700E3
:1014C0002A0000000000250028002B002200FF2138
:1014D00000000000080002010000030407000000F3
:1014E0000000000000000000002300260029000486
:1014F00004040404040404020202020202030303BB
:1015000003030301020408102040800102040810B4
:1015100020010204081020008827E63711241FBE8E
:10152000CFEFD8E0DEBFCDBF84B78093490314BEB0
:101530000FB6F894A8958091600088618093600050
:10154000109260000FBE11E0A0E0B1E0E6EFF7E717
:1015500002C005900D92AC39B107D9F723E0ACE990
:10156000B1E001C01D92A834B207E1F71AE0CDE85E
:10157000DAE004C02197FE010E949D3ACC38D107E1
:10158000C9F70E9429280C94EE3B0C94000080E4DB
:1015900080937C0080917A00806480937A008091AF
:1015A0007A0086FDFCCF80917800909179000895B3
:1015B0000895833081F028F4813099F08230A9F0C9
:1015C00008958730A9F08830C9F08430B1F4809153
:1015D00080008F7D03C0809180008F778093800092
:1015E000089584B58F7784BD089584B58F7DFBCF32
:1015F0008091B0008F778093B00008958091B00003
:101600008F7DF9CFCF93DF93282F30E0F901EF5290
:10161000FB4E8491F901ED5FFA4ED491F901E1514D
:10162000FB4EC491CC23A1F081110E94D90AEC2F6A
:10163000F0E0EE0FFF1FEB51FB4EA591B491EC9142
:10164000ED2381E090E009F480E0DF91CF910895EF
:1016500080E090E0FACF1F93CF93DF93282F30E004
:10166000F901EF52FB4E8491F901ED5FFA4ED491EE
:10167000F901E151FB4EC491CC23A9F0162F811141
:101680000E94D90AEC2FF0E0EE0FFF1FEE53FB4E45
:10169000A591B4918FB7F894EC91111108C0D09531
:1016A000DE23DC938FBFDF91CF911F910895DE2B56
:1016B000F8CFEAEDF4E1E491E33019F140F4E130E0
:1016C000B1F0E230C9F060E089E00C942B0BE73018
:1016D00011F1E83041F1E430B1F72091800020624F
:1016E0002093800090938B0080938A00089594B596
:1016F000906894BD87BD089594B5906294BD88BDEF
:1017000008952091800020682093800090938900A4
:101710008093880008959091B00090689093B000F5
:101720008093B30008959091B00090629093B000C0
:101730008093B4000895CF93DF9390E0FC01ED5FB8
:10174000FA4E249181519B4EFC0184918823C9F06B
:1017500090E0880F991FFC01E854FB4EA591B491CD
:10176000FC01EE53FB4EC591D49161110DC09FB7A2
:10177000F8948C91209582238C9388812823288348
:101780009FBFDF91CF910895623051F49FB7F894D5
:101790003C91822F809583238C93E8812E2BEFCF71
:1017A0008FB7F894EC912E2B2C938FBFEACF3FB7D5
:1017B000F8948091CB029091CC02A091CD02B0918F
:1017C000CE0226B5A89B05C02F3F19F00196A11D9A
:1017D000B11D3FBFBA2FA92F982F8827BC01CD017B
:1017E000620F711D811D911D42E0660F771F881FDA
:1017F000991F4A95D1F708958F929F92AF92BF9209
:10180000CF92DF92EF92FF926B017C010E94D70B87
:101810004B015C01C114D104E104F104B9F00E9450
:10182000D70B681979098A099B09683E73408105BD
:10183000910580F321E0C21AD108E108F10888EE91
:10184000880E83E0981EA11CB11CE4CFFF90EF909E
:10185000DF90CF90BF90AF909F908F9008952FB75B
:10186000F8946091C7027091C8028091C90290916A
:10187000CA022FBF0895AF92BF92CF92DF92EF922C
:10188000FF920F931F93CF93DF936C017B018B012A
:10189000040F151FEB015E01AE18BF08C017D1077A
:1018A00059F06991D601ED91FC910190F081E02D04
:1018B000C6010995892B79F7C501DF91CF911F9159
:1018C0000F91FF90EF90DF90CF90BF90AF90089571
:1018D000DC0180E0615090F09D919827E92FEF7036
:1018E000F0E0E15AFD4E2491E92FE295EF70F0E02F
:1018F000E159FD4EE491822F8E27ECCF0895DC0153
:101900002C911196ED91FC91F8948181822B818329
:101910009281322F30959323928387E090E0019754
:10192000F1F781818323818383E290E00197F1F7CE
:1019300090817894EFECF0E03197F1F7922381E019
:1019400009F480E00895FC0190810180F281E02D8E
:10195000292F209560FF14C0F8948281822382830E
:101960008181892B8183A3E2B0E01197F1F7828115
:10197000982B9283789487ED90E00197F1F7089582
:10198000F8948281822382838181892B8183AFEFC6
:10199000B0E01197F1F78281982B928378948FE0D1
:1019A00090E0EBCFDF92EF92FF920F931F93CF93D4
:1019B000DF93EC01D62EE42E08E010E0FF24F39430
:1019C00061E08D2D8F2109F460E0CE010E94A30C0F
:1019D000FF0C01501109A1F7E11010C0F894E98142
:1019E000FA8191818881809589238183E981FA81B7
:1019F000928188818095892382837894DF91CF9129
:101A00001F910F91FF90EF90DF900895EF92FF925A
:101A10000F931F93CF93DF938C017B0140E065E52B
:101A20000E94D20CE70188E0E80EF11C699140E0C9
:101A3000C8010E94D20CCE15DF05C1F7DF91CF910E
:101A40001F910F91FF90EF900895FC01908101800C
:101A5000F281E02DF8948181292F209582238183C2
:101A600078943DE743E050E0315029F1DA011197D5
:101A7000F1F780818923C1F3F894828182238283E4
:101A80008181892B81837894ABE7B7E01197F1F7D7
:101A9000F894818182238183A3E1B1E01197F1F76A
:101AA0008081982381E009F080E07894E3E6F6E015
:101AB0003197F1F7089580E00895CF92DF92EF9289
:101AC000FF928091DC029091DD020E94250D40E0A2
:101AD0006CEC8091DC029091DD020E94D20C40916E
:101AE000D30264E48091DC029091DD020E94D20C6A
:101AF0008091D702882309F1E091D6028091D80223
:101B0000882301F18091D30281111CC00E942F0C07
:101B10006B017C018091DC029091DD020E947F0CC0
:101B2000813059F00E942F0C6C197D098E099F0994
:101B30006E3E72408105910568F3FF90EF90DF9053
:101B4000CF900895E9508EEE92E0E33038F4F0E063
:101B5000EE0FFF1FEB5EFE4F808191816C01990FAC
:101B6000EE08FF088091D402882329F060E080917C
:101B7000D5020E942B0BC701B6010E94FC0B80917D
:101B8000D4028823D1F261E08091D502FF90EF90DA
:101B9000DF90CF900C942B0B6F927F928F929F923D
:101BA000AF92BF92CF92DF92EF92FF920F931F936B
:101BB000CF93DF938C01EB018091DC029091DD02E9
:101BC0000E94250D882309F43FC0B8018091DC02F2
:101BD0009091DD020E94060D40E06EEB8091DC02E8
:101BE0009091DD020E94D20C7E016E0189E0C80E48
:101BF000D11C8E01A090DC02B090DD0288E0882E1E
:101C0000912C712C66246394C5010E947F0C811174
:101C10007628660CE1E08E1A9108B1F7F80171920E
:101C20008F01CE16DF0631F78091DC029091DD0244
:101C30000E94250D813041F4F70181917F018111CE
:101C400005C0E017F107C1F790E008C068E0CE01D9
:101C50000E94680C91E028852813F6CF892FDF9128
:101C6000CF911F910F91FF90EF90DF90CF90BF9099
:101C7000AF909F908F907F906F900895CF93DF9358
:101C8000CDB7DEB729970FB6F894DEBF0FBECDBF34
:101C9000BE016F5F7F4F0E94CC0D882331F08D8194
:101CA0008F33A9F020F48F31A1F080E007C08F3589
:101CB00021F08F37D1F78CE001C08BE029960FB669
:101CC000F894DEBF0FBECDBFDF91CF9108958AE0BB
:101CD000F5CF89E0F3CFEF92FF920F931F93CF934D
:101CE000DF93EC01EC80FD806E157F050CF070C079
:101CF00057FF04C0240F351F50E040E08E819F81C4
:101D0000FA01E20FF31F8E179F071CF49C01241B9E
:101D1000350B121613060CF05BC0922F842F86959C
:101D2000869586958E9DD0018F9DB00D11246A0FEA
:101D30007B1FAF8DB8A1A60FB71F477049F188E090
:101D4000841B482F682F70E0FB01E95AFD4EE49197
:101D5000281708F063C0621B71092FEF30E002C042
:101D6000359527956A95E2F7E2230130110539F0A0
:101D7000B0F10230110561F58C91E82702C08C9119
:101D8000E82BEC93941720F12C813D81A20FB31F17
:101D9000E92FE41BE83078F00230110521F58E2F91
:101DA0009C9190959C932C813D81A20FB31F8850EC
:101DB0008830B0F7E770EE2359F0F0E0E15BFD4EBC
:101DC000E49101301105F9F010F10230110519F11B
:101DD000DF91CF911F910F91FF90EF900895E095C3
:101DE0008C91E823CECF81E00115110509F480E044
:101DF00081959E2F8C932C813D81A20FB31F98500B
:101E00009830C0F7D7CF8C91E82BEC93E1CFE095D9
:101E10008C91E823FACF8C91E827F7CF0130110598
:101E200009F4ADCFE0F20230110509F4A5CFAE0DF3
:101E3000BF1DAECF0F931F93CF93DF9377FF04C0E7
:101E4000260F371F70E060E0DC011496CD91DC9125
:101E5000FB01E20FF31FCE17DF071CF49E01261BC8
:101E6000370B121613064CF5FA0157FD3796A3E00F
:101E7000F595E795AA95E1F7EC9FD001ED9FB00DA0
:101E8000FC9FB00D11246A0F7B1FDC015F96ED9162
:101E9000FC91E60FF71F4770552781E090E001C0E5
:101EA000880F4A95EAF7482F0130110559F0A8F03C
:101EB0002E0F3F1F02301105E1F0DF91CF911F91EE
:101EC0000F9108952E0F3F1FE217F307B1F3819191
:101ED000DF011197842B8C93F7CF80952E0F3F1F36
:101EE000E217F30751F39191DF01119798239C9327
:101EF000F7CFE217F30709F38191DF0111978427E8
:101F00008C93F7CF0F931F93FA01DC0156964C91F7
:101F100056974230E9F04330A1F1413061F5149613
:101F20004D915C91DA01AE1BBF0BFD01E21BF30B7F
:101F300077FD0BC0DC0116964D915C916417750717
:101F400024F4AB01BF010E941A0F1F910F91089555
:101F500014964D915C91DA01A61BB70BBD0161503F
:101F60007109DC0116964D915C91DA01AE1BBF0B35
:101F7000FD01E21BF30B77FDE8CFAF010E946B0E72
:101F8000E4CF16964D915C91DA01A61BB70BBD010B
:101F900061507109CDCF0F931F93FA01DC01569662
:101FA0004C9156974230A9F0433091F1413019F5E8
:101FB00014964D915C91DA01AE1BBF0BFD01319778
:101FC000F7FD04C0AB01BF010E946B0E1F910F9182
:101FD000089514964D915C91DA01A61BB70BBD01D3
:101FE000DC0116964D915C91DA01AE1BBF0BFD0131
:101FF0003197621B730BF7FDE9CFDC0116964D910B
:102000005C91E417F50714F7AF010E941A0FDECFB9
:1020100016964D915C91DA01A61BB70BBD01621BB0
:10202000730BCECFFC0177FD64C080859185681766
:1020300079070CF05EC057FD5CC082859385481718
:1020400059070CF056C086898230B1F0833029F1EF
:10205000813041F484819581841B950BAB01BC01D7
:10206000615071092130310509F108F443C0223073
:10207000310509F463C0089584819581DC01A61BB4
:10208000B70BBD016150710986819781DC01A41BEA
:10209000B50BAD0141505109E5CF86819781861B73
:1020A000970BBA01AC0141505109DCCFCA0157FD71
:1020B0000796A3E095958795AA95E1F7A481B58148
:1020C0008A9F90018B9F300D9A9F300D1124620FD3
:1020D000731F078CF0A1E02DE60FF71F47705527FF
:1020E00021E030E001C0220F4A95EAF78081822B7F
:1020F00080830895CA0157FD079633E0959587952B
:102100003A95E1F7A481B5818A9F90018B9F300DAC
:102110009A9F300D1124620F731F078CF0A1E02DE0
:10212000E60FF71F4770552781E090E001C0880F48
:102130004A95EAF7809590818923DACFCA0157FD45
:10214000079623E0959587952A95E1F7A481B581B7
:102150008A9F90018B9F300D9A9F300D1124620F42
:10216000731F078CF0A1E02DE60FF71F477055276E
:1021700021E030E001C0220F4A95EAF780818227F2
:10218000B7CF08958EBD00000DB407FEFDCF8EB50C
:1021900008958CBD9DBD08950895FC016370668B04
:1021A0008481958126813781613039F0633029F04F
:1021B0009187808733872287089531872087938787
:1021C000828708952F923F924F925F926F927F92F3
:1021D0008F929F92AF92BF92CF92DF92EF92FF9237
:1021E0000F931F93CF93DF93CDB7DEB76A970FB6E8
:1021F000F894DEBF0FBECDBF9A8F898F7A83698333
:102200004A01D22E18870F833701BC2CDC01599666
:102210002D913C915A972115310509F015C1189659
:102220008D919C911997681779070CF0D7C11A9670
:102230008D919C91481759070CF0D0C14C2C512C12
:10224000B6E0CB9E600D711D11247C876B8716163E
:1022500017060CF0C3C1EA2DF0E0FA87E98793E096
:10226000EE0FFF1F9A95E1F7F88BEF87CF01840FF0
:10227000951F181619060CF0B1C1A98DBA8D589684
:102280008C91811104C0BFEABD1508F4D394A98DC7
:10229000BA8DED91FC9111970284F385E02DCD016B
:1022A0000995B5E0DB9EC0011124E981FA81FC8328
:1022B000EB83312C212C9C01215B324F388F2F8BEB
:1022C0004A2D50E05E8B4D8BEF89F88DE20DF31DAA
:1022D00044919E828D82D12CC12C69817A81620DBC
:1022E000731D7A8B698B842F90E09C8B8B8BE98D8F
:1022F000FA8DA081B18140FF82C0F1E0BF126FC0B2
:10230000AF126DC01C96ED91FC912F813885A40110
:102310004C0D5D1D69897A89898D9A8D0995EB89A6
:10232000FC89F595E7954E2F5FEFC51AD50A6D81AB
:102330007E818D899E89680F791F7E836D8398E0E9
:10234000C916D10481F6AFEF2A1A3A0AEB81FC8153
:10235000E40DF51DFC83EB83F5E02F16310409F045
:10236000B3CF2F81388526153705B9F0A98DBA8DE1
:10237000ED91FC91B1E0BB1257C0AB1255C0698121
:102380007A816B5F7F4F0088F189E02D830128E01F
:1023900030E0A401898D9A8D0995A98DBA8DED91B2
:1023A000FC9111970688F789E02DCD016A960FB64A
:1023B000F894DEBF0FBECDBFDF91CF911F910F917B
:1023C000FF90EF90DF90CF90BF90AF909F908F9055
:1023D0007F906F905F904F903F902F9009941E9642
:1023E000ED91FC91EF80F88409851A8592014D8169
:1023F0005E816B817C81898D9A8D099590CF2F812B
:1024000038852615370509F48ACF31E0B31207C0A5
:10241000A31205C01C96ED91FC91930178CF1E96F6
:10242000ED91FC917301E0CF6B857C856419750992
:102430000684F785E02D73010F8518899201A401A8
:10244000898D9A8D0995A9CFF90134969491329787
:1024500045915491D91AB7E0DB9E400D511D1124CE
:10246000F901259134913C8B2B8BFA012590349006
:10247000FA013296749031963491398B3296649089
:102480003196449041E04C1518F04A1508F07FC091
:10249000662D062C000C770B7C836B83842D042C1B
:1024A000000C990B9E838D83A98DBA8DED91FC91C3
:1024B00011970284F385E02DCD010995512CD12C83
:1024C000C12CEA2DF0E0FA87E9872B2D30E03C871C
:1024D0002B87A401440D511D47FC5A95588F4F8BF3
:1024E00069817A81660D711D67FC7A957E876D879B
:1024F0007989C71608F051CF2C2D30E04D815E81CF
:10250000420F531FA985BA854A9FC0014B9F900D6A
:102510005A9F900D1124FC01E80DF91DF88BEF87EF
:10252000852D612C4F89588D420F531F5E8B4D8B2B
:10253000671408F050C044244394480E877041F457
:10254000C1010196EB89FC89E20DF31DD4901C01B9
:10255000D7FE19C0A98DBA8DED91FC91662D70E062
:10256000B1E0BB1219C0AB1217C02D853E85620FBA
:10257000731F0484F585E02D2F8138854D895E8990
:10258000898D9A8D0995DD0C6394842DD1CF1E829F
:102590001D821C821B8288CF4B815C81640F751F5A
:1025A000AB85BC856A9FC0016B9F900D7A9F900D93
:1025B000112469817A81680F791F0684F785E02DDF
:1025C000EF80F88409851A859D014F855889898D8A
:1025D0009A8D0995D8CF570CC3948ACF6A960FB6B7
:1025E000F894DEBF0FBECDBFDF91CF911F910F9149
:1025F000FF90EF90DF90CF90BF90AF909F908F9023
:102600007F906F905F904F903F902F9008958F92A2
:102610009F92AF92CF92EF92FF920F931F93CF931F
:10262000DF93EC01262F898D9A8D009709F051C018
:102630006A30D1F41D861C868D8948E0849F900104
:1026400011248E859F85820F931F9F878E8781E03F
:1026500090E0DF91CF911F910F91FF90EF90CF907D
:10266000AF909F908F9008956D3089F3CC88AD889E
:102670008F898823C1F08C859D8536E0C39E800DAF
:10268000911D1124488559854817590764F44E85D2
:102690005F851D861C8638E0A39EC0011124840F2F
:1026A000951F9F878E87EA88FB88088919894E8540
:1026B0005F856C857D85CE010E94E2102C898C851A
:1026C0009D8546E0249F800D911D11249D878C8758
:1026D000BECF6A3069F41D861C86FC013896E491F1
:1026E0002D898E859F85E29F800D911D1124ADCF90
:1026F0006D3009F4ACCFFC0134963491631708F4C3
:10270000A6CF3296E491E61708F4A1CFFC013296E9
:1027100085909490462F431B342F47E0349F800CC4
:10272000911C1124F401329634913196E4913323B3
:10273000A9F1EE2399F1CC88F4013596E491AD88A6
:102740004F89442301F10E2E000CFF0BE30FF11D06
:10275000CE9EA001CF9E500D11246C857D85460F25
:10276000571F68857985641775076CF44E855F85FA
:102770001D861C86FC013896E491AE9E400D511DCD
:1027800011245F874E87EA88FB88088919894E855E
:102790005F856C857D85CE010E94E210F401349640
:1027A000E4912C898C859D85E29F800D911D1124DB
:1027B0008DCF0F931F93CF93DF938C01D0E0C0E0B8
:1027C000F801EC0FFD1F6491662341F084E093E073
:1027D0000E940713892B11F02196F2CFCE01DF91D1
:1027E000CF911F910F910895682F84E093E00C948E
:1027F00007136F927F928F929F92AF92BF92CF9268
:10280000DF92EF92FF920F931F93CF93DF93EC0130
:102810006B015A0139014801E881F9810284F3858D
:10282000E02D0995E881F9810288F389E02D87017F
:102830009301A501B601CE010995A501480D591DC9
:1028400041505109E881F9810288F389E02D930113
:10285000B601CE010995E881F9810088F189E02D62
:102860009401A501B601CE010995C60CD71CB6018D
:1028700061507109E881F9810088F189E02D9401A6
:10288000A501CE010995E881F9810688F789E02D37
:10289000CE01DF91CF911F910F91FF90EF90DF90CC
:1028A000CF90BF90AF909F908F907F906F90099442
:1028B0006F927F928F929F92AF92BF92CF92DF9250
:1028C000EF92FF920F931F93CF93DF935C01EB0185
:1028D0006A01490138018701DC01ED91FC91621721
:1028E000730719F5641675062CF0962D872D3A019D
:1028F000C92ED82E9601261937092F5F3F4F048C19
:10290000F58DE02DA301BE01C5010995DF91CF91A1
:102910001F910F91FF90EF90DF90CF90BF90AF90FD
:102920009F908F907F906F9008954615570591F472
:102930002617370724F0892D4B01C22FD82F9E016F
:10294000281939092F5F3F4F068CF78DE02DA6011E
:10295000B401DACF0284F385E02D0995D501ED911C
:10296000FC910488F589E02D83019401A601BE0144
:10297000C5010995D501ED91FC910688F789E02DF7
:10298000C501DF91CF911F910F91FF90EF90DF90E4
:10299000CF90BF90AF909F908F907F906F90099451
:1029A000EF92FF920F931F93DC011A960D911C91E9
:1029B0001B9718962D913C911997ED91FC9100A0D1
:1029C000F1A1E02D7B0150E040E070E060E009956E
:1029D0001F910F91FF90EF9008954F925F926F9229
:1029E0007F928F929F92AF92BF92CF92DF92EF929F
:1029F000FF920F931F93CF93DF936C012B015A012A
:102A000039014801DC01ED91FC910284F385E02D50
:102A10000995E201640C751CD601ED91FC91C61577
:102A2000D7055CF40088F189E02D87019401A501A8
:102A3000BE01C60109952196EFCF0688F789E02DE2
:102A4000C601DF91CF911F910F91FF90EF90DF9022
:102A5000CF90BF90AF909F908F907F906F905F903E
:102A60004F9009948F929F92AF92BF92CF92DF9234
:102A7000EF92FF920F931F93CF93DF93EC015B01D3
:102A80004A016901E881F9810284F385E02D099505
:102A900095012C0D3D1D21503109E881F9810488F3
:102AA000F589E02D78018401A401B501CE010995D5
:102AB000E881F9810688F789E02DCE01DF91CF9179
:102AC0001F910F91FF90EF90DF90CF90BF90AF904C
:102AD0009F908F9009948F929F92AF92BF92CF92C6
:102AE000DF92EF92FF920F931F93CF93DF93EC014E
:102AF0005B014A0169017801E881F9810284F3856B
:102B0000E02D0995C80CD91C860101501109E881F6
:102B1000F9810488F589E02D9501A401B501CE0164
:102B20000995E881F9810688F789E02DCE01DF91CA
:102B3000CF911F910F91FF90EF90DF90CF90BF90BA
:102B4000AF909F908F900994EF92FF920F931F93F5
:102B5000DC01ED91FC9100A0F1A1E02D09951F9100
:102B60000F91FF90EF9008950F931F93DC01ED916B
:102B7000FC91068CF78DE02D09951F910F9108951A
:102B80000F931F93DC01ED91FC91048CF58DE02DEA
:102B900009951F910F910895DC01ED91FC9100843E
:102BA000F185E02D09943F924F925F926F927F9250
:102BB0008F929F92AF92BF92CF92DF92EF92FF924D
:102BC0000F931F93CF93DF9300D000D0CDB7DEB724
:102BD0005C013B016A014901280187E0480E511C54
:102BE00093E0559447949A95E1F7CA018E0D9F1D85
:102BF0009A838983F12CE12C312C1C821B828B81DE
:102C00009C8187709927330C892B61F4EB81FC81BF
:102C100083E0F595E7958A95E1F7EE0DFF1DE80D48
:102C2000F91D349037FE0AC021E030E0A6016B8127
:102C30007C81660D771DC5010E94CC158B819C811E
:102C400001969C838B8308171907C9F69FEFC91A51
:102C5000D90AE40CF51C89819A81C816D90669F64F
:102C60000F900F900F900F90DF91CF911F910F91C8
:102C7000FF90EF90DF90CF90BF90AF909F908F909C
:102C80007F906F905F904F903F9008952F923F926A
:102C90004F925F926F927F928F929F92AF92BF926C
:102CA000CF92DF92EF92FF920F931F93CF93DF9318
:102CB00000D000D000D0CDB7DEB73C016A013E8322
:102CC0002D83FC82EB825801A41AB50AB7FE03C01B
:102CD000B194A194B1088D809E80861A970A97FEC0
:102CE00003C09194819491088A149B045CF0902F06
:102CF000812F0D811E819D838E839C2D8D2D6B01D7
:102D0000692F782F0C151D055CF09D818E817E83C7
:102D10006D83692F782F902F812F8601C92ED82E91
:102D20001601201A310A2B012D813E81421A530AC5
:102D300057FE03C0519441945108710137FE03C0FE
:102D40003FEFE31AF30AF594E7948D819E8186178D
:102D500097075CF5A1E0B0E0BA83A983C016D1065D
:102D60004CF1D301ED91FC910484F585E02D2B818C
:102D70003C81A8016D817E818A149B041CF04D81E9
:102D80005E81B801C3010995E418F508F7FE0AC091
:102D90002D813E8189819A81280F391F3E832D83A1
:102DA000E20CF31C0F5F1F4FD9CF2FEF3FEF3A8399
:102DB0002983D4CF26960FB6F894DEBF0FBECDBFC1
:102DC000DF91CF911F910F91FF90EF90DF90CF9007
:102DD000BF90AF909F908F907F906F905F904F903B
:102DE0003F902F900895089520911502260F3327C4
:102DF000331F21323105ECF420913B02FC0190E0BD
:102E000080E0243069F082E00895A09115022191BC
:102E1000AC014D505E4FA40FB52FB11D2C93019600
:102E2000861798F380911502680F6093150280E071
:102E3000089581E0089510923B0281E080933D0265
:102E400010923C0261E082E10E942B0B61E083E181
:102E50000E942B0BE9EBF0E080818E7F80838081E4
:102E60008D7F808388E48093B80085E48093BC00E4
:102E70000895CF93DF9391E09093F2018823B9F006
:102E8000C091B800D091BA008091BC008A7B809339
:102E9000BC0060E082E10E942B0B60E083E10E94B5
:102EA0002B0B0E941B17D093BA00C093B800DF9180
:102EB000CF91089508950895E091EC018091EB0180
:102EC000E81730F4F0E0E553FE4F808190E008957C
:102ED0008FEF9FEF08959091EC018091EB012FEF20
:102EE0003FEF981748F4E92FF0E0E553FE4F2081BB
:102EF00030E09F5F9093EC01C90108958091EB0150
:102F00009091EC01891B990B0895CF92DF92EF927B
:102F1000FF920F931F93CF93DF937C01CB018A0124
:102F20002091D202222389F0EB016B01C40ED51E41
:102F3000CC15DD0569F06991D701ED91FC91019007
:102F4000F081E02DC7010995F3CF642F0E94F4169C
:102F5000C801DF91CF911F910F91FF90EF90DF900B
:102F6000CF900895CF93DF931F92CDB7DEB76983DB
:102F70002091D2022223F9F02091CF02203258F082
:102F800021E030E0FC013383228390E080E00F9069
:102F9000DF91CF9108958091D002E82FF0E0E555C0
:102FA000FE4F998190838F5F8093D0028093CF02F0
:102FB00081E090E0ECCF61E0CE0101960E94F41632
:102FC000F7CFCF92DF92EF92FF920F931F93CF93A1
:102FD000DF93D091CF0281E0D13208F09CC0C09144
:102FE000D1020E94D70B6B017C0180913B028111C1
:102FF0006CC082E080933B0281E080933D028FEFC2
:1030000080933A0210925F02D0935E02ABEAB1E085
:10301000EEE3F2E080E0D8138DC010926002809160
:103020006002CC0FC82BC093600280913C028130BB
:1030300009F084C010923C020E94D70B6B017C0106
:10304000809160028093BB008091EE019091EF012E
:10305000A091F001B091F101892B8A2B8B2BA1F06B
:103060000E94D70B0091EE011091EF012091F00129
:103070003091F1016C197D098E099F090617170718
:103080002807390708F442C08091BC0083FDD8CFDF
:1030900085EC8093BC000E94D70B6B017C01809172
:1030A0003B02823009F44CC080913A028F3F09F410
:1030B00069C080913A02803209F466C080913A0278
:1030C000803309F463C084E026C08091EE019091C2
:1030D000EF01A091F001B091F101892B8A2B8B2B8C
:1030E00009F483CF0E94D70B0091EE011091EF01FC
:1030F0002091F0013091F1016C197D098E099F0931
:10310000061717072807390708F06FCF8091ED01E0
:103110000E94391785E01092D0021092CF021092CF
:10312000D202DF91CF911F910F91FF90EF90DF902E
:10313000CF9008959D9191938F5F6DCF85EEA9CF2C
:103140008091EE019091EF01A091F001B091F10119
:10315000892B8A2B8B2B09F4A2CF0E94D70B0091CD
:10316000EE011091EF012091F0013091F1016C1905
:103170007D098E099F09061717072807390708F0E8
:103180008ECFC4CF80E0C7CF82E0C5CF83E0C3CF6E
:10319000EF92FF920F931F93CF93DF937C01C62F83
:1031A0008091210390912203009709F459C0209146
:1031B000250331E03093D2022093D1021092D00245
:1031C0001092CF02DC01ED91FC910190F081E02D95
:1031D00060E009958701EE24E394F12CD1E0C15021
:1031E0008091210390912203CF3F91F1B0E2EB1641
:1031F000F104D8F00E94E1178091210390912203FD
:1032000020912503D093D2022093D1021092D002B4
:103210001092CF02DC01ED91FC910190F081E02D44
:1032200060E00995EE24E394F12C809121039091C4
:103230002203F8016491DC01ED91FC910190F08191
:10324000E02D0995BFEFEB1AFB0A0F5F1F4FC7CFA9
:10325000DF91CF911F910F91FF90EF900C94E117A8
:10326000E0913103F0913203908180913703809592
:10327000892380838701C15008F438C0F801849104
:1032800020911F0330912003232B29F00E94C210AC
:103290000F5F1F4FF0CF28E030E040E8E0912D03B2
:1032A000F0912E0390913503582F5423D9F050817B
:1032B000952B9083E0912F03F091300390815091F2
:1032C0003603952B9083E0912F03F09130035081CA
:1032D000909136039095952390834695215031091E
:1032E000E9F6D6CF508190959523E3CFDF91CF912A
:1032F0001F910F91FF90EF9008951F93CF93DF934D
:10330000EC018D8D9E8D009721F1162F29A131E0C2
:103310003093D2022093D1021092D0021092CF02A9
:10332000DC01ED91FC910190F081E02D60E00995C8
:103330008D8D9E8DDC01ED91FC910190F081E02D51
:10334000612F09958D8D9E8DDF91CF911F910C94EA
:10335000E117ADA5BEA59C918BA9809589238C937F
:103360008B8D9C8D892B31F0862FDF91CF911F9112
:103370000C94C21028E030E080E8A9A5BAA599A96C
:10338000462F4823C1F04C91942B9C93ABA5BCA530
:103390009C914AA9942B9C93ABA5BCA54C919AA94E
:1033A000909594239C9386952150310931F7DF91B4
:1033B000CF911F9108954C9190959423E6CFDF9281
:1033C000EF92FF920F931F93CF93DF93809121038E
:1033D00090912203892B09F498C0209139033091F0
:1033E0003A0340913B0350913C0360E074E284EF68
:1033F00090E00E947B3A20513109410951095695CC
:103400004795379527952093B80065E08CEC94E1BB
:103410000E94C81860910803615084E093E00E9404
:103420007D1920910A0330910B03C901079697FD7E
:10343000079633E0959587953A95E1F72091080333
:1034400030910903829F8001839F100D929F100D80
:103450001124C0912303D0912403809121039091E2
:1034600022030C0F1D1F009709F48FC02091250324
:1034700031E03093D2022093D1021092D002109208
:10348000CF02DC01ED91FC910190F081E02D60E430
:103490000995EE24E394F12CDD24D394809121034B
:1034A000909122030C171D0709F446C0B0E2EB16F9
:1034B000F104D8F00E94E11780912103909122033A
:1034C00020912503D092D2022093D1021092D002F3
:1034D0001092CF02DC01ED91FC910190F081E02D82
:1034E00060E40995EE24E394F12C809121039091FE
:1034F00022036991DC01ED91FC910190F081E02DB6
:103500000995BFEFEB1AFB0AC9CF80911F03909179
:103510002003892B31F080914203909143030E9454
:10352000C910E0913303F091340390818091380306
:1035300080958923808369CF0E94E11780912103C0
:1035400090912203892B09F461C020913D033091B1
:103550003E0340913F035091400360E074E284EFEA
:1035600090E00E947B3A205131094109510956955A
:103570004795379527952093B800DF91CF911F91FC
:103580000F91FF90EF90DF900895E0913103F0915B
:103590003203808190913703892B80830C171D079C
:1035A00069F2899120911F0330912003232B19F098
:1035B0000E94C210F3CF28E030E040E8E0912D03F4
:1035C000F0912E0390913503582F5423D9F0508158
:1035D000952B9083E0912F03F091300390815091CF
:1035E0003603952B9083E0912F03F09130035081A7
:1035F00090913603909595239083469521503109FB
:10360000E9F6CCCF508190959523E3CFE091330339
:10361000F0913403808190913803892B8083ADCF62
:103620001F93CF93DF93EC01162F8D8D9E8D892BE9
:10363000B1F12DA93EA94FA958AD60E074E284EF25
:1036400090E00E947B3A2051310941095109569579
:103650004795379527952093B80066EA111167EAD8
:10366000CE010E947D198D8D9E8D892B41F129AD52
:103670003AAD4BAD5CAD60E074E284EF90E00E9447
:103680007B3A2051310941095109569547953795A3
:1036900027952093B800DF91CF911F9108958B8DCE
:1036A0009C8D892B21F08EAD9FAD0E94C910EFA596
:1036B000F8A990818CA9809589238083CECFEFA52E
:1036C000F8A980819CA9892B8083E5CF90E080E0D8
:1036D00008952FB7F8948091A9019091AA01892BA0
:1036E00061F04091A9015091AA0180E89CE0841BFF
:1036F000950B90937202809371022FBF08952FB79C
:10370000F89480917102909172028057944F909337
:103710007202809371022FBF08950E94C70A209100
:10372000A7013091A8012817390771F0AC01421B9D
:10373000530B9A0141E3429FC001439F900D112416
:10374000893A51E6950710F090E080E0089560E036
:1037500084E00C942B0B60E086E00C942B0B2FB7CD
:10376000F89460937B0270937C0280937D02909327
:103770007E022FBF0895209103013091040181E062
:1037800040910001509101014217530709F480E074
:1037900008959C019FB7F894409103015091040152
:1037A00050930101409300013093040120930301E1
:1037B0009FBF089581E090E09093980280939702D4
:1037C00061E085E00E942B0B61E08BE00C942B0BF9
:1037D0000F931F93CF93DF93CDB7DEB729970FB623
:1037E000F894DEBF0FBECDBF99E0E9E5F1E0DE0160
:1037F000119601900D929A95E1F7FB0197EC919348
:103800009B01255F3F4FDF0190E29D93A217B30715
:10381000E1F78E010F5F1F4FAB01475F5F4F9F01C5
:10382000D8019D918D01D9019D939D01A417B507E4
:10383000B9F78F5CDB011A968C931A9780918702F7
:10384000909188021C969C938E931B97809197026F
:103850001D968C939091890280918A02811182E059
:10386000892BDB011E968C939B01215F3F4F80E0EB
:10387000919189272E173F07D9F7FB018787299652
:103880000FB6F894DEBF0FBECDBFDF91CF911F9171
:103890000F910895BF92CF92DF92EF92FF920F9314
:1038A0001F93CF93DF93EC01B62EC72E8D85811128
:1038B00005C0CE010E94250D81110EC01B861D86FC
:1038C0001C8680E0DF91CF911F910F91FF90EF90C8
:1038D000DF90CF90BF90089540E060EFCE010E944E
:1038E000D20C01E0E12CD12C11E0CE010E947F0C22
:1038F000F82ECE010E947F0C91E0F91218C08130A1
:1039000099F51134D8F2DB86D11002C081E08D87A1
:103910008B81882399F22396EB2DFC2DCF010896FD
:1039200029912193E817F907D9F781E0CBCFEE2D44
:10393000F0E0F8120FC08B851817A0F4DE01AE0F6F
:10394000BF1F13968C91802379F4F12C193008F461
:103950001C87D12EEC0FFD1F8381902F909589231A
:1039600083830AC08113F1CFFE01EE0DF11D838127
:10397000802B8383FF24F3946F2DCE010E94A30C30
:103980001F5F000F11F4E39401E087E08E1508F04B
:10399000ACCFB7CFFF920F931F93CF93DF938C01E0
:1039A000F62EE091DC02F091DD0213861586148676
:1039B000128611861086178216821582148213824F
:1039C000C0E0B8018091DC029091DD020E944A1CA7
:1039D000D82F882329F0FC1629F0CF5FFC1688F732
:1039E000D0E008C067E0C8010E94680CF801978128
:1039F0008913F3CF8D2FDF91CF911F910F91FF90FE
:103A0000089561E089E00E949B0B85E090E00E94B0
:103A1000590B61E08AE00C942B0B61E089E00E9475
:103A20009B0B8FE090E00E94590B60E08AE00C94C1
:103A30002B0BFC0101900020E9F73197AF01481BE7
:103A4000590BBC0184E093E00C943B0CCF93DF93C3
:103A50000E94D913EC0182E691E00E94191D8C0F9F
:103A60009D1FDF91CF91089528E330E0309311033B
:103A70002093100390E09093130380931203662326
:103A800051F0109215031092140381E090E090938E
:103A900017038093160380919702909198028130CA
:103AA000910579F48DE29DE00E94261D81E090E071
:103AB0009093170380931603909315038093140338
:103AC0000895029719F483E29DE0EECF8AE19DE02C
:103AD000EBCF8F929F92AF92BF920F931F93CF9392
:103AE000DF93CDB7DEB7A1970FB6F894DEBF0FBE58
:103AF000CDBF19A2423008F44AE08E010F5D1F4F7E
:103B0000842E912CB12CA12CA50194010E947B3A0A
:103B1000E62FB901CA01EA30F4F4E05DD801EE9372
:103B20008D01232B242B252B79F790E080E0109733
:103B300019F0CD010E94191DA1960FB6F894DEBFB1
:103B40000FBECDBFDF91CF911F910F91BF90AF906E
:103B50009F908F900895E95CE1CF462FBC0190E0E3
:103B600080E00C94691DCF93DF9391E0909318034C
:103B70009093190321E030E030931703209316034C
:103B80003093150320931403109211031092100325
:103B90001092130310921203811141C080E49DE042
:103BA0000E94D91382E08093180380931903109226
:103BB00011031092100380E190E09093130380931F
:103BC00012038091870290918802C8EED3E0BE0173
:103BD0000E94533ACB016AE070E00E94AD1D8DE473
:103BE0009DE00E94D9138091870290918802BE01C6
:103BF0000E94533A64E670E00E94533ACB016AE0B7
:103C000070E00E94AD1D8BE49DE00E94D91381E01D
:103C10008093180380931903DF91CF91089585E471
:103C20009DE0BECFCF93DF93EB01E4E0F3E028E328
:103C300030E03587248790E09787868788E39DE08A
:103C40000E94D91361E070E0CE01DF91CF910C9416
:103C5000AD1DBC01990F880B990B4AE00C94691DAE
:103C60004F925F926F927F928F929F92AF92BF928C
:103C7000CF92DF92EF92FF920F931F93CF936B013E
:103C80007C01742EAC019B010E94423A882399F07A
:103C900085E691E0CF911F910F91FF90EF90DF901B
:103CA000CF90BF90AF909F908F907F906F905F90DC
:103CB0004F900C94191D46015701E894B7F82FEF67
:103CC0003FEF4FE75FE7C501B4010E94423A81111F
:103CD0000DC02FEF3FEF4FE75FE7C501B4010E9432
:103CE000783818161CF489E691E0D4CF2FEF3FEF17
:103CF0004FE75FE4C701B6010E94D03918161CF4E3
:103D00008DE691E0C7CF2FEF3FEF4FE75FECC701A4
:103D1000B6010E94783887FDF3CF20E030E0A9019A
:103D2000C701B6010E94783810E000E087FF08C0A4
:103D30008DE20E94F4138C01F7FAF094F7F8F094F6
:103D4000C0E060E070E080E09FE37C1641F020E09E
:103D500030E040E251E40E947D38CF5FF6CFA7010A
:103D600096010E940C382B013C010E94EF384B0158
:103D70005C014AE00E94691D7C01E00EF11ECC232B
:103D8000A9F1C501B4010E941E399B01AC01C30118
:103D9000B2010E940B384B015C018EE20E94F413C9
:103DA000E80EF91EC15010F120E030E040E251E48D
:103DB000C501B4010E94D5392B013C010E94EF38A6
:103DC0004B016AE070E0C4010E94AD1DE80EF91ECF
:103DD000B40190E080E00E941E399B01AC01C30158
:103DE000B2010E940B384B015C01DCCFC701CF91BF
:103DF0001F910F91FF90EF90DF90CF90BF90AF9009
:103E00009F908F907F906F905F904F900895282F94
:103E10009091A6019923B9F0CB01BA0148E350E093
:103E2000509311034093100330E030931303209319
:103E3000120341E00E94301E88EF0E94F41386E3D3
:103E40009DE00C94D913089520910A0330910B033F
:103E5000C901079697FD079623E0959587952A95C2
:103E6000E1F72091080330910903829FA001839F0D
:103E7000500D929F500D112470E060E0809123035B
:103E8000909124030C94E73B0E94E23B85ED8093E4
:103E9000BC008091EE019091EF01A091F001B091F2
:103EA000F1010796A11DB11D23E0B695A795979541
:103EB00087952A95D1F72091BC0024FD03C010926C
:103EC0003B0208954091EE015091EF016091F001A5
:103ED0007091F101452B462B472B69F30097A10503
:103EE000B10541F02AE22A95F1F700C00197A10936
:103EF000B109E1CF8091ED010C9439171F93CF9355
:103F0000DF93EC01162F0E94F537181739F0612F57
:103F1000CE01DF91CF911F910C94FD37DF91CF91AE
:103F20001F910895CF92DF92EF92FF920F931F930C
:103F3000CF93DF93CDB7DEB760970FB6F894DEBFAF
:103F40000FBECDBF082F10E00F5F1F4F94E0000F92
:103F5000111F9A95E1F780E1FB01DE0111960190B6
:103F60000D928A95E1F787EC89836E0182E0C80E95
:103F7000D11C9E01205F3F4FF60180E0919189277F
:103F8000E217F307D9F7888B60E0C8010E947E1F13
:103F9000EE24E394F12CF60161916F01C8018E0DBE
:103FA0009F1D0E947E1FFFEFEF1AFF0A80E1E816B7
:103FB000F10489F767ECC80160960FB6F894DEBF8C
:103FC0000FBECDBFDF91CF911F910F91FF90EF906A
:103FD000DF90CF900C947E1F0C94F537CF92DF9238
:103FE000EF92FF920F931F93CF93DF93883010F0DF
:103FF00080E039C08B01C82FD0E0219684E0CC0F3F
:10400000DD1F8A95E1F76B0120E1C20ED11C7B0117
:10401000C61BD70BCE018E0D9F1D0E94F537F701F1
:1040200081937F01EC15FD05A9F7F8018081873C9C
:10403000F9F6978531969801215F3F4F80E04191D5
:104040008427E217F307D9F79813D2CFF8018385B5
:104050009485805D97408137974150F681E0F80163
:104060009585933028F6DF91CF911F910F91FF90A6
:10407000EF90DF90CF900895CF93C82F61E672E064
:104080000E94EE1F811105C061E672E08C2F0E9434
:10409000E81B109292028BE090E0CF910C94C91B28
:1040A000DF92EF92FF920F931F93CF93DF93CDB7E1
:1040B000DEB729970FB6F894DEBF0FBECDBF809153
:1040C00048038A3519F083E180934A0380914A03BB
:1040D00080934B038AE58093480380918100887F19
:1040E00085608093810082E090E00E94EC1F843A1A
:1040F00051F060E081E090E00E947E1F64EA82E07F
:1041000090E00E947E1F84E090E00E94EC1F8C33C0
:1041100051F060E083E090E00E947E1F6CE384E059
:1041200090E00E947E1F1092B0001092B100109299
:10413000B2008AE08093B3008091B00082608093E7
:10414000B0008091B10084608093B1008091B10093
:1041500082608093B10080917000826080937000D3
:1041600062E082E00E949B0B62E083E00E949B0B76
:1041700062E080E10E949B0B61E086E00E949B0B65
:1041800061E084E00E949B0B61E08BE00E949B0B4E
:1041900061E087E00E949B0B61E08AE00E949B0B3C
:1041A00061E089E00E949B0B61E08CE00E949B0B28
:1041B00061E08DE00E949B0B61E085E00E949B0B1B
:1041C00061E08DE00E942B0B60E085E00E942B0BEC
:1041D0000E940D1D0E94A71B60E08BE00E942B0B2C
:1041E0000E94AB1B60E087E00E942B0B0E940D1D1C
:1041F00068EC70E080E090E00E94FC0B809123036B
:1042000090912403892B39F10E94241F80910A0385
:1042100090910B036091080370910903813291051D
:104220000CF02AC1AC014052510957FF02C04F5F48
:104230005F4F559547956357710977FF02C06F5FD0
:104240007F4F75956795F0E2EF2EF12C03E710E0B4
:104250002AE730E029C120910A0330910B03C901FC
:10426000079697FD079623E0959587952A95E1F7A0
:104270002091080330910903AC01429FC001439F84
:10428000900D529F900D11240E94BD3A90932403EB
:1042900080932303892B09F0B7CF0E94241F82E06B
:1042A000809318038093190381E090E090931703A3
:1042B00080931603909315038093140310921103B7
:1042C00010921003109213031092120330E2E32EA7
:1042D000F12C00E810E02AE13BE050E040E070E023
:1042E00060E084E093E00E94D3150E94DF1960ED46
:1042F00077E080E090E00E94FC0B0E94241F2AE1FE
:1043000039E050E040E070E060E084E093E00E943B
:10431000D3150E94DF1960ED77E080E090E00E9405
:10432000FC0B45E1D42E0E94241F20E2E22EF12C4A
:1043300000E810E02AE137E050E040E070E060E0A3
:1043400084E093E00E94D3150E94DF1964E670E0D8
:1043500080E090E00E94FC0B0E94241F2AE135E0DF
:1043600050E040E070E060E084E093E00E94D3150C
:104370000E94DF1964E670E080E090E00E94FC0B90
:10438000DA94D110D0CF0E94241FE091DC02F0918A
:10439000DD02138615861486128611861086178212
:1043A00016821582148213821092DA021092DB02B6
:1043B00011E0BE016F5F7F4F8091DC029091DD02C2
:1043C0000E944A1C882309F45BC267E0CE01019673
:1043D0000E94680C98858913ECCF8091DA028F5F78
:1043E0008093DA028981883231F008F040C280314E
:1043F00011F08232F1F68091DB028F5F8093DB0255
:104400008091D302811128C08091DC029091DD025D
:104410000E94250DBE016F5F7F4F8091DC0290915D
:10442000DD020E94060D40E064EB8091DC02909179
:10443000DD020E94D20C8091DC029091DD020E948C
:104440007F0C082F8091DC029091DD020E94250DE7
:10445000011102C01093D3028981803109F40EC288
:10446000CE0101960E943E0E9091D602981708F058
:10447000A0CF8093D6029DCFAC014054510957FF85
:1044800002C04F5F5F4F559547956255710977FFA1
:1044900002C06F5F7F4F7595679510E4E12EF12C98
:1044A00002E510E02AE532E084E093E00E94D315B3
:1044B00082E0809326038091210390912203892B2F
:1044C00009F4DFC08CE3809325031092EC01109275
:1044D000EB011092D0021092CF020E941B178AE5C6
:1044E00097E190931402809313028BE597E19093E8
:1044F00018028093170280912C0387FD1EC061E093
:104500000E949B0B61E080912C030E942B0B61E0C9
:1045100070E080E090E00E94FC0B60E080912C0352
:104520000E942B0B6AE070E080E090E00E94FC0BA0
:1045300061E080912C030E942B0B809121039091CC
:104540002203892B09F45CC12091390330913A038D
:1045500040913B0350913C0360E074E284EF90E0B3
:104560000E947B3A205131094109510956954795DE
:10457000379527952093B80064E086E790E00E9485
:10458000C81860910A03615084E093E00E947D198D
:1045900064E082E790E00E94C8188091260360E101
:1045A000813009F064E184E093E00E947D1964E0C9
:1045B0008EE690E00E94C8188FE8809341038091B6
:1045C0000803909109038038910509F032C1809168
:1045D0000A0390910B038034910509F03AC1809150
:1045E0002603813009F023C18FE98093410312E152
:1045F0006AED84E093E00E947D19612F84E093E0EE
:104600000E947D1961E884E093E00E947D19609129
:10461000410384E093E00E947D1969ED84E093E01A
:104620000E947D198091260362E2813009F061EFDA
:1046300084E093E00E947D1966E088E690E00E94A5
:10464000C8188091210390912203892B09F405C198
:1046500020913D0330913E0340913F035091400330
:1046600060E074E284EF90E00E947B3A20513109CF
:104670004109510956954795379527952093B800DC
:104680000CCE61E080912A030E949B0B61E0809137
:104690002B030E949B0B80912A03082E000C990B80
:1046A000FC01E151FB4EE491F0E0EE0FFF1FEE53F1
:1046B000FB4E259134913093320320933103FC015A
:1046C000ED5FFA4EE491E093370380912B03082EBF
:1046D000000C990BFC01E151FB4EE491F0E0EE0F70
:1046E000FF1FEE53FB4EA591B491B0933403A093FA
:1046F0003303FC01ED5FFA4EE491E09338038C91B3
:10470000E82BEC9380911F0390912003892B09F4EF
:1047100034C01FB7F89480919C01811127C0E9EF44
:10472000F4E18491EDE0F5E19491E82FF0E0EE0FF3
:10473000FF1FE854FB4EA591B491EC91E92321F4BD
:1047400061E08AE00E942B0B61E08AE00E949B0BF3
:104750008CB580618CBD8CB580648CBD61E08DE0D2
:104760000E949B0B61E08BE00E949B0B80919C015F
:104770008F5F80939C011FBFBECE61E080912803B4
:104780000E949B0B61E0809129030E949B0B80910A
:104790002803082E000C990BFC01E151FB4EE4911B
:1047A000F0E0EE0FFF1FEE53FB4E25913491309356
:1047B0002E0320932D03FC01ED5FFA4EE491E0936C
:1047C000350380912903082E000C990BFC01E1515F
:1047D000FB4EE491F0E0EE0FFF1FEE53FB4EA59170
:1047E000B491B0933003A0932F03FC01ED5FFA4E18
:1047F000E491E09336038C91E095E823EC937BCE33
:1048000080911F0390912003892B31F08091420306
:10481000909143030E94C910E0913303F091340357
:10482000908180913803809589238083A5CE8FEC79
:10483000DCCE8036910569F480910A0390910B03D8
:10484000409739F480912603813029F480E18093E8
:10485000410312E0CDCE8FEAFACFE0913303F0911D
:104860003403808190913803892B808316CD8B335C
:1048700009F4C1CD823409F09CCDBDCD8CE0F4CDDE
:104880008091DA028093A60190E1F92E0E94C70A76
:104890000091A7011091A801080F191F1093A801FA
:1048A0000093A7016AE070E080E090E00E94FC0BBA
:1048B000FA94F110EBCF84E0169507958A95E1F70D
:1048C0001093A8010093A701093C110518F081E09D
:1048D00080937A0290E080E00E94EC1F54E6859F6E
:1048E000C00111249C01205D37402137374108F475
:1048F000D2C080ED97E0909388028093870264E1B4
:1049000090E080E00E947E1F81E090E00E94EC1F1A
:1049100091E0813009F090E09093890283E090E08B
:104920000E94EC1F91E0813009F090E090938A02A0
:1049300010928C0210928B0210928E0210928D02B5
:1049400010928F0210929102109290021092920295
:1049500010929302813011F40E94DA1B60E08DE91D
:1049600091E00E94CA1C80919D01803109F46FC0C2
:10497000BE016F5F7F4F8DE991E00E94CC0D8823CF
:1049800009F465C08D818F3109F461C08FE18D8399
:104990008091DC029091DD020E94250D6DE971E0AD
:1049A0008091DC029091DD020E94060D40E06EE4F1
:1049B0008091DC029091DD020E94D20C40E06B817C
:1049C0008091DC029091DD020E94D20C40E06C816B
:1049D0008091DC029091DD020E94D20C80919D01B9
:1049E000803141F040E06D818091DC029091DD02E8
:1049F0000E94D20C8091DC029091DD022091D902BC
:104A0000222319F10E94250D882309F16DE971E037
:104A10008091DC029091DD020E94060D4091D3024C
:104A200068E48091DC029091DD020E94D20C8091BA
:104A3000D302811135C064E170E080E090E00E9413
:104A4000FC0B8091DC029091DD020E94250D89E033
:104A50008093D6028091DA028230F0F110E08091EA
:104A6000DA021817C8F58091D6028C30A9F1612FAF
:104A7000CE0101960E94CA1C8981803159F1CE0174
:104A800001960E943E0E9091D602981710F48093E2
:104A9000D6021F5FE4CF909388028093870234CFC1
:104AA0008091D402882329F060E08091D5020E9491
:104AB0002B0B64E170E080E090E00E94FC0B8091A1
:104AC000D402882309F4BDCF61E08091D5020E9411
:104AD0002B0BB7CF8CE0D7CF0E945D0D1092D70281
:104AE00068E770E080E090E00E94FC0B88E19DE0C8
:104AF0000FB6F894A895809360000FBE9093600065
:104B000061E085E00E942B0B29960FB6F894DEBF7A
:104B10000FBECDBFDF91CF911F910F91FF90EF900E
:104B2000DF9008951F920F920FB60F9211242F93CA
:104B30003F938F939F93AF93BF938091C7029091C0
:104B4000C802A091C902B091CA023091C60223E006
:104B5000230F2D3758F50196A11DB11D2093C602D4
:104B60008093C7029093C802A093C902B093CA026F
:104B70008091CB029091CC02A091CD02B091CE0257
:104B80000196A11DB11D8093CB029093CC02A093FE
:104B9000CD02B093CE02BF91AF919F918F913F9183
:104BA0002F910F900FBE0F901F90189526E8230F9E
:104BB0000296A11DB11DD2CF1F920F920FB60F9278
:104BC00011242F933F934F935F936F937F938F9312
:104BD0009F93AF93BF93EF93FF938091B900887F2A
:104BE000803609F44AC0F0F5883209F4A7C018F5F8
:104BF000803109F49BC0B8F4882309F4F9C08830E7
:104C000009F494C0FF91EF91BF91AF919F918F9163
:104C10007F916F915F914F913F912F910F900FBEB8
:104C20000F901F901895883109F488C0803251F791
:104C300080933A0214C0803409F49DC040F480335C
:104C4000B9F38833F9F680933A0285ECB0C0803529
:104C500009F485C0883509F496C0883499F60E9415
:104C6000461FD0CF883909F48CC038F5883729F031
:104C700050F4883611F0803729F683E080933B02A8
:104C80001092390257C0883809F47BC0803919F076
:104C9000803809F0B7CF80913902803208F071C0B6
:104CA000E091390281E08E0F809339028091BB0040
:104CB000F0E0E75EFD4F80833DC0803B39F0E0F4DB
:104CC000803A09F479C0883A09F09CCF84E0809357
:104CD0003B021092160210921502E0911302F0911D
:104CE000140209958091150281110FC081E0809313
:104CF00015021092F30109C0803C09F4A6CF883C4C
:104D000009F4A3CF883B09F07DCFE091160281E042
:104D10008E0F80931602F0E0ED50FE4F808180935D
:104D2000BB00909116028091150229C0809160020B
:104D30008093BB0085EC8093BC0064CF90915F02B0
:104D400080915E02981758F5E0915F0281E08E0F26
:104D500080935F02F0E0E25CFD4F8081E9CFE0915B
:104D60005F0281E08E0F80935F028091BB00F0E0D4
:104D7000E25CFD4F808390915F0280915E02981704
:104D8000C8F285E8D8CFE0915F0281E08E0F809372
:104D90005F028091BB00F0E0E25CFD4F8083809178
:104DA0003D0281115CCF81E080933C0284EA8093D4
:104DB000BC0010923B0226CF85EC8093BC00109281
:104DC0003B0280913902803230F4E0913902F0E008
:104DD000E75EFD4F10826091390270E0E0911702AA
:104DE000F091180289E192E00995109239020ACFF8
:104DF00010923A0234CF1F920F920FB60F921124E5
:104E00000F931F932F933F934F935F936F937F93D2
:104E10008F939F93AF93BF93EF93FF938091710212
:104E200090917202892B09F46BC08091A5018823AF
:104E300009F466C061E08CE00E942B0B1092A50182
:104E40008091A9019091AA01019680389C4008F4B4
:104E500042C01092AA011092A9018091A9019091DB
:104E6000AA018036944008F040C087E08093B300E8
:104E700080917102909172020197909372028093D7
:104E800071028091030190910401029789F40E94BC
:104E90002F0C00917B0210917C0220917D023091B9
:104EA0007E02601B710B820B930B97FF0E94AB1B62
:104EB000FF91EF91BF91AF919F918F917F916F91F2
:104EC0005F914F913F912F911F910F910F900FBEC6
:104ED0000F901F9018958091A9019091AA010196B9
:104EE0009093AA018093A901B8CF8091A9019091D4
:104EF000AA018032984010F482E3B8CF8AE0B6CF9E
:104F000060E08CE00E942B0B81E08093A501B9CF7B
:104F1000CF93A8EFB2E013961C921E92129748EE20
:104F200053E060E070E014964D935D936D937C9335
:104F300017978FE191E011969C938E93E4E0F3E054
:104F40001382128220E830E03583248380E290E0EF
:104F5000978386833187208793878287168A158671
:104F6000148617861686C1E0C58BC48B8FEF9FEF22
:104F7000938B828B918B808BC78B108E128E118EB0
:104F800081E391E091838083148E138EB68FA58F79
:104F900010A2178E8FEF84A385A386A387A380A773
:104FA00080E49DE0A3E0B0E085AB96ABA7ABB0AFEB
:104FB00081AF92AFA3AFB4AF80E586AF17AE60E02C
:104FC00088E00E949B0BEBE0F5E1E491AAEEB2E0F1
:104FD000EC93E7EFF4E1E491F0E0EE0FFF1FEB510B
:104FE000FB4E8591949112969C938E9311971B96EC
:104FF0001C921B971D961C921D971C961C921C9729
:105000001A961C921A9719961C92199718961C9228
:10501000189717961C92179716961C921697159626
:105020001C92159714961C92149713961C92139722
:10503000E3EDF2E0168A158A1182B287A187178202
:105040001086108289E08383C483C583C683CF9191
:105050000895CF93DF93CDB7DEB7A6970FB6F89438
:10506000DEBF0FBECDBF789484B5826084BD84B5A9
:10507000816084BD85B5826085BD85B5816085BD53
:1050800080916E00816080936E001092810080910B
:105090008100826080938100809181008160809393
:1050A0008100809180008160809380008091B100B8
:1050B00084608093B1008091B00081608093B000E3
:1050C00080917A00846080937A0080917A00826077
:1050D00080937A0080917A00816080937A00809139
:1050E0007A00806880937A001092C1000E9450205C
:1050F00014E6212E312C04E6402E512C612C712C0B
:10510000DD24D394A89580910301909104018093AC
:105110004A030E942F0C6093C2027093C3028093D3
:10512000C4029093C50282E00E94020B9AA389A355
:1051300081E0E9A0FAA0EF2809F080E08093C102A5
:1051400083E00E94020B7C0181E0E114F10409F08C
:1051500080E08093C00280E10E94020B8C0181E01C
:105160000115110509F080E08093BF0260E0CE01D7
:1051700041960E94CA1C811166C0812C912CBEEF01
:10518000AB2EB2ECBB2E0E945D0D8092BB029092C2
:10519000BC02A092BD02B092BE0220E030E04CE51D
:1051A00052ECC501B4010E94D03987FD0AC020E04D
:1051B00030E04AEF52E4C501B4010E947838181675
:1051C00004F580910301909104014297D1F00E946F
:1051D000AB1B0E940D1D0E94A71B10929E020E94F5
:1051E0002F0C60527C468B4F9F4F60939A027093B6
:1051F0009B0280939C0290939D0282E190E00E942A
:10520000C91B29A13AA1232B09F097C080919902CB
:10521000811193C08091030190910401892B09F0C1
:10522000BEC020E030E04CE552E4C501B4010E946C
:10523000D03910929E0218160CF050C085E090E014
:105240000E94C91B7AC0BE016F5F7F4FCE0141969D
:105250000E94CC0D882309F490CF6A8170E0762FEC
:105260006627770F770F770F298148E0249F9001F9
:105270001124262B372B89898031E1F46885662338
:10528000C9F070E08F81DB01A81BB109CD019695B3
:10529000982F8827979587950E94673ACB0180972A
:1052A000B901F3E0660F771FFA95E1F760789C018A
:1052B000260F371F2138B4EE3B070CF45ECFB9013F
:1052C000330F880B990B0E94203920E030E040E03A
:1052D0005CE30E94D5394B015C0155CF10929F02CF
:1052E0001092A0021092A1021092A2021092A402A7
:1052F0001092A3021092A5021092A6021092A70289
:105300001092A8021092AA021092A9021092AC0266
:105310001092AB021092B7021092B8021092B9022A
:105320001092BA0280910201882309F435C087E007
:1053300090E00E94C91B1092020180919502EF2813
:1053400009F481C0882341F080919402882321F0E0
:105350000E940D1D10929402E0910301F09104014E
:10536000E331F10510F00C948E37E754F64D0C94B0
:105370009D3ACD2A7E331231DC329433CF367037EA
:105380002A34F52CDB2D762E8F2F5230C530543435
:10539000013567368336A93682E090E051CF80919F
:1053A000030190910401079719F490E080E048CF41
:1053B0008091030190910401089709F4BECF809178
:1053C000030190910401099709F4B7CF809103017B
:1053D000909104010A9709F4B0CF80910301909154
:1053E00004010B9709F4A9CF809103019091040166
:1053F0000C9709F4A2CF80910301909104010D97BD
:1054000009F49BCF80910301909104010E9709F458
:1054100094CF80910301909104010F9709F48DCFEF
:105420008091030190910401059719F410929E0256
:1054300084CF8091030190910401059709F47DCFF9
:10544000D09296027ACF811187CF809103019091FB
:105450000401409701F1809103019091040141976B
:10546000D1F080910301909104014297A1F08091C5
:10547000030190910401892B99F480918B02909102
:105480008C02019666E070E00E94673A90938C026D
:1054900080938B0261CF90E080E00E94C91B5CCFBB
:1054A0008091030190910401069739F380910301E3
:1054B00090910401089771F480918D0290918E0271
:1054C000019663E070E00E94673A90938E028093A9
:1054D0008D0242CF60910301709104016930710522
:1054E00049F480918F0290E001960E94673A809380
:1054F0008F0232CF80910301909104010A9771F4D9
:105500008091900290919102019665E070E00E9476
:10551000673A90939102809390021ECF809103018D
:10552000909104010B9759F48091920290E00196BA
:105530006CE070E00E94673A809392020DCF8091F8
:105540000301909104010C9731F4809193028D2511
:105550008093930201CF80910301909104010F97F2
:1055600059F48091790290E0019663E070E00E9426
:10557000673A80937902F0CE80918A02882309F4F9
:10558000EBCE8091970290919802019709F0E4CEBA
:105590000E94011DD0929402DFCE80910301909170
:1055A00004010E94C91B80918B0290918C0200978C
:1055B00009F0F2C0012B09F468C010928602009134
:1055C0008202109183028090BB029090BC02A09056
:1055D000BD02B090BE02F09081020E94241F81E0C3
:1055E00020918B0230918C02232B09F080E00E94E5
:1055F000B31D80918B0290918C028230910508F04E
:1056000011C188E390E090931103809310031092EE
:105610001303109212038FEE92E1F11002C087EE95
:1056200092E10E94261D61E080918B0290918C0294
:10563000019709F060E088E00E94341DB80180E124
:105640000E94121EB501A40188E10E94071FEE24EA
:10565000E394F12C00E210E026E330E050E040E07B
:1056600066E370E084E093E00E9458140E94DF1922
:105670000E94A71B0E94AB1B0E948D1B909380026F
:1056800080937F0290E080E0EAC3209186022F5F42
:10569000209386022F3050F020ED37E030938802BF
:1056A00020938702D0928502109286022091840274
:1056B000211185CF009711F00C94BA37D092850252
:1056C000809187029091880280343FE1930708F02F
:1056D00069C08C599F4F9093880280938702809174
:1056E000030190910401892B09F469CF8091C102D3
:1056F000809399028091C002809395028091BF02AD
:10570000809384028091030190910401429711F0EB
:105710000C94963761E087E00E942B0BD0928102B7
:105720000E942F0CAB01BC018091C2029091C30278
:10573000A091C402B091C50218E8E12EFF24FA94AA
:105740000FEF1FEFE81AF90A0A0B1B0BD801C7016C
:10575000840F951FA61FB71FB7FD02C00C94B0376A
:105760000E942F0C7F73882799276F3F7F43810505
:105770009105B1F680918502882391F2809187028C
:1057800090918802B1010E94533A90E080E00E941B
:105790007E1F10928502C4CF10928602012B09F45D
:1057A00085CF0DCF80ED97E096CF019779F482E019
:1057B00090E0909398028093970260E085E00E94C9
:1057C0002B0B61E08BE00E942B0B89CF109298028B
:1057D0001092970261E085E00E942B0B60E0F2CF0F
:1057E0008230910549F410928E0210928D0288E069
:1057F00090E00E94C91B73CF8330910529F4109269
:105800008F0289E090E0F5CF8430910529F4109261
:1058100079028FE090E0EDCF059709F060CF8EE040
:1058200090E0E7CF8230910581F560E080E00E9452
:10583000341DB80188E00E94121EB501A40180E168
:105840000E94071F88E390E0909311038093100358
:1058500088E190E090931303809312031092150354
:105860001092140301E010E0109317030093160345
:105870008CED92E10E94D913109317030093160345
:105880001093150300931403E2CE8330910581F544
:10589000B80180E00E94121EB501A40188E00E94B8
:1058A000071F08E310E0109311030093100380E139
:1058B00090E0909313038093120381ED92E10E9494
:1058C000D913109311030093100388E190E0909393
:1058D000130380931203109215031092140301E036
:1058E00010E0109317030093160386EC92E1C2CFE9
:1058F0000497D1F5B501A40180E00E94071F08E3D9
:1059000010E0109311030093100388E090E090934F
:105910001303809312038BEB92E10E94D91310932F
:1059200011030093100380E190E0909313038093A0
:10593000120380EB92E10E94D9131093110300939C
:10594000100388E190E09093130380931203109268
:1059500015031092140301E010E010931703009355
:10596000160389EA92E186CF08E310E01093110351
:105970000093100310921303109212038EE992E128
:105980000E94D913109311030093100388E090E054
:10599000909313038093120383E992E10E94D91339
:1059A000109311030093100380E190E09093130390
:1059B000809312038CE892E10E94D9131093110393
:1059C0000093100388E190E09093130380931203F7
:1059D000109215031092140301E010E010931703C6
:1059E000009316038FE792E145CF809103019091D8
:1059F00004010E94C91B012B09F49CC00E94241FB2
:105A000080E00E94B31D08E310E01093110300939F
:105A1000100310921303109212038CE193E10E9481
:105A2000D913109311030093100388E090E0909332
:105A300013038093120380918D0290918E02892B23
:105A400009F4A8C082E193E10E94D91380918902F0
:105A5000882309F4AAC08FE093E10E94D91381E062
:105A600090E090931703809316039093150380930F
:105A7000140388E390E0909311038093100380E176
:105A800090E0909313038093120380918D02909184
:105A90008E02019721F4109215031092140384E0F2
:105AA00093E10E94D91380918A02882309F480C06F
:105AB00081E093E10E94D91381E090E09093170375
:105AC00080931603909315038093140388E390E06A
:105AD000909311038093100388E190E09093130357
