:100000000C943B0A0C94720A0C94720A0C94720AB7
:100010000C94720A0C94720A0C94720A0C9450207C
:100020000C94720A0C94720A0C94720A0C94720A60
:100030000C94720A0C94720A0C94720A0C94720A50
:100040000C94E71E0C94720A0C94720A0C94720AB7
:100050000C94720A0C94720A0C94720A0C94720A30
:100060000C94311F0C94720A4F4E452053484F5444
:10007000004155544F2046454544004652454520D1
:1000800052554E00430043415345533A20005449D2
:100090004D450054494D453E0073002E00000000C0
:1000A00000003E5B4F5B3E3E6B4F6B3E1C3E7C3E1A
:1000B0001C183C7E3C181C577D571C1C5E7F5E1C28
:1000C00000183C1800FFE7C3E7FF0018241800FFE2
:1000D000E7DBE7FF30483A060E2629792926407FDC
:1000E000050507407F05253F5A3CE73C5A7F3E1CEB
:1000F0001C08081C1C3E7F14227F22145F5F005FD7
:100100005F06097F017F006689956A6060606060B4
:1001100094A2FFA29408047E040810207E201008F8
:10012000082A1C08081C2A08081E101010100C1E93
:100130000C1E0C30383E3830060E3E0E0600000015
:10014000000000005F00000007000700147F147F1C
:1001500014242A7F2A122313086462364956205039
:100160000008070300001C2241000041221C002A55
:100170001C7F1C2A08083E08080080703000080810
:10018000080808000060600020100804023E514981
:10019000453E00427F400072494949462141494D50
:1001A000331814127F1027454545393C4A494931D7
:1001B00041211109073649494936464949291E0056
:1001C0000014000000403400000008142241141400
:1001D000141414004122140802015909063E415D1D
:1001E000594E7C1211127C7F494949363E414141AA
:1001F000227F4141413E7F494949417F0909090127
:100200003E414151737F0808087F00417F41002033
:1002100040413F017F081422417F404040407F021F
:100220001C027F7F0408107F3E4141413E7F090947
:1002300009063E4151215E7F09192946264949494F
:100240003203017F01033F4040403F1F2040201FF9
:100250003F4038403F63140814630304780403618B
:1002600059494D43007F414141020408102000419B
:1002700041417F0402010204404040404000030726
:10028000080020545478407F28444438384444447B
:1002900028384444287F385454541800087E0902F2
:1002A00018A4A49C787F0804047800447D400020B2
:1002B00040403D007F1028440000417F40007C0406
:1002C0007804787C080404783844444438FC1824C2
:1002D000241818242418FC7C080404084854545496
:1002E0002404043F44243C4040207C1C2040201C2B
:1002F0003C4030403C44281028444C9090907C4432
:1003000064544C440008364100000077000000416E
:1003100036080002010204023C2623263C1EA1A14D
:1003200061123A4040207A38545455592155557934
:1003300041225454784221555478402054557940F4
:100340000C1E527212395555555939545454593955
:10035000555454580000457C410002457D4200013F
:10036000457C407D1211127DF0282528F07C5455E3
:1003700045002054547C547C0A097F49324949493C
:10038000323A4444443A324A4848303A4141217A68
:100390003A42402078009DA0A07D3D4242423D3D32
:1003A0004040403D3C24FF2424487E4943662B2F97
:1003B000FC2F2BFF0929F620C0887E090320545406
:1003C00079410000447D413048484A32384040225B
:1003D0007A007A0A0A727D0D19317D2629292F2883
:1003E000262929292630484D4020380808080808C1
:1003F000080808382F10C8ACBA2F102834FA0000AB
:100400007B000008142A142222142A1408550055CF
:100410000055AA55AA55AAFF55FF55FF000000FF39
:1004200000101010FF00141414FF001010FF00FF44
:100430001010F010F0141414FC001414F700FF0056
:1004400000FF00FF1414F404FC141417101F101004
:100450001F101F1414141F00101010F000000000D3
:100460001F101010101F10101010F010000000FFCF
:10047000101010101010101010FF10000000FF14CA
:100480000000FF00FF00001F10170000FC04F41420
:10049000141710171414F404F40000FF00F71414D8
:1004A0001414141414F700F7141414171410101F54
:1004B000101F141414F4141010F010F000001F108A
:1004C0001F0000001F14000000FC140000F010F0DA
:1004D0001010FF10FF141414FF141010101F000050
:1004E0000000F010FFFFFFFFFFF0F0F0F0F0FFFF63
:1004F000FF0000000000FFFF0F0F0F0F0F384444F4
:100500003844FC4A4A4A347E02020606027E027ED3
:100510000263554941633844443C04407E201E2018
:1005200006027E020299A5E7A5991C2A492A1C4CBD
:100530007201724C304A4D4D303048784830BC62C0
:100540005A463D3E494949007E0101017E2A2A2A38
:100550002A2A44445F444440514A444040444A515A
:10056000400000FF0103E080FF000008086B6B08FB
:100570003612362436060F090F0600001818000040
:10058000001010003040FF0101001F01011E001982
:100590001D1712003C3C3C3C000000000000010321
:1005A000070F1F3F7F0080C0E0F0F8FCFE005EBC3C
:1005B000E2613FDD83C29C7E20A3FD1F41009D239D
:1005C000BE46DB65F88C11AF32CA57E974DB40A434
:1005D000A62EAF2000A1C8D300408DAED580A800C4
:1005E00000600000000000000000000000000000AB
:1005F000E00000000000000000000000000001E03A
:100600000000000000000000000000000001F000F9
:1006100000000000000000000000000003F00000E7
:10062000000000000000000000000007F0000000D3
:100630000000000000000000000007F800000000BB
:100640000000000000000000000FF800000003C0E0
:10065000007E000001E0007F0FF800000003C000F2
:10066000FE000001E000FFEFF800000003C000FE04
:10067000000001E000FFFFF800000003C000F000F0
:1006800000000F007FFE7FC0000003C000F00000EC
:10069000000F003FFE7FF83FF1FBCFFCFEF3BC3DB7
:1006A000EFE01FFE7FFF7FFBFFDFFEFEFFBC3DEFA5
:1006B000E01FC6FFFF7FFBFFDFFEFEFFBC3DEFE05C
:1006C0000FE3C7FE787BC3DE1EF0FFBC3DEF0007E3
:1006D000FF87FC787BC3DE1EF0F83C3DEF0001FF96
:1006E000FFF0007BC3C01EF0F03C3DEF0001F37F44
:1006F000E03FFBC3CFFEF0F03C3DEF0003E33F8063
:100700007FFBC3DFFEF0F03C3DEF0007E73C0078E5
:100710007BC3DE1EF0F03C3DEF0007FFBE00787BA0
:10072000C3DE1EF0F03C3DEF0007FFFE00787BC308
:10073000DE1EF0F03C3DEF000FFFFE007FFBFFDF11
:10074000FEF0F03FFDEFE00FFFFF007FFBFFDFFE5D
:10075000F0F03FFDEFE00FF9FF003E79F9CF9EF09A
:10076000F01F3DE7E01FF1FF000000000000000067
:10077000000000001F80FF007FFFFFFFFFFFFFFF63
:10078000FFFFE01C007F007FFFFFFFFEB46D888D40
:1007900018E000001F007FFFFFFFFE95AD7DB577DD
:1007A000E000000F007FFFFFFFFEA5AD9D8D19E06B
:1007B000000006007FFFFFFFFEB5ADEDB57EE00057
:1007C00000000000018000000000000000000003A5
:1007D0008000000000000000000007C000000000D2
:1007E000000000000007C000000000000000000042
:1007F0000FC00000000000000000001FE00000002B
:100800000000000000001FE00000000000000000E9
:10081000003FE00000000000000000003FF000008A
:10082000000000000000007FF00000000000000059
:100830001FF87FF0000000000000003FFE7FF00086
:100840000000000000003FFF7FF0000000000000FB
:10085000001FFFFBE0000000000000000FFFF9FF99
:10086000C00000000000000FFFF9FFF800000000CA
:10087000000007FFF1FFFF00000000000003FC7311
:10088000FFFF80000000000001FE3FFFFF8000002E
:1008900000000000FF1E0FFF000000000000007FAE
:1008A000FE1FFC000000000000003FFFFFF80000FA
:1008B00000000000000FDFFFE0000000000000006B
:1008C0001F19FFC0000000000000003F3CFF0000B7
:1008D0000000000000007E7CF80000000000000026
:1008E000007FFE7C0000000000000000FFFFFC0015
:1008F00000000000000000FFFFFE000000000000FC
:100900000000FFFFFE0000000000000001FFEFFEFE
:100910000000000000000001FFCFFE00000000000A
:10092000000003FF07FE0000000000000003FC07BA
:10093000FE0000000000000003F003FE00000000C5
:10094000000000018000FE00000000000000000028
:10095000007E000000000000000000003E000000DB
:10096000000000000000000C0000000000000780F4
:1009700000FC000003C0000000078001FC00000331
:10098000C0000000078001FC000003C00000000759
:100990008001E00000001E000000078001E0000070
:1009A000001E007FE3F79FF9FDE7787BDFC0FFF7CC
:1009B000FFBFFDFDFF787BDFC0FFF7FFBFFDFDFF41
:1009C000787BDFC0F0F787BC3DE1FF787BDE00F08D
:1009D000F787BC3DE1F0787BDE0000F787803DE1E2
:1009E000E0787BDE007FF7879FFDE1E0787BDE002B
:1009F000FFF787BFFDE1E0787BDE00F0F787BC3DC5
:100A0000E1E0787BDE00F0F787BC3DE1E0787BDE5B
:100A100000F0F787BC3DE1E0787BDE00FFF7FFBF29
:100A2000FDE1E07FFBDFC0FFF7FFBFFDE1E07FFB03
:100A3000DFC07CF3F39F3DE1E03E7BCFC0000000D0
:100A40000000000000000000FFFFFFFFFFFFFFFFAE
:100A5000FFFFC0FFFFFFFFFD68DB111A31C0FFFF82
:100A6000FFFFFD2B5AFB6AEFC0FFFFFFFFFD4B5B53
:100A70003B1A33C0FFFFFFFFFD6B5BDB6AFDC0006D
:100A80000000000000000000000000000000000066
:100A90000000000000000000000000000000000056
:100AA0000000000000000000000000000000000046
:100AB0000000000000000000000000000000000036
:100AC0000000000000000000000000000000000026
:100AD0000000000000000000000000000000000016
:100AE000000000003FFFFFFFFFFF8000000000004C
:100AF00000000003C00F8001F0007F8000000000B4
:100B00000000003C0007C000FC000078000000006E
:100B1000000001C00003F0007F000004000000009E
:100B2000000006000000FC001F8000040000000020
:100B30000000180000003F0007E000040000000073
:100B40000000E00018001FC001F8000400000000D1
:100B5000000300003E0007F0007E000400000000DB
:100B6000000C00001F8001F8003F8004000000001E
:100B7000003000000FE0007E000FC0040000000005
:100B8000000C000003F0001F8003E00400000000E0
:100B90000003000000FC0007E000E004000000008B
:100BA0000000E000003F0003F80000040000000027
:100BB00000001800000FC000FC000004000000004E
:100BC000000006000007F0003F00000400000000E5
:100BD000000001C00001FC000FC000040000000084
:100BE0000000003C00007E0003E0007800000000F0
:100BF00000000003C0001F0001F07F800000000023
:100C0000000000003FFFFFFFFFFF8000000000002A
:100C100000000000000000000000000000000000D4
:100C200000000000000000000000000000000000C4
:100C300000000000000000000000000000000000B4
:100C400000000000000000000000000000000000A4
:100C50000000000000000000000000000000000094
:100C60000000000000000000000000000000000084
:100C70000000000000000000000000000000000074
:100C80000000000000000000000000000000000064
:100C90000000000000000000000000000000000054
:100CA0000000000000000000000000000000000044
:100CB0000000000000000000000000000000000034
:100CC0000000000000000000000000000000000024
:100CD0000000000000000000000000000000000014
:100CE000000000003FFFFFFFFFFF8000000000004A
:100CF00000000003FE0007C001F07F80000000003C
:100D00000000003C1F0003F000FC00780000000021
:100D1000000001C00FC001FC007F80040000000043
:100D20000000060003F0007F000FC0040000000078
:100D30000000180000FC001F8003E0040000000019
:100D40000000E000007F0007E000C0040000000099
:100D500000030000001FC001F800000400000000B4
:100D6000000C00000007E0007E000004000000000E
:100D7000003000000001F8001F80000400000000A7
:100D8000000C000000007E0007E0000400000000EE
:100D90000003000030001F8003F800040000000082
:100DA0000000E0007C000FE000FE000400000000F6
:100DB000000018003E0003F0003F80040000000027
:100DC000000006001F8000FC000FC00400000000AF
:100DD000000001C007E0003F0003E0040000000045
:100DE0000000003C01F0000F8000E07800000000EF
:100DF00000000003C0F80007C0007F800000000072
:100E0000000000003FFFFFFFFFFF80000000000028
:100E100000000000000000000000000000000000D2
:100E200000000000000000000000000000000000C2
:100E300000000000000000000000000000000000B2
:100E400000000000000000000000000000000000A2
:100E50000000000000000000000000000000000092
:100E60000000000000000000000000000000000082
:100E70000000000000000000000000000000000072
:100E80000000000000000000000000000000000062
:100E90000000000000000000000000000000000052
:100EA000000000000000000000000000000E000034
:100EB0000007FFFFFFFFFFFFFFFFFFFFFF9E000098
:100EC000000FFFFFFFFFFFFFFFFFFFFFFFFE000020
:100ED000003C0000000000000000000000FE0000D8
:100EE00000700000000000000000000000DE0000B4
:100EF00000E00000000000000000000000DE000034
:100F0000FFC00000000000000000000000DE000143
:100F1000FF000000000000000000000000DE0001F3
:100F200080000000000000000000000000DE000162
:100F300080000060E19C33F060C1F9F800DE000140
:100F4000800000F0F19E33F0F0C1F9FC00DE0001FA
:100F5000800000F0F19E3300F0C1818C00DE0001C2
:100F600080000198D99B330198C1818C00DE00017B
:100F700080000198D99B33E198C1F1F800DE0001AF
:100F80008000030CCD99B3E30CC1F1F000DE000149
:100F9000800003FCCD99B303FCC1819800DE000101
:100FA000800003FCC798F303FCC1819800DE0001B8
:100FB00080000606C798F3F606FDF98C00DE0001F6
:100FC00080000606C39873F606FDF98C00DE00016A
:100FD00080000000000000000000000000DE0001B2
:100FE000FF000000000000000000000000DE000024
:100FF000FFC00000000000000000000000DE000054
:1010000000E00000000000000000000000DE000022
:1010100000700000000000000000000000DE000082
:10102000003C0000000000000000000000FE000086
:10103000000FFFFFFFFFFFFFFFFFFFFFFFFE0000AE
:101040000007FFFFFFFFFFFFFFFFFFFFFF9E000006
:10105000000000000000000000000000000E000082
:101060000000000000000000000000000000000080
:101070000000000000000000000000000000000070
:101080000000000000000000000000000000000060
:101090000000000000000000000000000000000050
:1010A000000000000000000000000000000E000032
:1010B0000007FFFFFFFFFFFFFFFFFFFFFF9E000096
:1010C000000FFFFFFFFFFFFFFFFFFFFFFFFE00001E
:1010D000003C0000000000000000000000FE0000D6
:1010E00000700000000000000000000000DE0000B2
:1010F00000E00000000000000000000000DE000032
:10110000FFC00000000000000000000000DE000141
:10111000FF000000000000000000000000DE0001F1
:1011200080000000000000000000000000DE000160
:101130008000000001C33F30C780000000DE0001D6
:101140008000000001E33F30CFC0000000DE00015E
:101150008000000001E30330CC40000000DE00010D
:101160008000000001B30630CC00000000DE00016A
:101170008000000001B30C3FCF80000000DE0001C2
:1011800080000000019B1C3FC3C0000000DE000186
:1011900080000000018B1830C0C0000000DE00019C
:1011A00080000000018F3030C8C0000000DE000168
:1011B0008000000001873F30CFC0000000DE00014A
:1011C0008000000001873F30CF80000000DE00017A
:1011D00080000000000000000000000000DE0001B0
:1011E000FF000000000000000000000000DE000022
:1011F000FFC00000000000000000000000DE000052
:1012000000E00000000000000000000000DE000020
:1012100000700000000000000000000000DE000080
:10122000003C0000000000000000000000FE000084
:10123000000FFFFFFFFFFFFFFFFFFFFFFFFE0000AC
:101240000007FFFFFFFFFFFFFFFFFFFFFF9E000004
:10125000000000000000000000000000000E000080
:10126000000000000000000000000000000000007E
:10127000000000000000000000000000000000442A
:101280004941474E4F53544943533E00494E464F00
:10129000203E0053455454494E4753203E00494E8A
:1012A000464F203E0053455454494E4753203E007C
:1012B00053455454494E4753203E0046414E204F1B
:1012C00046460046414E204F4E004241434B203E91
:1012D000004F4646004F4E0044554D503A20004FB7
:1012E0004646004F4E00524553544152543A200056
:1012F00053455454494E4753003F00530043005256
:1013000000440041007C002D005000450042005781
:10131000005253543A004E0059004241434B203E84
:1013200000204355523A0054454D503A004449413B
:10133000474E4F5354494353004241434B203E00D4
:10134000342E302E300046573A200056002E0035FD
:10135000563A20002D2D0041002E00424153453ABF
:10136000200025204E004C4F573A2000494E464F52
:10137000004155544F204F4646004155544F204F91
:101380004E004300434F4F4C444F574E0043484597
:10139000434B2054454D500054454D50204552522A
:1013A0004F520043555252454E54204C4F2100435A
:1013B0004845434B204341534500434845434B2058
:1013C000434F494C0021204641554C5420210048B0
:1013D0004549474854204F4B3F0043415345002067
:1013E00026200054494D45004341534553004C4F7E
:1013F000414400430044524F5050494E470073004F
:101400002E00412020002E00414E4E45414C494EB9
:10141000470000000000240027002A000000000010
:10142000250028002B002200FF21000000000800FA
:10143000020100000304070000000000000000009B
:10144000000000230026002900040404040404040E
:101450000402020202020203030303030301020463
:101460000810204080010204081020010204081026
:101470002000DD204F3211241FBECFEFD8E0DEBFA9
:10148000CDBF84B78093FA0214BE0FB6F894A89526
:1014900080916000886180936000109260000FBEB0
:1014A00011E0A0E0B1E0E8ECFCE602C005900D928E
:1014B000A236B107D9F722E0A2E6B1E001C01D9241
:1014C000A93FB207E1F71AE0CAE3DAE004C02197C6
:1014D000FE010E940635C933D107C9F70E947E215B
:1014E0000C9457360C94000080E480937C0080912B
:1014F0007A00806480937A0080917A0086FDFCCF28
:10150000809178009091790008950895833081F05A
:1015100028F4813099F08230A9F008958730A9F03D
:101520008830C9F08430B1F4809180008F7D03C091
:10153000809180008F7780938000089584B58F77A5
:1015400084BD089584B58F7DFBCF8091B0008F77E7
:101550008093B00008958091B0008F7DF9CFCF9334
:10156000DF93282F30E0F901E55DFB4E8491F9010E
:10157000E35AFB4ED491F901E75BFB4EC491CC23B7
:10158000A1F081110E94860AEC2FF0E0EE0FFF1F00
:10159000E15CFB4EA591B491EC91ED2381E090E0EC
:1015A00009F480E0DF91CF91089580E090E0FACFD8
:1015B0001F93CF93DF93282F30E0F901E55DFB4EB9
:1015C0008491F901E35AFB4ED491F901E75BFB4E9C
:1015D000C491CC23A9F0162F81110E94860AEC2F0A
:1015E000F0E0EE0FFF1FE45EFB4EA591B4918FB7C4
:1015F000F894EC91111108C0D095DE23DC938FBFD5
:10160000DF91CF911F910895DE2BF8CFE4E3F4E151
:10161000E491E33019F140F4E130B1F0E230C9F087
:1016200060E089E00C94D80AE73011F1E83041F12C
:10163000E430B1F7209180002062209380009093E5
:101640008B0080938A00089594B5906894BD87BDFF
:10165000089594B5906294BD88BD0895209180004E
:1016600020682093800090938900809388000895DB
:101670009091B00090689093B0008093B30008956B
:101680009091B00090629093B0008093B400089560
:10169000CF93DF9390E0FC01E35AFB4E2491875BEC
:1016A0009B4EFC0184918823C9F090E0880F991F1C
:1016B000FC01EE5EFB4EA591B491FC01E45EFB4E95
:1016C000C591D49161110DC09FB7F8948C9120956C
:1016D00082238C938881282328839FBFDF91CF9119
:1016E0000895623051F49FB7F8943C91822F809511
:1016F00083238C93E8812E2BEFCF8FB7F894EC9156
:101700002E2B2C938FBFEACF3FB7F89480917C02A9
:1017100090917D02A0917E02B0917F0226B5A89B98
:1017200005C02F3F19F00196A11DB11D3FBFBA2F73
:10173000A92F982F8827BC01CD01620F711D811D33
:10174000911D42E0660F771F881F991F4A95D1F7B8
:1017500008958F929F92AF92BF92CF92DF92EF92B5
:10176000FF926B017C010E94840B4B015C01C11450
:10177000D104E104F104B9F00E94840B68197909DD
:101780008A099B09683E73408105910580F321E039
:10179000C21AD108E108F10888EE880E83E0981E8D
:1017A000A11CB11CE4CFFF90EF90DF90CF90BF90D1
:1017B000AF909F908F9008952FB7F8946091780222
:1017C0007091790280917A0290917B022FBF0895E7
:1017D00008950895AF92BF92CF92DF92EF92FF9259
:1017E0000F931F93CF93DF936C017B018B01040F49
:1017F000151FEB015E01AE18BF08C017D10759F0E5
:101800006991D601ED91FC910190F081E02DC60126
:101810000995892B79F7C501DF91CF911F910F9120
:10182000FF90EF90DF90CF90BF90AF900895DC01D4
:1018300080E0615090F09D919827E92FEF70F0E0E3
:10184000E355FA4F2491E92FE295EF70F0E0E3546D
:10185000FA4FE491822F8E27ECCF0895DC012C9172
:101860001196ED91FC91F8948181822B8183928174
:10187000322F30959323928387E090E00197F1F720
:1018800081818323818383E290E00197F1F7908146
:101890007894EFECF0E03197F1F7922381E009F4CE
:1018A00080E00895FC0190810180F281E02D292FD4
:1018B000209560FF14C0F894828182238283818105
:1018C000892B8183A3E2B0E01197F1F78281982BF5
:1018D0009283789487ED90E00197F1F70895F8945A
:1018E0008281822382838181892B8183AFEFB0E063
:1018F0001197F1F78281982B928378948FE090E092
:10190000EBCFDF92EF92FF920F931F93CF93DF9372
:10191000EC01D62EE42E08E010E0FF24F39461E001
:101920008D2D8F2109F460E0CE010E94520CFF0C36
:1019300001501109A1F7E11010C0F894E981FA8172
:1019400091818881809589238183E981FA819281BF
:1019500088818095892382837894DF91CF911F912C
:101960000F91FF90EF90DF900895EF92FF920F9309
:101970001F93CF93DF938C017B0140E065E50E94CC
:10198000810CE70188E0E80EF11C699140E0C80194
:101990000E94810CCE15DF05C1F7DF91CF911F9119
:1019A0000F91FF90EF900895FC0190810180F281EA
:1019B000E02DF8948181292F2095822381837894CA
:1019C0003DE743E050E0315029F1DA011197F1F79A
:1019D00080818923C1F3F89482818223828381816B
:1019E000892B81837894ABE7B7E01197F1F7F894EE
:1019F000818182238183A3E1B1E01197F1F7808196
:101A0000982381E009F080E07894E3E6F6E03197EE
:101A1000F1F7089580E00895CF92DF92EF92FF9260
:101A200080918D0290918E020E94D40C40E06CEC6B
:101A300080918D0290918E020E94810C40918402CF
:101A400064E480918D0290918E020E94810C8091BD
:101A50008802882309F1E091870280918902882316
:101A600001F18091840281111CC00E94DC0B6B018A
:101A70007C0180918D0290918E020E942E0C81300B
:101A800059F00E94DC0B6C197D098E099F096E3E8E
:101A900072408105910568F3FF90EF90DF90CF9041
:101AA0000895E9508EEE92E0E33038F4F0E0EE0F66
:101AB000FF1FE55FFE4F808191816C01990FEE0859
:101AC000FF0880918502882329F060E080918602DA
:101AD0000E94D80AC701B6010E94A90B8091850215
:101AE0008823D1F261E080918602FF90EF90DF9031
:101AF000CF900C94D80A6F927F928F929F92AF9260
:101B0000BF92CF92DF92EF92FF920F931F93CF93EA
:101B1000DF938C01EB0180918D0290918E020E94E7
:101B2000D40C882309F43FC0B80180918D029091B4
:101B30008E020E94B50C40E06EEB80918D02909178
:101B40008E020E94810C7E016E0189E0C80ED11CBC
:101B50008E01A0908D02B0908E0288E0882E912C8C
:101B6000712C66246394C5010E942E0C8111762885
:101B7000660CE1E08E1A9108B1F7F80171928F01BD
:101B8000CE16DF0631F780918D0290918E020E9471
:101B9000D40C813041F4F70181917F01811105C09E
:101BA000E017F107C1F790E008C068E0CE010E949D
:101BB000170C91E028852813F6CF892FDF91CF915C
:101BC0001F910F91FF90EF90DF90CF90BF90AF905B
:101BD0009F908F907F906F900895CF93DF93CDB7B4
:101BE000DEB729970FB6F894DEBF0FBECDBFBE019A
:101BF0006F5F7F4F0E947B0D882331F08D818F3383
:101C0000A9F020F48F31A1F080E007C08F3521F0DA
:101C10008F37D1F78CE001C08BE029960FB6F8948E
:101C2000DEBF0FBECDBFDF91CF9108958AE0F5CF23
:101C300089E0F3CFEF92FF920F931F93CF93DF933F
:101C4000EC01EC80FD806E157F050CF070C057FF35
:101C500004C0240F351F50E040E08E819F81FA01BF
:101C6000E20FF31F8E179F071CF49C01241B350BFA
:101C7000121613060CF05BC0922F842F8695869562
:101C800086958E9DD0018F9DB00D11246A0F7B1F0C
:101C9000AF8DB8A1A60FB71F477049F188E0841B2C
:101CA000482F682F70E0FB01EB55FA4FE49128179D
:101CB00008F063C0621B71092FEF30E002C0359558
:101CC00027956A95E2F7E2230130110539F0B0F16A
:101CD0000230110561F58C91E82702C08C91E82B48
:101CE000EC93941720F12C813D81A20FB31FE92FB3
:101CF000E41BE83078F00230110521F58E2F9C911D
:101D000090959C932C813D81A20FB31F8850883001
:101D1000B0F7E770EE2359F0F0E0E356FA4FE491A4
:101D200001301105F9F010F10230110519F1DF91C0
:101D3000CF911F910F91FF90EF900895E0958C91B6
:101D4000E823CECF81E00115110509F480E08195EB
:101D50009E2F8C932C813D81A20FB31F98509830F9
:101D6000C0F7D7CF8C91E82BEC93E1CFE0958C9125
:101D7000E823FACF8C91E827F7CF0130110509F459
:101D8000ADCFE0F20230110509F4A5CFAE0DBF1DB5
:101D9000AECF0F931F93CF93DF9377FF04C0260F2F
:101DA000371F70E060E0DC011496CD91DC91FB01FF
:101DB000E20FF31FCE17DF071CF49E01261B370B23
:101DC000121613064CF5FA0157FD3796A3E0F59568
:101DD000E795AA95E1F7EC9FD001ED9FB00DFC9F30
:101DE000B00D11246A0F7B1FDC015F96ED91FC9111
:101DF000E60FF71F4770552781E090E001C0880F7C
:101E00004A95EAF7482F0130110559F0A8F02E0F36
:101E10003F1F02301105E1F0DF91CF911F910F912B
:101E200008952E0F3F1FE217F307B1F38191DF01F1
:101E30001197842B8C93F7CF80952E0F3F1FE217BD
:101E4000F30751F39191DF01119798239C93F7CFFA
:101E5000E217F30709F38191DF01119784278C932F
:101E6000F7CF0F931F93FA01DC0156964C915697CA
:101E70004230E9F04330A1F1413061F514964D91C3
:101E80005C91DA01AE1BBF0BFD01E21BF30B77FD8A
:101E90000BC0DC0116964D915C916417750724F414
:101EA000AB01BF010E94C90E1F910F9108951496B6
:101EB0004D915C91DA01A61BB70BBD016150710910
:101EC000DC0116964D915C91DA01AE1BBF0BFD0152
:101ED000E21BF30B77FDE8CFAF010E941A0EE4CFAF
:101EE00016964D915C91DA01A61BB70BBD016150AE
:101EF0007109CDCF0F931F93FA01DC0156964C91D7
:101F000056974230A9F0433091F1413019F51496BB
:101F10004D915C91DA01AE1BBF0BFD013197F7FDCE
:101F200004C0AB01BF010E941A0E1F910F910895CA
:101F300014964D915C91DA01A61BB70BBD01DC0133
:101F400016964D915C91DA01AE1BBF0BFD013197E6
:101F5000621B730BF7FDE9CFDC0116964D915C9186
:101F6000E417F50714F7AF010E94C90EDECF1696ED
:101F70004D915C91DA01A61BB70BBD01621B730B7F
:101F8000CECFFC0177FD64C0808591856817790705
:101F90000CF05EC057FD5CC08285938548175907D9
:101FA0000CF056C086898230B1F0833029F181303F
:101FB00041F484819581841B950BAB01BC01615078
:101FC00071092130310509F108F443C0223031058F
:101FD00009F463C0089584819581DC01A61BB70BC9
:101FE000BD016150710986819781DC01A41BB50B8D
:101FF000AD0141505109E5CF86819781861B970B32
:10200000BA01AC0141505109DCCFCA0157FD079616
:10201000A3E095958795AA95E1F7A481B5818A9F5C
:1020200090018B9F300D9A9F300D1124620F731F0A
:10203000078CF0A1E02DE60FF71F4770552721E030
:1020400030E001C0220F4A95EAF78081822B80831D
:102050000895CA0157FD079633E0959587953A95FF
:10206000E1F7A481B5818A9F90018B9F300D9A9FE3
:10207000300D1124620F731F078CF0A1E02DE60FC5
:10208000F71F4770552781E090E001C0880F4A95FF
:10209000EAF7809590818923DACFCA0157FD079628
:1020A00023E0959587952A95E1F7A481B5818A9FCC
:1020B00090018B9F300D9A9F300D1124620F731F7A
:1020C000078CF0A1E02DE60FF71F4770552721E0A0
:1020D00030E001C0220F4A95EAF780818227B7CF0E
:1020E00008958EBD00000DB407FEFDCF8EB5089596
:1020F0008CBD9DBD08950895FC016370668B84813D
:10210000958126813781613039F0633029F09187DC
:102110008087338722870895318720879387828736
:1021200008952F923F924F925F926F927F928F927B
:102130009F92AF92BF92CF92DF92EF92FF920F9356
:102140001F93CF93DF93CDB7DEB76A970FB6F8949E
:10215000DEBF0FBECDBF9A8F898F7A8369834A0114
:10216000D22E18870F833701BC2CDC0159962D9194
:102170003C915A972115310509F015C118968D919A
:102180009C911997681779070CF0D7C11A968D9111
:102190009C91481759070CF0D0C14C2C512CB6E03B
:1021A000CB9E600D711D11247C876B871616170658
:1021B0000CF0C3C1EA2DF0E0FA87E98793E0EE0F57
:1021C000FF1F9A95E1F7F88BEF87CF01840F951FDA
:1021D000181619060CF0B1C1A98DBA8D58968C91BC
:1021E000811104C0BFEABD1508F4D394A98DBA8D3E
:1021F000ED91FC9111970284F385E02DCD010995B5
:10220000B5E0DB9EC0011124E981FA81FC83EB83F8
:10221000312C212C9C0123563F4F388F2F8B4A2D78
:1022200050E05E8B4D8BEF89F88DE20DF31D4491EC
:102230009E828D82D12CC12C69817A81620D731DA1
:102240007A8B698B842F90E09C8B8B8BE98DFA8D38
:10225000A081B18140FF82C0F1E0BF126FC0AF1218
:102260006DC01C96ED91FC912F813885A4014C0D19
:102270005D1D69897A89898D9A8D0995EB89FC891B
:10228000F595E7954E2F5FEFC51AD50A6D817E81D2
:102290008D899E89680F791F7E836D8398E0C916AA
:1022A000D10481F6AFEF2A1A3A0AEB81FC81E40DE2
:1022B000F51DFC83EB83F5E02F16310409F0B3CF55
:1022C0002F81388526153705B9F0A98DBA8DED9186
:1022D000FC91B1E0BB1257C0AB1255C069817A8145
:1022E0006B5F7F4F0088F189E02D830128E030E0AB
:1022F000A401898D9A8D0995A98DBA8DED91FC91D6
:1023000011970688F789E02DCD016A960FB6F894EB
:10231000DEBF0FBECDBFDF91CF911F910F91FF9018
:10232000EF90DF90CF90BF90AF909F908F907F9075
:102330006F905F904F903F902F9009941E96ED9173
:10234000FC91EF80F88409851A8592014D815E81A8
:102350006B817C81898D9A8D099590CF2F813885ED
:102360002615370509F48ACF31E0B31207C0A3124E
:1023700005C01C96ED91FC91930178CF1E96ED91CE
:10238000FC917301E0CF6B857C8564197509068427
:10239000F785E02D73010F8518899201A401898DBD
:1023A0009A8D0995A9CFF901349694913297459168
:1023B0005491D91AB7E0DB9E400D511D1124F9014B
:1023C000259134913C8B2B8BFA0125903490FA01A6
:1023D0003296749031963491398B3296649031965E
:1023E000449041E04C1518F04A1508F07FC0662D66
:1023F000062C000C770B7C836B83842D042C000C43
:10240000990B9E838D83A98DBA8DED91FC911197C7
:102410000284F385E02DCD010995512CD12CC12CDE
:10242000EA2DF0E0FA87E9872B2D30E03C872B87F7
:10243000A401440D511D47FC5A95588F4F8B69815B
:102440007A81660D711D67FC7A957E876D87798923
:10245000C71608F051CF2C2D30E04D815E81420F20
:10246000531FA985BA854A9FC0014B9F900D5A9F63
:10247000900D1124FC01E80DF91DF88BEF87852DD7
:10248000612C4F89588D420F531F5E8B4D8B671403
:1024900008F050C044244394480E877041F4C101B1
:1024A0000196EB89FC89E20DF31DD4901C01D7FE47
:1024B00019C0A98DBA8DED91FC91662D70E0B1E047
:1024C000BB1219C0AB1217C02D853E85620F731F5A
:1024D0000484F585E02D2F8138854D895E89898DAD
:1024E0009A8D0995DD0C6394842DD1CF1E821D82B7
:1024F0001C821B8288CF4B815C81640F751FAB856A
:10250000BC856A9FC0016B9F900D7A9F900D11242E
:1025100069817A81680F791F0684F785E02DEF8045
:10252000F88409851A859D014F855889898D9A8D72
:102530000995D8CF570CC3948ACF6A960FB6F894F2
:10254000DEBF0FBECDBFDF91CF911F910F91FF90E6
:10255000EF90DF90CF90BF90AF909F908F907F9043
:102560006F905F904F903F902F9008958F929F9221
:10257000AF92CF92EF92FF920F931F93CF93DF937F
:10258000EC01262F898D9A8D009709F051C06A3091
:10259000D1F41D861C868D8948E0849F900111240A
:1025A0008E859F85820F931F9F878E8781E090E0A5
:1025B000DF91CF911F910F91FF90EF90CF90AF904F
:1025C0009F908F9008956D3089F3CC88AD888F8966
:1025D0008823C1F08C859D8536E0C39E800D911DBA
:1025E0001124488559854817590764F44E855F853D
:1025F0001D861C8638E0A39EC0011124840F951F00
:102600009F878E87EA88FB88088919894E855F85B0
:102610006C857D85CE010E9491102C898C859D85CD
:1026200046E0249F800D911D11249D878C87BECF8D
:102630006A3069F41D861C86FC013896E4912D8968
:102640008E859F85E29F800D911D1124ADCF6D3049
:1026500009F4ACCFFC0134963491631708F4A6CF8B
:102660003296E491E61708F4A1CFFC0132968590EA
:102670009490462F431B342F47E0349F800C911CCD
:102680001124F401329634913196E4913323A9F167
:10269000EE2399F1CC88F4013596E491AD884F8909
:1026A000442301F10E2E000CFF0BE30FF11DCE9E13
:1026B000A001CF9E500D11246C857D85460F571FBC
:1026C00068857985641775076CF44E855F851D866E
:1026D0001C86FC013896E491AE9E400D511D1124DC
:1026E0005F874E87EA88FB88088919894E855F8550
:1026F0006C857D85CE010E949110F4013496E491A1
:102700002C898C859D85E29F800D911D11248DCF94
:102710000F931F93CF93DF938C01D0E0C0E0F801BB
:10272000EC0FFD1F6491662341F085EB92E00E945F
:10273000B612892B11F02196F2CFCE01DF91CF9105
:102740001F910F910895682F85EB92E00C94B612BB
:102750006F927F928F929F92AF92BF92CF92DF92B1
:10276000EF92FF920F931F93CF93DF93EC016B01D6
:102770005A0139014801E881F9810284F385E02D8D
:102780000995E881F9810288F389E02D8701930199
:10279000A501B601CE010995A501480D591D41506D
:1027A0005109E881F9810288F389E02D9301B6018E
:1027B000CE010995E881F9810088F189E02D940125
:1027C000A501B601CE010995C60CD71CB601615012
:1027D0007109E881F9810088F189E02D9401A50152
:1027E000CE010995E881F9810688F789E02DCE01AF
:1027F000DF91CF911F910F91FF90EF90DF90CF90DD
:10280000BF90AF909F908F907F906F9009946F9240
:102810007F928F929F92AF92BF92CF92DF92EF9270
:10282000FF920F931F93CF93DF935C01EB016A013B
:10283000490138018701DC01ED91FC9162177307B2
:1028400019F5641675062CF0962D872D3A01C92EC0
:10285000D82E9601261937092F5F3F4F048CF58D2E
:10286000E02DA301BE01C5010995DF91CF911F9114
:102870000F91FF90EF90DF90CF90BF90AF909F901F
:102880008F907F906F9008954615570591F4261705
:10289000370724F0892D4B01C22FD82F9E0128190C
:1028A00039092F5F3F4F068CF78DE02DA601B4014B
:1028B000DACF0284F385E02D0995D501ED91FC91E5
:1028C0000488F589E02D83019401A601BE01C501AC
:1028D0000995D501ED91FC910688F789E02DC50198
:1028E000DF91CF911F910F91FF90EF90DF90CF90EC
:1028F000BF90AF909F908F907F906F900994EF92D0
:10290000FF920F931F93DC011A960D911C911B9758
:1029100018962D913C911997ED91FC9100A0F1A191
:10292000E02D7B0150E040E070E060E009951F91F0
:102930000F91FF90EF9008954F925F926F927F9268
:102940008F929F92AF92BF92CF92DF92EF92FF92BF
:102950000F931F93CF93DF936C012B015A01390121
:102960004801DC01ED91FC910284F385E02D09958D
:10297000E201640C751CD601ED91FC91C615D705DA
:102980005CF40088F189E02D87019401A501BE0166
:10299000C60109952196EFCF0688F789E02DC6017B
:1029A000DF91CF911F910F91FF90EF90DF90CF902B
:1029B000BF90AF909F908F907F906F905F904F905F
:1029C00009948F929F92AF92BF92CF92DF92EF9233
:1029D000FF920F931F93CF93DF93EC015B014A01AA
:1029E0006901E881F9810284F385E02D099595015B
:1029F0002C0D3D1D21503109E881F9810488F589AC
:102A0000E02D78018401A401B501CE010995E8818A
:102A1000F9810688F789E02DCE01DF91CF911F91D2
:102A20000F91FF90EF90DF90CF90BF90AF909F906D
:102A30008F9009948F929F92AF92BF92CF92DF9224
:102A4000EF92FF920F931F93CF93DF93EC015B0103
:102A50004A0169017801E881F9810284F385E02D5A
:102A60000995C80CD91C860101501109E881F9812A
:102A70000488F589E02D9501A401B501CE010995E1
:102A8000E881F9810688F789E02DCE01DF91CF91A9
:102A90001F910F91FF90EF90DF90CF90BF90AF907C
:102AA0009F908F900994EF92FF920F931F93DC01F8
:102AB000ED91FC9100A0F1A1E02D09951F910F91DE
:102AC000FF90EF9008950F931F93DC01ED91FC911F
:102AD000068CF78DE02D09951F910F9108950F93A6
:102AE0001F93DC01ED91FC91048CF58DE02D09958F
:102AF0001F910F910895DC01ED91FC910084F18507
:102B0000E02D09943F924F925F926F927F928F9245
:102B10009F92AF92BF92CF92DF92EF92FF920F936C
:102B20001F93CF93DF9300D000D0CDB7DEB75C0109
:102B30003B016A014901280187E0480E511C93E0DE
:102B4000559447949A95E1F7CA018E0D9F1D9A837B
:102B50008983F12CE12C312C1C821B828B819C817E
:102B600087709927330C892B61F4EB81FC8183E01A
:102B7000F595E7958A95E1F7EE0DFF1DE80DF91D36
:102B8000349037FE0AC021E030E0A6016B817C81E1
:102B9000660D771DC5010E947B158B819C81019676
:102BA0009C838B8308171907C9F69FEFC91AD90AA6
:102BB000E40CF51C89819A81C816D90669F60F9034
:102BC0000F900F900F90DF91CF911F910F91FF9079
:102BD000EF90DF90CF90BF90AF909F908F907F90BD
:102BE0006F905F904F903F9008952F923F924F9239
:102BF0005F926F927F928F929F92AF92BF92CF928D
:102C0000DF92EF92FF920F931F93CF93DF9300D049
:102C100000D000D0CDB7DEB73C016A013E832D83E2
:102C2000FC82EB825801A41AB50AB7FE03C0B19426
:102C3000A194B1088D809E80861A970A97FE03C0E2
:102C40009194819491088A149B045CF0902F812FB9
:102C50000D811E819D838E839C2D8D2D6B01692F8F
:102C6000782F0C151D055CF09D818E817E836D8310
:102C7000692F782F902F812F8601C92ED82E16010B
:102C8000201A310A2B012D813E81421A530A57FE28
:102C900003C0519441945108710137FE03C03FEFC6
:102CA000E31AF30AF594E7948D819E8186179707BE
:102CB0005CF5A1E0B0E0BA83A983C016D1064CF15F
:102CC000D301ED91FC910484F585E02D2B813C81AD
:102CD000A8016D817E818A149B041CF04D815E8168
:102CE000B801C3010995E418F508F7FE0AC02D8163
:102CF0003E8189819A81280F391F3E832D83E20C02
:102D0000F31C0F5F1F4FD9CF2FEF3FEF3A8329837B
:102D1000D4CF26960FB6F894DEBF0FBECDBFDF919D
:102D2000CF911F910F91FF90EF90DF90CF90BF90C8
:102D3000AF909F908F907F906F905F904F903F905B
:102D40002F90089508952091CB01260F3327331F2C
:102D500021323105ECF42091EF01FC0190E080E09C
:102D6000243069F082E00895A091CB012191AC015B
:102D700045555E4FA40FB52FB11D2C9301968617B4
:102D800098F38091CB01680F6093CB0180E00895A8
:102D900081E008951092EF0181E08093F10110929B
:102DA000F00161E082E10E94D80A61E083E10E94C3
:102DB000D80AE9EBF0E080818E7F808380818D7F6F
:102DC000808388E48093B80085E48093BC000895F4
:102DD000CF93DF9391E09093AA018823B9F0C0913B
:102DE000B800D091BA008091BC008A7B8093BC006F
:102DF00060E082E10E94D80A60E083E10E94D80A84
:102E00000E94CA16D093BA00C093B800DF91CF9148
:102E10000895E0911B0280911A02E81730F4F0E067
:102E2000EB57FE4F808190E008958FEF9FEF08955C
:102E300090911B0280911A022FEF3FEF981748F4F0
:102E4000E92FF0E0EB57FE4F208130E09F5F909339
:102E50001B02C901089580911A0290911B02891BDF
:102E6000990B0895CF92DF92EF92FF920F931F93E9
:102E7000CF93DF937C01CB018A012091830222232F
:102E800089F0EB016B01C40ED51ECC15DD0569F090
:102E90006991D701ED91FC910190F081E02DC7017E
:102EA0000995F3CF642F0E94A316C801DF91CF913B
:102EB0001F910F91FF90EF90DF90CF900895CF93E7
:102EC000DF931F92CDB7DEB769832091830222235F
:102ED000F9F020918002203258F021E030E0FC012E
:102EE0003383228390E080E00F90DF91CF910895AB
:102EF00080918102E82FF0E0EB59FE4F9981908399
:102F00008F5F809381028093800281E090E0ECCF1C
:102F100061E0CE0101960E94A316F7CFCF92DF9217
:102F2000EF92FF920F931F93CF93DF93D091800284
:102F300081E0D13208F09CC0C09182020E94840BD3
:102F40006B017C018091EF0181116CC082E0809364
:102F5000EF0181E08093F1018FEF8093EE011092F9
:102F60001302D0931202A5E6B1E0E2EFF1E080E0B7
:102F7000D8138DC01092140280911402CC0FC82B6C
:102F8000C09314028091F001813009F084C0109246
:102F9000F0010E94840B6B017C01809114028093EC
:102FA000BB008091A6019091A701A091A801B091CA
:102FB000A901892B8A2B8B2BA1F00E94840B0091F5
:102FC000A6011091A7012091A8013091A9016C19C7
:102FD0007D098E099F09061717072807390708F486
:102FE00042C08091BC0083FDD8CF85EC8093BC00AB
:102FF0000E94840B6B017C018091EF01823009F407
:103000004CC08091EE018F3F09F469C08091EE01C0
:10301000803209F466C08091EE01803309F463C008
:1030200084E026C08091A6019091A701A091A801FB
:10303000B091A901892B8A2B8B2B09F483CF0E9495
:10304000840B0091A6011091A7012091A801309155
:10305000A9016C197D098E099F0906171707280712
:10306000390708F06FCF8091A5010E94E81685E02E
:10307000109281021092800210928302DF91CF9110
:103080001F910F91FF90EF90DF90CF9008959D9149
:1030900091938F5F6DCF85EEA9CF8091A60190911E
:1030A000A701A091A801B091A901892B8A2B8B2B94
:1030B00009F4A2CF0E94840B0091A6011091A701F0
:1030C0002091A8013091A9016C197D098E099F09F1
:1030D000061717072807390708F08ECFC4CF80E0FE
:1030E000C7CF82E0C5CF83E0C3CFEF92FF920F93AB
:1030F0001F93CF93DF937C01C62F8091D2029091D2
:10310000D302009709F459C02091D60231E03093E0
:103110008302209382021092810210928002DC01CD
:10312000ED91FC910190F081E02D60E0099587011F
:10313000EE24E394F12CD1E0C1508091D202909121
:10314000D302CF3F91F1B0E2EB16F104D8F00E9428
:103150008E178091D2029091D3022091D602D09303
:103160008302209382021092810210928002DC017D
:10317000ED91FC910190F081E02D60E00995EE2445
:10318000E394F12C8091D2029091D302F8016491E2
:10319000DC01ED91FC910190F081E02D0995BFEFEC
:1031A000EB1AFB0A0F5F1F4FC7CFDF91CF911F9123
:1031B0000F91FF90EF900C948E17E091E202F09146
:1031C000E30290818091E8028095892380838701C2
:1031D000C15008F438C0F80184912091D002309198
:1031E000D102232B29F00E9471100F5F1F4FF0CFE7
:1031F00028E030E040E8E091DE02F091DF029091BB
:10320000E602582F5423D9F05081952B9083E091FA
:10321000E002F091E10290815091E702952B9083BA
:10322000E091E002F091E10250819091E7029095E7
:1032300095239083469521503109E9F6D6CF5081E8
:1032400090959523E3CFDF91CF911F910F91FF9040
:10325000EF9008951F93CF93DF93EC018D8D9E8D9A
:10326000009721F1162F29A131E03093830220939A
:1032700082021092810210928002DC01ED91FC9199
:103280000190F081E02D60E009958D8D9E8DDC012F
:10329000ED91FC910190F081E02D612F09958D8DCC
:1032A0009E8DDF91CF911F910C948E17ADA5BEA579
:1032B0009C918BA9809589238C938B8D9C8D892BD8
:1032C00031F0862FDF91CF911F910C94711028E07F
:1032D00030E080E8A9A5BAA599A9462F4823C1F0F6
:1032E0004C91942B9C93ABA5BCA59C914AA9942B83
:1032F0009C93ABA5BCA54C919AA9909594239C93C3
:1033000086952150310931F7DF91CF911F910895B2
:103310004C9190959423E6CFDF92EF92FF920F931A
:103320001F93CF93DF938091D2029091D302892B88
:1033300009F498C02091EA023091EB024091EC022E
:103340005091ED0260E074E284EF90E00E94E4347A
:1033500020513109410951095695479537952795CF
:103360002093B80065E086E294E10E9475186091B0
:10337000B902615085EB92E00E942A192091BB02AC
:103380003091BC02C901079697FD079633E09595E9
:1033900087953A95E1F72091B9023091BA02829F60
:1033A0008001839F100D929F100D1124C091D402B3
:1033B000D091D5028091D2029091D3020C0F1D1FA3
:1033C000009709F48FC02091D60231E03093830238
:1033D000209382021092810210928002DC01ED9112
:1033E000FC910190F081E02D60E40995EE24E394D6
:1033F000F12CDD24D3948091D2029091D3020C174A
:103400001D0709F446C0B0E2EB16F104D8F00E94A3
:103410008E178091D2029091D3022091D602D09241
:103420008302209382021092810210928002DC01BA
:10343000ED91FC910190F081E02D60E40995EE247E
:10344000E394F12C8091D2029091D3026991DC0136
:10345000ED91FC910190F081E02D0995BFEFEB1A01
:10346000FB0AC9CF8091D0029091D102892B31F013
:103470008091F3029091F4020E947810E091E402AE
:10348000F091E50290818091E90280958923808303
:1034900069CF0E948E178091D2029091D302892B1E
:1034A00009F461C02091EE023091EF024091F002E8
:1034B0005091F10260E074E284EF90E00E94E43405
:1034C000205131094109510956954795379527955E
:1034D0002093B800DF91CF911F910F91FF90EF9053
:1034E000DF900895E091E202F091E30280819091F3
:1034F000E802892B80830C171D0769F289912091BE
:10350000D0023091D102232B19F00E947110F3CF19
:1035100028E030E040E8E091DE02F091DF02909197
:10352000E602582F5423D9F05081952B9083E091D7
:10353000E002F091E10290815091E702952B908397
:10354000E091E002F091E10250819091E7029095C4
:1035500095239083469521503109E9F6CCCF5081CF
:1035600090959523E3CFE091E402F091E50280810C
:103570009091E902892B8083ADCF1F93CF93DF9386
:10358000EC01162F8D8D9E8D892BB1F12DA93EA9B1
:103590004FA958AD60E074E284EF90E00E94E434FB
:1035A000205131094109510956954795379527957D
:1035B0002093B80066EA111167EACE010E942A1929
:1035C0008D8D9E8D892B41F129AD3AAD4BAD5CAD12
:1035D00060E074E284EF90E00E94E434205131090D
:1035E0004109510956954795379527952093B8007D
:1035F000DF91CF911F9108958B8D9C8D892B21F0A8
:103600008EAD9FAD0E947810EFA5F8A990818CA98E
:10361000809589238083CECFEFA5F8A980819CA9CE
:10362000892B8083E5CF90E080E008952FB7F89450
:103630008091630190916401892B61F04091630155
:103640005091640180E89CE0841B950B90932802C4
:10365000809327022FBF08952FB7F89480912702F7
:10366000909128028057944F9093280280932702CC
:103670002FBF08950E94740A2091240230912502E0
:103680002817390771F0AC01421B530B9A0141E333
:10369000429FC001439F900D1124893A51E695073E
:1036A00010F090E080E0089560E084E00C94D80A87
:1036B00060E086E00C94D80A2FB7F894609330024B
:1036C0007093310280933202909333022FBF08959A
:1036D000209103013091040181E04091000150915B
:1036E00001014217530709F480E008959C019FB738
:1036F000F8944091030150910401509301014093CB
:10370000000130930401209303019FBF089581E0DD
:1037100090E0909349028093480261E085E00E9426
:10372000D80A61E08BE00C94D80A10924202109201
:10373000410290E080E00C94761BBF92CF92DF9222
:10374000EF92FF920F931F93CF93DF93EC01B62E6E
:10375000C72E8D85811105C0CE010E94D40C811128
:103760000EC01B861D861C8680E0DF91CF911F91C5
:103770000F91FF90EF90DF90CF90BF90089540E0C1
:1037800060EFCE010E94810C01E0E12CD12C11E010
:10379000CE010E942E0CF82ECE010E942E0C91E03C
:1037A000F91218C0813099F51134D8F2DB86D110A6
:1037B00002C081E08D878B81882399F22396EB2DBF
:1037C000FC2DCF01089629912193E817F907D9F725
:1037D00081E0CBCFEE2DF0E0F8120FC08B851817EB
:1037E000A0F4DE01AE0FBF1F13968C91802379F4F5
:1037F000F12C193008F41C87D12EEC0FFD1F8381AA
:10380000902F9095892383830AC08113F1CFFE0105
:10381000EE0DF11D8381802B8383FF24F3946F2DA4
:10382000CE010E94520C1F5F000F11F4E39401E0DF
:1038300087E08E1508F0ACCFB7CFFF920F931F93A0
:10384000CF93DF938C01F62EE0918D02F0918E02E2
:1038500013861586148612861186108617821682A4
:10386000158214821382C0E0B80180918D0290917C
:103870008E020E949D1BD82F882329F0FC1629F068
:10388000CF5FFC1688F7D0E008C067E0C8010E944F
:10389000170CF80197818913F3CF8D2FDF91CF910A
:1038A0001F910F91FF90089561E089E00E94480BFD
:1038B00085E090E00E94060B61E08AE00C94D80A53
:1038C00061E089E00E94480B8FE090E00E94060BC7
:1038D00060E08AE00C94D80AFC0101900020E9F72E
:1038E0003197AF01481B590BBC0185EB92E00C945A
:1038F000EA0BCF93DF930E948813EC018FE491E0F1
:103900000E946C1C8C0F9D1FDF91CF91089528E3BE
:1039100030E03093C2022093C10290E09093C40241
:103920008093C302662351F01092C6021092C50222
:1039300081E090E09093C8028093C7028091480292
:10394000909149028130910579F48BE790E00E94D3
:10395000791C81E090E09093C8028093C702909315
:10396000C6028093C5020895029719F481E790E09A
:10397000EECF88E690E0EBCF8F929F92AF92BF920E
:103980000F931F93CF93DF93CDB7DEB7A1970FB6F9
:10399000F894DEBF0FBECDBF19A2423008F44AE052
:1039A0008E010F5D1F4F842E912CB12CA12CA501EF
:1039B00094010E94E434E62FB901CA01EA30F4F41C
:1039C000E05DD801EE938D01232B242B252B79F775
:1039D00090E080E0109719F0CD010E946C1CA19638
:1039E0000FB6F894DEBF0FBECDBFDF91CF911F9110
:1039F0000F91BF90AF909F908F900895E95CE1CFB9
:103A0000462FBC0190E080E00C94BC1CCF93DF9368
:103A100091E09093C9029093CA0221E030E0309384
:103A2000C8022093C7023093C6022093C5021092A9
:103A3000C2021092C1021092C4021092C3028111FC
:103A400041C08EE890E00E94881382E08093C90212
:103A50008093CA021092C2021092C10280E190E0EB
:103A60009093C4028093C30280913D0290913E02E4
:103A7000C8EED3E0BE010E94BC34CB016AE070E026
:103A80000E94001D8BE990E00E94881380913D0206
:103A900090913E02BE010E94BC3464E670E00E9438
:103AA000BC34CB016AE070E00E94001D89E990E01F
:103AB0000E94881381E08093C9028093CA02DF913B
:103AC000CF91089583E990E0BECFCF93DF93EB01D0
:103AD000E5EBF2E028E330E03587248790E0978734
:103AE000868786E890E00E94881361E070E0CE014E
:103AF000DF91CF910C94001DBC01990F880B990B9D
:103B00004AE00C94BC1C4F925F926F927F928F920E
:103B10009F92AF92BF92CF92DF92EF92FF920F935C
:103B20001F93CF936B017C01742EAC019B010E940B
:103B3000AB34882399F082E591E0CF911F910F91EA
:103B4000FF90EF90DF90CF90BF90AF909F908F90BD
:103B50007F906F905F904F900C946C1C46015701C2
:103B6000E894B7F82FEF3FEF4FE75FE7C501B401E7
:103B70000E94AB3481110DC02FEF3FEF4FE75FE79D
:103B8000C501B4010E94E13218161CF486E591E0EB
:103B9000D4CF2FEF3FEF4FE75FE4C701B6010E949C
:103BA000393418161CF48AE591E0C7CF2FEF3FEFA8
:103BB0004FE75FECC701B6010E94E13287FDF3CF0A
:103BC00020E030E0A901C701B6010E94E13210E017
:103BD00000E087FF08C08DE20E94A3138C01F7FA72
:103BE000F094F7F8F094C0E060E070E080E09FE3CC
:103BF0007C1641F020E030E040E251E40E94E632E1
:103C0000CF5FF6CFA70196010E9475322B013C01D0
:103C10000E9458334B015C014AE00E94BC1C7C01AD
:103C2000E00EF11ECC23A9F1C501B4010E94873337
:103C30009B01AC01C301B2010E9474324B015C01D3
:103C40008EE20E94A313E80EF91EC15010F120E08D
:103C500030E040E251E4C501B4010E943E342B0142
:103C60003C010E9458334B016AE070E0C4010E949D
:103C7000001DE80EF91EB40190E080E00E94873339
:103C80009B01AC01C301B2010E9474324B015C0183
:103C9000DCCFC701CF911F910F91FF90EF90DF9084
:103CA000CF90BF90AF909F908F907F906F905F90DC
:103CB0004F900895282F909126029923B9F0CB01B7
:103CC000BA0148E350E05093C2024093C10230E091
:103CD0003093C4022093C30241E00E94831D88EF09
:103CE0000E94A31384E890E00C9488130895209117
:103CF000BB023091BC02C901079697FD079623E0ED
:103D0000959587952A95E1F72091B9023091BA02ED
:103D1000829FA001839F500D929F500D112470E04F
:103D200060E08091D4029091D5020C9450360E94AC
:103D30004B3685ED8093BC008091A6019091A70140
:103D4000A091A801B091A9010796A11DB11D23E082
:103D5000B695A795979587952A95D1F72091BC00A0
:103D600024FD03C01092EF0108954091A6015091E7
:103D7000A7016091A8017091A901452B462B472B03
:103D800069F30097A105B10541F02AE22A95F1F700
:103D900000C00197A109B109E1CF8091A5010C9460
:103DA000E8161F93CF93DF93EC01162F0E945E322B
:103DB000181739F0612FCE01DF91CF911F910C942C
:103DC0006632DF91CF911F9108950C945E321F925D
:103DD0000F920FB60F9211242F933F938F939F93BF
:103DE000AF93BF938091780290917902A0917A026B
:103DF000B0917B023091770223E0230F2D3758F5E5
:103E00000196A11DB11D20937702809378029093B3
:103E10007902A0937A02B0937B0280917C02909108
:103E20007D02A0917E02B0917F020196A11DB11D7D
:103E300080937C0290937D02A0937E02B0937F02D8
:103E4000BF91AF919F918F913F912F910F900FBE96
:103E50000F901F90189526E8230F0296A11DB11D03
:103E6000D2CF1F920F920FB60F9211242F933F9330
:103E70004F935F936F937F938F939F93AF93BF9372
:103E8000EF93FF938091B900887F803609F44AC090
:103E9000F0F5883209F4A7C018F5803109F49BC009
:103EA000B8F4882309F4F9C0883009F494C0FF916C
:103EB000EF91BF91AF919F918F917F916F915F91A2
:103EC0004F913F912F910F900FBE0F901F9018951B
:103ED000883109F488C0803251F78093EE0114C014
:103EE000803409F49DC040F48033B9F38833F9F687
:103EF0008093EE0185ECB0C0803509F485C088352B
:103F000009F496C0883499F60E94991ED0CF88395A
:103F100009F48CC038F5883729F050F4883611F050
:103F2000803729F683E08093EF011092ED0157C0AE
:103F3000883809F47BC0803919F0803809F0B7CF90
:103F40008091ED01803208F071C0E091ED0181E0D7
:103F50008E0F8093ED018091BB00F0E0E353FE4FA4
:103F600080833DC0803B39F0E0F4803A09F479C0A9
:103F7000883A09F09CCF84E08093EF011092CC0145
:103F80001092CB01E0911802F091190209958091ED
:103F9000CB0181110FC081E08093CB011092AB0166
:103FA00009C0803C09F4A6CF883C09F4A3CF883B24
:103FB00009F07DCFE091CC0181E08E0F8093CC01A0
:103FC000F0E0E555FE4F80818093BB009091CC01DD
:103FD0008091CB0129C0809114028093BB0085ECB5
:103FE0008093BC0064CF90911302809112029817C5
:103FF00058F5E091130281E08E0F80931302F0E0F8
:10400000EE50FE4F8081E9CFE091130281E08E0FE8
:10401000809313028091BB00F0E0EE50FE4F80834E
:1040200090911302809112029817C8F285E8D8CFB8
:10403000E091130281E08E0F809313028091BB0008
:10404000F0E0EE50FE4F80838091F10181115CCF52
:1040500081E08093F00184EA8093BC001092EF012C
:1040600026CF85EC8093BC001092EF018091ED018A
:10407000803230F4E091ED01F0E0E353FE4F108226
:104080006091ED0170E0E0911602F09117028DEC65
:1040900091E009951092ED010ACF1092EE0134CF14
:1040A0001F920F920FB60F9211240F931F932F930D
:1040B0003F934F935F936F937F938F939F93AF93B0
:1040C000BF93EF93FF938091270290912802892B51
:1040D00009F46BC080916201882309F466C061E035
:1040E0008CE00E94D80A1092620180916301909145
:1040F0006401019680389C4008F442C0109264012B
:104100001092630180916301909164018036944024
:1041100008F040C087E08093B3008091270290911F
:10412000280201979093280280932702809103012F
:1041300090910401029789F40E94DC0B00913002F7
:10414000109131022091320230913302601B710BC9
:10415000820B930B97FF0E94581BFF91EF91BF9129
:10416000AF919F918F917F916F915F914F913F910F
:104170002F911F910F910F900FBE0F901F901895C8
:104180008091630190916401019690936401809302
:104190006301B8CF809163019091640180329840AF
:1041A00010F482E3B8CF8AE0B6CF60E08CE00E94E2
:1041B000D80A81E080936201B9CFCF93A9EAB2E037
:1041C00013961C921E92129748EE53E060E070E046
:1041D00014964D935D936D937C93179785E191E0D1
:1041E00011969C938E93E5EBF2E01382128220E805
:1041F00030E03583248380E290E0978386833187A3
:10420000208793878287168A1586148617861686D6
:10421000C1E0C58BC48B8FEF9FEF938B828B918B0B
:10422000808BC78B108E128E118E87E291E0918366
:104230008083148E138EB68FA58F10A2178E8FEFEA
:1042400084A385A386A387A380A780E49DE0A3E041
:10425000B0E085AB96ABA7ABB0AF81AF92AFA3AFE9
:10426000B4AF80E586AF17AE60E088E00E94480BEF
:10427000E5E6F4E1E491ABE9B2E0EC93E1E5F4E1E9
:10428000E491F0E0EE0FFF1FE15CFB4E859194910D
:1042900012969C938E9311971B961C921B971D96BA
:1042A0001C921D971C961C921C971A961C921A978A
:1042B00019961C92199718961C92189717961C928B
:1042C000179716961C92169715961C92159714968A
:1042D0001C92149713961C921397E4E8F2E0168A46
:1042E000158A1182B287A18717821086108289E011
:1042F0008383C483C583C683CF910895CF93DF930F
:10430000CDB7DEB765970FB6F894DEBF0FBECDBF51
:10431000789484B5826084BD84B5816084BD85B5A0
:10432000826085BD85B5816085BD80916E008160AC
:1043300080936E0010928100809181008260809352
:104340008100809181008160809381008091800054
:104350008160809380008091B10084608093B1007F
:104360008091B00081608093B00080917A00846079
:1043700080937A0080917A00826080937A008091A5
:104380007A00816080937A0080917A0080688093BF
:104390007A001092C1008091F9028A3519F08EE0FE
:1043A0008093FB028091FB028093FC028AE580935C
:1043B000F90280918100887F85608093810082E08E
:1043C00090E00E94E51E843A51F060E081E090E0C8
:1043D0000E94D11E64EA82E090E00E94D11E84E037
:1043E00090E00E94E51E8C3351F060E083E090E0A5
:1043F0000E94D11E6CE384E090E00E94D11E1092D6
:10440000B0001092B1001092B2008AE08093B30025
:104410008091B00082608093B0008091B100846090
:104420008093B1008091B10082608093B10080914F
:10443000700082608093700062E082E00E94480B0E
:1044400062E083E00E94480B62E080E10E94480B3A
:1044500061E086E00E94480B61E084E00E94480B26
:1044600061E08BE00E94480B61E087E00E94480B0E
:1044700061E08AE00E94480B61E089E00E94480BFD
:1044800061E08CE00E94480B61E08DE00E94480BE7
:1044900061E085E00E94480B61E08DE00E94D80A4F
:1044A00060E085E00E94D80A0E94601C0E94541BB4
:1044B00060E08BE00E94D80A0E94581B60E087E011
:1044C0000E94D80A0E94601C68EC70E080E090E0D6
:1044D0000E94A90B8091D4029091D502892B39F1C9
:1044E0000E94771E8091BB029091BC026091B9023C
:1044F0007091BA02813291050CF02AC1AC01405290
:10450000510957FF02C04F5F5F4F5595479563575D
:10451000710977FF02C06F5F7F4F75956795F0E275
:10452000EF2EF12C03E710E02FED35E029C12091AB
:10453000BB023091BC02C901079697FD079623E0A4
:10454000959587952A95E1F72091B9023091BA02A5
:104550008C01029FC001039F900D129F900D1124AA
:104560000E9426359093D5028093D402892B09F0BE
:10457000B7CF0E94771E82E08093C9028093CA025F
:1045800081E090E09093C8028093C7029093C602A6
:104590008093C5021092C2021092C1021092C4020E
:1045A0001092C30230E2E32EF12C00E810E02FE776
:1045B00030E150E040E070E060E085EB92E00E9486
:1045C00082150E948C1960ED77E080E090E00E94F7
:1045D000A90B0E94771E2FE73EE050E040E070E01C
:1045E00060E085EB92E00E9482150E948C1960EDDC
:1045F00077E080E090E00E94A90B45E1D42E0E9474
:10460000771E20E2E22EF12C00E810E02FE73CE0DC
:1046100050E040E070E060E085EB92E00E9482159F
:104620000E948C1964E670E080E090E00E94A90B83
:104630000E94771E2FE73AE050E040E070E060E033
:1046400085EB92E00E9482150E948C1964E670E06E
:1046500080E090E00E94A90BDA94D110D0CF0E94A4
:10466000771EE0918D02F0918E02138615861486D6
:104670001286118610861782168215821482138282
:1046800010928B0210928C0211E0BE016F5F7F4F7F
:1046900080918D0290918E020E949D1B882309F4C7
:1046A0005BC267E0CE0101960E94170C98858913C2
:1046B000ECCF80918B028F5F80938B02898188324F
:1046C00031F008F040C2803111F08232F1F6809171
:1046D0008C028F5F80938C0280918402811128C0AC
:1046E00080918D0290918E020E94D40CBE016F5F6A
:1046F0007F4F80918D0290918E020E94B50C40E018
:1047000064EB80918D0290918E020E94810C8091C9
:104710008D0290918E020E942E0C082F80918D02A6
:1047200090918E020E94D40C011102C01093840259
:104730008981803109F40EC2CE0101960E94ED0DEF
:1047400090918702981708F0A0CF809387029DCFA1
:10475000AC014054510957FF02C04F5F5F4F559560
:1047600047956255710977FF02C06F5F7F4F75955E
:10477000679510E4E12EF12C02E510E02FEB37E015
:1047800085EB92E00E94821582E08093D7028091AF
:10479000D2029091D302892B09F4DFC08CE380937D
:1047A000D60210921B0210921A02109281021092ED
:1047B00080020E94CA1688EE9BE0909319028093B3
:1047C000180289EE9BE09093170280931602809165
:1047D000DD0287FD1EC061E00E94480B61E0809110
:1047E000DD020E94D80A61E070E080E090E00E9463
:1047F000A90B60E08091DD020E94D80A6AE070E0B7
:1048000080E090E00E94A90B61E08091DD020E94AF
:10481000D80A8091D2029091D302892B09F45CC10D
:104820002091EA023091EB024091EC025091ED02AE
:1048300060E074E284EF90E00E94E434205131099A
:104840004109510956954795379527952093B8000A
:1048500064E08BED95E00E9475186091BB02615099
:1048600085EB92E00E942A1964E087ED95E00E94B2
:1048700075188091D70260E1813009F064E185EB21
:1048800092E00E942A1964E083ED95E00E94751879
:104890008FE88093F2028091B9029091BA02803839
:1048A000910509F032C18091BB029091BC02803425
:1048B000910509F03AC18091D702813009F023C1F6
:1048C0008FE98093F20212E16AED85EB92E00E949B
:1048D0002A19612F85EB92E00E942A1961E885EB85
:1048E00092E00E942A196091F20285EB92E00E9408
:1048F0002A1969ED85EB92E00E942A198091D7026E
:1049000062E2813009F061EF85EB92E00E942A19A2
:1049100066E08DEC95E00E9475188091D20290912E
:10492000D302892B09F405C12091EE023091EF02E8
:104930004091F0025091F10260E074E284EF90E067
:104940000E94E43420513109410951095695479597
:10495000379527952093B8000CCE61E08091DB025B
:104960000E94480B61E08091DC020E94480B80911C
:10497000DB02082E000C990BFC01E75BFB4EE49177
:10498000F0E0EE0FFF1FE45EFB4E25913491309373
:10499000E3022093E202FC01E35AFB4EE491E09330
:1049A000E8028091DC02082E000C990BFC01E75B09
:1049B000FB4EE491F0E0EE0FFF1FE45EFB4EA5918D
:1049C000B491B093E502A093E402FC01E35AFB4EDC
:1049D000E491E093E9028C91E82BEC938091D00272
:1049E0009091D102892B09F434C01FB7F8948091BB
:1049F0001502811127C0E3E5F4E18491E7E6F4E1D3
:104A00009491E82FF0E0EE0FFF1FEE5EFB4EA591B4
:104A1000B491EC91E92321F461E08AE00E94D80A84
:104A200061E08AE00E94480B8CB580618CBD8CB53A
:104A300080648CBD61E08DE00E94480B61E08BE0FA
:104A40000E94480B809115028F5F809315021FBF53
:104A5000BECE61E08091D9020E94480B61E0809156
:104A6000DA020E94480B8091D902082E000C990BA3
:104A7000FC01E75BFB4EE491F0E0EE0FFF1FE45E0C
:104A8000FB4E259134913093DF022093DE02FC012E
:104A9000E35AFB4EE491E093E6028091DA02082E9D
:104AA000000C990BFC01E75BFB4EE491F0E0EE0F8C
:104AB000FF1FE45EFB4EA591B491B093E102A09379
:104AC000E002FC01E35AFB4EE491E093E7028C9193
:104AD000E095E823EC937BCE8091D0029091D102B7
:104AE000892B31F08091F3029091F4020E947810AA
:104AF000E091E402F091E50290818091E9028095D5
:104B000089238083A5CE8FECDCCE8036910569F4B5
:104B10008091BB029091BC02409739F48091D702FA
:104B2000813029F480E18093F20212E0CDCE8FEA49
:104B3000FACFE091E402F091E50280819091E902E0
:104B4000892B808316CD8B3309F4C1CD823409F0D3
:104B50009CCDBDCD8CE0F4CD80918B02809326025C
:104B600090E1F92E0E94740A00912402109125020E
:104B7000080F191F10932502009324026AE070E0C9
:104B800080E090E00E94A90BFA94F110EBCF84E052
:104B9000169507958A95E1F7109325020093240254
:104BA000093C110518F081E08093340290E080E028
:104BB0000E94E51E14E6819FC00111249C01205D26
:104BC00037402137374108F4C8C080ED97E0909313
:104BD0003E0280933D0264E190E080E00E94D11E9D
:104BE00081E090E00E94E51E91E0813009F090E0C4
:104BF00090933F0283E090E00E94E51E91E08130B7
:104C000009F090E09093400210924202109241020B
:104C10001092440210924302813011F40E94871BCB
:104C200060E08CE192E00E941D1C80911C028031AA
:104C300009F46FC0BE016F5F7F4F8CE192E00E946C
:104C40007B0D882309F465C08D818F3109F461C023
:104C50008FE18D8380918D0290918E020E94D40C01
:104C60006CE172E080918D0290918E020E94B50CF1
:104C700040E06EE480918D0290918E020E94810C42
:104C800040E06B8180918D0290918E020E94810C98
:104C900040E06C8180918D0290918E020E94810C87
:104CA00080911C02803141F040E06D8180918D0245
:104CB00090918E020E94810C80918D0290918E02C3
:104CC00020918A02222319F10E94D40C882309F131
:104CD0006CE172E080918D0290918E020E94B50C81
:104CE0004091840268E480918D0290918E020E942E
:104CF000810C80918402811135C064E170E080E014
:104D000090E00E94A90B80918D0290918E020E94EA
:104D1000D40C89E08093870280918B028230F0F17D
:104D200010E080918B021817C8F5809187028C30B3
:104D3000A9F1612FCE0101960E941D1C898180314D
:104D400059F1CE0101960E94ED0D909187029817BE
:104D500010F4809387021F5FE4CF90933E0280930C
:104D60003D023ECF80918502882329F060E080914A
:104D700086020E94D80A64E170E080E090E00E9420
:104D8000A90B80918502882309F4BDCF61E0809151
:104D900086020E94D80AB7CF8CE0D7CF0E940C0DB4
:104DA0001092880268E770E080E090E00E94A90B12
:104DB00088E19DE00FB6F894A895809360000FBE3F
:104DC0009093600061E085E00E94D80AAA24A39431
:104DD00014E6212E312CBB24B394A3E08A2E912C0F
:104DE000B0E1CB2ED12CA8958091030190910401C4
:104DF0008093FB020E94DC0B609373027093740239
:104E0000809375029093760282E00E94AF0A9B8B9A
:104E10008A8B81E00A891B89012B09F080E080934D
:104E2000720283E00E94AF0A7C0181E0E114F10488
:104E300009F080E08093710280E10E94AF0A8C014A
:104E400081E00115110509F080E08093700260E0B7
:104E5000CE010A960E941D1C811166C0412C512C66
:104E6000FEEF6F2EF2EC7F2E0E940C0D40926C0232
:104E700050926D0260926E0270926F0220E030E0FC
:104E80004CE552ECC301B2010E94393487FD0AC0DF
:104E900020E030E04AEF52E4C301B2010E94E13267
:104EA000181604F580910301909104010D97D1F03B
:104EB0000E94581B0E94601C0E94541B10924F02BB
:104EC0000E94DC0B60527C468B4F9F4F60934B02DD
:104ED00070934C0280934D0290934E028DE090E0CF
:104EE0000E94761B2A893B89232B09F096C080916A
:104EF0004A02811192C08091030190910401892B93
:104F000009F0B8C020E030E04CE552E4C301B20142
:104F10000E94393410924F0218160CF050C085E0F0
:104F200090E00E94761B79C0BE016F5F7F4FCE017B
:104F30000A960E947B0D882309F490CF6A8170E065
:104F4000762F6627770F770F770F298148E0249F08
:104F500090011124262B372B8A858031E1F4688556
:104F60006623C9F070E08F81DB01A81BB109CD0178
:104F70009695982F8827979587950E94D034CB01D6
:104F80008097B90153E0660F771F5A95E1F7607873
:104F90009C01260F371F2138B4EE3B070CF45ECF7F
:104FA000B901330F880B990B0E94893320E030E060
:104FB00040E05CE30E943E342B013C0155CF10924F
:104FC000500210925102109252021092530210920B
:104FD00055021092540210925602109257021092EB
:104FE00058021092590210925B0210925A021092CB
:104FF0005D0210925C021092680210926902109297
:105000006A0210926B0280910201882381F187E08D
:1050100090E00E94761B1092020180914602EF28D8
:1050200009F459C0882341F080914502882321F07A
:105030000E94601C10924502E0910301F09104016E
:10504000EE30F10510F00C940732E75DF74D0C944B
:105050000635DB28F72D8F2B582D0C2E4C31EA31DD
:10506000A62EB12AD02E862FE8300431283182E0D6
:1050700090E057CF8091030190910401079719F4B4
:1050800090E080E04ECF8091030190910401089759
:10509000A9F08091030190910401099779F0809122
:1050A0000301909104010A9749F0809103019091C6
:1050B0000401059731F410924F02AFCF0E94951B67
:1050C000ACCF8091030190910401059709F4A5CF1D
:1050D000B0924702A2CF8111AFCF8091030190918E
:1050E00004010B9701F180910301909104010C9749
:1050F000D1F080910301909104010D97A1F080916E
:10510000030190910401892B99F4809141029091BF
:105110004202019665E070E00E94D0349093420212
:105120008093410289CF90E080E00E94761B84CF7B
:105130008091030190910401069739F38091030156
:1051400090910401089769F4809143029091440280
:105150000196B4010E94D03490934402809343029C
:105160006BCF8091030190910401099719F40E947B
:10517000951B62CF80910301909104010A9751F42D
:1051800080912F0290E00196B4010E94D034809368
:105190002F0252CF80914002882309F44DCF809195
:1051A000480290914902019709F046CF0E94541C91
:1051B000B092450241CF80910301909104010E9479
:1051C000761B8091410290914202009709F0F0C055
:1051D000012B09F468C010923C0200913802109132
:1051E000390240906C0250906D0260906E02709097
:1051F0006F02F09037020E94771E81E020914102F9
:1052000030914202232B09F080E00E94061D80911C
:105210004102909142028230910508F007C188E373
:1052200090E09093C2028093C1021092C402109247
:10523000C30283EC92E1F11002C08BEB92E10E9479
:10524000791C61E08091410290914202019709F03E
:1052500060E088E00E94871CB80180E10E94651D23
:10526000B301A20188E10E945A1EEE24E394F12CBE
:1052700000E210E026E330E050E040E066E370E05A
:1052800085EB92E00E9407140E948C190E94541B27
:105290000E94581B0E943A1B90933602809335025D
:1052A00090E080E0C4C220913C022F5F20933C023A
:1052B0002F3050F020ED37E030933E0220933D0236
:1052C000B0923B0210923C0220913A02211185CF0C
:1052D000009711F00C943332B0923B0280913D0262
:1052E00090913E0280343FE1930708F067C08C59EB
:1052F0009F4F90933E0280933D02809103019091D5
:105300000401892B09F469CF8091720280934A02CB
:1053100080917102809346028091700280933A02DC
:1053200080910301909104010D9711F00C940F32BC
:1053300061E087E00E94D80AB09237020E94DC0B3D
:10534000AB01BC018091730290917402A09175022F
:10535000B091760208E81FEF2FEF3FEF081B190B03
:105360002A0B3B0BD901C801840F951FA61FB71F3D
:10537000B7FD02C00C9429320E94DC0B7F73882792
:1053800099276F3F7F4381059105C1F680913B02CC
:105390008823A1F280913D0290913E02B1010E94CA
:1053A000BC3490E080E00E94D11E10923B02C6CF38
:1053B00010923C02012B09F487CF0FCF80ED97E0CC
:1053C00098CF019779F482E090E09093490280931E
:1053D000480260E085E00E94D80A61E08BE00E940C
:1053E000D80A8BCF109249021092480261E085E002
:1053F0000E94D80A60E0F2CF8230910549F4109201
:1054000044021092430288E090E00E94761B75CF20
:105410008330910529F410922F028AE090E0F5CFB5
:10542000049709F06ACF89E090E0EFCF82309105D0
:1054300081F560E080E00E94871CB80188E00E944E
:10544000651DB301A20180E10E945A1E88E390E02D
:105450009093C2028093C10288E190E09093C402CD
:105460008093C3021092C6021092C50201E010E0C0
:105470001093C8020093C70280EB92E10E94881348
:105480001093C8020093C7021093C6020093C5028E
:10549000ECCE039771F5B80180E00E94651DB30161
:1054A000A20188E00E945A1E08E310E01093C20295
:1054B0000093C102D092C402C092C30285EA92E175
:1054C0000E9488131093C2020093C10288E190E009
:1054D0009093C4028093C3021092C6021092C50238
:1054E00001E010E01093C8020093C7028EE992E138
:1054F000C5CFB301A20180E00E945A1E08E310E06C
:105500001093C2020093C10288E090E09093C4021D
:105510008093C30283E992E10E9488131093C20230
:105520000093C102D092C402C092C3028CE892E1FF
:105530000E9488131093C2020093C10288E190E098
:105540009093C4028093C3021092C6021092C502C7
:1055500001E010E01093C8020093C7028FE792E1C8
:105560008DCF80910301909104010E94761B012B45
:1055700009F496C00E94771E80E00E94061D08E391
:1055800010E01093C2020093C1021092C402109264
:10559000C30280EF92E10E9488131093C20200932D
:1055A000C10288E090E09093C4028093C30280918E
:1055B000430290914402892B09F4A0C086EE92E147
:1055C0000E94881380913F02882309F4A2C083EED1
:1055D00092E10E94881381E090E09093C80280934A
:1055E000C7029093C6028093C50288E390E090932F
:1055F000C2028093C102D092C402C092C3028091C1
:10560000430290914402019721F41092C602109235
:10561000C50288ED92E10E948813809140028823A0
:1056200009F47AC085ED92E10E94881381E090E050
:105630009093C8028093C7029093C6028093C502DC
:1056400088E390E09093C2028093C10288E190E0E9
:105650009093C4028093C3028091430290914402CC
:10566000029721F41092C6021092C5028AEC92E1D0
:105670000E94881381E090E09093C8028093C70253
:105680009093C6028093C502EE24E394F12C00E2CD
:1056900010E026E330E050E040E066E370E051C304
:1056A00080913A02811166CF809143029091440229
:1056B000009789F460913F026A2560933F0281E080
:1056C00090E00E94D11E80910301909104010897FF
:1056D00009F01ACE4FCF019771F4809140028A25CC
:1056E0008093400260E0882319F00E94871B61E0EC
:1056F00083E090E0E6CF0E94951BE5CF1092C602B2
:105700001092C50281E090E09093C8028093C70296
:1057100055CF8FED92E15DCF81ED92E185CF0E9473
:10572000681B882309F442C00E94DC0B20913D02D3
:1057300030913E02620F731F811D911D0E945C1B00
:105740001092500210925102109252021092530283
:105750001092550210925402109256021092570263
:10576000109258021092590210925B0210925A0243
:1057700061E084E00E94D80A61E086E00E94D80AD5
:105780000E94DC0B60527C468B4F9F4F60934B0214
:1057900070934C0280934D0290934E028091480288
:1057A00090914902029711F40E942C1B80910301F1
:1057B000909104010E94761B0E943A1BAC019093C9
:1057C0003602809335022C01712C612C8091560297
:1057D00090915702A0915802B091590293018A0109
:1057E000080F191F2A1F3B1F0A8B1B8B2C8B3D8B0D
:1057F0000093560210935702209358023093590297
:1058000000915A0210915B020F5F1F4F10935B02D1
:1058100000935A0280913402882349F14C3050435E
:1058200048F00E94581B0E94541B8BE090E00E949D
:10583000761B6ACD8091500290915102A091520244
:10584000B0915302840D951DA61DB71D8093500283
:1058500090935102A0935202B0935302809154024C
:105860009091550201969093550280935402409076
:1058700030025090310260903202709033020E94E8
:10588000DC0B9B01AC01241935094609570957FD6A
:10589000A6C00E94581B0115110599F0980150E00F
:1058A00040E06A897B898C899D890E94E434253691
:1058B000310538F410923F0260E081E090E00E94F0
:1058C000D11E80913402882379F0209154023091C6
:1058D00055022115310541F080916802811109C0FE
:1058E000B092680210926B020E94541C83E090E018
:1058F0009ECF50E040E06091500270915102809143
:105900005202909153020E94E4342901809169026D
:10591000853018F5E82FF0E0EE0FFF1FE15BFD4F3B
:10592000308B27878F5F8093690265E00E94B034D7
:1059300090936A0220916902EEE5F2E030E060E0C7
:1059400070E0CB01231709F440C041915191640FDD
:10595000751F811D911D3F5FF5CFA4E6B0E0442780
:1059600055270E941B357B018C0120915C023091F0
:105970005D02A5E5B0E00E940C35E616F7060807C3
:10598000190778F480916B028F5F80936B028823F4
:1059900009F4AACF10924F020E94541B8CE090E0B1
:1059A00046CF10926B0280916A0290E0FC01EE0FEC
:1059B000FF1FE15BFD4F508A4786019665E070E06E
:1059C0000E94D03480936A02B5CF30E050E040E0CE
:1059D0000E94E43430935D0220935C0285CF461A26
:1059E000570A680A790A0E94771E82E08093C902EA
:1059F0008093CA021092C2021092C1021092C40295
:105A00001092C30288E094E10E94791C80913402D4
:105A1000882329F1809135029091360208EE13E037
:105A2000B8010E94BC34CB016AE070E00E94001D06
:105A300086E094E10E9488138091350290913602AD
:105A4000B8010E94BC34B1010E94BC34CB016AE0B1
:105A500070E00E94001D82E094E10E948813C3015F
:105A6000B20128EE33E040E050E00E94E4348901C6
:105A70009A012B013C014AE0C901B8010E94BC1CFB
:105A800080E094E10E948813C301B20124E630E073
:105A900040E050E00E94E434CA01B9014AE00E94AB
:105AA000BC1C8EEF93E10E9488130E948C192CCCB1
:105AB0000E94681B882391F02FB7F89480912702E9
:105AC000909128022FBF892B09F01ECC0E94DC0B7D
:105AD0006C507E4F8F4F9F4F0E945C1B8091030143
