:020000040000FA
:100000000C946A040C94A1040C94A1040C94A10413
:100010000C94A1040C94A1040C94A1040C94E91F69
:100020000C94A1040C94A1040C94A1040C94A104BC
:100030000C94A1040C94A1040C94A1040C94A104AC
:100040000C94281E0C94A1040C94981E0C94721EFF
:100050000C94A1040C94A1040C94A1040C94A1048C
:100060000C94CA1E0C94A104444941474E4F53546A
:100070004943533E00494E464F203E00414E414CBD
:10008000595345203E0050524F46494C4553203E5F
:100090000053455454494E4753203E00524546456F
:1000A00052454E4345203E0044454C455445203E74
:1000B0000052454E414D45203E004C4F4144203EAC
:1000C00000AED580A81FD300408D142000A1C8DA4F
:1000D00002818FD9F1DB40A4A62EAF3E0F87C1F17C
:1000E000F0001F07C3F0FCFC000FC3F1FC7F7F8012
:1000F00003F0FC7F1F8FC000FC3F1F87E3E0187FE9
:100100001FC7E1F8C03E1FC7F1F87E001F87E1F866
:100110007E3F800FE1F87E1F8FC003F07E1F87E3D4
:10012000E030FC1F87E3F8E07C3F0FE3F8FE003E81
:100130000FC3F0FC3F801F87F0FC3F0FC007E1FCBE
:100140003F0FC3E001F07E0F83E0E000F81F07C11E
:10015000F0000000003FFFFFFFFFFF8000000003F2
:10016000FE0007C001F07F8000003C1F0003F0008C
:10017000FC00780001C00FC001FC007F8004000675
:100180000003F0007F000FC00400180000FC001FF7
:100190008003E00400E000007F0007E000C00403EB
:1001A0000000001FC001F80000040C00000007E080
:1001B000007E0000043000000001F8001F800004F1
:1001C0000C000000007E0007E00004030000300087
:1001D0001F8003F8000400E0007C000FE000FE0038
:1001E000040018003E0003F0003F80040006001FDA
:1001F0008000FC000FC0040001C007E0003F0003C6
:10020000E00400003C01F0000F8000E078000003F3
:10021000C0F80007C0007F800000003FFFFFFFFF25
:10022000FF80000060E05F0CC0A741F9F800F0F02B
:100230007D0CC03F01F9FC00F0F07D30303C818145
:100240008C0198D828353154C1818C0198D8283F29
:10025000DE5741F1F8030CCC02AFDCCF01F1F00323
:10026000FCCC12AB333C01819803FCC617C333347A
:100270000181980606C61FCCC6C93DF98C0606C288
:100280001F4CC6C97DF98C2C7065616B5F6D613D3B
:10029000002C7065616B5F7063743D002C656E654A
:1002A0007267795F7063743D002C6D617463685F81
:1002B0007063743D0050524F46494C452C52455393
:1002C000554C542C736C6F743D002C7065616B5FE2
:1002D0006D613D002C656666696369656E63795F73
:1002E0007063743D002C657374696D617465645F3F
:1002F000656E657267795F4A3D00414E414C5953C6
:10030000452C454E442C745F6D733D00414E414C6D
:100310005953452C41424F52542C726561736F6E94
:100320003D555345522041424F52542C745F6D73DA
:100330003D00414E414C5953452C474154455F4F78
:1003400050454E004F4E452053484F5400415554A0
:100350004F204645454400465245452052554E00E3
:1003600020434F4F4C21007E4A00413A00204E4529
:100370005854200025204E45585420002044524F08
:100380005000252044524F50007E4A002520450051
:100390007E4A0020413A0044554D50494E472E2E8A
:1003A0002E000E9EFEFEDEDEDEDEDEDEDEDEDEDECB
:1003B000DEDEDEDEDEDEDEDEDEDEFEFE9E0E01C325
:1003C0003F30C78001E33F30CFC001E30330CC4072
:1003D00001B30630CC0001B30C3FCF80019B1C3F22
:1003E000C3C0018B1830C0C0018F3030C8C0018736
:1003F0003F30CFC001873F30CF80000000000007B2
:1004000000000F00003C0000700000E000FFC00191
:10041000FF00018000018000018000018000018058
:100420000001800001800001800001800001800047
:1004300001800001800001FF0000FFC00000E0001B
:10044000007000003C00000F0000070000000000EA
:1004500000000000005F00000007000700147F1488
:100460007F14242A7F2A12231308646236495620F7
:10047000500008070300001C2241000041221C001C
:100480002A1C7F1C2A08083E0808008070300008DB
:1004900008080808000060600020100804023E51AF
:1004A00049453E00427F4000724949494621414941
:1004B0004D331814127F1027454545393C4A4949A8
:1004C0003141211109073649494936464949291E12
:1004D0000000140000004034000000081422411401
:1004E00014141414004122140802015909063E4153
:1004F0005D594E7C1211127C7F494949363E41417B
:1005000041227F4141413E7F494949417F090909D3
:10051000013E414151737F0808087F00417F41003F
:100520002040413F017F081422417F404040407FEE
:10053000021C027F7F0408107F3E4141413E7F093B
:100540000909063E4151215E7F091929462649497C
:10055000493203017F01033F4040403F1F204020BC
:100560001F3F4038403F63140814630304780403BA
:100570006159494D43007F41414102040810200068
:100580004141417F04020102044040404040485440
:1005900054542400001818000201020402005EBC3A
:1005A000E2613FDD83C29C7E20A3FD1F41009D23AD
:1005B000BE46DB65F88C11AF32CA57E974414E4133
:1005C0004C5953452C5354415254004D41580054FA
:1005D000494D450043415345533A20009100860060
:1005E0007C0099067500680046414E204F46460043
:1005F00046414E204F4E004F4646004F4E00445558
:100600004D503A2000524553544152543A20005321
:10061000455454494E4753004F50454E203E0050DC
:10062000524F46494C452000BA00B006B100A80020
:100630009C00870720414354494F4E53007E4A0097
:10064000413A004E4F2044415441004E414D452017
:10065000500044454C455445203E0044454C4554CB
:10066000452050005341564544004E4F20444154CC
:100670004100454D5054590044454C4554454400B3
:100680004C4F414445440050524F46494C4553005D
:10069000434F4E464947203E005245564945572054
:1006A0003E004E4557203E00414E414C59534500B7
:1006B00053415645203E0050524F46494C4520007C
:1006C00050524F46494C453A20004D41582054491C
:1006D0004D453A200044524F503A200054494D4570
:1006E0003A20007E4A3A20005045414B2044524F68
:1006F0005000454E455247590054494D4500545904
:1007000050453A2000524551554952454400435501
:10071000522053454E534F5200505245535320538D
:1007200054415254004C4F414420434153450041F1
:100730004E414C595345002C696E7075745F656E5F
:10074000657267795F4A3D002C63757272656E74DD
:100750005F6D613D00414E414C5953452C53414D15
:10076000504C452C745F6D733D005253543A002039
:100770004355523A0054454D503A00444941474E82
:100780004F5354494353004241434B203E00342EC3
:10079000322E300046573A200035563A20002D2D93
:1007A00000424153453A200025204E004C4F573A15
:1007B0002000494E464F004155544F204F464600B9
:1007C0004155544F204F4E00434F4F4C444F574ECE
:1007D0000052455155495245440043555220534516
:1007E0004E534F520054494D454F555400544152B9
:1007F00047455400434845434B2054454D50005411
:10080000454D50204552524F520043555252454E8D
:1008100054204C4F2100434845434B20434153450E
:1008200000434845434B20434F494C00212046415B
:10083000554C54202100484549474854204F4B3FD0
:100840000043415345002026200054494D450043B4
:1008500041534553004C4F41440044524F5050497E
:100860004E470041202000414E4E45414C494E47E5
:100870000000000000240027002A000000000025DE
:100880000028002B0021007F220003000000080048
:100890000201000003040700000000000000000047
:1008A00000000023002600290004040404040404BA
:1008B000040202020202020303030303030102040F
:1008C00008102040800102040810200102040810D2
:1008D0002000C62111241FBECFEFD8E0DEBFCDBF60
:1008E00084B780933E0614BE0FB6F894A895809105
:1008F0006000886180936000109260000FBE11E07C
:10090000A0E0B1E0E2E5F6E702C005900D92A83460
:10091000B107D9F726E0A8E4B1E001C01D92AD33DC
:10092000B207E1F714E0CAE6D4E004C02197FE0163
:100930000E94003BC936D107C9F70E9454220C948B
:10094000273B0C94000080E480937C0080917A0027
:10095000806480937A0080917A0086FDFCCF80913C
:100960007800909179000895833081F028F48130E7
:1009700099F08230A9F008958730A9F08830C9F045
:100980008430B1F4809180008F7D03C0809180001D
:100990008F7780938000089584B58F7784BD089504
:1009A00084B58F7DFBCF8091B0008F778093B000AE
:1009B00008958091B0008F7DF9CFCF93DF93282FDA
:1009C00030E0F901E557F74F8491F901E354F74F0F
:1009D000D491F901E755F74FC491CC23A1F08111CF
:1009E0000E94B404EC2FF0E0EE0FFF1FE156F74F2A
:1009F000A591B491EC91ED2381E090E009F480E0C1
:100A0000DF91CF91089580E090E0FACF1F93CF93CC
:100A1000DF93282F30E0F901E557F74F8491F90172
:100A2000E354F74FD491F901E755F74FC491CC2324
:100A3000A9F0162F81110E94B404EC2FF0E0EE0F04
:100A4000FF1FE558F74FA591B4918FB7F894EC913B
:100A5000111108C0D095DE23DC938FBFDF91CF91B9
:100A60001F910895DE2BF8CFE4E9F8E0E491E3303C
:100A700019F140F4E130B1F0E230C9F060E089E012
:100A80000C940605E73011F1E83041F1E430B1F79C
:100A90002091800020622093800090938B008093AF
:100AA0008A00089594B5906894BD87BD089594B563
:100AB000906294BD88BD08952091800020682093A5
:100AC0008000909389008093880008959091B000F1
:100AD00090689093B0008093B30008959091B00017
:100AE00090629093B0008093B4000895CF93DF9309
:100AF00090E0FC01E354F74F24918755974FFC0198
:100B000084918823C9F090E0880F991FFC01EF5869
:100B1000F74FA591B491FC01E558F74FC591D491D9
:100B200061110DC09FB7F8948C91209582238C930E
:100B30008881282328839FBFDF91CF910895623059
:100B400051F49FB7F8943C91822F809583238C9326
:100B5000E8812E2BEFCF8FB7F894EC912E2B2C93AE
:100B60008FBFEACF3FB7F8948091050390910603B9
:100B7000A0910703B091080326B5A89B05C02F3F9D
:100B800019F00196A11DB11D3FBFBA2FA92F982FB3
:100B90008827BC01CD01620F711D811D911D42E0AE
:100BA000660F771F881F991F4A95D1F708958F9276
:100BB0009F92AF92BF92CF92DF92EF92FF926B0122
:100BC0007C010E94B2054B015C01C114D104E10417
:100BD000F104B9F00E94B205681979098A099B09E4
:100BE000683E73408105910580F321E0C21AD10867
:100BF000E108F10888EE880E83E0981EA11CB11C64
:100C0000E4CFFF90EF90DF90CF90BF90AF909F9098
:100C10008F9008952FB7F8946091010370910203AB
:100C200080910303909104032FBF0895DC01ED919F
:100C3000FC910190F081E02D0994EF92FF920F93C7
:100C40001F93CF93DF938C017B01D0E0C0E0F701CD
:100C5000EC0FFD1F6491662361F0D801ED91FC91CA
:100C60000190F081E02DC8010995892B11F02196A2
:100C7000EECFCE01DF91CF911F910F91FF90EF90BA
:100C80000895AF92BF92CF92DF92EF92FF920F93AF
:100C90001F93CF93DF936C017B018B01040F151F12
:100CA000EB015E01AE18BF08C017D10759F069917A
:100CB000D601ED91FC910190F081E02DC6010995DE
:100CC000892B79F7C501DF91CF911F910F91FF908B
:100CD000EF90DF90CF90BF90AF900895FC01538DBF
:100CE000448D252F30E0842F90E0821B930B541706
:100CF00010F0CF96089501970895FC01918D828D93
:100D0000981761F0A28DAE0FBF2FB11D5D968C912B
:100D1000928D9F5F9F73928F90E008958FEF9FEF6A
:100D20000895FC01918D828D981731F0828DE80F26
:100D3000F11D858D90E008958FEF9FEF0895FC01E0
:100D4000918D228D892F90E0805C9F4F821B9109AD
:100D50008F739927089589E593E00E949F0621E00B
:100D6000892B09F420E0822F089580E090E0892B00
:100D700029F00E94AB0681110C9400000895FC013B
:100D8000A48DA80FB92FB11DA35ABF4F2C91848DEC
:100D900090E001968F739927848FA689B7892C9349
:100DA000A089B1898C91837080648C93938D848D9C
:100DB000981306C00288F389E02D80818F7D80839F
:100DC0000895EF92FF920F931F93CF93DF93EC015F
:100DD00081E0888F9B8D8C8D98131AC0E889F989E2
:100DE000808185FF15C09FB7F894EE89FF896083E5
:100DF000E889F98980818370806480839FBF81E066
:100E000090E0DF91CF911F910F91FF90EF900895A7
:100E1000F62E0B8D10E00F5F1F4F0F731127E02E82
:100E20008C8D8E110CC00FB607FCFACFE889F989BA
:100E3000808185FFF5CFCE010E94BF06F1CFEB8DFB
:100E4000EC0FFD2FF11DE35AFF4FF0829FB7F8948E
:100E50000B8FEA89FB8980818062CFCFCF93DF93AC
:100E6000EC01888D8823B9F0AA89BB89E889F989C2
:100E70008C9185FD03C0808186FD0DC00FB607FCF7
:100E8000F7CF8C9185FFF2CF808185FFEDCFCE012A
:100E90000E94BF06E9CFDF91CF910895DC0180E089
:100EA000615090F09D919827E92FEF70F0E0E356A4
:100EB000FA4F2491E92FE295EF70F0E0E355FA4FF5
:100EC000E491822F8E27ECCF0895FC0113861586BE
:100ED0001486128611861086178216821582148255
:100EE00013820895DC012C911196ED91FC91F894F8
:100EF0008181822B81839281322F3095932392833B
:100F000087E090E00197F1F781818323818383E279
:100F100090E00197F1F790817894EFECF0E0319751
:100F2000F1F7922381E009F480E00895FC019081BB
:100F30000180F281E02D292F209560FF14C0F894E4
:100F40008281822382838181892B8183A3E2B0E025
:100F50001197F1F78281982B9283789487ED90E036
:100F60000197F1F70895F894828182238283818129
:100F7000892B8183AFEFB0E01197F1F78281982B35
:100F8000928378948FE090E0EBCFDF92EF92FF9224
:100F90000F931F93CF93DF93EC01D62EE42E08E03E
:100FA00010E0FF24F39461E08D2D8F2109F460E0BF
:100FB000CE010E949607FF0C01501109A1F7E11024
:100FC00010C0F894E981FA81918188818095892304
:100FD0008183E981FA819281888180958923828346
:100FE0007894DF91CF911F910F91FF90EF90DF9058
:100FF0000895EF92FF920F931F93CF93DF938C018D
:101000007B0140E065E50E94C507E70188E0E80E46
:10101000F11C699140E0C8010E94C507CE15DF05AB
:10102000C1F7DF91CF911F910F91FF90EF9008953D
:10103000FC0190810180F281E02DF8948181292FBB
:1010400020958223818378943DE743E050E031503E
:1010500029F1DA011197F1F780818923C1F3F8941E
:101060008281822382838181892B81837894ABE77B
:10107000B7E01197F1F7F894818182238183A3E18E
:10108000B1E01197F1F78081982381E009F080E0C9
:101090007894E3E6F6E03197F1F7089580E008955B
:1010A0008F929F92AF92BF92CF92DF92EF92FF9278
:1010B000CF93DF9300D000D01F92CDB7DEB78091E1
:1010C000FF03909100040E94180840E06CEC8091AE
:1010D000FF03909100040E94C5074091F60364E469
:1010E0008091FF03909100040E94C5070E940A06A8
:1010F0006B017C018091FA0381111EC081E089831C
:10110000CA82DB82EC82FD8229813A814B815C813B
:101110006D8170E080E090E00F900F900F900F9045
:101120000F90DF91CF91FF90EF90DF90CF90BF9025
:10113000AF909F908F9008958091FB038823C1F01A
:101140008091F603811114C08091FF0390910004F7
:101150000E947207813091F20E940A066C197D0983
:101160008E099F096E3E72408105910568F3C6CFD6
:10117000E091F903E9508EEE92E0E33038F4F0E0CC
:10118000EE0FFF1FEA5FFE4F808191814C01B12C71
:10119000A12C8091F703882329F060E08091F80367
:1011A0000E940605C501B4010E94D7058091F7038E
:1011B000882309F4A3CF61E08091F8030E9406051B
:1011C0009DCF6F927F928F929F92AF92BF92CF925C
:1011D000DF92EF92FF920F931F93CF93DF938C01D7
:1011E000EB018091FF03909100040E94180888236E
:1011F00009F43FC0B8018091FF03909100040E9460
:10120000F90740E06EEB8091FF03909100040E948B
:10121000C5077E016E0189E0C80ED11C8E01A09029
:10122000FF03B090000488E0882E912C712C662476
:101230006394C5010E94720781117628660CE1E073
:101240008E1A9108B1F7F80171928F01CE16DF0660
:1012500031F78091FF03909100040E9418088130BB
:1012600041F4F70181917F01811105C0E017F10779
:10127000C1F790E008C068E0CE010E944E0791E0FF
:1012800028852813F6CF892FDF91CF911F910F91D9
:10129000FF90EF90DF90CF90BF90AF909F908F9096
:1012A0007F906F9008950F931F93CF93DF93CDB7E7
:1012B000DEB729970FB6F894DEBF0FBECDBF8C0105
:1012C000BE016F5F7F4F0E94E108882361F08D812E
:1012D000F80190819B3311F487FD0BC08F3359F0D7
:1012E00020F48F31A1F080E007C08F3591F08F3767
:1012F000D1F78CE001C08AE029960FB6F894DEBFE2
:101300000FBECDBFDF91CF911F910F91089589E05E
:10131000F3CF8BE0F1CF20919201260F3327331FBB
:1013200021323105ECF420912F03FC0190E080E0A4
:10133000243069F082E00895A09192012191AC01DE
:1013400040595E4FA40FB52FB11D2C9301968617FF
:1013500098F380919201680F6093920180E0089564
:1013600081E0089510922F0381E080932E03109264
:10137000090361E082E10E94060561E083E10E94C9
:101380000605E9EBF0E080818E7F808380818D7F90
:10139000808388E48093B80085E48093BC0008953E
:1013A000CF93DF9391E090936F018823B9F0C091C0
:1013B000B800D091BA008091BC008A7B8093BC00B9
:1013C00060E082E10E94060560E083E10E9406057C
:1013D0000E94B209D093BA00C093B800DF91CF91B8
:1013E0000895CF92DF92EF92FF920F931F93CF93C6
:1013F000DF93D091580381E0D13208F09CC0C091B6
:1014000057030E94B2056B017C0180912F0381116B
:101410006CC082E080932F0381E080932E038FEFD6
:1014200080932D0310922C03D0932B03A7E3B3E0FA
:10143000EBE0F3E080E0D8138DC010920A038091B6
:101440000A03CC0FC82BC0930A0380910903813093
:1014500009F084C0109209030E94B2056B017C015F
:1014600080910A038093BB008091310390913203F5
:10147000A0913303B0913403892B8A2B8B2BA1F0DD
:101480000E94B20500913103109132032091330381
:10149000309134036C197D098E099F0906171707CF
:1014A0002807390708F442C08091BC0083FDD8CFDB
:1014B00085EC8093BC000E94B2056B017C01809199
:1014C0002F03823009F44CC080912D038F3F09F423
:1014D00069C080912D03803209F466C080912D038C
:1014E000803309F463C084E026C080913103909179
:1014F0003203A0913303B0913403892B8A2B8B2BB9
:1015000009F483CF0E94B205009131031091320398
:1015100020913303309134036C197D098E099F09A2
:10152000061717072807390708F06FCF8091300397
:101530000E94D00985E01092360310925803109251
:101540003503DF91CF911F910F91FF90EF90DF90C6
:10155000CF9008959D9191938F5F6DCF85EEA9CF28
:101560008091310390913203A0913303B091340301
:10157000892B8A2B8B2B09F4A2CF0E94B2050091F4
:1015800031031091320320913303309134036C19ED
:101590007D098E099F09061717072807390708F0E4
:1015A0008ECFC4CF80E0C7CF82E0C5CF83E0C3CF6A
:1015B000089508950895E0916E0180916D01E817F6
:1015C00030F4F0E0E35BFE4F808190E008958FEF10
:1015D0009FEF089590916E0180916D012FEF3FEF85
:1015E000981748F4E92FF0E0E35BFE4F208130E0EC
:1015F0009F5F90936E01C901089580916D01909154
:101600006E01891B990B0895CF92DF92EF92FF92A2
:101610000F931F93CF93DF937C01CB018A0120911D
:101620003503222389F0EB016B01C40ED51ECC15C6
:10163000DD0569F06991D701ED91FC910190F08190
:10164000E02DC7010995F3CF642F0E948B09C801D3
:10165000DF91CF911F910F91FF90EF90DF90CF908E
:101660000895CF93DF931F92CDB7DEB769832091A2
:1016700035032223F9F020915803203258F021E05D
:1016800030E0FC013383228390E080E00F90DF9113
:10169000CF91089580913603E82FF0E0E95CFC4F8C
:1016A000998190838F5F809336038093580381E004
:1016B00090E0ECCF61E0CE0101960E948B09F7CF5C
:1016C000DF92EF92FF920F931F93CF93DF937C01F2
:1016D000D62E072F142FDC018D919C9121E02093B1
:1016E00035032CE3209357031092360310925803CE
:1016F000DC01ED91FC910190F081E02D60E0099515
:10170000CD2DD02F115070F0F70180819181FE0115
:101710006491DC01ED91FC910190F081E02D09953F
:101720002196F0CFDF91CF911F910F91FF90EF9015
:10173000DF900C94F109CF92DF92EF92FF920F931A
:101740001F93CF93DF9320912D0430912E0440916D
:101750002F045091300460E074E284EF90E00E9426
:10176000BF3A20513109410951095695479537959E
:1017700027952093B80046E065E878E08BE294E096
:101780000E94600BD0E0C0E0FF24F3942CE3E22E33
:1017900080912B0490912C04F0923503E092570332
:1017A0001092360310925803DC01ED91FC910190E8
:1017B000F081E02D60E409958E01035C1B4F6E0102
:1017C000BFE1CB0ED11CC115E2E0DE0790F48091A1
:1017D0002B0490912C042196D8016D918D01DC0190
:1017E000ED91FC910190F081E02D0995CC16DD067C
:1017F00051F70E94F109C115B2E0DB0748F22091D0
:10180000310430913204409133045091340460E04B
:1018100074E284EF90E00E94BF3A205131094109FF
:10182000510956954795379527952093B800DF9134
:10183000CF911F910F91FF90EF90DF90CF9008957F
:101840002FB7F89480914B0190914C01892B61F056
:1018500040914B0150914C0180E89CE0841B950B1A
:101860009093D0018093CF012FBF08952FB7F894A4
:101870008091CF019091D0018057944F9093D001E7
:101880008093CF012FBF08950E94A30420914901A6
:1018900030914A012817390771F0AC01421B530BF4
:1018A0009A0141E3429FC001439F900D1124893A60
:1018B00051E6950710F090E080E0089560E084E044
:1018C0000C94060560E086E00C9406052FB7F894AA
:1018D0006093930270939402809395029093960282
:1018E0002FBF08959091020181E0209100012913FA
:1018F00001C080E008959FB7F894209102012093E1
:101900000001809302019FBF0895882331F0109257
:101910003A0481E080933B04089581E080933A0487
:10192000F9CF24E630E0662311F024EF31E040E403
:101930005FE1421B530B4817590718F0820F931FA2
:10194000089580ED97E0089581E08093C10261E001
:1019500085E00E94060561E08BE00C9406058F92FD
:101960009F92AF92BF92EF92FF920F931F93CF93EC
:10197000DF93EC018091F3019091F4017A01E81A70
:10198000F90A8091FB019091FC018A01081B190B57
:101990004093FB015093FC016093FD017093FE01A5
:1019A00020E4E2162FE1F20620F04FE3E42E4FE1AF
:1019B000F42E9E01A4EAB5EB0E94063B6C507E4FCC
:1019C0008F4F9F4F38EE832E33E0932EA12CB12CF6
:1019D000A50194010E94BF3AD8010E941C3B6C50A3
:1019E0007E4F8F4F9F4FA50194010E94BF3A809177
:1019F000030290910402A0910502B0910602820FA9
:101A0000931FA41FB51F8093030290930402A09319
:101A10000502B093060280910702909108028C178C
:101A20009D0720F4D0930802C0930702B70190E00D
:101A300080E027E0660F771F881F991F2A95D1F74E
:101A400020E43FE140E050E00E94BF3A80910B0269
:101A5000821781F120930B02D0930D02C0930C02E8
:101A600081E0809310026091100270E080910C027E
:101A700090910D020E94973ACB0170930F026093F0
:101A80000E02F9016AEF843D20E3920720F462E33D
:101A900070E00E94973AED50FE4F668FC801DF91CB
:101AA000CF911F910F91FF90EF90BF90AF909F90BB
:101AB0008F90089580910C0290910D02C80FD91F4C
:101AC000D0930D02C0930C02809110028F5FC9CF9A
:101AD00080919102882349F080919202882329F015
:101AE0001092C80289E10C947B0C80E1FCCF80E06D
:101AF0000C947B0CE091CB02F0E0E154FE4F81812D
:101B0000803219F481E4818308959FEB980F993115
:101B100010F48F5FF8CF8A3511F480E3F4CF90EDA5
:101B2000980F9930B0F3893311F48DE2ECCF8D32F8
:101B300011F48EE2E8CF80E2E6CF0F931F93CF93AC
:101B4000DF93CDB7DEB729970FB6F894DEBF0FBE8F
:101B5000CDBF99E0ECE3F1E0DE01119601900D922A
:101B60009A95E1F7FB0199EC91939B01255F3F4F1B
:101B7000DF0190E29D93A217B307E1F78E010F5F9B
:101B80001F4FAB01475F5F4F9F01D8019D918D01B2
:101B9000D9019D939D01A417B507B9F78F5CDB01AF
:101BA0001A968C931A978091C2029091C3021C9648
:101BB0009C938E931B978091C1021D968C9380916C
:101BC000C4029091C502911192E02091CD02B4E03F
:101BD0002B9F90011124822B892BDB011E968C9365
:101BE0009B01215F3F4F80E0919189272E173F078E
:101BF000D9F7FB01878729960FB6F894DEBF0FBE91
:101C0000CDBFDF91CF911F910F910895603871057D
:101C100008F540325105F0F4FA01A3E0F595E79597
:101C2000AA95E1F7F695FE2FEE27F795E795E60FD3
:101C3000F71FBA016770772741E050E001C0440FF9
:101C40006A95EAF7E80FF91F96892130310519F4F2
:101C5000492B468B0895232B19F440954923F9CF3E
:101C60004927F7CF2F923F924F925F926F927F92C8
:101C70008F929F92AF92BF92CF92DF92EF92FF929C
:101C80000F931F93CF93DF933C014A015901190130
:101C900027E0220E311C93E0359427949A95E1F7C2
:101CA000EB012801460E571ED12CC12C10E000E09C
:101CB000F80183E0F595E7958A95E1F7EC0DFD1DB8
:101CC000E80DF91DE491C8018770992720E830E0FC
:101CD00002C0359527958A95E2F7C901F0E0E22325
:101CE000F923EF2B49F09701AE01B801660D771D7E
:101CF00087E294E00E94060E0F5F1F4FA016B10608
:101D0000B9F6C20CD31C2196C415D50579F6DF911E
:101D1000CF911F910F91FF90EF90DF90CF90BF90E8
:101D2000AF909F908F907F906F905F904F903F907B
:101D30002F900895AF92BF92CF92DF92EF92FF92D1
:101D40000F931F93CF93DF936C015B01E9011C1686
:101D50001D0664F47A018FEFE81AF80A9801B501BC
:101D6000C6010E94060E2197A701F1CFDF91CF9106
:101D70001F910F91FF90EF90DF90CF90BF90AF90A9
:101D800008954F925F926F927F928F929F92AF923F
:101D9000BF92CF92DF92EF92FF920F931F93CF9358
:101DA000DF93EC015B016A01490128013701F12C45
:101DB000E12CE814F9046CF4B7016A0D7B1D830172
:101DC0009201A601CE010E949A0E8FEFE81AF80A3E
:101DD000F0CFDF91CF911F910F91FF90EF90DF90A7
:101DE000CF90BF90AF909F908F907F906F905F90BB
:101DF0004F9008952F923F924F925F926F927F92F1
:101E00008F929F92AF92BF92CF92DF92EF92FF920A
:101E10000F931F93CF93DF9300D000D0CDB7DEB7E1
:101E20009C838B83DC0152968C91B6E08B9F900152
:101E30001124EB81FC8195899923D1F04685578542
:101E4000420F531F413851059CF00088F189E02D65
:101E5000AB81BC811F961C921E921E97B8E08B9F8F
:101E6000A00111244E0F5F1FEB81FC81518B408B31
:101E7000AB81BC811E96CD90DC90B0E8CB16D1042E
:101E80000CF08CC0EB81FC81A088B188F0E2AF1629
:101E9000B1040CF083C02C0D3D1D121613060CF07E
:101EA0007DC028E0829FC00111248A0D9B1D181659
:101EB00019060CF073C080EE860F803408F095C0D0
:101EC0006052770B25E0269FC001279F900D1124BB
:101ED0002601912C812CDC01A25BBB4FBA83A98324
:101EE000E981FA81E80DF91DE491712C612C2E2E07
:101EF000312C8E2F8170E0FF8AC0EB81FC81E3885A
:101F0000F12C811106C0EB81FC819489838998179B
:101F100081F0AB81BC8152962C915297213009F00F
:101F20007BC09701A501460D571DB201CD010E944E
:101F3000060EF101F595E795BFEF6B1A7B0AF8E005
:101F40006F167104A1F62FEF821A920A3FEF431A1F
:101F5000530A85E08816910409F0C2CFAB81BC8199
:101F60005496EC90549753968C915397E816B1F091
:101F700052968C91F12C282F30E0890193E0000FCC
:101F8000111F9A95E1F7B601B5E08B9F600D711DA9
:101F90001124A5018B819C810E94C10EEB81FC81E3
:101FA000228986859785F6E02F9F800D911D11244B
:101FB000AB81BC811F969C938E931E970F900F90C0
:101FC0000F900F90DF91CF911F910F91FF90EF90A5
:101FD000DF90CF90BF90AF909F908F907F906F9049
:101FE0005F904F903F902F90089580E491E0633789
:101FF00009F46ECF85E491E0683F09F469CF8AE483
:1020000091E06E3709F464CF8BE990E061CFAB814A
:10201000BC815496EC9074CF30E0269DA001279DA2
:10202000500D369D500D11244A0D5B1D289DB001A9
:10203000299D700D389D700D11246C0D7D1D890139
:102040008B819C810E94C10E74CFFC016A3081F4A7
:1020500017861686828998E0899F900111248089CD
:102060009189820F931F918B808B81E090E008957E
:102070006D30D9F30E94FA0EF8CFEF92FF920F93D2
:102080001F93EE24E394F12C0CE110E028E130E002
:102090004AEF53E062E070E090E080E00E94320E90
:1020A0000AE010E020E330E04EEB53E06BE070E03C
:1020B00088E290E00E94320E0CE110E028E030E06F
:1020C00042EA53E062E070E080E790E00E94320E66
:1020D00002E010E028E530E043E050E068E170E025
:1020E00087E294E00E94C10E28E530E04BE150E029
:1020F00068E170E087E294E00E94C10E1F910F91A9
:10210000FF90EF900895089590E080E00895BF92C9
:10211000CF92DF92EF92FF920F931F93CF93DF93B3
:10212000EC01B62EC72E8D85811105C0CE010E940F
:10213000180881110EC01B861D861C8680E0DF9169
:10214000CF911F910F91FF90EF90DF90CF90BF90B4
:10215000089540E060EFCE010E94C50701E0E12C48
:10216000D12C11E0CE010E947207F82ECE010E9400
:10217000720791E0F91218C0813099F51134D8F244
:10218000DB86D11002C081E08D878B81882399F294
:102190002396EB2DFC2DCF01089629912193E8176A
:1021A000F907D9F781E0CBCFEE2DF0E0F8120FC0A0
:1021B0008B851817A0F4DE01AE0FBF1F13968C910C
:1021C000802379F4F12C193008F41C87D12EEC0F00
:1021D000FD1F8381902F9095892383830AC08113EB
:1021E000F1CFFE01EE0DF11D8381802B8383FF244F
:1021F000F3946F2DCE010E9496071F5F000F11F41C
:10220000E39401E087E08E1508F0ACCFB7CF61E032
:1022100089E00E94760585E090E00E94340561E047
:102220008AE00C94060561E089E00E9476058FE063
:1022300090E00E94340560E08AE00C940605EDE32E
:10224000F4E080E092E0DF019C011D9221503040DB
:10225000E1F708950E941F11E7E2F4E081E0828B2C
:10226000838B848B0895E3EFF1E060837183828335
:10227000938364837583868397836087718782875E
:1022800093876487758786879787108A118A128A51
:10229000138A158A148A178A168A8FEF808F128EF6
:1022A000118E148E138E158EE1E1F2E080E8DF01CD
:1022B0001D928A95E9F71092910240939202089537
:1022C000FB0101900020E9F73197AF01461B570B46
:1022D000DC01ED91FC910280F381E02D09948F9255
:1022E0009F92AF92BF92EF92FF920F931F93CF9363
:1022F000DF93CDB7DEB7A1970FB6F894DEBF0FBE60
:10230000CDBF7C01FA01CB0119A2223008F42AE0EA
:102310008E010F5D1F4F822E912CB12CA12CBF017D
:10232000A50194010E94BF3AF901CA016A300CF577
:10233000605DD8016E938D01232B242B252B79F71B
:1023400090E080E0109721F0BD01C7010E9460116C
:10235000A1960FB6F894DEBF0FBECDBFDF91CF912F
:102360001F910F91FF90EF90BF90AF909F908F9033
:102370000895695CDECF462F50E070E060E02AE00F
:102380000C946F11CF92DF92EF92FF920F931F93F5
:10239000CF93DF936B01072E000CEE08FF0877FF49
:1023A0001BC0EC016DE20E9416068C0144275527E4
:1023B000BA014C195D096E097F092AE0CE010E941D
:1023C0006F11800F911FDF91CF911F910F91FF909F
:1023D000EF90DF90CF9008952AE0B701A601DF913A
:1023E000CF911F910F91FF90EF90DF90CF900C94C1
:1023F0006F11CF92DF92EF92FF920F931F93CF93C3
:10240000AC012AE030E0DC010E94153B00E410E062
:1024100020E030E057FF04C000EC1FEF2FEF3FEF4C
:10242000600F711F821F931F20E830E040E050E0F2
:102430000E94E13A6901890188279927821B930B41
:1024400037FFC9016AE070E00E94AB3AC82F87EFFE
:10245000C8168FEFD80628F06DE287E294E00E945C
:10246000FA0EC8016AE070E00E94AB3A87E294E09D
:102470000E94C2116EE287E294E00E94FA0E6C2F75
:1024800087E294E0CF911F910F91FF90EF90DF9042
:10249000CF900C94BB11282F8091F502882311F165
:1024A000CB0148E350E0509336044093350430E0CC
:1024B00030933804209337040E94F91168EF87E2C3
:1024C00094E00E94160663E487E294E00E94FA0E0C
:1024D0008091D702882331F060E673E087E294E0D0
:1024E0000C941D060895242FAB0170E060E00C945D
:1024F0006F11EF92FF920F931F93CF93DF93C1E081
:10250000C0933904F12CE12C08E010E020E830E021
:1025100048E150E070E060E0882301F187E294E058
:102520000E94C10E109236041092350488E190E0AA
:102530009093380480933704C0933A04C0933B04CB
:1025400067E973E087E294E00E941D06DF91CF9176
:102550001F910F91FF90EF900C949B0B87E294E0FA
:102560000E94C10E109236041092350408E110E06A
:10257000109338040093370410923A04C0933B043C
:1025800067E877E087E294E00E941D06C0933A0472
:10259000C0933B0463E973E087E294E00E941D0668
:1025A0008091070290910802C8EED3E0BE010E941C
:1025B000973A4AE050E087E294E00E9473126EE29C
:1025C00087E294E00E94FA0E80910702909108023F
:1025D000BE010E94973A64E670E00E94973A4AE092
:1025E00050E087E294E00E94731261E487E294E095
:1025F0000E94FA0E8CE590E09093360480933504A7
:10260000109338040093370460E973E087E294E0A4
:102610000E941D06209103023091040240910502A0
:1026200050910602A0E5B0E00E941C3B6E5C7F4F1B
:102630008F4F9F4F24E630E040E050E00E94BF3AC9
:10264000CA01B9016C507E4F8F4F9F4F28EE33E087
:1026500040E050E00E94BF3AB9014AE050E087E212
:1026600094E00E94731272CF4F925F926F927F92AA
:10267000AF92BF92CF92DF92EF92FF920F931F9390
:10268000CF93DF9383EFC82E81E0D82EF601208907
:10269000318942895389A0E5B0E00E941C3B6E5C01
:1026A0007F4F8F4F9F4F24E630E040E050E00E9484
:1026B000BF3ACA01B9016C507E4F8F4F9F4F28EE31
:1026C00033E040E050E00E94BF3A2901C7E2D4E085
:1026D00081E08A8B8B8B8C8BF12CE12C08E010E055
:1026E0002AE230E048E150E06AE270E0CE010E9468
:1026F000C10E8AE290E09F878E8798E1A92EB12CC7
:10270000B98AA88A6AE673E0CE010E941D06F60126
:10271000838D948D08EE13E0B8010E94973A4AE049
:1027200050E0CE010E9473126EE2CE010E94FA0EBA
:10273000F601838D948DB8010E94973A64E670E0AB
:102740000E94973A4AE050E0CE010E94731261E481
:10275000CE010E94FA0E08E010E024E230E048E1E9
:1027600050E06CE570E0CE010E94C10E8CE590E077
:102770009F878E87B98AA88A67E673E0CE010E9498
:102780001D064AE050E0B201CE01DF91CF911F91CA
:102790000F91FF90EF90DF90CF90BF90AF907F9020
:1027A0006F905F904F900C9473128F929F92AF92A4
:1027B000BF92CF92DF92EF92FF92CF93DF9328EEFA
:1027C00033E040E050E00E94BF3A49016B01EB0169
:1027D0002AE0BA01A40189E593E00E946F116EE23C
:1027E00089E593E00E94E106C436D10560F460E318
:1027F00089E593E00E94E1062A9728F460E389E5E1
:1028000093E00E94E1064AE050E0B60189E593E0DA
:10281000DF91CF91FF90EF90DF90CF90BF90AF907E
:102820009F908F900C9473120F931F93CF93DF930D
:10283000EC010E941D068C0165E471E0CE010E944E
:102840006011800F911FDF91CF911F910F9108951B
:10285000EF92FF920F931F93CF93DF937C018B0135
:102860000E941F11C7E2D4E082E08A8B1F861E8679
:10287000198A188AB701CE010E9414141F861E8679
:1028800080E190E0998B888BB801CE010E941414EE
:10289000DF91CF911F910F91FF90EF900C949B0BC4
:1028A000282F862F48E350E0509336044093350498
:1028B00030E030933804209337040E94850C8091D7
:1028C000C10267E573E0813031F06DE473E082307E
:1028D00011F064E473E087E294E00E94141481E054
:1028E00080933A0480933B040895CF92DF92EF9255
:1028F000FF928091EE01882309F442C18091EF019B
:1029000081115AC10E940A062091F3013091F4010D
:10291000621B730B61342FE1720708F020C17093C2
:102920000A026093090281E090910B029F3F09F433
:1029300080E080939102109292028093EF01C09008
:10294000DD01D090DE01E090DF01F090E001C114E4
:10295000D104E104F104A9F02091D9013091DA0108
:102960004091DB015091DC01A4E6B0E00E941C3BE9
:10297000A70196010E94BF3A253631054105510550
:1029800020F024E630E040E050E084E6821B8093B3
:10299000ED01C090E101D090E201E090E301F09000
:1029A000E401C114D104E104F10409F4DFC0209171
:1029B0000302309104024091050250910602A4E600
:1029C000B0E00E941C3BA70196010E94BF3AC901DA
:1029D000DA01883E23E09207A105B10520F087EED9
:1029E00093E0A0E0B0E09093E8018093E70140918C
:1029F000E5015091E6014115510509F4BCC0209153
:102A0000070230910802A4E6B0E00E94063B9A015A
:102A100050E040E00E94BF3AC901DA01883E23E05D
:102A20009207A105B10520F087EE93E0A0E0B0E0A9
:102A30009093EA018093E90165EB72E089E593E008
:102A40000E941D066091EC0170E06F5F7F4F89E589
:102A500093E00E94C21169EA72E089E593E00E9466
:102A60001D066091ED0189E593E00E94BB116CE9C0
:102A700072E089E593E00E941D066091E701709184
:102A8000E8014AE050E089E593E00E94731261E9B1
:102A900072E089E593E00E941D066091E901709162
:102AA000EA014AE050E089E593E00E94731267E38F
:102AB00077E089E593E00E941D0660910302709122
:102AC000040280910502909106020E94D51365EEE2
:102AD00072E089E593E00E941D0620910302309187
:102AE00004024091050250910602A0E5B0E00E9468
:102AF0001C3B6E5C7F4F8F4F9F4F24E630E040E0E1
:102B000050E00E94BF3ACA01B9010E94D51364ED9A
:102B100072E089E593E00E941D064AE050E060E51E
:102B200070E089E593E00E94731267E872E089E53E
:102B300093E00E941D0660910702709108024AE02E
:102B400050E089E593E00E94731265E471E089E545
:102B500093E0FF90EF90DF90CF900C94601180E4B1
:102B60009FE190930A0280930902DDCE20E030E0DD
:102B700040E050E02CCF20E030E040E050E04CCF8F
:102B80000E940A062091F3013091F401621B730B3D
:102B900061348FE17807A8F470930A026093090208
:102BA00081E090910B029F3F09F480E080939102B5
:102BB000109292021092EF01FF90EF90DF90CF9071
:102BC000089580E49FE190930A0280930902E8CF80
:102BD000CF93C82F0E94620C0E945E0C0E940A06CE
:102BE0002091F3013091F401621B730B61348FE18A
:102BF000780708F078C070930A026093090281E0B8
:102C000090910B029F3F09F480E0809391026CE069
:102C100073E0C11102C06AEF72E089E593E00E949F
:102C20001D066091090270910A024AE050E089E5B0
:102C300093E00E94731267E377E089E593E00E94D6
:102C40001D0660910302709104028091050290912B
:102C500006020E94D51365EE72E089E593E00E94BA
:102C60001D0620910302309104024091050250910B
:102C70000602A0E5B0E00E941C3B6E5C7F4F8F4FC8
:102C80009F4F24E630E040E050E00E94BF3ACA0186
:102C9000B9010E94D51364ED72E089E593E00E94CA
:102CA0001D064AE050E060E570E089E593E00E948F
:102CB00073126AEC72E089E593E00E941D06609150
:102CC0000702709108024AE050E089E593E00E9413
:102CD000731265E471E089E593E00E94601183E17D
:102CE000CF910C947B0C80E49FE190930A02809337
:102CF000090285CF85ED8093BC00809131039091CE
:102D00003203A0913303B09134030796A11DB11D86
:102D100023E0B695A795979587952A95D1F72091A9
:102D2000BC0024FD03C010922F030895409131038D
:102D3000509132036091330370913403452B462B3D
:102D4000472B69F30097A105B10541F02AE22A95C6
:102D5000F1F700C00197A109B109E1CF80913003DB
:102D60000C94D0091F93CF93DF93EC01162F0E9490
:102D7000753A181739F0612FCE01DF91CF911F916D
:102D80000C947D3ADF91CF911F9108958093C502F5
:102D900060E0882351F00E94A40C1092C40260E00D
:102DA00081E090E00E94B21661E083E090E00C9434
:102DB000B2160F931F93CF93DF93072F142F93E037
:102DC000899FE0011124CE0180569F4F0E94B216C8
:102DD000602FCE018F559F4F0E94B216612FCE01FA
:102DE0008E559F4FDF91CF911F910F910C94B2168A
:102DF000CF92DF92EF92FF920F931F93CF93DF93C7
:102E0000CDB7DEB760970FB6F894DEBF0FBECDBF6B
:102E1000082F10E00F5F1F4F94E0000F111F9A95CD
:102E2000E1F780E1FB01DE01119601900D928A9598
:102E3000E1F789EC89836E0182E0C80ED11C9E0106
:102E4000205F3F4FF60180E091918927E217F30759
:102E5000D9F7888B60E0C8010E94B216EE24E39493
:102E6000F12CF60161916F01C8018E0D9F1D0E942A
:102E7000B216FFEFEF1AFF0A80E1E816F10489F7B6
:102E800069ECC80160960FB6F894DEBF0FBECDBFE7
:102E9000DF91CF911F910F91FF90EF90DF90CF9036
:102EA0000C94B2160C94753ACF92DF92EF92FF9287
:102EB0001F93CF93DF93883008F05DC098E4899F1B
:102EC000E0011124CE0180549F4F0E945217883D8B
:102ED00009F051C06E0181ECC80ED11C11E0F12C3B
:102EE000C6010E945217113418F48B3F08F043C0FA
:102EF000F8261F5F9FEFC91AD90A173489F7CE0148
:102F0000895F9E4F0E9452178F1135C0CE018F5F8F
:102F10009E4F0E945217E82ECE018E5F9E4F0E9458
:102F20005217F82ECE018D5F9E4F0E945217C82E69
:102F3000CE018C5F9E4F0E945217182FCE018B5FDF
:102F40009E4F0E945217D82ECE018A5F9E4F0E943C
:102F5000521795EDE91690E3F90668F4312F2C2D00
:102F60002031374240F4382F2D2D2150310981E096
:102F700020343F4108F080E0DF91CF911F91FF9016
:102F8000EF90DF90CF90089570E06F537F4F9B01DB
:102F900048E4849F200D311D1124C9010C9452175F
:102FA0006F927F928F929F92AF92BF92CF92DF9259
:102FB000EF92FF920F931F93CF93DF93E82E0E941F
:102FC0001F11EE2051F1D0E0C0E03FE1F32E4AEFB7
:102FD000842E912CA12CB12C0FE110E06C2F80914C
:102FE000EC010E94C4178F9DC0011124BC0190E028
:102FF00080E0A50194010E94BF3AA801421B530B37
:10300000BE01660F771F21E030E087E294E00E9466
:10301000060E2196C034D10509F780910B028F3F2F
:1030200009F455C020911102CFE130E0AC2FB0E09F
:103030000E94063B2AEF30E040E050E00E94BF3A99
:10304000C21BF12C8FE1782E9AEF892E912CA12CA6
:10305000B12C6624639480910B028F15C0F1CF2CA4
:10306000D12CF601ED50FE4F268D30E0A72DB0E0BB
:103070000E94063BA50194010E94BF3AD72DD21BA6
:103080004D2F50E021E030E0B60187E294E00E944D
:10309000060EEE20B1F0FF20A1F04D2FCD1708F461
:1030A0004C2FCD1788F4262D2C1BC22FCD0F2C2F83
:1030B00030E050E001E010E0B60187E294E00E94C9
:1030C0009A0EF394CD2FC7CFCF5FCD1BF0CFDF91FA
:1030D000CF911F910F91FF90EF90DF90CF90BF9015
:1030E000AF909F908F907F906F900895CF92DF92D6
:1030F000EF92FF920F931F93CF93DF93D82EEB01A4
:10310000C090EF018C2D0E94D017D1100CC00E94EE
:103110003413DF91CF911F910F91FF90EF90DF90CB
:10312000CF900C949B0BF12CE12C08E010E020E8F0
:1031300030E048E150E070E060E087E294E00E9417
:10314000C10E81E08093390480933A0480933B045C
:10315000109236041092350488E190E09093380480
:1031600080933704CC2059F16DE487E294E00E940B
:10317000FA0E6091ED0187E294E00E94BB116CE8C9
:1031800073E087E294E00E941D066091E701709170
:10319000E8014AE050E087E294E00E9473128091D7
:1031A000EF0191E0D91235C062E873E0811102C0ED
:1031B0006CE773E087E294E00E941D06AACF69E8FD
:1031C00073E087E294E00E941D0620910302309193
:1031D00004024091050250910602A0E5B0E00E9471
:1031E0001C3B6E5C7F4F8F4F9F4F24E630E040E0EA
:1031F00050E00E94BF3ACA01B9016C507E4F8F4F18
:103200009F4F28EE33E040E050E00E94BF3AB90102
:10321000C0CF64E773E0811102C06DE673E087E21E
:1032200094E00E941D06CE0168EE73E00E94973A7A
:10323000EC014AE050E087E294E00E9473126EE2F3
:1032400087E294E00E94FA0ECE0164E670E00E94EC
:10325000973A4AE050E087E294E00E94731263E7F5
:1032600087E294E00E94FA0E54CF80E00E94D017CB
:103270000E9434130C949B0B0E94620C0E945E0C03
:103280000E9435190E9407110E940A0668577C4E59
:103290008F4F9F4F0E94660C62E373E089E593E0D5
:1032A0000E94141482E10C947B0C8F929F92AF9237
:1032B000BF92CF92DF92EF92FF92CF93DF936A019A
:1032C0000E94AF0CEC018091F3019091F401C81AB7
:1032D000D90A20E4C2162FE1D20620F04FE3C42E13
:1032E0004FE1D42EF12CE12CC701B60136E0660F78
:1032F000771F881F991F3A95D1F720E43FE140E0FE
:1033000050E00E94BF3A622F8091EB010E94C417E7
:10331000482F80910E0290910F026AEF843D20E3C6
:10332000920720F462E370E00E94973A461708F093
:1033300083C0641B22E3429F70011124262F30E0DA
:10334000DE010E94063B8090D9019090DA01A090A6
:10335000DB01B090DC01DC01CB01880D991DAA1DB9
:10336000BB1D8093D9019093DA01A093DB01B09348
:10337000DC01242F30E0DE010E94063B8090DD015D
:103380009090DE01A090DF01B090E001DC01CB0164
:10339000880D991DAA1DBB1D8093DD019093DE0150
:1033A000A093DF01B093E0019701A4EAB5EB0E947E
:1033B000063B6C507E4F8F4F9F4F28EE822E23E0AE
:1033C000922EA12CB12CA50194010E94BF3ADE01DE
:1033D0000E941C3B6C507E4F8F4F9F4FA501940164
:1033E0000E94BF3A8091E1019091E201A091E30136
:1033F000B091E401820F931FA41FB51F8093E101D8
:103400009093E201A093E301B093E4018091E50180
:103410009091E6018E159F0520F4F092E601E0926E
:10342000E501DF91CF91FF90EF90DF90CF90BF90BB
:10343000AF909F908F900895842F861B682F7ACF2E
:10344000CF92DF92EF92FF920F931F93CF93DF9370
:10345000CDB7DEB729970FB6F894DEBF0FBECDBF4C
:1034600080913D068A3519F08DE180933F06809169
:103470003F06809340068AE580933D068091810057
:10348000887F85608093810082E090E00E945217DF
:10349000843A51F060E081E090E00E94B21664EA64
:1034A00082E090E00E94B21684E090E00E94521701
:1034B0008C3351F060E083E090E00E94B2166CE340
:1034C00084E090E00E94B2161092B0001092B10019
:1034D0001092B2008AE08093B3008091B0008260C5
:1034E0008093B0008091B10084608093B10080919E
:1034F000B10082608093B1008091700082608093FF
:10350000700062E082E00E94760562E083E00E9443
:10351000760562E080E10E94760561E086E00E9427
:10352000760561E084E00E94760561E08BE00E9410
:10353000760561E087E00E94760561E08AE00E94FE
:10354000760561E089E00E94760561E08CE00E94EA
:10355000760561E08DE00E94760561E085E00E94DD
:10356000760561E08DE00E94060560E085E00E943E
:1035700006050E9413110E945E0C60E08BE00E9421
:1035800006050E94620C60E087E00E9406050E942A
:103590001311E0916903F0916A0312E01083E09146
:1035A0006503F09166031082E0916703F091680370
:1035B00080E1808310927103E0916D03F0916E03BE
:1035C00086E08083E0916B03F0916C0380818061E1
:1035D0008083E0916B03F0916C038081886080832D
:1035E000E0916B03F0916C03808180688083E091AF
:1035F0006B03F0916C0380818F7D808368EC70E0B9
:1036000080E090E00E94D7050E941F1110926E0189
:1036100010926D0110923603109258030E94B20965
:1036200088ED9AE0909391018093900189ED9AE062
:103630009093950180939401C12C44E2D42E44EFE1
:10364000E42EF12C20912D0430912E0440912F0472
:1036500050913004C701B6010E94BF3A2051310990
:103660004109510956954795379527952093B800FC
:103670004AE161EC70E08BE294E00E94600B2091E3
:103680003104309132044091330450913404C70125
:10369000B6010E94BF3A205131094109510956959E
:1036A0004795379527952093B8000E941F111093D6
:1036B000390481E080933A0480933B0410923604ED
:1036C0001092350410923804109237040E943D1075
:1036D0000E949B0B60ED77E080E090E00E94D705B0
:1036E0000E941F110E943D10E2E0EE2EF12C0AE034
:1036F00010E020E530E043E252E06BE070E088E16A
:1037000090E00E94320E0E949B0B60ED77E080E01B
:1037100090E00E94D705F5E1DF2E0E941F11EE24F4
:10372000E394F12C03E110E028E530E042E551E0BC
:1037300066E070E080E190E00E94320E0E949B0BF8
:1037400064E670E080E090E00E94D7050E941F11BF
:1037500028E530E042E551E066E070E080E190E08D
:103760000E94320E32E0E32EF12C01E110E028E35A
:1037700030E04BED50E067E070E088E290E00E94BE
:10378000320E0E949B0B64E670E080E090E00E94A5
:10379000D705DA94D110C1CF0E941F1113E001E0C8
:1037A0008091FF03909100040E9465071092FD0331
:1037B0001092FE0362E370E080E090E00E94D70583
:1037C000BE016F5F7F4F8091FF03909100040E94C4
:1037D0008710882309F45FC067E0CE0101960E943C
:1037E0004E0798858913ECCF8091FD038F5F8093FE
:1037F000FD038981883231F008F044C0803111F036
:103800008232F1F68091FE038F5F8093FE038091F8
:10381000F603811128C08091FF03909100040E945B
:103820001808BE016F5F7F4F8091FF0390910004E5
:103830000E94F90740E064EB8091FF03909100043F
:103840000E94C5078091FF03909100040E947207B7
:10385000F82E8091FF03909100040E941808F11047
:1038600002C00093F6038981803199F0CE01019660
:103870000E9453099091F903981708F0A1CF809303
:10388000F9039ECF8B3309F4BDCF823409F098CF72
:10389000B9CF8CE0EFCF8091FD03811103C01150AF
:1038A00009F07ECF8093F50290E1F92E0E94A304E7
:1038B0000091490110914A01080F191F10934A0104
:1038C000009349016AE070E080E090E00E94D70533
:1038D000FA94F110EBCF84E0169507958A95E1F7FD
:1038E00010934A0100934901093C110518F081E049
:1038F0008093F80290E080E00E94521724E6829FB5
:10390000C00111249C01205D37402137374108F464
:1039100004C180ED97E09093C3028093C20264E1FA
:1039200090E080E00E94B21681E090E00E94521781
:1039300091E0813009F090E09093C40283E090E040
:103940000E94521791E0813009F090E09093C502F7
:103950001092C6021092C7021092C8021092C902B9
:103960001092CA021092CB021092CC021092CD0299
:103970001092CF021092CE029AE09093D002109251
:10398000B902813011F40E94C6168091FD0388238C
:10399000A9F08091FF03909100040E94650767EBF6
:1039A00071E08091FF03909100040E9487108823AA
:1039B00029F067E087EB91E00E944E078091B70104
:1039C000803109F46FC0BE016F5F7F4F87EB91E0DC
:1039D0000E94E108882309F4C1C08D818F3109F468
:1039E00061C08FE18D838091FF03909100040E945C
:1039F000180867EB71E08091FF03909100040E942A
:103A0000F90740E06EE48091FF03909100040E946A
:103A1000C50740E06B818091FF03909100040E94F4
:103A2000C50740E06C818091FF03909100040E94E3
:103A3000C5078091B701803141F040E06D818091F0
:103A4000FF03909100040E94C5078091FF039091AD
:103A500000042091FC03222319F10E9418088823F6
:103A600009F167EB71E08091FF03909100040E94DF
:103A7000F9074091F60368E48091FF0390910004F8
:103A80000E94C5078091F60381114CC064E170E08B
:103A900080E090E00E94D7058091FF0390910004A0
:103AA0000E94180889E08093F9038091FD03823019
:103AB00008F454C08091FF03909100040E946507B0
:103AC00010E08091FD03181708F048C08091F903B9
:103AD0008C3009F443C0BE016F5F7F4F8091FF03BC
:103AE000909100040E9487108823A9F067E0CE011E
:103AF00001960E944E07988589130DC089818031F7
:103B000059F1CE0101960E9453099091F90398173B
:103B100010F48093F9031F5FD4CF9093C302809376
:103B2000C20202CF8091F703882329F060E08091E0
:103B3000F8030E94060564E170E080E090E00E94D6
:103B4000D7058091F703882309F4A6CF61E080911F
:103B5000F8030E940605A0CF8CE0D7CF0E94500842
:103B600029833A834B835C836D831092FA0368E761
:103B700070E080E090E00E94D70588E19DE00FB6FC
:103B8000F894A895809360000FBE9093600061E068
:103B900085E00E94060529960FB6F894DEBF0FBE99
:103BA000CDBFDF91CF911F910F91FF90EF90DF90EC
:103BB000CF900895CF92DF92EF92FF920F931F93D1
:103BC000CF93DF93883010F080E039C08B01C82F8D
:103BD000D0E0219684E0CC0FDD1F8A95E1F76B01E0
:103BE00020E1C20ED11C7B01C61BD70BCE018E0D6E
:103BF0009F1D0E94753AF70181937F01EC15FD0529
:103C0000A9F7F8018081893CF9F6978531969801EA
:103C1000215F3F4F80E041918427E217F307D9F7F6
:103C20009813D2CFF80183859485805D97408137C2
:103C3000974150F681E0F8019585933028F6DF91A1
:103C4000CF911F910F91FF90EF90DF90CF9008954B
:103C50001F920F920FB60F9211242F933F938F93C1
:103C60009F93AF93BF938091010390910203A09122
:103C70000303B09104033091000323E0230F2D3799
:103C800058F50196A11DB11D2093000380930103F7
:103C900090930203A0930303B09304038091050360
:103CA00090910603A0910703B09108030196A11D0E
:103CB000B11D8093050390930603A0930703B0936F
:103CC0000803BF91AF919F918F913F912F910F90DA
:103CD0000FBE0F901F90189526E8230F0296A11D86
:103CE000B11DD2CF1F920F920FB60F9211242F93B6
:103CF0003F934F935F936F937F938F939F93AF9374
:103D0000BF93EF93FF9389E593E00E94BF06FF9175
:103D1000EF91BF91AF919F918F917F916F915F9143
:103D20004F913F912F910F900FBE0F901F901895BC
:103D30001F920F920FB60F9211242F938F939F9380
:103D4000EF93FF93E0916903F0916A038081E09122
:103D50006F03F091700382FD1BC09081809172030C
:103D60008F5F8F7320917303821741F0E09172038C
:103D7000F0E0E75AFC4F958F80937203FF91EF912B
:103D80009F918F912F910F900FBE0F901F901895BC
:103D90008081F4CF1F920F920FB60F9211242F93B0
:103DA0003F934F935F936F937F938F939F93AF93C3
:103DB000BF93EF93FF938091B900887F803609F419
:103DC0004AC0F0F5883209F4A7C018F5803109F42B
:103DD0009BC0B8F4882309F4F9C0883009F494C072
:103DE000FF91EF91BF91AF919F918F917F916F91D3
:103DF0005F914F913F912F910F900FBE0F901F90A9
:103E00001895883109F488C0803251F780932D03CA
:103E100014C0803409F49DC040F48033B9F3883372
:103E2000F9F680932D0385ECB0C0803509F485C088
:103E3000883509F496C0883499F60E947A16D0CF56
:103E4000883909F48CC038F5883729F050F4883661
:103E500011F0803729F683E080932F031092B6018A
:103E600057C0883809F47BC0803919F0803809F0D0
:103E7000B7CF8091B601803208F071C0E091B601F1
:103E800081E08E0F8093B6018091BB00F0E0EA568E
:103E9000FE4F80833DC0803B39F0E0F4803A09F466
:103EA00079C0883A09F09CCF84E080932F03109268
:103EB000930110929201E0919001F0919101099586
:103EC0008091920181110FC081E080939201109244
:103ED000700109C0803C09F4A6CF883C09F4A3CF47
:103EE000883B09F07DCFE091930181E08E0F8093B4
:103EF0009301F0E0E059FE4F80818093BB009091E8
:103F000093018091920129C080910A038093BB00A4
:103F100085EC8093BC0064CF90912C0380912B039F
:103F2000981758F5E0912C0381E08E0F80932C03B5
:103F3000F0E0E55FFC4F8081E9CFE0912C0381E068
:103F40008E0F80932C038091BB00F0E0E55FFC4F67
:103F5000808390912C0380912B039817C8F285E8F9
:103F6000D8CFE0912C0381E08E0F80932C038091B9
:103F7000BB00F0E0E55FFC4F808380912E03811150
:103F80005CCF81E08093090384EA8093BC001092A7
:103F90002F0326CF85EC8093BC0010922F038091D5
:103FA000B601803230F4E091B601F0E0EA56FE4FFF
:103FB00010826091B60170E0E0919401F09195015A
:103FC00086E991E009951092B6010ACF10922D036F
:103FD00034CF1F920F920FB60F9211240F931F939D
:103FE0002F933F934F935F936F937F938F939F9301
:103FF000AF93BF93EF93FF938091CF019091D00146
:10400000892B09F46DC080914801882309F468C0A8
:1040100061E08CE00E9406051092480180914B01FE
:1040200090914C01019680389C4008F444C0109255
:104030004C0110924B0180914B0190914C018036C4
:10404000944008F042C087E08093B3008091CF0194
:104050009091D00101979093D0018093CF018091EE
:104060000201823021F080910201813189F40E94A5
:104070000A060091930210919402209195023091CA
:104080009602601B710B820B930B97FF0E94620CD0
:10409000FF91EF91BF91AF919F918F917F916F9120
:1040A0005F914F913F912F911F910F910F900FBEF4
:1040B0000F901F90189580914B0190914C010196A3
:1040C00090934C0180934B01B6CF80914B0190911E
:1040D0004C018032984010F482E3B6CF8AE0B4CF2E
:1040E00060E08CE00E94060581E080934801B7CF34
:1040F0002F923F924F925F926F927F928F929F92F8
:10410000AF92BF92CF92DF92EF92FF920F931F93E5
:10411000CF93DF93CDB7DEB769970FB6F894DEBFC4
:104120000FBECDBF582E2091B20288EE93E0289F9B
:104130008001299F100D11248091B302980144E65B
:10414000849F200D311D11240091B502020F132F01
:10415000111D8091B4029AE0899F000D111D112458
:10416000BE016F5F7F4F852D0E94DA1D811106C051
:10417000BE016F5F7F4F852D0E949D0D2091AD0286
:104180008091AE029091AF02222321F08091B00283
:104190009091B1029D878C878F85837FE4E02E9F6D
:1041A00090011124822B8F87BE016F5F7F4F852D79
:1041B0000E94F8164091B602B801852D0E94D916CA
:1041C000F7E0F51508F4A8C080919102882309F45E
:1041D000A3C080919202882309F49EC028E4529ED5
:1041E00060011124560130ECA30EB11C60E0C50142
:1041F0000E94B216760141ECE40EF11C03EF11E0CF
:10420000812C412C20910B02912C281590F0F80163
:10421000868D90E061E0821620F4278D820F911D3B
:1042200062E0262F2695820F911D70E00E94973A3A
:10423000962E692DC7010E94B21649248394839457
:10424000FFEFEF1AFF0A0E5F1F4F20E88212DACF4E
:104250002091030230910402409105025091060220
:10426000A0E5B0E00E941C3B6E5C7F4F8F4F9F4FDC
:1042700024E630E040E050E00E94BF3ACA01B901B4
:104280006C507E4F8F4F9F4F28EE33E040E050E060
:104290000E94BF3A80910702909108029A8B898B05
:1042A0003C8B2B8B8091090290910A029E8B8D8B07
:1042B0008091030190910401A09105018F8B988F4B
:1042C000A98F8E010F5E1F4F4E0137E1830E911CA7
:1042D0003401F801308021800E5F1F4FF401E1901E
:1042E0004F01EA0CFB2CF11C632DC7010E94B21692
:1042F000622DC70101960E94B21632244324601633
:10430000710639F7642DC601895F9E4F0E94B2166F
:1043100068EDC5010E94B2161092910210929202AD
:104320005092C90281E08093B90210929F028FE0FF
:104330000E947B0C69960FB6F894DEBF0FBECDBF0E
:10434000DF91CF911F910F91FF90EF90DF90CF9071
:10435000BF90AF909F908F907F906F905F904F90A5
:104360003F902F900895CF93C82F6FEB71E00E947C
:10437000DA1D811105C06FEB71E08C2F0E949D0D3D
:104380001092CB028DE0CF910C947B0C1F93CF93B6
:10439000DF93E9E5F3E01382128248EE53E060E038
:1043A00070E0448355836683778380E191E0918355
:1043B000808385EC90E09587848784EC90E09787F4
:1043C000868780EC90E0918B808B81EC90E0938BE2
:1043D000828B82EC90E0958B848B86EC90E0978BBF
:1043E000868B118E128E138E148EABE1B4E0139671
:1043F0001C921E92129714964D935D936D937C932D
:10440000179782E291E011969C938E93E7E2F4E095
:104410001382128284E391E091838083B583A48325
:1044200080E49DE0A3E0B0E086839783A087B18716
:1044300082879387A487B58717861686118A108A84
:1044400011E0128B138B148B158B60E088E00E94B7
:104450007605E5ECF8E0E491CDE0D4E0E883E1EB2B
:10446000F8E0E491F0E0EE0FFF1FE156F74F859181
:1044700094919A838983CE010E946507E6EFF3E069
:1044800017821086108289E0838314831583168334
:104490001182168A158A8FEF838B148AD287C1877F
:1044A000DF91CF911F910895CF93DF93CDB7DEB702
:1044B000A5970FB6F894DEBF0FBECDBF789484B534
:1044C000826084BD84B5816084BD85B5826085BD10
:1044D00085B5816085BD80916E00816080936E009E
:1044E0001092810080918100826080938100809190
:1044F0008100816080938100809180008160809341
:1045000080008091B10084608093B1008091B00000
:1045100081608093B00080917A00846080937A00FB
:1045200080917A00826080937A0080917A00816025
:1045300080937A0080917A00806880937A0010924C
:10454000C1000E94201AA8958091020180933F0625
:104550000E940A066093FC027093FD028093FE02A3
:104560009093FF0282E00E94DD048C0181E001153E
:10457000110509F080E08093FB0283E00E94DD04D6
:1045800021E0892B09F020E02093FA0280E10E94CB
:10459000DD0421E0892B09F020E02093F9028091CD
:1045A0000201813109F478C080910201823021F446
:1045B0008091F802811170C08091F502F0E8CF2E51
:1045C000F4EEDF2E882309F45CC0BE016F5F7F4FDD
:1045D00087EB91E00E94E108882359F18A81812CC0
:1045E000912C540187FF06C0812C912CA8EFAA2E94
:1045F000BB24BA942091B70199812B3309F08FC065
:104600003D8137FF8CC090FF1CC08B8180FDEDC0C9
:10461000B0E8CB2EB1E8DB2EEE24EA94FE2C81FD2F
:1046200030C0C12CF2E8DF2EEE24EA94FE2C82FD8D
:1046300028C0A0E8CA2EA4EEDA2EEE24EA94FE2CBE
:1046400020C0C92ED12CF12CE12C73E0CC0CDD1C48
:10465000EE1CFF1C7A95D1F720EEC22227E0D22271
:10466000EE24FF2490E0B0E0A0E0EBE0880F991F7B
:10467000AA1FBB1FEA95D1F78C299D296C01C82878
:10468000D9280E94500829A33AA34BA35CA36DA389
:10469000D092F702C092F602F090F502FF20A9F046
:1046A0008091F6029091F7029C012158344E211519
:1046B0003A4510F00C94543A2091D702222329F065
:1046C0008115944114F41092D702012B79F4809152
:1046D000D10281110BC0809102018111E3C0809150
:1046E000C602843009F088C00E94680D8091BF0224
:1046F0009091FA02911170C1882341F08091BE021D
:10470000882321F00E9413111092BE021092BA0267
:104710001092BB021092BC021092BD0283C1C82E3F
:10472000D12CDC2CCC24DD0CDD0CDD0C38E0939F8F
:10473000B0011124C62AD72A0D2C000CEE08FF0860
:10474000C828D928EA28FB282832F1F4903579F4D2
:10475000853009F096CF8F818C3009F092CF50E8E8
:10476000C52E52E8D52EEE24EA94FE2C8ACF9F3F28
:1047700009F087CF873009F084CFC12C43E8D42ECD
:10478000EE24EA94FE2C7DCF203109F07ACF6885A3
:10479000662309F476CF70E08F81AB01481B510985
:1047A000CA019695982F8827979587950E94AB3ACE
:1047B000CB01770FAA0BBB0B33E0CC0CDD1CEE1C3E
:1047C000FF1C3A95D1F750E8C52257E0E522FF24B7
:1047D00060E2C61AD108E108F1088C0D9D1DAE1DDE
:1047E000BF1D6401C82AD92A4CCFC12C81E8D82E1C
:1047F000EE24EA94FE2C45CF8091D702811176CF2A
:10480000FF2081F08091F6029091F70281389B4160
:104810004CF081E08093D7021092D60285E00E948E
:104820007B0C64CF8091CD02882331F08091F80217
:10483000811102C08CE1F3CF1092D6021092D70200
:104840001092D8021092D9021092DA021092DB0272
:104850001092DD021092DC021092DE021092DF0252
:104860001092E0021092E1021092E3021092E20232
:104870001092E4021092E6021092E5021092F10208
:104880001092F2021092F3021092F4028091010150
:10489000882331F087E00E947B0C1092010126CF23
:1048A00082E0BDCF80910201873011F480E0B7CF64
:1048B00080910201883009F419CF8091020189307A
:1048C00009F414CF809102018A3009F40FCF80914E
:1048D00002018B3009F40ACF809102018C3009F477
:1048E00005CF809102018D3009F400CF8091020143
:1048F0008E3009F4FBCE809102018F3009F4F6CEA0
:1049000080910201893109F4F1CE809102018A314E
:1049100009F4ECCE80910201843109F4E7CE809154
:104920000201853109F4E2CE80910201803109F063
:104930003EC08091F802882309F4D8CE8091D70236
:104940008111D4CEFF2041F08091F6029091F702C0
:1049500081389B410CF0CACE0E940A066B017C0193
:104960000E941F1141E0C701B6010E9433110E944D
:104970003519C701B601605C704E8F4F9F4F0E9482
:10498000660C61E085E00E9406050E94131161E05B
:1049900084E00E94060561E086E00E9406056DEB5A
:1049A00075E089E593E00E94141481E138CF80918D
:1049B0000201833109F49ACE80910201853019F405
:1049C0001092D60273CF80910201853009F48ECE09
:1049D00081E08093C0028ACE811100C180910201E2
:1049E0008631E9F0809102018731C9F0809102019E
:1049F0008831A9F0809102018B3189F08091020108
:104A00008C3169F080910201811127C08091C6022A
:104A100090E00196877099278093C60203C080E0DA
:104A20000E947B0C80910201811105C08091C60219
:104A3000882309F411C1809102018A3109F0FEC076
:104A40008091B7029091AD029111F3C0813009F0CD
:104A5000F5C0EEEAF2E000E002C18091020186308A
:104A6000A9F280910201883059F48091C70290E048
:104A7000019663E070E00E94AB3A8093C702D2CF08
:104A800080910201893149F48091C80290E0019639
:104A9000837099278093C802C5CF809102018A3123
:104AA000D1F49091B70281E0890F2091AD022130BD
:104AB00059F09150933010F40C943B3A211104C0FA
:104AC000853011F40C943F3A893018F48093B70282
:104AD000A9CF80E0FBCF80910201893059F4809109
:104AE000C90290E0019669E070E00E94AB3A8093C1
:104AF000C90298CF809102018A3059F48091CA028C
:104B000090E0019666E070E00E94AB3A8093CA02A2
:104B100089CF809102018B3009F484CF809102010A
:104B20008C3009F47FCF809102018D3059F480914F
:104B3000CB0290E001966CE070E00E94AB3A80936B
:104B4000CB0270CF809102018E3039F48091CC027B
:104B500091E089278093CC0265CF809102018F304C
:104B600009F460CF80910201853159F48091D70119
:104B700090E0019663E070E00E94AB3A8093D70129
:104B800051CF80910201823109F44CCF8091020112
:104B9000833109F447CF80910201803109F442CF7B
:104BA00080910201813159F40E940A066093BA0291
:104BB0007093BB028093BC029093BD0233CF80916F
:104BC000C502882309F42ECF1091C102113009F0DB
:104BD00029CF0E9407111093BE0224CF80910201B9
:104BE000813109F01FCFC090BA02D090BB02E09093
:104BF000BC02F090BD02C114D104E104F10409F437
:104C000011CF0E940A0604ED1EEF2FEF3FEF0C19A3
:104C10001D092E093F09DC01CB01800F911FA21F46
:104C2000B31FB7FDFFCE81E00E94E8150E943C193A
:104C30006DCDE0EBF2E0853009F40DCF1092AC02BF
:104C40001092AA021092A6021092A7021092A80235
:104C50001092A90210E009C0E2ECF2E001E010912C
:104C6000F90211112AC01092AC02E0910201ED315B
:104C700010F00C94043AF0E0E05CF94D0C94003B29
:104C8000BF262836263262353C364439E439F736B9
:104C9000A9285E29D5294B2B462C7E2C692DFA2D6F
:104CA000C0302831E53115322537B637143920396F
:104CB00029396D2EF72E32393B398091AC028F5F46
:104CC0008093AC028F30A8F080ED97E091838083D1
:104CD000002319F081E08093AB021092AC02109295
:104CE000AA021092A6021092A7021092A802109295
:104CF000A9028091A5028111ADCF0E940A06AB01E5
:104D0000BC018091A6029091A702A091A802B09147
:104D1000A9020097A105B10561F1E8E1CE2EECEF03
:104D2000DE2EEE24EA94FE2CC81AD90AEA0AFB0AFF
:104D3000D701C601840F951FA61FB71FB7FF19C063
:104D40008091AA028530C8F04093A6025093A70232
:104D50006093A8027093A90211E08091AA028530A5
:104D600008F410E0002309F480CF81E08093AB02C7
:104D70007CCF81E08093AA02E7CF8F5FFBCF809149
:104D800002010E947B0C8091F9028111C3C0E09066
:104D9000A302F090A402C090F602D090F702B09067
:104DA000A2020E941F111091C60281E08093390473
:104DB00080933A0480933B04109236041092350499
:104DC00010923804109237048091CD026BEC75E09C
:104DD000811102C06FEC75E087E294E00E941D062D
:104DE000111105C06EE387E294E00E94FA0E82E0A2
:104DF00080933904109236041092350480E190E0DB
:104E000090933804809337048091C2029091C3023A
:104E100008EE13E0B8010E94973A4AE050E087E2BA
:104E200094E00E9473126EE287E294E00E94FA0E10
:104E30008091C2029091C302B8010E94973A64E641
:104E400070E00E94973A4AE050E087E294E00E94C6
:104E5000731263E787E294E00E94FA0E91E0909368
:104E600039048091C602823008F016C188E390E0D0
:104E700090933604809335041092380410923704CE
:104E800060EF75E0B11002C068EE75E087E294E073
:104E90000E94141461E08091C602813009F060E044
:104EA00088E00E94501488E390E090933604809349
:104EB000350480E190E0909338048093370464EDEA
:104EC00075E087E294E00E941D0641E050E0B701E2
:104ED00087E294E00E947312B60188E10E944B12AF
:104EE00001E010E020E230E050E040E066E370E0F6
:104EF00087E294E00E949A0E0E949B0B0E945E0C37
:104F00000E94620C0E94440C9093A1028093A00224
:104F100080E0DAC28091A502811139CF8091C6026A
:104F2000811172C0612F8091C2029091C3020E94D0
:104F3000910C9093C3028093C20280910201882356
:104F400009F425CF8091FB028093D1028091FA026F
:104F50008093BF028091F9028093A50280910201A3
:104F6000883111F00C940A3A61E087E00E9406054E
:104F700081E08093A20280910201813161F08091F1
:104F80000201823011F00C94243A8091F8028823B7
:104F900011F40C94243A99E1C92ED12CE12CF12C76
:104FA00004E610E00E940A068090FC029090FD0248
:104FB000A090FE02B090FF028C0C9D1CAE1CBF1C8A
:104FC000681979098A099B0997FD02C00C942B3A4C
:104FD0000E940A067F73882799276F3F7F438105C8
:104FE000910501F78091AB028823E1F28091C20222
:104FF0009091C302B8010E94973A90E080E00E942D
:10500000B2161092AB02CECF813021F58091C5024D
:10501000882319F080E00E94C6168091C102811198
:1050200003C00E94A40C89CF813061F482E0809398
:10503000C10260E085E00E94060561E08BE00E940D
:1050400006057BCF1092C10261E085E00E94060553
:1050500060E0F4CF843019F40E94680D6ECF853083
:1050600021F48CE00E947B0C68CF823021F41092F6
:10507000C70288E0F7CF833021F41092C90289E09B
:10508000F1CF863021F41092D70185E1EBCF873044
:1050900009F053CF84E1E6CF99249A94980E10E05A
:1050A00000E058E3A52EB12C892E881A21E0921237
:1050B00010C060E0802F0E9450149394085F1F4F2F
:1050C0000032110599F781E080933A0480933B0404
:1050D00007CF32E0931216C0B0923604A092350486
:1050E000109338040093370464ED75E087E294E090
:1050F0000E941D0641E050E0B70187E294E00E9463
:105100007312DBCF43E0941205C0B601802F0E94DA
:105110004B12D3CFB0923604A092350410933804CA
:105120000093370481E0982D990D933009F080E0C9
:105130000E94850C692D6450770BFB01EE0FFF1F59
:10514000E452FA4F6591749187E294E00E941D0643
:10515000B4CF809102010E947B0C8091F9028111F1
:105160007FC00E942A1110923604109235041092CA
:105170003804109237046FE076E087E294E00E94F2
:105180001D06109236041092350488E090E090934A
:1051900038048093370481E09091C702911180E038
:1051A0000E94850C65E076E087E294E00E941D068F
:1051B0008091C40267EF75E0882311F06BEF75E012
:1051C00087E294E00E941D0681E080933A04809378
:1051D0003B04109236041092350480E190E09093E5
:1051E00038048093370481E09091C702913009F030
:1051F00080E00E94850C6EEF75E087E294E00E94EB
:105200001D068091C5026BEF75E0811102C067EF4A
:1052100075E087E294E00E941D0681E080933A04E5
:1052200080933B04109236041092350488E190E09C
:10523000909338048093370481E09091C7029230B4
:1052400009F080E00E94850C67E877E087E294E04F
:105250000E941D0681E080933A0480933B04FDC1C7
:105260008091A50281117DCF8091C70281111BC061
:105270008091C40291E089278093C402882339F089
:105280001092C50260E083E090E00E94B216609147
:10529000C40281E090E00E94B21680910201883041
:1052A00009F050CE5ECF813031F49091C50289274C
:1052B0000E94C616F2CF0E94770DEFCF80910201B7
:1052C0000E947B0C8091F902882379F08091A502DD
:1052D00081110BC08091C902883018F00E94770DAF
:1052E00031CE1092CA028AE0EFC00E942A111092B9
:1052F00036041092350410923804109237048091CD
:10530000C90267E876E0883030F087E294E00E94D6
:105310001D060C94A53787E294E00E941D061092AA
:1053200036041092350488E090E09093380480931E
:105330003704BE016F5F7F4F8091C9020E94DA1D62
:10534000882319F14AE050E0BE016E5F7F4F87E28B
:1053500094E00E944106109236041092350488E1D0
:1053600090E0909338048093370410923A0411E04F
:1053700010933B0468E176E087E294E00E941D060A
:1053800010933A0410933B0468C16FE176E087E222
:1053900094E00E941D066091C90270E06F5F7F4F2C
:1053A00087E294E00E94C211D6CF809102010E9450
:1053B0007B0C8091F9021091CA02882309F41CC168
:1053C0000091A502011118C11111AAC0BE016F5EA2
:1053D0007F4F8091C9020E94DA1D882309F49EC084
:1053E000EC8CFD8CF092C302E092C2022F8D822FD2
:1053F00090E031E0422F427021FF30E03093C5024F
:1054000020FF03C001E0411100E00093C402959524
:105410008795959587958370833009F458C080935C
:10542000CD02B090C90273E0B79E80011124C8017B
:1054300080569F4F0E945217C82EC8018F559F4F0C
:105440000E945217D82ED092CF02C092CE02C8012D
:105450008E559F4F0E9452178093D0029091CD029B
:105460009130C1F581E0C81AD1089FE0C91697E2D2
:10547000D906A8F58B2D0E9454178093EE01811157
:10548000B092EB018E8D8093C102C70164E670E09B
:105490000E94973A90E080E00E94B2166091C402A8
:1054A00081E090E00E94B2166091C50283E090E036
:1054B0000E94B2168091C5028823D9F00E94A40CE4
:1054C00081E080939F028FE00E947B0C3BCD109285
:1054D000CD02A7CF923071F68150833658F21092E8
:1054E000CD021092CF021092CE028AE08093D002B9
:1054F000C1CF8091C102823049F460E085E00E9412
:10550000060561E08BE00E940605DACF8111D6CF57
:1055100061E085E00E94060560E0F4CF83E0D1CF32
:10552000143059F48091C9020E945417882311F055
:105530008BE0CACF10939F02C6CF113009F049C04B
:10554000BE016F5E7F4F8091C9020E94DA1D082F55
:105550001091C902BE016F5F7F4F812F0E94DA1D3B
:10556000811106C0BE016F5F7F4F812F0E949D0D8C
:105570008091C2029091C3029D878C878091C10265
:105580008E878091C4029091C502992301F192E027
:105590002091CD02A4E02A9F90011124822B892B17
:1055A0008F87BE016F5F7F4F812F0E94F816609139
:1055B000CE027091CF024091D002812F0E94D91665
:1055C000011154C28091C9020E94B321BBCC90E06A
:1055D000DFCF1230B9F3133009F042C3BE016F5E62
:1055E0007F4F8091C9020E94DA1D882309F4AACC5A
:1055F0001092CC028EE068CF1F5F133008F413E0E6
:105600002DEFF22EF10E0E942A1110E000E0DD24B1
:10561000D3941092360410923504109338040093FA
:105620003704F1101DC060E587E294E00E94FA0E95
:105630006091C90270E06F5F7F4F87E294E00E9443
:10564000C21164E376E087E294E00E941D06085FE1
:105650001F4FF39400321105E1F60E949B0B72CCB0
:10566000EE24EA94EF0C81E09091CA029E1180E052
:105670000E94850CEE2DF0E0EE0FFF1FE85DF94F64
:105680006591749187E294E00E941D06D0923A04DD
:10569000D0923B04DCCF809102010E947B0C809170
:1056A000F902882329F08091A502882309F41BCEF2
:1056B0000091C902B8E40B9F80011124C8018F5FDB
:1056C0009E4F0E945217482EC8018E5F9E4F0E9427
:1056D0005217582EC8018D5F9E4F0E945217282ED8
:1056E000C8018C5F9E4F0E945217382E0E941F11D6
:1056F00060E08091C9020E94C4171FE1819FC00130
:105700001124BC0190E080E02AEF30E040E050E05E
:105710000E94BF3A121BF12CE12CC12C0FE1702E1C
:105720008AEF882E912CA12CB12C662463946C2DC9
:105730008091C9020E94C417879DC0011124BC0139
:1057400090E080E0A50194010E94BF3AD72CD21AC4
:105750004D2D1D1508F4412F1D1508F094C0262D60
:10576000211B122F1D0D212F30E050E001E010E031
:10577000B70187E294E00E949A0E4D2D50E0B701E8
:105780006F5F7F4F21E030E087E294E00E94060ED9
:10579000C394E2E0EE0EF11C1D2DF0E4CF12C7CF52
:1057A000F12CE12C08E010E020E830E048E150E086
:1057B00070E060E087E294E00E94C10EFF24F39461
:1057C000F0923904109236041092350408E110E08A
:1057D000109338040093370410923A04F0923B047B
:1057E00067E877E087E294E00E941D06F0923A04B1
:1057F000F0923B048AE290E0909336048093350463
:10580000109338040093370460E476E087E294E074
:105810000E941D06C20168EE73E00E94973A7C0167
:105820004AE050E087E294E00E9473126EE287E261
:1058300094E00E94FA0EC70164E670E00E94973A75
:105840004AE050E087E294E00E94731261E487E24C
:1058500094E00E94FA0E84E590E0909336048093E1
:10586000350410933804009337046DE376E087E243
:1058700094E00E941D064AE050E0B10187E294E006
:105880000E947312EACE1F5F1D196DCF8091020135
:105890000E947B0C8091F902882329F08091A50257
:1058A000882309F41BCD80919102882351F08091C7
:1058B0009202811106C08091EF010E94D01780E012
:1058C000ACC50E942A111092360410923504109231
:1058D00038041092370469E976E087E294E00E9488
:1058E0001D06109236041092350488E090E09093E3
:1058F00038048093370463E476E007CD8091020199
:105900000E947B0C8091F902882311F40C94423A96
:105910008091CB029091A5029111B2C08A3008F01B
:105920007CC00E947A0D0E940A0660939B027093CD
:105930009C0280939D0290939E0268517C4F8F4FF2
:105940009F4F60939702709398028093990290936F
:105950009A020E941F1181E080933904109236044C
:105960001092350410923804109237046BE476E0FC
:1059700087E294E00E941D066091C90270E06F5FAB
:105980007F4F87E294E00E94C21110923604109279
:1059900035048AE090E090933804809337044AE01D
:1059A00050E060EC71E087E294E00E944106809153
:1059B000CB0256E0859F900111243093360420934A
:1059C000350422E130E030933804209337048A30E4
:1059D00028F46EE587E294E00E94FA0E10923604F5
:1059E0001092350488E190E0909338048093370456
:1059F00081E09091CB029A3009F080E00E94850C02
:105A00008091CB0260EB76E08B3009F01FCC1092D6
:105A10003A0481E080933B0417CC9091B9028A301C
:105A200051F591111DC08091C2029091C3029093D3
:105A3000CB018093CA018091C1028093CC018091F7
:105A4000C4029091C5029923A1F092E02091CD0269
:105A500044E0249F90011124822B892B8093CD0157
:105A60006FEB71E08091C9020E94F81610929F02BC
:105A70002ACD90E0EBCF992309F435CC8AE124CDEF
:105A80008A3008F066CF80919B0290919C02A09191
:105A90009D02B0919E02892B8A2B8B2B09F459CF42
:105AA0000E940A0600919702109198022091990293
:105AB00030919A02601B710B820B930B97FD49CFBB
:105AC0000E947A0D0E940A066A567F4F8F4F9F4FA1
:105AD00038CF809102010E947B0C8091F9028823CB
