:100000000C944A040C9481040C9481040C94810493
:100010000C9481040C9481040C9481040C94D032CF
:100020000C9481040C9481040C9481040C9481043C
:100030000C9481040C9481040C9481040C9481042C
:100040000C940F310C9481040C947F310C94593131
:100050000C9481040C9481040C9481040C9481040C
:100060000C94B1310C948104444941474E4F535490
:100070004943533E00494E464F203E00414E414CBD
:10008000595345203E0050524F46494C4553203E5F
:100090000053455454494E4753203E005045524664
:1000A0004F524D414E4345203E0044454C4554453A
:1000B000203E0052454E414D45203E004C4F4144AC
:1000C000203E00414E414C5953452C53544152540B
:1000D000004D41580054494D450043415345533A62
:1000E0002000910086007C007500680046414E208B
:1000F0004F46460046414E204F4E004F4646004F69
:100100004E0044554D503A200052455354415254EC
:100110003A200053455454494E4753004F50454EE2
:10012000203E0050524F46494C452000BC00AC01D7
:10013000B300AA009C00450620414354494F4E534A
:10014000004A3A00413A004E414D45205000444596
:100150004C455445203E0044454C455445205000F4
:100160005341564544004E4F204441544100454DB3
:100170005054590044454C45544544004C4F41446B
:1001800045440050524F46494C455300434F4E465C
:100190004947203E00524556494557203E004E45AE
:1001A00057203E00414E414C59534500534156455E
:1001B000203E0050524F46494C45200050524F4679
:1001C000494C453A20004D41582054494D453A206C
:1001D0000044524F503A200054494D453A200045C2
:1001E0004E455247593A20005045414B2044524F0A
:1001F0005000454E455247590054494D4500545909
:1002000050453A2000524551554952454400435506
:10021000522053454E534F52005052455353205392
:1002200054415254004C4F414420434153450041F6
:100230004E414C595345002C63757272656E745F64
:100240006D613D00414E414C5953452C53414D5039
:100250004C452C745F6D733D004A3A0020413A00D2
:1002600044554D50494E472E2E2E005253543A00BD
:10027000204355523A0054454D503A0044494147B5
:100280004E4F535449435300342E302E30004657BE
:100290003A200035563A20002D2D00424153453A70
:1002A000200025204E004C4F573A2000494E464F23
:1002B000004155544F204F4646004155544F204F62
:1002C0004E00434F4F4C444F574E005245515549F5
:1002D000524544004355522053454E534F5200540B
:1002E000494D454F555400544152474554004348E9
:1002F00045434B2054454D500054454D50204552E8
:10030000524F520043555252454E54204C4F2100FB
:10031000434845434B204341534500434845434BE5
:1003200020434F494C0021204641554C5420210088
:10033000484549474854204F4B3F004341534500EF
:100340002026200054494D45004341534553004C5D
:100350004F41440044524F5050494E4700412020E5
:1003600000414E4E45414C494E47002C7065616B33
:100370005F6D613D002C7065616B5F7063743D0063
:100380002C656E657267795F7063743D002C6D61DA
:100390007463685F7063743D0050524F46494C452A
:1003A0002C524553554C542C736C6F743D002C707B
:1003B00065616B5F6D613D002C696E7075745F6582
:1003C0006E657267795F4A3D00414E414C59534515
:1003D0002C454E442C745F6D733D00414E414C5989
:1003E00053452C41424F52542C726561736F6E3DE0
:1003F000555345522041424F52542C745F6D733D0A
:1004000000414E414C5953452C474154455F4F5094
:10041000454E004F4E452053484F54004155544FD0
:10042000204645454400465245452052554E002041
:10043000434F4F4C21004A3A00413A000E9EFEFEC7
:10044000DEDEDEDEDEDEDEDEDEDEDEDEDEDEDEDECC
:10045000DEDEDEDEFEFE9E0E01C33F30C78001E31E
:100460003F30CFC001E30330CC4001B30630CC00B5
:1004700001B30C3FCF80019B1C3FC3C0018B1830E0
:10048000C0C0018F3030C8C001873F30CFC0018766
:100490003F30CF8000000000000700000F00003C4C
:1004A0000000700000E000FFC001FF0001800001BB
:1004B0008000018000018000018000018000018037
:1004C00000018000018000018000018000018000A7
:1004D00001FF0000FFC00000E000007000003C00D1
:1004E000000F000007000000000000000000005F97
:1004F00000000007000700147F147F14242A7F2ABD
:10050000122313086462364956205000080703007E
:10051000001C2241000041221C002A1C7F1C2A08CA
:10052000083E08080080703000080808080800002D
:1005300060600020100804023E5149453E00427FA1
:10054000400072494949462141494D331814127FF0
:100550001027454545393C4A494931412111090790
:100560003649494936464949291E00001400000011
:1005700040340000000814224114141414140041E3
:1005800022140802015909063E415D594E7C1211A0
:10059000127C7F494949363E414141227F414141D8
:1005A0003E7F494949417F090909013E4141517353
:1005B0007F0808087F00417F41002040413F017FC4
:1005C000081422417F404040407F021C027F7F048C
:1005D00008107F3E4141413E7F090909063E4151D5
:1005E000215E7F09192946264949493203017F01C5
:1005F000033F4040403F1F2040201F3F4038403FC6
:10060000631408146303047804036159494D4300DB
:100610007F4141410204081020004141417F040212
:100620000102044040404040485454542400001803
:10063000180025204E4558542000252044524F5084
:1006400000252045004241434B203E00005EBCE2B5
:10065000613FDD83C29C7E20A3FD1F41009D23BE20
:1006600046DB65F88C11AF32CA57E974AED580A865
:100670001FD300408D142000A1C8DA02818FD9F168
:10068000DB40A4A62EAF3E0F87C1F1F0001F07C3C9
:10069000F0FCFC000FC3F1FC7F7F8003F0FC7F1FA8
:1006A0008FC000FC3F1F87E3E0187F1FC7E1F8C041
:1006B0003E1FC7F1F87E001F87E1F87E3F800FE103
:1006C000F87E1F8FC003F07E1F87E3E030FC1F879A
:1006D000E3F8E07C3F0FE3F8FE003E0FC3F0FC3F81
:1006E000801F87F0FC3F0FC007E1FC3F0FC3E00114
:1006F000F07E0F83E0E000F81F07C1F0000000006B
:100700003FFFFFFFFFFF8000000003FE0007C00166
:10071000F07F8000003C1F0003F000FC0078000127
:10072000C00FC001FC007F800400060003F0007FC2
:10073000000FC00400180000FC001F8003E004004C
:10074000E000007F0007E000C004030000001FC0BD
:1007500001F80000040C00000007E0007E00000427
:100760003000000001F8001F8000040C00000000B1
:100770007E0007E0000403000030001F8003F80043
:100780000400E0007C000FE000FE00040018003EC2
:100790000003F0003F80040006001F8000FC000FF3
:1007A000C0040001C007E0003F0003E00400003C7B
:1007B00001F0000F8000E078000003C0F80007C0DF
:1007C000007F800000003FFFFFFFFFFF8000006010
:1007D000E05F0CC0A741F9F800F0F07D0CC03F01CC
:1007E000F9FC00F0F07D30303C81818C0198D828F4
:1007F000353154C1818C0198D8283FDE5741F1F83A
:10080000030CCC02AFDCCF01F1F003FCCC12AB3314
:100810003C01819803FCC617C33334018198060656
:10082000C61FCCC6C93DF98C0606C21F4CC6C97D81
:10083000F98C00000000240027002A0000000000BE
:10084000250028002B0021007F2200030000000863
:100850000002010000030407000000000000000087
:1008600000000000230026002900040404040404FE
:10087000040402020202020203030303030301024F
:10088000040810204080010204081020010204081E
:1008900010209D3411241FBECFEFD8E0DEBFCDBFA6
:1008A00084B78093420614BE0FB6F894A895809141
:1008B0006000886180936000109260000FBE11E0BC
:1008C000A0E0B1E0EAEAF3E702C005900D92A83497
:1008D000B107D9F726E0A8E4B1E001C01D92A13428
:1008E000B207E1F714E0CAE4D4E004C02197FE01A6
:1008F0000E94AC39C934D107C9F70E942B350C943A
:10090000D3390C94000080E480937C0080917A00BD
:10091000806480937A0080917A0086FDFCCF80917C
:100920007800909179000895833081F028F4813027
:1009300099F08230A9F008958730A9F08830C9F085
:100940008430B1F4809180008F7D03C0809180005D
:100950008F7780938000089584B58F7784BD089544
:1009600084B58F7DFBCF8091B0008F778093B000EE
:1009700008958091B0008F7DF9CFCF93DF93282F1A
:1009800030E0F901E45BF74F8491F901E258F74F49
:10099000D491F901E659F74FC491CC23A1F081110C
:1009A0000E949404EC2FF0E0EE0FFF1FE05AF74F87
:1009B000A591B491EC91ED2381E090E009F480E001
:1009C000DF91CF91089580E090E0FACF1F93CF930D
:1009D000DF93282F30E0F901E45BF74F8491F901B0
:1009E000E258F74FD491F901E659F74FC491CC235F
:1009F000A9F0162F81110E949404EC2FF0E0EE0F65
:100A0000FF1FE45CF74FA591B4918FB7F894EC9178
:100A1000111108C0D095DE23DC938FBFDF91CF91F9
:100A20001F910895DE2BF8CFE5E5F8E0E491E3307F
:100A300019F140F4E130B1F0E230C9F060E089E052
:100A40000C94E604E73011F1E83041F1E430B1F7FD
:100A50002091800020622093800090938B008093EF
:100A60008A00089594B5906894BD87BD089594B5A3
:100A7000906294BD88BD08952091800020682093E5
:100A80008000909389008093880008959091B00031
:100A900090689093B0008093B30008959091B00057
:100AA00090629093B0008093B4000895CF93DF9349
:100AB00090E0FC01E258F74F24918659974FFC01D2
:100AC00084918823C9F090E0880F991FFC01EE5CA7
:100AD000F74FA591B491FC01E45CF74FC591D49117
:100AE00061110DC09FB7F8948C91209582238C934F
:100AF0008881282328839FBFDF91CF91089562309A
:100B000051F49FB7F8943C91822F809583238C9366
:100B1000E8812E2BEFCF8FB7F894EC912E2B2C93EE
:100B20008FBFEACF3FB7F8948091090390910A03F1
:100B3000A0910B03B0910C0326B5A89B05C02F3FD5
:100B400019F00196A11DB11D3FBFBA2FA92F982FF3
:100B50008827BC01CD01620F711D811D911D42E0EE
:100B6000660F771F881F991F4A95D1F708958F92B6
:100B70009F92AF92BF92CF92DF92EF92FF926B0162
:100B80007C010E9492054B015C01C114D104E10477
:100B9000F104B9F00E949205681979098A099B0944
:100BA000683E73408105910580F321E0C21AD108A7
:100BB000E108F10888EE880E83E0981EA11CB11CA4
:100BC000E4CFFF90EF90DF90CF90BF90AF909F90D9
:100BD0008F9008952FB7F8946091050370910603E4
:100BE00080910703909108032FBF089508950895F9
:100BF000DC01ED91FC910190F081E02D0994EF92E0
:100C0000FF920F931F93CF93DF938C017B01D0E072
:100C1000C0E0F701EC0FFD1F6491662361F0D8017D
:100C2000ED91FC910190F081E02DC8010995892B8F
:100C300011F02196EECFCE01DF91CF911F910F9150
:100C4000FF90EF900895AF92BF92CF92DF92EF9214
:100C5000FF920F931F93CF93DF936C017B018B0166
:100C6000040F151FEB015E01AE18BF08C017D107B6
:100C700059F06991D601ED91FC910190F081E02D40
:100C8000C6010995892B79F7C501DF91CF911F9195
:100C90000F91FF90EF90DF90CF90BF90AF900895AD
:100CA000FC01538D448D252F30E0842F90E0821B72
:100CB000930B541710F0CF96089501970895FC01F7
:100CC000918D828D981761F0A28DAE0FBF2FB11D4F
:100CD0005D968C91928D9F5F9F73928F90E00895A7
:100CE0008FEF9FEF0895FC01918D828D981731F061
:100CF000828DE80FF11D858D90E008958FEF9FEFB5
:100D00000895FC01918D228D892F90E0805C9F4F8A
:100D1000821B91098F73992708958DE593E00E94B6
:100D2000810621E0892B09F420E0822F089580E0DC
:100D300090E0892B29F00E948D0681110C9400000F
:100D40000895FC01A48DA80FB92FB11DA35ABF4F60
:100D50002C91848D90E001968F739927848FA689BA
:100D6000B7892C93A089B1898C91837080648C930E
:100D7000938D848D981306C00288F389E02D8081BD
:100D80008F7D80830895EF92FF920F931F93CF93EF
:100D9000DF93EC0181E0888F9B8D8C8D98131AC0B6
:100DA000E889F989808185FF15C09FB7F894EE899D
:100DB000FF896083E889F9898081837080648083FA
:100DC0009FBF81E090E0DF91CF911F910F91FF9045
:100DD000EF900895F62E0B8D10E00F5F1F4F0F73ED
:100DE0001127E02E8C8D8E110CC00FB607FCFACFA8
:100DF000E889F989808185FFF5CFCE010E94A1069F
:100E0000F1CFEB8DEC0FFD2FF11DE35AFF4FF08278
:100E10009FB7F8940B8FEA89FB8980818062CFCFDE
:100E2000CF93DF93EC01888D8823B9F0AA89BB8921
:100E3000E889F9898C9185FD03C0808186FD0DC00C
:100E40000FB607FCF7CF8C9185FFF2CF808185FF2D
:100E5000EDCFCE010E94A106E9CFDF91CF91089599
:100E6000DC0180E0615090F09D919827E92FEF70B0
:100E7000F0E0E45BF94F2491E92FE295EF70F0E0A8
:100E8000E45AF94FE491822F8E27ECCF0895FC01AC
:100E9000138615861486128611861086178216828E
:100EA0001582148213820895DC012C911196ED9124
:100EB000FC91F8948181822B81839281322F30952D
:100EC0009323928387E090E00197F1F78181832358
:100ED000818383E290E00197F1F790817894EFECC1
:100EE000F0E03197F1F7922381E009F480E0089572
:100EF000FC0190810180F281E02D292F209560FF77
:100F000014C0F8948281822382838181892B81831A
:100F1000A3E2B0E01197F1F78281982B9283789445
:100F200087ED90E00197F1F70895F894828182238C
:100F300082838181892B8183AFEFB0E01197F1F734
:100F40008281982B928378948FE090E0EBCFDF92B0
:100F5000EF92FF920F931F93CF93DF93EC01D62E66
:100F6000E42E08E010E0FF24F39461E08D2D8F2142
:100F700009F460E0CE010E947807FF0C01501109CE
:100F8000A1F7E11010C0F894E981FA81918188817C
:100F9000809589238183E981FA8192818881809576
:100FA000892382837894DF91CF911F910F91FF90D5
:100FB000EF90DF900895EF92FF920F931F93CF93DE
:100FC000DF938C017B0140E065E50E94A707E70104
:100FD00088E0E80EF11C699140E0C8010E94A70773
:100FE000CE15DF05C1F7DF91CF911F910F91FF90D3
:100FF000EF900895FC0190810180F281E02DF8943A
:101000008181292F20958223818378943DE743E0D5
:1010100050E0315029F1DA011197F1F780818923ED
:10102000C1F3F8948281822382838181892B818319
:101030007894ABE7B7E01197F1F7F89481818223B8
:101040008183A3E1B1E01197F1F78081982381E0DA
:1010500009F080E07894E3E6F6E03197F1F708953F
:1010600080E008958F929F92AF92BF92CF92DF92CD
:10107000EF92FF92CF93DF9300D000D01F92CDB7B5
:10108000DEB780910304909104040E94FA0740E0C7
:101090006CEC80910304909104040E94A707409196
:1010A000FA0364E480910304909104040E94A7076A
:1010B0000E94EA056B017C018091FE0381111EC034
:1010C00081E08983CA82DB82EC82FD8229813A81B8
:1010D0004B815C816D8170E080E090E00F900F901B
:1010E0000F900F900F90DF91CF91FF90EF90DF90D6
:1010F000CF90BF90AF909F908F9008958091FF0305
:101100008823C1F08091FA03811114C080910304F7
:10111000909104040E945407813091F20E94EA05E4
:101120006C197D098E099F096E3E724081059105FB
:1011300068F3C6CFE091FD03E9508EEE92E0E33014
:1011400038F4F0E0EE0FFF1FEA5FFE4F80819181DF
:101150004C01B12CA12C8091FB03882329F060E085
:101160008091FC030E94E604C501B4010E94B7050A
:101170008091FB03882309F4A3CF61E08091FC03F5
:101180000E94E6049DCF6F927F928F929F92AF92C2
:10119000BF92CF92DF92EF92FF920F931F93CF9364
:1011A000DF938C01EB0180910304909104040E9471
:1011B000FA07882309F43FC0B80180910304909195
:1011C00004040E94DB0740E06EEB809103049091E1
:1011D00004040E94A7077E016E0189E0C80ED11C9D
:1011E0008E01A0900304B090040488E0882E912C16
:1011F000712C66246394C5010E94540781117628DE
:10120000660CE1E08E1A9108B1F7F80171928F0136
:10121000CE16DF0631F780910304909104040E94FA
:10122000FA07813041F4F70181917F01811105C0F6
:10123000E017F107C1F790E008C068E0CE010E9416
:10124000300791E028852813F6CF892FDF91CF91C1
:101250001F910F91FF90EF90DF90CF90BF90AF90D4
:101260009F908F907F906F9008950F931F93CF93CF
:10127000DF93CDB7DEB729970FB6F894DEBF0FBE68
:10128000CDBF8C01BE016F5F7F4F0E94C3088823D2
:1012900061F08D81F80190819B3311F487FD0BC0C3
:1012A0008F3359F020F48F31A1F080E007C08F35E3
:1012B00091F08F37D1F78CE001C08AE029960FB604
:1012C000F894DEBF0FBECDBFDF91CF911F910F917C
:1012D000089589E0F3CF8BE0F1CF2091B302260F80
:1012E0003327331F21323105ECF420913303FC0105
:1012F00090E080E0243069F082E00895A091B3028C
:101300002191AC014D565D4FA40FB52FB11D2C930B
:101310000196861798F38091B302680F6093B30229
:1013200080E0089581E008951092330381E0809376
:10133000320310920D0361E082E10E94E60461E055
:1013400083E10E94E604E9EBF0E080818E7F8083F8
:1013500080818D7F808388E48093B80085E48093CA
:10136000BC000895CF93DF9391E09093920288237D
:10137000B9F0C091B800D091BA008091BC008A7BCE
:101380008093BC0060E082E10E94E60460E083E1BB
:101390000E94E6040E949409D093BA00C093B8005A
:1013A000DF91CF910895CF92DF92EF92FF920F934A
:1013B0001F93CF93DF93D0915C0381E0D13208F08B
:1013C0009CC0C0915B030E9492056B017C018091DF
:1013D000330381116CC082E08093330381E08093FA
:1013E00032038FEF8093310310923003D0932F0399
:1013F000ABE3B3E0EFE0F3E080E0D8138DC01092F0
:101400000E0380910E03CC0FC82BC0930E03809166
:101410000D03813009F084C010920D030E949205E3
:101420006B017C0180910E038093BB00809135039A
:1014300090913603A0913703B0913803892B8A2B02
:101440008B2BA1F00E949205009135031091360379
:1014500020913703309138036C197D098E099F095B
:10146000061717072807390708F442C08091BC0007
:1014700083FDD8CF85EC8093BC000E9492056B0160
:101480007C0180913303823009F44CC08091310398
:101490008F3F09F469C080913103803209F466C03E
:1014A00080913103803309F463C084E026C08091C9
:1014B000350390913603A0913703B0913803892BFF
:1014C0008A2B8B2B09F483CF0E9492050091350360
:1014D0001091360320913703309138036C197D0940
:1014E0008E099F09061717072807390708F06FCFDD
:1014F000809134030E94B20985E010923A03109261
:101500005C0310923903DF91CF911F910F91FF90EF
:10151000EF90DF90CF9008959D9191938F5F6DCF65
:1015200085EEA9CF8091350390913603A0913703C2
:10153000B0913803892B8A2B8B2B09F4A2CF0E9400
:1015400092050091350310913603209137033091B5
:1015500038036C197D098E099F090617170728079C
:10156000390708F08ECFC4CF80E0C7CF82E0C5CF67
:1015700083E0C3CF0895E091DB028091DA02E8179F
:1015800030F4F0E0EE58FD4F808190E008958FEF49
:101590009FEF08959091DB028091DA022FEF3FEFE9
:1015A000981748F4E92FF0E0EE58FD4F208130E025
:1015B0009F5F9093DB02C90108958091DA029091B8
:1015C000DB02891B990B0895CF92DF92EF92FF9275
:1015D0000F931F93CF93DF937C01CB018A0120915E
:1015E0003903222389F0EB016B01C40ED51ECC1503
:1015F000DD0569F06991D701ED91FC910190F081D1
:10160000E02DC7010995F3CF642F0E946D09C80131
:10161000DF91CF911F910F91FF90EF90DF90CF90CE
:101620000895CF93DF931F92CDB7DEB769832091E2
:1016300039032223F9F020915C03203258F021E095
:1016400030E0FC013383228390E080E00F90DF9153
:10165000CF91089580913A03E82FF0E0E55CFC4FCC
:10166000998190838F5F80933A0380935C0381E03C
:1016700090E0ECCF61E0CE0101960E946D09F7CFBA
:10168000DF92EF92FF920F931F93CF93DF937C0132
:10169000D62E072F142FDC018D919C9121E02093F1
:1016A00039032CE320935B0310923A0310925C03FE
:1016B000DC01ED91FC910190F081E02D60E0099555
:1016C000CD2DD02F115070F0F70180819181FE0156
:1016D0006491DC01ED91FC910190F081E02D099580
:1016E0002196F0CFDF91CF911F910F91FF90EF9056
:1016F000DF900C94D309CF92DF92EF92FF920F9379
:101700001F93CF93DF9320913104309132044091A5
:1017100033045091340460E074E284EF90E00E945E
:101720006B39205131094109510956954795379533
:1017300027952093B80046E066E478E08FE294E0D5
:101740000E94400BD0E0C0E0FF24F3942CE3E22E93
:1017500080912F0490913004F0923903E0925B0362
:1017600010923A0310925C03DC01ED91FC91019020
:10177000F081E02D60E409958E010F5B1B4F6E0137
:10178000BFE1CB0ED11CC115E2E0DE0790F48091E1
:101790002F04909130042196D8016D918D01DC01C8
:1017A000ED91FC910190F081E02D0995CC16DD06BC
:1017B00051F70E94D309C115B2E0DB0748F220912E
:1017C000350430913604409137045091380460E07C
:1017D00074E284EF90E00E946B3920513109410995
:1017E000510956954795379527952093B800DF9175
:1017F000CF911F910F91FF90EF90DF90CF900895C0
:101800002FB7F8948091B9019091BA01892B61F0BA
:101810004091B9015091BA0180E89CE0841B950B7E
:101820009093B8018093B7012FBF08952FB7F89414
:101830008091B7019091B8018057944F9093B8016F
:101840008093B7012FBF08950E9483042091010364
:10185000309102032817390771F0AC01421B530B7A
:101860009A0141E3429FC001439F900D1124893AA0
:1018700051E6950710F090E080E0089560E084E084
:101880000C94E60460E086E00C94E6042FB7F8942C
:101890006093B3017093B4018093B5019093B60146
:1018A0002FBF08959091010181E020910201291339
:1018B00001C080E008959FB7F89420910101209322
:1018C0000201809301019FBF0895882331F0109297
:1018D0003E0481E080933F04089581E080933E04BC
:1018E000F9CF24E630E0662311F024EF31E040E444
:1018F0005FE1421B530B4817590718F0820F931FE3
:10190000089580ED97E0089581E08093930161E070
:1019100085E00E94E60461E08BE00C94E604EF921F
:10192000FF920F931F93CF93DF93EC018091BB0144
:101930009091BC017A01E81AF90A8091C301909153
:10194000C4018A01081B190B4093C3015093C401C1
:101950006093C5017093C60120E4E2162FE1F20600
:1019600020F03FE3E32E3FE1F32E9E01A0E3B0E041
:101970000E94B2399B01AC01D8010E94C83928EEFF
:1019800033E040E050E00E946B398091CB019091B0
:10199000CC01A091CD01B091CE01820F931FA41F65
:1019A000B51F8093CB019093CC01A093CD01B09350
:1019B000CE018091CF019091D0018C179D0720F42A
:1019C000D093D001C093CF01B70190E080E027E031
:1019D000660F771F881F991F2A95D1F720E43FE1F2
:1019E00040E050E00E946B398091D301821761F191
:1019F0002093D301D093D501C093D40181E080938B
:101A0000D8016091D80170E08091D4019091D50106
:101A10000E944339CB017093D7016093D601F9013D
:101A20006AEF843D20E3920720F462E370E00E94B5
:101A30004339E554FE4F668FC801DF91CF911F9166
:101A40000F91FF90EF9008958091D4019091D5016E
:101A5000C80FD91FD093D501C093D4018091D8016C
:101A60008F5FCDCF80915902882349F080915A022F
:101A7000882329F01092EF0288E10C945B0C8FE030
:101A8000FCCF80E00C945B0CE091F202F0E0EE57AA
:101A9000FE4F8181803219F481E4818308959FEBA8
:101AA000980F993110F48F5FF8CF8A3511F480E3E5
:101AB000F4CF90ED980F9930B0F3893311F48DE2A3
:101AC000ECCF8D3211F48EE2E8CF80E2E6CF0F93B7
:101AD0001F93CF93DF93CDB7DEB729970FB6F89456
:101AE000DEBF0FBECDBF99E0ECE3F1E0DE01119661
:101AF00001900D929A95E1F7FB0197EC91939B0170
:101B0000255F3F4FDF0190E29D93A217B307E1F7F6
:101B10008E010F5F1F4FAB01475F5F4F9F01D801E1
:101B20009D918D01D9019D939D01A417B507B9F72A
:101B30008F5CDB011A968C931A978091E902909141
:101B4000EA021C969C938E931B97809193011D969D
:101B50008C938091EB029091EC02911192E0209194
:101B6000F402B4E02B9F90011124822B892BDB011E
:101B70001E968C939B01215F3F4F80E091918927B6
:101B80002E173F07D9F7FB01878729960FB6F894E0
:101B9000DEBF0FBECDBFDF91CF911F910F91089592
:101BA0006038710508F540325105F0F4FA01A3E000
:101BB000F595E795AA95E1F7F695FE2FEE27F795AF
:101BC000E795E60FF71FBA016770772741E050E00D
:101BD00001C0440F6A95EAF7E80FF91F9689213092
:101BE000310519F4492B468B0895232B19F44095A0
:101BF0004923F9CF4927F7CF2F923F924F925F9217
:101C00006F927F928F929F92AF92BF92CF92DF920C
:101C1000EF92FF920F931F93CF93DF933C014A0102
:101C20005901190127E0220E311C93E035942794C5
:101C30009A95E1F7EB012801460E571ED12CC12CD5
:101C400010E000E0F80183E0F595E7958A95E1F76B
:101C5000EC0DFD1DE80DF91DE491C8018770992771
:101C600020E830E002C0359527958A95E2F7C90152
:101C7000F0E0E223F923EF2B49F09701AE01B80120
:101C8000660D771D8BE294E00E94D00D0F5F1F4F11
:101C9000A016B106B9F6C20CD31C2196C415D50501
:101CA00079F6DF91CF911F910F91FF90EF90DF9028
:101CB000CF90BF90AF909F908F907F906F905F90EC
:101CC0004F903F902F900895AF92BF92CF92DF92A6
:101CD000EF92FF920F931F93CF93DF936C015B0101
:101CE000E9011C161D0664F47A018FEFE81AF80A60
:101CF0009801B501C6010E94D00D2197A701F1CF2F
:101D0000DF91CF911F910F91FF90EF90DF90CF90D7
:101D1000BF90AF9008956F927F928F929F92AF92F3
:101D2000BF92CF92DF92EF92FF920F931F93CF93C8
:101D3000DF93782E6091D901CFE16C9FB00111241F
:101D400090E080E02AEF30E040E050E00E946B3904
:101D5000C21BF12C8FE1E82E9AEF892E912CA12C39
:101D6000B12C662463948091D3018F15C0F1CF2CE0
:101D7000D12CF601E554FE4F268D30E0AE2DB0E0BB
:101D80000E94B239A50194010E946B39DE2DD21B4D
:101D90004D2F50E021E030E0B6018BE294E00E944C
:101DA000D00D7720B1F0FF20A1F04D2FCD1708F412
:101DB0004C2FCD1788F4262D2C1BC22FCD0F2C2F86
:101DC00030E050E001E010E0B6018BE294E00E94C8
:101DD000640EF394CD2FC7CFCF5FCD1BF0CFDF9133
:101DE000CF911F910F91FF90EF90DF90CF90BF9018
:101DF000AF909F908F907F906F9008954F925F92D9
:101E00006F927F928F929F92AF92BF92CF92DF920A
:101E1000EF92FF920F931F93CF93DF93EC015B013F
:101E20006A01490128013701F12CE12CE814F90479
:101E30006CF4B7016A0D7B1D83019201A601CE01EE
:101E40000E94640E8FEFE81AF80AF0CFDF91CF916D
:101E50001F910F91FF90EF90DF90CF90BF90AF90C8
:101E60009F908F907F906F905F904F9008952F92EA
:101E70003F924F925F926F927F928F929F92AF921A
:101E8000BF92CF92DF92EF92FF920F931F93CF9367
:101E9000DF9300D000D0CDB7DEB79C838B83DC010D
:101EA00052968C91B6E08B9F90011124EB81FC81BE
:101EB00095899923D1F046855785420F531F4138A4
:101EC00051059CF00088F189E02DAB81BC811F9603
:101ED0001C921E921E97B8E08B9FA00111244E0FFA
:101EE0005F1FEB81FC81518B408BAB81BC811E96C7
:101EF000CD90DC90B0E8CB16D1040CF08CC0EB8117
:101F0000FC81A088B188F0E2AF16B1040CF083C068
:101F10002C0D3D1D121613060CF07DC028E0829F8B
:101F2000C00111248A0D9B1D181619060CF073C0F0
:101F300080EE860F803408F095C06052770B25E064
:101F4000269FC001279F900D11242601912C812CE2
:101F5000DC01A851BB4FBA83A983E981FA81E80D5E
:101F6000F91DE491712C612C2E2E312C8E2F817055
:101F7000E0FF85C0EB81FC81E388F12C811106C074
:101F8000EB81FC8194898389981781F0AB81BC81B6
:101F900052962C915297213009F076C09701A501F5
:101FA000460D571DB201CD010E94D00DF101F595EE
:101FB000E795BFEF6B1A7B0AF8E06F167104A1F684
:101FC0002FEF821A920A3FEF431A530A85E08816D0
:101FD000910409F0C2CFAB81BC815496EC90549728
:101FE00053968C915397E816B1F052968C91F12C40
:101FF000282F30E0890193E0000F111F9A95E1F737
:10200000B601B5E08B9F600D711D1124A5018B8178
:102010009C810E94FE0EEB81FC812289868597853A
:10202000F6E02F9F800D911D1124AB81BC811F967E
:102030009C938E931E970F900F900F900F90DF91AF
:10204000CF911F910F91FF90EF90DF90CF90BF90B5
:10205000AF909F908F907F906F905F904F903F9048
:102060002F90089580E491E0633709F46ECF85E402
:1020700091E0683F09F469CF8BE990E066CFAB81CE
:10208000BC815496EC9079CF30E0269DA001279D2D
:10209000500D369D500D11244A0D5B1D289DB00139
:1020A000299D700D389D700D11246C0D7D1D8901C9
:1020B0008B819C810E94FE0E79CFFC016A3081F4F5
:1020C00017861686828998E0899F9001112480895D
:1020D0009189820F931F918B808B81E090E008950E
:1020E0006D30D9F30E94370FF8CFEF92FF920F9324
:1020F0001F93EE24E394F12C0CE110E028E130E092
:1021000044E954E062E070E090E080E00E94FC0D61
:102110000AE010E020E330E048E554E06BE070E0D6
:1021200088E290E00E94FC0D0CE110E028E030E035
:102130004CE354E062E070E080E790E00E94FC0D28
:1021400002E010E028E530E043E050E068E170E0B4
:102150008BE294E00E94FE0E28E530E04BE150E077
:1021600068E170E08BE294E00E94FE0E1F910F91F7
:10217000FF90EF900895089590E080E00895BF9259
:10218000CF92DF92EF92FF920F931F93CF93DF9343
:10219000EC01B62EC72E8D85811105C0CE010E949F
:1021A000FA0781110EC01B861D861C8680E0DF9118
:1021B000CF911F910F91FF90EF90DF90CF90BF9044
:1021C000089540E060EFCE010E94A70701E0E12CF6
:1021D000D12C11E0CE010E945407F82ECE010E94AE
:1021E000540791E0F91218C0813099F51134D8F2F2
:1021F000DB86D11002C081E08D878B81882399F224
:102200002396EB2DFC2DCF01089629912193E817F9
:10221000F907D9F781E0CBCFEE2DF0E0F8120FC02F
:102220008B851817A0F4DE01AE0FBF1F13968C919B
:10223000802379F4F12C193008F41C87D12EEC0F8F
:10224000FD1F8381902F9095892383830AC081137A
:10225000F1CFFE01EE0DF11D8381802B8383FF24DE
:10226000F3946F2DCE010E9478071F5F000F11F4C9
:10227000E39401E087E08E1508F0ACCFB7CF61E0C2
:1022800089E00E94560585E090E00E94140561E017
:102290008AE00C94E60461E089E00E9456058FE034
:1022A00090E00E94140560E08AE00C94E604E1E40A
:1022B000F4E080E092E0DF019C011D92215030406B
:1022C000E1F708950E945711EBE2F4E081E0828B80
:1022D000838B848B0895EBEBF1E0608371838283C1
:1022E00093836483758386839783608771878287EE
:1022F00093876487758786879787108A118A128AE1
:10230000138A158A148A178A168A8FEF808F128E85
:10231000118E148E138E158EE9EDF1E080E8DF0149
:102320001D928A95E9F71092590240935A02089536
:10233000FB0101900020E9F73197AF01461B570BD5
:10234000DC01ED91FC910280F381E02D09948F92E4
:102350009F92AF92BF92EF92FF920F931F93CF93F2
:10236000DF93CDB7DEB7A1970FB6F894DEBF0FBEEF
:10237000CDBF7C01FA01CB0119A2223008F42AE07A
:102380008E010F5D1F4F822E912CB12CA12CBF010D
:10239000A50194010E946B39F901CA016A300CF55C
:1023A000605DD8016E938D01232B242B252B79F7AB
:1023B00090E080E0109721F0BD01C7010E949811C4
:1023C000A1960FB6F894DEBF0FBECDBFDF91CF91BF
:1023D0001F910F91FF90EF90BF90AF909F908F90C3
:1023E0000895695CDECF462F50E070E060E02AE09F
:1023F0000C94A711CF92DF92EF92FF920F931F934D
:10240000CF93DF936B01072E000CEE08FF0877FFD8
:102410001BC0EC016DE20E94F8058C014427552792
:10242000BA014C195D096E097F092AE0CE010E94AC
:10243000A711800F911FDF91CF911F910F91FF90F6
:10244000EF90DF90CF9008952AE0B701A601DF91C9
:10245000CF911F910F91FF90EF90DF90CF900C9450
:10246000A711CF92DF92EF92FF920F931F93CF931A
:10247000AC012AE030E0DC010E94C13900E410E048
:1024800020E030E057FF04C000EC1FEF2FEF3FEFDC
:10249000600F711F821F931F20E830E040E050E082
:1024A0000E948D396901890188279927821B930B26
:1024B00037FFC9016AE070E00E945739C82F87EFE3
:1024C000C8168FEFD80628F06DE28BE294E00E94E8
:1024D000370FC8016AE070E00E9457398BE294E040
:1024E0000E94FA116EE28BE294E00E94370F6C2F8B
:1024F0008BE294E0CF911F910F91FF90EF90DF90CE
:10250000CF900C94F311282F80910303882311F1AD
:10251000CB0148E350E050933A044093390430E053
:1025200030933C0420933B040E94311268EF8BE20D
:1025300094E00E94F80563E48BE294E00E94370F78
:1025400080919501882331F06FE274E08BE294E092
:102550000C94FF050895242FAB0170E060E00C940B
:10256000A711CF92DF92EF92FF920F931F93CF9319
:10257000C82F6B01F12CE12C08E010E020E830E0DE
:1025800048E150E070E060E08BE294E00E94FE0ED3
:1025900081E080933D0480933E0480933F04109239
:1025A0003A0410923904C13009F04BC008E110E040
:1025B00010933C0400933B0410923E0465E476E0E3
:1025C0008BE294E00E94FF05C0933E04C0933F0459
:1025D0008AE290E090933A048093390410933C048B
:1025E00000933B046DE48BE294E00E94370F60910E
:1025F0006F028BE294E00E94F31165E28BE294E0BB
:102600000E94370F8EE490E090933A04809339044F
:1026100010933C0400933B0465E48BE294E00E9439
:10262000370F6091690270916A024AE050E08BE2D4
:1026300094E00E94AB1265E28BE294E00E94370FB7
:1026400029C088E190E090933C0480933B046DE4C2
:102650008BE294E00E94370F60916F028BE294E06E
:102660000E94F31161E476E08BE294E00E94FF05A2
:102670006091690270916A024AE050E08BE294E056
:102680000E94AB12C23079F46AE376E08BE294E008
:102690000E94FF05CF911F910F91FF90EF90DF9067
:1026A000CF900C947B0B62E376E08BE294E00E9487
:1026B000FF05C60168EE73E00E9443398C014AE0D1
:1026C00050E08BE294E00E94AB126EE28BE294E069
:1026D0000E94370FC80164E670E00E9443394AE067
:1026E00050E08BE294E00E94AB1263E7A5CF4F92DB
:1026F0005F926F927F92AF92BF92CF92DF92EF92F2
:10270000FF920F931F93CF93DF938BEBC82E81E043
:10271000D82EF60160897189828993896C507E4F29
:102720008F4F9F4F28EE33E040E050E00E946B391E
:102730002901CBE2D4E081E08A8B8B8B8C8BF12C4E
:10274000E12C08E010E02AE230E048E150E06AE2E3
:1027500070E0CE010E94FE0E8AE290E09F878E8795
:1027600098E1A92EB12CB98AA88A69E374E0CE0158
:102770000E94FF05F601838D948D08EE13E0B801E9
:102780000E9443394AE050E0CE010E94AB126EE253
:10279000CE010E94370FF601838D948DB8010E94FF
:1027A000433964E670E00E9443394AE050E0CE01CC
:1027B0000E94AB1261E4CE010E94370F08E010E0E6
:1027C00024E230E048E150E06CE570E0CE010E9488
:1027D000FE0E8CE590E09F878E87B98AA88A66E313
:1027E00074E0CE010E94FF054AE050E0B201CE0144
:1027F000DF91CF911F910F91FF90EF90DF90CF90DD
:10280000BF90AF907F906F905F904F900C94AB1201
:102810000E9457118091D3018F3F19F080E00E94F0
:102820008B0E0E9477130C947B0B8F929F92AF922A
:10283000BF92CF92DF92EF92FF92CF93DF9328EE79
:1028400033E040E050E00E946B3949016B01EB013D
:102850002AE0BA01A4018DE593E00E94A7116EE27F
:102860008DE593E00E94C306C436D10560F460E3B1
:102870008DE593E00E94C3062A9728F460E38DE576
:1028800093E00E94C3064AE050E0B6018DE593E074
:10289000DF91CF91FF90EF90DF90CF90BF90AF90FE
:1028A0009F908F900C94AB120F931F93CF93DF9355
:1028B000EC010E94FF058C0165E471E0CE010E94ED
:1028C0009811800F911FDF91CF911F910F91089563
:1028D000EF92FF920F931F93CF93DF937C018B01B5
:1028E0000E945711CBE2D4E082E08A8B1F861E86BD
:1028F000198A188AB701CE010E9454141F861E86B9
:1029000080E190E0998B888BB801CE010E9454142D
:10291000DF91CF911F910F91FF90EF900C947B0B63
:10292000282F862F48E350E050933A04409339040F
:1029300030E030933C0420933B040E94650C80916E
:10294000930166E274E0813031F06CE174E0823032
:1029500011F063E174E08BE294E00E94541481E092
:1029600080933E0480933F0408950E94420C0E948D
:102970003E0C0E9408140E943F110E94EA0568570D
:102980007C4E8F4F9F4F0E94460C61E074E08DE5B6
:1029900093E00E94541481E10C945B0CCF92DF927F
:1029A000EF92FF920E94EA052091BB013091BC0199
:1029B000621B730B61342FE1720708F0F2C0709351
:1029C000D2016093D10181E09091D3019F3F09F43E
:1029D00080E08093590210925A0280937102C09055
:1029E0005F02D0906002E0906102F0906202C11438
:1029F000D104E104F104A9F020915B0230915C0262
:102A000040915D0250915E02A4E6B0E00E94C83998
:102A1000A70196010E946B39253631054105510504
:102A200020F024E630E040E050E084E6821B809312
:102A30006F02C0906302D0906402E0906502F09053
:102A40006602C114D104E104F10409F4B1C020917B
:102A5000CB013091CC014091CD015091CE01A4E643
:102A6000B0E00E94C839A70196010E946B39C901E4
:102A7000DA01883E23E09207A105B10520F087EE38
:102A800093E0A0E0B0E090936A02809369024091E5
:102A90006702509168024115510509F48EC02091DA
:102AA000CF013091D001A4E6B0E00E94B2399A0182
:102AB00050E040E00E946B39C901DA01883E23E012
:102AC0009207A105B10520F087EE93E0A0E0B0E009
:102AD00090936C0280936B0269E973E08DE593E05B
:102AE0000E94FF0560916E0270E06F5F7F4F8DE581
:102AF00093E00E94FA116DE873E08DE593E00E9487
:102B0000FF0560916F028DE593E00E94F31160E88C
:102B100073E08DE593E00E94FF056091690270917A
:102B20006A024AE050E08DE593E00E94AB1265E74F
:102B300073E08DE593E00E94FF0560916B02709158
:102B40006C024AE050E08DE593E00E94AB1268EB26
:102B500073E08DE593E00E94FF056091CB017091D9
:102B6000CC018091CD019091CE010E9415146BE6AD
:102B700073E08DE593E00E94FF056091CF017091B5
:102B8000D0014AE050E08DE593E00E94AB1265E48D
:102B900071E08DE593E0FF90EF90DF90CF900C9483
:102BA000981180E49FE19093D2018093D1010BCFE3
:102BB00020E030E040E050E05ACF20E030E040E05C
:102BC00050E07ACFCF93C82F0E94420C0E943E0C57
:102BD0000E94EA052091BB013091BC01621B730B7E
:102BE00061348FE1780708F04AC07093D201609396
:102BF000D10181E09091D3019F3F09F480E080935F
:102C000059026BED73E0C11102C069EC73E08DE510
:102C100093E00E94FF056091D1017091D2014AE0DA
:102C200050E08DE593E00E94AB1268EB73E08DE518
:102C300093E00E94FF056091CB017091CC018091DF
:102C4000CD019091CE010E9415146EEA73E08DE5DE
:102C500093E00E94FF056091CF017091D0014AE09E
:102C600050E08DE593E00E94AB1265E471E08DE5E4
:102C700093E00E94981182E1CF910C945B0C80E468
:102C80009FE19093D2018093D101B3CF85ED8093E2
:102C9000BC008091350390913603A0913703B09129
:102CA00038030796A11DB11D23E0B695A79597950A
:102CB00087952A95D1F72091BC0024FD03C010927E
:102CC00033030895409135035091360360913703E3
:102CD00070913803452B462B472B69F30097A105CC
:102CE000B10541F02AE22A95F1F700C00197A10948
:102CF000B109E1CF809134030C94B2091F93CF93B3
:102D0000DF93EC01162F0E942139181739F0612F3B
:102D1000CE01DF91CF911F910C942939DF91CF9192
:102D20001F9108958093EC0260E0882351F00E9487
:102D3000840C1092EB0260E081E090E00E947E162D
:102D400061E083E090E00C947E160F931F93CF9385
:102D5000DF93072F142F93E0899FE0011124CE0108
:102D600080569F4F0E947E16602FCE018F559F4F39
:102D70000E947E16612FCE018E559F4FDF91CF911D
:102D80001F910F910C947E16CF92DF92EF92FF92DB
:102D90000F931F93CF93DF93CDB7DEB760970FB636
:102DA000F894DEBF0FBECDBF082F10E00F5F1F4F9E
:102DB00094E0000F111F9A95E1F780E1FB01DE011D
:102DC000119601900D928A95E1F787EC89836E0147
:102DD00082E0C80ED11C9E01205F3F4FF60180E0CB
:102DE00091918927E217F307D9F7888B60E0C80132
:102DF0000E947E16EE24E394F12CF60161916F019E
:102E0000C8018E0D9F1D0E947E16FFEFEF1AFF0A6C
:102E100080E1E816F10489F767ECC80160960FB607
:102E2000F894DEBF0FBECDBFDF91CF911F910F9100
:102E3000FF90EF90DF90CF900C947E160C94213988
:102E4000CF92DF92EF92FF921F93CF93DF93883060
:102E500008F05DC098E4899FE0011124CE01805400
:102E60009F4F0E941E17863D09F051C06E0181ECF4
:102E7000C80ED11C11E0F12CC6010E941E1711349E
:102E800018F48B3F08F043C0F8261F5F9FEFC91A64
:102E9000D90A173489F7CE01895F9E4F0E941E1709
:102EA0008F1135C0CE018F5F9E4F0E941E17E82EF6
:102EB000CE018E5F9E4F0E941E17F82ECE018D5FB1
:102EC0009E4F0E941E17C82ECE018C5F9E4F0E94FF
:102ED0001E17182FCE018B5F9E4F0E941E17D82EF3
:102EE000CE018A5F9E4F0E941E1795EDE91690E372
:102EF000F90668F4312F2C2D2031374240F4382F59
:102F00002D2D2150310981E020343F4108F080E02F
:102F1000DF91CF911F91FF90EF90DF90CF900895B8
:102F2000AF92BF92DF92EF92FF920F931F93CF93D6
:102F3000DF938C01FC01E384F484F092EA02E092D6
:102F4000E9022685822F90E031E0422F427021FF76
:102F500030E03093EC0220FF02C021E0411120E07C
:102F60002093EB029595879595958795837083308F
:102F700009F457C08093F402D090F002F3E0DF9E92
:102F800050011124C50180569F4F0E941E17C82F63
:102F9000C5018F559F4F0E941E17D82FD093F60260
:102FA000C093F502C5018E559F4F0E941E17809356
:102FB000F7029091F4029130B9F52197CF30D742C2
:102FC000C0F58D2D0E942017809370028111D09240
:102FD0006D02F801858580939301C70164E670E076
:102FE0000E94433990E080E00E947E166091EB02DF
:102FF00081E090E00E947E166091EC0283E090E018
:103000000E947E168091EC028823E9F0DF91CF9137
:103010001F910F91FF90EF90DF90BF90AF900C94B5
:10302000840C1092F402A8CF923059F68150833666
:1030300040F21092F4021092F6021092F5028AE029
:103040008093F702BECF80919301823089F460E0D3
:1030500085E00E94E60461E08BE0DF91CF911F9153
:103060000F91FF90EF90DF90BF90AF900C94E6042B
:103070008111CCCF61E085E00E94E60460E0ECCFF6
:1030800070E06F537F4F9B0148E4849F200D311DFA
:103090001124C9010C941E178F929F92AF92BF9278
:1030A000EF92FF920F931F93CF93DF93182F0E94FD
:1030B0005711112351F1D0E0C0E00FE19AEF892EB2
:1030C000912CA12CB12C2FE1E22EF12C6C2F8091B0
:1030D0006E020E944018809FC0011124BC0190E044
:1030E00080E0A50194010E946B39A701421B530B9C
:1030F000BE01660F771F21E030E08BE294E00E9472
:10310000D00D2196C034D10509F78091D3018F3FAE
:1031100069F0812FDF91CF911F910F91FF90EF9078
:10312000BF90AF909F908F900C948B0EDF91CF91BA
:103130001F910F91FF90EF90BF90AF909F908F9055
:103140000895CF92DF92EF92FF920F931F93CF9348
:10315000DF93883010F080E039C08B01C82FD0E0B9
:10316000219684E0CC0FDD1F8A95E1F76B0120E109
:10317000C20ED11C7B01C61BD70BCE018E0D9F1D2D
:103180000E942139F70181937F01EC15FD05A9F714
:10319000F8018081873CF9F6978531969801215F87
:1031A0003F4F80E041918427E217F307D9F7981346
:1031B000D2CFF80183859485805D97408137974110
:1031C00050F681E0F8019585933028F6DF91CF9194
:1031D0001F910F91FF90EF90DF90CF9008952F9265
:1031E0003F924F925F926F927F928F929F92AF9297
:1031F000BF92CF92DF92EF92FF920F931F93CF93E4
:10320000DF93CDB7DEB7A5970FB6F894DEBF0FBE3C
:10321000CDBFA89580910101809343060E94EA05E5
:1032200060937E0170937F01809380019093810170
:1032300082E00E94BD047C0181E0E114F10409F008
:1032400080E080937D0183E00E94BD0421E0892B12
:1032500009F020E020937C0180E10E94BD0421E080
:10326000892B09F020E020937B01809101018031BE
:1032700009F479C080910101823061F48091F402F7
:10328000811171C080917002882321F08091000328
:10329000811169C08091030300E814EE882309F4CA
:1032A00057C0BE016F5F7F4F88EF92E00E94C30856
:1032B000882351F19A81812C912C540197FF06C0EB
:1032C000812C912CF8EFAF2EBB24BA944091F802D8
:1032D00089814B3309F08AC02D8127FF87C080FF89
:1032E00018C08B8100E011E82FEF3FEF80FD30C068
:1032F00000E811E82FEF3FEF81FD2AC000E012E85F
:103300002FEF3FEF82FD24C000E814EE2FEF3FEFD8
:103310001FC0082F10E030E020E073E0000F111F05
:10332000221F331F7A95D1F7007E1770222733278B
:10333000892F90E0B0E0A0E0EBE0880F991FAA1F72
:10334000BB1FEA95D1F7802B912B8C0108291929F5
:103350000E94320829A33AA34BA35CA36DA3109348
:103360007A0100937901109103031123A9F0809150
:10337000790190917A019C012158344E21153A45EA
:1033800010F00C94D53020919501222329F081155D
:10339000944114F410929501EF2879F4809174010E
:1033A00081110BC0809101018111D4C08091ED0287
:1033B000843009F079C00E94320D809172019091A1
:1033C0007C0191115CC1882341F0809171018823B7
:1033D00021F00E944B111092710110926D01109218
:1033E0006E0110926F011092700171C1092F10E0EF
:1033F000102F0027110F110F110F28E0829FB0012D
:103400001124062B172B012E000C220B330B08293D
:1034100019292A293B294832C9F4803561F49530AD
:1034200009F096CF8F818C3009F092CF00E812E836
:103430002FEF3FEF8DCF8F3F09F08ACF973009F004
:1034400087CF00E013E82FEF3FEF82CF403109F044
:103450007FCF6885662309F47BCF70E08F81AB0155
:10346000481B5109CA019695982F882797958795EB
:103470000E945739CB01770FAA0BBB0B53E0000F0B
:10348000111F221F331F5A95D1F700782770332759
:103490000052110921093109800F911FA21FB31F8A
:1034A0008401082B192B54CF80919501811185CF70
:1034B000112381F08091790190917A0181389B41AB
:1034C0004CF081E0809395011092940185E00E9478
:1034D0005B0C73CF8091F402882331F0809100035C
:1034E000811102C08BE1F3CF1092940110929501EB
:1034F00010929601109297011092980110929901E2
:1035000010929B0110929A0110929C0110929D01C1
:1035100010929E0110929F011092A1011092A001A1
:103520001092A2011092A4011092A3011092AF0177
:103530001092B0011092B1011092B201809100017D
:10354000882331F087E00E945B0C1092000135CF98
:1035500082E0BDCF80910101873011F480E0B7CFC8
:1035600080910101883009F428CF809101018930D0
:1035700009F423CF809101018A3009F41ECF809194
:1035800001018B3009F419CF809101018C3009F4CD
:1035900014CF809101018D3009F40FCF809101018A
:1035A0008E3009F40ACF80910101883109F405CFEA
:1035B00080910101893109F400CF809101018331AB
:1035C00009F4FBCE80910101843109F4F6CE80919B
:1035D00001018F3009F03EC080910003882309F477
:1035E000ECCE809195018111E8CE112341F08091BC
:1035F000790190917A0181389B410CF0DECE0E94D6
:10360000EA056B017C010E94571141E0C701B60138
:103610000E946B110E940814C701B601605C704ED5
:103620008F4F9F4F0E94460C61E085E00E94E604A8
:103630000E944B1161E084E00E94E60461E086E0B4
:103640000E94E60463EC70E08DE593E00E94541460
:1036500080E13DCF80910101823109F4AECE8091AD
:103660000101853019F41092940178CF8091010105
:10367000853009F4A2CE81E0809373019ECE811142
:10368000FDC0809101018531F9F080910101863101
:10369000D9F0809101018731B9F0809101018A311F
:1036A00099F0809101018B3179F0809101018111B4
:1036B00029C08091ED0290E0019667E070E00E94E1
:1036C00057398093ED0203C080E00E945B0C80912B
:1036D0000101811105C08091ED02882309F406C122
:1036E00080910101893109F0F3C08091E602909147
:1036F000DC029111E8C0813009F0EAC0EDEDF2E0A2
:1037000000E0F7C080910101863099F280910101BB
:10371000883059F48091EE0290E0019663E070E009
:103720000E9457398093EE02D2CF809101018831F7
:1037300049F48091EF0290E001968370992780937D
:10374000EF02C5CF809101018931D1F49091E60259
:1037500081E0890F2091DC02213059F091509330A3
:1037600010F40C94BC30211104C0853011F40C9479
:10377000C030893018F48093E602A9CF80E0FBCFF7
:1037800080910101893059F48091F00290E0019616
:1037900069E070E00E9457398093F00298CF8091E1
:1037A00001018A3059F48091F10290E0019666E0BF
:1037B00070E00E9457398093F10289CF8091010116
:1037C0008B3009F484CF809101018C3059F48091C1
:1037D000F20290E001966CE070E00E94573980930D
:1037E000F20275CF809101018D3039F48091F3029E
:1037F00091E089278093F3026ACF809101018E3096
:1038000009F465CF80910101843159F480914F0111
:1038100090E0019663E070E00E94573980934F0179
:1038200056CF80910101813109F451CF809101017E
:10383000823109F44CCF809101018F3009F447CFD8
:1038400080910101803159F40E94EA0560936D0175
:1038500070936E0180936F019093700138CF8091C7
:10386000EC02882309F433CF10919301113009F051
:103870002ECF0E943F111093710129CF8091010139
:10388000803109F024CFC0906D01D0906E01E0909E
:103890006F01F0907001C114D104E104F10409F446
:1038A00016CF0E94EA056C197D098E099F096C529A
:1038B00071408109910997FD0ACF81E00E94E215CC
:1038C0000E94B5148ACDEFEDF2E0853009F418CFEF
:1038D00010926C0110926A011092660110926701B9
:1038E000109268011092690110E009C0E9EEF2E05F
:1038F00001E010917B01111129C010926C01E0913F
:103900000101EC3110F00C949530F0E0E657F34EE5
:103910000C94AC39031DBB2C5E28F82BCF2CD52F73
:1039200075308A2DF31EA81F212001211122FC22AF
:103930008D235426BC267927C727B82D492EA52FBD
:10394000B12FBA2F00248724C32FCC2F80916C0174
:103950008F5F80936C018F30A8F080ED97E09183AA
:103960008083002319F081E080936B0110926C0139
:1039700010926A011092660110926701109268011C
:1039800010926901809165018111AECF0E94EA0514
:10399000AB01BC018091660190916701A091680123
:1039A000B09169010097A105B10539F16A017B0168
:1039B000C81AD90AEA0AFB0AD701C601885E9340F1
:1039C000A109B109B7FF19C080916A018530C8F01B
:1039D0004093660150936701609368017093690199
:1039E00011E080916A01853008F410E0002309F4A9
:1039F00086CF81E080936B0182CF81E080936A0162
:103A0000E7CF8F5FFBCF809101010E945B0C80911B
:103A10007B018111C3C0E0906301F0906401C0900C
:103A20007901D0907A01B09062010E9457111091F3
:103A3000ED0281E080933D0480933E0480933F0437
:103A400010923A041092390410923C0410923B04F4
:103A50008091F40261ED70E0811102C065ED70E0CB
:103A60008BE294E00E94FF05111105C06EE38BE22A
:103A700094E00E94370F82E080933D0410923A0454
:103A80001092390480E190E090933C0480933B04D1
:103A90008091E9029091EA0208EE13E0B8010E94D9
:103AA00043394AE050E08BE294E00E94AB126EE2B0
:103AB0008BE294E00E94370F8091E9029091EA0234
:103AC000B8010E94433964E670E00E9443394AE03D
:103AD00050E08BE294E00E94AB1263E78BE294E04B
:103AE0000E94370F91E090933D048091ED02823067
:103AF00008F01CC188E390E090933A048093390465
:103B000010923C0410923B0464EF70E0B11002C0CC
:103B10006CEE70E08BE294E00E94541461E08091BE
:103B2000ED02813009F060E088E00E94901488E3A3
:103B300090E090933A048093390480E190E0909370
:103B40003C0480933B046AED70E08BE294E00E94B9
:103B5000FF0541E050E0B7018BE294E00E94AB1218
:103B6000B60188E10E94831201E010E020E230E01B
:103B700050E040E066E370E08BE294E00E94640E67
:103B80000E947B0B0E943E0C0E94420C0E94240C5F
:103B9000909361018093600180E075C2809165011E
:103BA000811139CF8091ED0281117CC0612F80910C
:103BB000E9029091EA020E94710C9093EA028093CC
:103BC000E90280910101882309F425CF80917D01CC
:103BD0008093740180917C018093720180917B01BC
:103BE0008093650180910101873111F00C949B3025
:103BF00061E087E00E94E60481E0809362018091A9
:103C000001018031B1F080910101823011F00C94FA
:103C1000B5308091F40281110CC08091700288232C
:103C200011F40C94B53080910003882311F40C94A6
:103C3000B53099E1C92ED12CE12CF12C04E610E02D
:103C40000E94EA0580907E0190907F01A090800103
:103C5000B09081018C0C9D1CAE1CBF1C68197909A9
:103C60008A099B0997FD02C00C94F6300E94EA0570
:103C70007F73882799276F3F7F438105910501F75F
:103C800080916B018823E1F28091E9029091EA0230
:103C9000B8010E94433990E080E00E947E161092A5
:103CA0006B01CECF813021F58091EC02882319F091
:103CB00080E00E94921680919301811103C00E94BE
:103CC000840C7FCF813061F482E08093930160E0C7
:103CD00085E00E94E60461E08BE00E94E60471CF7B
:103CE0001092930161E085E00E94E60460E0F4CF69
:103CF000843019F40E94320D64CF823031F4109276
:103D0000EE0288E00E945B0C5CCF833021F41092BD
:103D1000F00289E0F7CF853021F410924F0184E161
:103D2000F1CF863009F04DCF83E1ECCF99249A94FE
:103D3000980E10E000E038E3A32EB12C892E881AEB
:103D400021E0921210C060E0802F0E9490149394A2
:103D5000085F1F4F0032110599F781E080933E0400
:103D600080933F0401CF32E0931216C0B0923A0420
:103D7000A092390410933C0400933B046AED70E078
:103D80008BE294E00E94FF0541E050E0B7018BE236
:103D900094E00E94AB12DBCF43E0941205C0B60161
:103DA000802F0E948312D3CFB0923A04A09239049C
:103DB00010933C0400933B0481E0982D990D9330BF
:103DC00009F080E00E94650C892D8450990BFC015C
:103DD000EE0FFF1FEE51FF4F659174918BE294E05F
:103DE0000E94FF05B4CF809101010E945B0C80917D
:103DF0007B0181117FC00E94621110923A041092DF
:103E0000390410923C0410923B0463E171E08BE2B0
:103E100094E00E94FF0510923A041092390488E061
:103E200090E090933C0480933B0481E09091EE02FB
:103E3000911180E00E94650C69E071E08BE294E0F2
:103E40000E94FF058091EB026BEF70E0882311F078
:103E50006FEF70E08BE294E00E94FF0581E08093B9
:103E60003E0480933F0410923A041092390480E19A
:103E700090E090933C0480933B0481E09091EE02AB
:103E8000913009F080E00E94650C62E071E08BE205
:103E900094E00E94FF058091EC026FEF70E08111C9
:103EA00002C06BEF70E08BE294E00E94FF0581E0BE
:103EB00080933E0480933F0410923A041092390498
:103EC00088E190E090933C0480933B0481E09091E2
:103ED000EE02923009F080E00E94650C65E476E025
:103EE0008BE294E00E94FF0581E080933E04809382
:103EF0003F0494C08091650181117DCF8091EE02D5
:103F000081111BC08091EB0291E089278093EB0225
:103F1000882339F01092EC0260E083E090E00E9488
:103F20007E166091EB0281E090E00E947E16809107
:103F30000101883009F04ACE5ECF813031F4909192
:103F4000EC0289270E949216F2CF0E94410DEFCF1A
:103F5000809101010E945B0C80917B01882379F0A4
:103F60008091650181110BC08091F002883018F0BA
:103F70000E94410D2BCE1092F1028AE084C00E9473
:103F8000621110923A041092390410923C0410927B
:103F90003B048091F00263E871E0883030F08BE2FE
:103FA00094E00E94FF050C94382E8BE294E00E946E
:103FB000FF0510923A041092390488E090E0909343
:103FC0003C0480933B04BE016F5F7F4F8091F00201
:103FD0000E94A118882329F14AE050E0BE016E5FDB
:103FE0007F4F8BE294E00E94230610923A041092D5
:103FF000390488E190E090933C0480933B04109254
:104000003E0411E010933F046CE171E08BE294E018
:104010000E94FF0510933E0410933F040E947B0B07
:10402000D5CD63E271E08BE294E00E94FF056091E0
:10403000F00270E06F5F7F4F8BE294E00E94FA1114
:10404000D4CF809101010E945B0C80917B01109183
:10405000F102882309F488C080916501811184C030
:10406000111116C0BE016F5E7F4F8091F0020E9459
:10407000A118882359F0CE0141960E94901781E043
:10408000809392018EE00E945B0CA0CD83E0F8CF7C
:10409000143059F48091F0020E942017882311F007
:1040A0008BE0F1CF10939201EDCF113009F049C0B0
:1040B000BE016F5E7F4F8091F0020E94A118082F11
:1040C0001091F002BE016F5F7F4F812F0E94A118F7
:1040D000811106C0BE016F5F7F4F812F0E94670D67
:1040E0008091E9029091EA029D878C8780919301EB
:1040F0008E878091EB029091EC02992301F192E07E
:104100002091F402A4E02A9F90011124822B892B94
:104110008F87BE016F5F7F4F812F0E94C416609111
:10412000F5027091F6024091F702812F0E94A516C8
:1041300001112FC28091F0020E948A3447CD90E095
:10414000DFCF1230B9F3133009F01DC3BE016F5E2B
:104150007F4F8091F0020E94A118882309F436CD88
:104160001092F3028DE08FCF1F5F133008F413E03D
:104170009DEFE92EE10E0E94621110E000E0DD24C7
:10418000D39410923A041092390410933C04009393
:104190003B04E1101BC060E58BE294E00E94370F06
:1041A0006091F00270E06F5F7F4F8BE294E00E94BD
:1041B000FA1168E371E08BE294E00E94FF05085F6A
:1041C0001F4FE39400321105E1F628CFFF24FA9443
:1041D000FE0C81E09091F1029F1180E00E94650C3D
:1041E000EF2DF0E0EE0FFF1FE45DFE4F659174913F
:1041F0008BE294E00E94FF05D0923E04D0923F04EF
:10420000DECF809101010E945B0C80917B018823AD
:1042100029F080916501882309F4AFCE0091F00266
:1042200080915902882389F080915A0281110DC032
:1042300080916E02081309C081E00E944C1870E062
:1042400060E081E00E94B112C1CCB8E40B9F800114
:104250001124C8018F5F9E4F0E941E17882EC8012F
:104260008E5F9E4F0E941E17982EC8018D5F9E4F35
:104270000E941E17A82EC8018C5F9E4F0E941E1719
:10428000B82E0E94571160E08091F0020E94401801
:104290001FE1819FC0011124BC0190E080E02AEF62
:1042A00030E040E050E00E946B39121BD12CC12C51
:1042B000E12CBFE17B2E0AEF202E312C412C512C1A
:1042C000662463946E2D8091F0020E944018879DB1
:1042D000C0011124BC0190E080E0A20191010E9484
:1042E0006B39F72CF21A4F2D1F1508F4412F1F15AB
:1042F00008F094C0262D211B122F1F0D212F30E016
:1043000050E001E010E0B6018BE294E00E94640E00
:104310004F2D50E0B6016F5F7F4F21E030E08BE220
:1043200094E00E94D00DE394E2E0CE0ED11C1F2D4C
:10433000F0E4EF12C7CFF12CE12C08E010E020E808
:1043400030E048E150E070E060E08BE294E00E94F1
:10435000FE0E11E010933D0410923A0410923904BD
:10436000A8E1EA2EF12CF0923C04E0923B0410927A
:104370003E0410933F0465E476E08BE294E00E94F3
:10438000FF0510933E0410933F048AE290E090935F
:104390003A0480933904F0923C04E0923B0464E4D4
:1043A00071E08BE294E00E94FF05C40168EE73E0C7
:1043B0000E9443398C014AE050E08BE294E00E9475
:1043C000AB126EE28BE294E00E94370FC80164E604
:1043D00070E00E9443394AE050E08BE294E00E9492
:1043E000AB1261E48BE294E00E94370F84E590E029
:1043F00090933A0480933904F0923C04E0923B0499
:1044000061E471E08BE294E00E94FF054AE050E035
:10441000B5018BE294E00E94AB1200CE1F5F1F1922
:104420006DCF809101010E945B0C80917B018823FC
:1044300011F40C94C3308091F202909165019111B6
:10444000B2C08A3008F07CC00E94440D0E94EA0588
:1044500060935C0170935D0180935E0190935F01B6
:1044600068517C4F8F4F9F4F609358017093590153
:1044700080935A0190935B010E94571181E08093D1
:104480003D0410923A041092390410923C041092A8
:104490003B0467E471E08BE294E00E94FF056091C9
:1044A000F00270E06F5F7F4F8BE294E00E94FA11A0
:1044B00010923A04109239048AE090E090933C0400
:1044C00080933B044AE050E063E871E08BE294E0C3
:1044D0000E9423068091F20256E0859F90011124EC
:1044E00030933A042093390422E130E030933C04C5
:1044F00020933B048A3028F46EE58BE294E00E941E
:10450000370F10923A041092390488E190E09093AA
:104510003C0480933B0481E09091F2029A3009F0D0
:1045200080E00E94650C8091F2026CEA71E08B30B1
:1045300009F0D6CC10923E0481E080933F04CECCAB
:104540009091E8028A3051F591111DC08091E902E5
:104550009091EA0290938E0180938D018091930156
:1045600080938F018091EB029091EC029923A1F04E
:1045700092E02091F40244E0249F90011124822BC8
:10458000892B8093900162E871E08091F0020E9493
:10459000C4161092920176CD90E0EBCF992309F4E6
:1045A000ECCC89E170CD8A3008F066CF80915C0157
:1045B00090915D01A0915E01B0915F01892B8A2BE2
:1045C0008B2B09F459CF0E94EA05009158011091F4
:1045D000590120915A0130915B01601B710B820BD4
:1045E000930B97FD49CF0E94440D0E94EA056A563D
:1045F0007F4F8F4F9F4F38CF809101010E945B0CFE
:1046000080917B01882309F442C08091650181116A
:104610003EC08091F302882309F4AFCC1091F002E0
:10462000812F90E0019660E0F4E0880F991FFA95E1
:10463000E1F70E947E16A3E01A9FC00111246FEFDC
:1046400080569F4F0E947E16B8E41B9FC001112424
:1046500060E080549F4F0E947E16809170028823F4
:1046600031F080916D02181302C010927002809197
:104670005902882351F080915A02811106C080911D
:104680006E02181302C01092590282E0F9CC0E9407
:10469000571111E010933D0410923A04109239041E
:1046A00010923C0410923B0467E571E08BE294E0C9
:1046B0000E94FF056091F00270E06F5F7F4F8BE218
:1046C00094E00E94FA1110923A04109239048CE09E
:1046D00090E090933C0480933B048091F3020E940D
:1046E000650C6EE471E08BE294E00E94FF0510938C
:1046F0003E0410933F0410923A041092390488E16A
:1047000090E090933C0480933B048091F3028127D6
:104710000E94650C65E476E079CC0E94520C8823F7
:1047200041F00E94EA0568517C4F8F4F9F4F0E94D5
:10473000460C809101010E945B0C0E94EA050091E9
:10474000B3011091B4012091B5013091B601601B05
:10475000710B820B930B97FD18C08091E8028823A0
:1047600041F01092E8021092EF0284E08093F1028F
:1047700004CC80919201813019F41092ED02F8CBB3
:10478000843009F4FACB89E07ECC0E946211109249
:104790003A041092390410923C0410923B0463E8EE
:1047A00071E08BE294E00E94FF0582E080933D047B
:1047B00010923A04109239048CE090E090933C04FB
:1047C00080933B048091920164E771E0823081F034
:1047D00038F46CE771E0813059F060E671E008C0B0
:1047E0006EE671E0833021F066E671E08430A9F76F
:1047F0008BE294E00E94FF0581E080933D040ECCA3
:10480000809101010E945B0C80917B011091EF026D
:104810008823D1F180916501811136C0111102C048
:104820008FE031CC113061F4809159028823C1F3BB
:1048300080915A028823A1F30E94081482E123CCBC
:10484000123009F095CB1092DC028091E902909130
:10485000EA029093DE028093DD0280E49FE1909370
:10486000E0028093DF02E1EEF2E084E0DF011D92DE
:104870008A95E9F78AE08093E5021092E6021092A9
:10488000E7021092E8028DCE1F5F133008F413E0A8
:104890000E9462111450F12CE12CDD24D39410926B
:1048A0003A0410923904F0923C04E0923B0401E097
:1048B000010F79F464EA71E08BE294E00E94FF0555
:1048C000B8E0EB0EF11C102FE0E2EE16F10439F720
:1048D000A5CB81E09091EF02911380E00E94650CDE
:1048E0006EE971E0112351F065E971E0113031F0AA
:1048F0006CE871E0123011F065E476E08BE294E050
:104900000E94FF05D0923E04D0923F04D9CF8091FF
:1049100001010E945B0C80917B01811157C01091B5
:10492000DC028091E602882341F0853008F4D0C093
:1049300093E0111101C094E0891B833008F483E0F7
:104940000DEF080F0E94621185E0111101C086E091
:10495000F12CE12C6EEF462E480E78EEC72E73E058
:10496000D72EE4E6AE2EB12C5524539410E000234C
:1049700029F0142D100F013009F411E010923A04BF
:1049800010923904F0923C04E0923B041111A2C051
:1049900081E09091E602911180E00E94650C6EEF3B
:1049A00071E08BE294E00E94FF058091DC0269EFE8
:1049B00071E0882331F062EF71E0813011F068EE30
:1049C00071E08BE294E00E94FF05B9C0809165011F
:1049D0008111A5CFE091E602E11110C08091DC02C7
:1049E00090E0019663E070E00E9457398093DC020A
:1049F00080910101893109F0E9C891CF8FEF8E0FC5
:104A0000843040F58091DC02813061F4E150FF0B8D
:104A1000E452FD4F8581893018F48F5F8583E8CF9C
:104A200080E0FCCF81110CC0612F8091DD0290915C
:104A3000DE020E94710C9093DE028093DD02D8CFDB
:104A40008091E502833620F48F5F8093E502D0CF1A
:104A500081E0FBCFE53061F4612F8091DF0290911E
:104A6000E0020E94710C9093E0028093DF02C0CFBD
:104A7000E63049F48091E70290E00196877099272B
:104A80008093E702B5CFE730E1F48091DC0281301A
:104A900099F48091E10281110FC08091E2028111AD
:104AA0000BC08091E302811107C08091E402811163
:104AB00003C081E08093E4028091E7020E945F33AB
:104AC00097CF82E08093EF0288E10E945B0C90CF49
:104AD00081E033CF113009F084C08091DC02813055
:104AE000E1F56FED71E08BE294E00E94FF0541EE8D
:104AF000842E42E0942E66246394712C9091E602F9
:104B000081E09615170409F080E00E94650CD4013D
:104B10006D914D01605D8BE294E00E945D10BFEFEE
:104B20006B1A7B0AE5E06E16710441F750923E0461
:104B300050923F046AE48BE294E00E94370F509257
:104B40003E0450923F040F5FF8E0EF0EF11C20E2AC
:104B5000E216F10409F00ACF61CA81E09091E60201
:104B6000913009F080E00E94650C8091DC02811197
:104B70002AC068ED71E08BE294E00E94FF0580910D
:104B8000DD029091DE02B6010E9443394AE050E016
:104B90008BE294E00E94AB126EE28BE294E00E9402
:104BA000370F8091DD029091DE02B6010E944339F9
:104BB000B5010E9443394AE050E08BE294E00E9444
:104BC000AB1263E7B8CF61ED71E08BE294E00E9435
:104BD000FF056091E5028BE294E00E94F31165E22B
:104BE000AACF9091E60281E0153011F5953009F0D9
:104BF00080E00E94650C66EC71E08BE294E00E941C
:104C0000FF058091DF029091E002B6010E944339D6
:104C10004AE050E08BE294E00E94AB126EE28BE23D
:104C200094E00E94370F8091DF029091E002BDCFA7
:104C3000163071F5963009F080E00E94650C6CEB3F
:104C400071E08BE294E00E94FF05BE016F5F7F4F31
:104C50008091E7020E94A118882351F04AE050E0B9
:104C6000BE016E5F7F4F8BE294E00E94230667CF08
:104C700063EB71E08BE294E00E94FF056091E70234
:104C800070E06F5F7F4F8BE294E00E94FA1157CF84
:104C9000911380E00E94650C6CEA71E0173009F412
:104CA00090CE65E476E08DCE809101010E945B0C90
:104CB00080917B01882391F08091650181110EC064
:104CC00080915902882311F40C94CC1D80915A02D2
:104CD000882311F40C94CC1D88E1D5C90E9457118A
:104CE00082E080933D0410923A04109239041092AD
:104CF0003C0410923B046FE272E08BE294E00E946D
:104D0000541481E080933D0410923A0410923904C7
:104D100081E190E090933C0480933B0480910003F8
:104D20008823B9F065E272E08BE294E00E945414AB
:104D300010923A041092390489E190E090933C0477
:104D400080933B0469E172E08BE294E00E94FF05EE
:104D500065C96EE072E08BE294E00E9454141092F8
:104D60003A041092390489E190E090933C048093D6
:104D70003B0465E072E0E8CF0E94EA054B015C016C
:104D8000809101010E945B0C8091BF019091C00154
:104D9000A091C101B091C20175016401C81AD90A7C
:104DA000EA0AFB0AD701C601B7FD5CC0D501C40100
:104DB0004996A11DB11D8093BF019093C001A0939E
:104DC000C101B093C2018091BB019091BC018401EB
:104DD000081B190B0E94240C7C01B501A4010E9440
:104DE0008F0C64E472E08DE593E00E94FF05B8014A
:104DF00000341F4110F06FE37FE14AE050E08DE5A1
:104E000093E00E94AB1267E372E08DE593E00E94AD
:104E1000FF054AE050E0B7018DE593E00E94AB1238
:104E200068EB73E08DE593E00E94FF056091CB0194
:104E30007091CC018091CD019091CE010E9415140A
:104E400065E471E08DE593E00E9498113CE0E31683
:104E500030E3F30638F00E94420C0E943E0C85E1DC
:104E60000E945B0C80910101803111F00C94E61DD1
:104E70008091BB019091BC01A091BD01B091BE0198
:104E800075016401C81AD90AEA0AFB0AD701C601EA
:104E900080549F41A109B109B7FD07C080E00E947D
:104EA000E2150E94B5140C94E61D8091C701909103
:104EB000C801A091C901B091CA01A5019401281BA4
:104EC000390B4A0B5B0BDA01C90184569109A10920
:104ED000B109B7FF02C00C94E61D0E94081480922D
:104EE000C7019092C801A092C901B092CA010C9466
:104EF000E61D0E94EA056B017C018090B301909051
:104F0000B401A090B501B090B601809101010E945A
:104F10005B0CD701C60188199909AA09BB09B7FD1D
:104F200003C00E944B118ACCC818D908EA08FB08B4
:104F300030EAC30E3FE0D31EE11CF11CF7FE23C094
:104F4000DD24D394D0923D04F12CE12C08E010E054
:104F500020E830E048E150E070E060E08BE294E06F
:104F60000E94FE0E10923A041092390488E190E0FB
:104F700090933C0480933B04D0923E04D0923F0433
:104F800060E672E0E1CE0E9408140C94E61D809168
:104F900001010E945B0C80917B01882341F080918C
:104FA0006501811104C081E08093EF0295CEDD247C
:104FB000D394D0923D04F12CE12C08E010E020E8DD
:104FC00030E048E150E070E060E08BE294E00E9465
:104FD000FE0E10923A041092390408E110E010938A
:104FE0003C0400933B0410923E04D0923F0465E4DD
:104FF00076E08BE294E00E94FF05D0923E04D092CE
:105000003F046CE572E08BE294E00E94FF05809122
:10501000CF019091D00138EEE32E33E0F32EB701AB
:105020000E9443394AE050E08BE294E00E94AB12C8
:105030006EE28BE294E00E94370F8091CF01909155
:10504000D001B7010E94433964E670E00E94433901
:105050004AE050E08BE294E00E94AB1261E48BE204
:1050600094E00E94370F8CE590E090933A0480938F
:10507000390410933C0400933B0469E572E08BE231
:1050800094E00E94FF056091CB017091CC0180916A
:10509000CD019091CE016C507E4F8F4F9F4F28EEE7
:1050A00033E040E050E00E946B39BA01A9012AE0E8
:1050B0008BE294E00E94A7110C940E200E94EA0556
:1050C0004B015C010E94520C70900003882309F48C
:1050D00095C00E94EA052091E9023091EA02620F30
:1050E000731F811D911D0E94460C10929601109213
:1050F0009701109298011092990110929B011092C1
:105100009A0110929C0110929D0110929E011092A2
:105110009F011092A1011092A0012091F5023091FF
:10512000F602A4ECB9E00E94B23923E030E040E09E
:1051300050E00E946B39209351013093520140930B
:105140005301509354011092560110925501109240
:1051500057011092710280917002882389F17720A3
:1051600079F140E0C501B4010E946B1110925B021D
:1051700010925C0210925D0210925E0210925F0229
:105180001092600210926102109262021092630209
:1051900010926402109265021092660210926802E8
:1051A0001092670210926A021092690210926C02C9
:1051B00010926B0210926F0280916D0280936E02CA
:1051C0001092500161E084E00E94E60461E086E014
:1051D0000E94E6040E94EA0560527C468B4F9F4F76
:1051E00060937501709376018093770190937801B5
:1051F00080919301823011F40E94160C809101017C
:105200000E945B0C711002C010E019C10E94240CB6
:105210008C019093610180936001AC0170E060E0CB
:1052200020909C0130909D0140909E0150909F01E4
:10523000240E351E461E571E20929C0130929D0161
:1052400040929E0150929F012091A0013091A101B6
:105250002F5F3F4F3093A1012093A0010C3080E3DA
:10526000180738F00E94420C0E943E0C85E10C9415
:1052700043208091960190919701A0919801B0915F
:105280009901840F951FA61FB71F809396019093D5
:105290009701A0939801B093990180919A01909100
:1052A0009B01019690939B0180939A0180917002DB
:1052B000882309F4A2C0B501A401C8010E948F0C83
:1052C0006C018091BB019091BC01B401681B790B0A
:1052D00060349FE1790710F06FE37FE190E080E0B8
:1052E00026E0660F771F881F991F2A95D1F720E4C3
:1052F0003FE140E050E00E946B39622F80916D02E7
:105300000E944018E82F8091D6019091D7016AEF52
:10531000843DA0E39A0720F462E370E00E944339E1
:10532000E61708F0ECC06E1BF2E3EF9F700111244A
:10533000262F30E0D6010E94B23920915B023091D5
:105340005C0240915D0250915E02DC01CB01820F54
:10535000931FA41FB51F80935B0290935C02A093E0
:105360005D02B0935E022E2F30E0D6010E94B2396A
:1053700020915F023091600240916102509162027F
:10538000DC01CB01820F931FA41FB51F80935F0226
:1053900090936002A0936102B09362029601A0E331
:1053A000B0E00E94B2399B01AC01D7010E94C8391C
:1053B00028EE33E040E050E00E946B3980916302B8
:1053C00090916402A0916502B0916602820F931FD2
:1053D000A41FB51F8093630290936402A09365029B
:1053E000B093660280916702909168028E159F05C6
:1053F00020F4F0926802E09267028091F402882320
:1054000009F402CF20915501309156012017310740
:1054100020F41093560100935501813009F073C0B8
:1054200011E08091510190915201A0915301B091EE
:105430005401281639064A065B0608F4E5CE409169
:10544000B3015091B4016091B5017091B60175013D
:105450006401C41AD50AE60AF70A8091F4028111A0
:105460000DC0D701C60180959095A095B09588276D
:10547000B7FD83959927AA27BB27182F111102C0C2
:10548000F7FC1BC10E94420C8091F402882349F072
:10549000111107C081E08093500180937301109235
:1054A0009401772009F487C02091A0013091A101D7
:1054B0002115310509F46FC08091A201882309F4F8
:1054C0006AC050E040E060919C0170919D01809124
:1054D0009E0190919F010E946B392536310508F09D
:1054E0005AC01092EB0260E081E090E00E947E16CC
:1054F000109294010E943E0C86E10C944320BE2F32
:10550000B61B6B2F11CF4091B3015091B401609144
:10551000B5017091B6018091E9029091EA02B0E084
:10552000A0E0841B950BA60BB70B805D9740A109EB
:10553000B109880D991DAA1DBB1DB7FD65CE40910F
:105540005501509156014536510508F45DCE98013C
:10555000A4E6B0E00E94B2396B017C018091F702B1
:10556000A81BB1099A010E94C1396C157D058E05F1
:105570009F0570F080915701833018F48F5F8093FE
:10558000570111E080915701833008F058CF3CCE8D
:1055900010925701F6CF20919A0130919B0121156D
:1055A000310549F08091AF01811118C081E08093ED
:1055B000AF011092B20180917002882329F080918E
:1055C000000381110E94CE148091A2018F5F80930D
:1055D000A2010E943F1183E00C94432050E040E080
:1055E0006091960170919701809198019091990135
:1055F0000E946B3969018091B001853010F5E82F68
:10560000F0E0EE0FFF1FEC56FE4F328B218B8F5FC9
:105610008093B00165E00E9437399093B1012091E9
:10562000B001E5EAF1E030E060E070E0CB01231783
:10563000D1F141915191640F751F811D911D3F5F03
:10564000F6CFA4E6B0E0442755270E94C8394B01A5
:105650005C012091A3013091A401A5E5B0E00E9476
:10566000B23986169706A806B90648F48091B201A9
:105670008F5F8093B201882309F49DCF39CF1092B8
:10568000B2018091B10190E0FC01EE0FFF1FEC56DA
:10569000FE4FD28AC18A019665E070E00E945739B8
:1056A0008093B101BCCF30E050E040E00E946B3904
:1056B0003093A4012093A3017ECF809170028823B0
:1056C00011F1772001F18091C7019091C801A0915B
:1056D000C901B091CA0175016401C81AD90AEA0A60
:1056E000FB0AD701C60184569109A109B109B7FF88
:1056F00002C00C94E61D81E00E944C180E947713B2
:105700000E947B0BECCB6A017B01C818D908EA0820
:10571000FB080E94571182E080933D0410923A04E6
:105720001092390410923C0410923B0461E673E03D
:105730008BE294E00E94541480910003882359F175
:10574000809160019091610108EE13E0B8010E9420
:1057500043394AE050E08BE294E00E94AB126EE2E3
:105760008BE294E00E94370F80916001909161017B
:10577000B8010E94433964E670E00E9443394AE070
:1057800050E08BE294E00E94AB126DE573E08BE297
:1057900094E00E94FF05C701B60128EE33E040E027
:1057A00050E00E946B3949016B017C012AE0BA018B
:1057B000A4018BE294E00E94A7116EE28BE294E0D8
:1057C0000E94370FC701B60124E630E040E050E008
:1057D0000E946B39BA01A9012AE08BE294E00E9491
:1057E000A71163E78BE294E00E94370F0C940E2020
:1057F0000E94520C882399F02FB7F8948091B7013A
:105800009091B8012FBF892B11F00C94E61D0E94D6
:10581000EA056C507E4F8F4F9F4F0E94460C80913F
:1058200001010E945B0C0E94EA050091B3011091F6
:10583000B4012091B5013091B601601B710B820B50
:10584000930B97FF3CC080917102882341F081E067
:105850000E944C1870E060E082E00C9422210E94CB
:10586000571182E080933D0410923A04109239045B
:1058700010923C0410923B0464E573E08BE294E0E8
:105880000E94541480910303882311F40C940E2079
:1058900010923A041092390480E190E090933C0415
:1058A00080933B048091790190917A010E9431129A
:1058B00068EF8BE294E00E94F80563E493CF0E94C6
:1058C0004B11809163019091640101969093640162
:1058D0008093630180915001209103031091930103
:1058E0008823B9F01092500110927301222351F0D5
:1058F0008091790190917A0181389B411CF081E07F
:1059000080939501123011F40E94000C8AE10C94EE
:105910004320909173012223F9F020917901309175
:105920007A0121383B41C4F021E020939501309168
:10593000EB02332321F0112311F0892F822780936A
:10594000940185E00E945B0C123011F00C94E61D6E
:105950000E94000C0C94E61D992331F080E00E9417
:105960005B0C10927301F0CF112311F40C94CC1D39
:1059700084E00C9443200E94520C81110E94160C6A
:10598000809101010E945B0C2FB7F8948091B701C0
:105990009091B8012FBF892B59F30C94E61D0E94FA
:1059A000520C8823B1F00E94EA0568577C4E8F4F55
:1059B0009F4F0E94460C80919301823051F40E94C7
:1059C000000C0E94EA056053784F8F4F9F4F0E9452
:1059D000460C809101010E945B0C8090B301909075
:1059E000B401A090B501B090B6010E94EA058B0108
:1059F0009C01081919092A093B0937FF60C3861A57
:105A0000970AA80AB90A809193018230B1F4809173
:105A10007102882391F081E00E944C18C501B40105
:105A20006115710551E08507910520F06FEF7FEF5B
:105A300080E090E083E00C9422210E9457111092A4
:105A40003A041092390410923C0410923B046FE423
:105A500073E08BE294E00E945414C501B40128EE77
:105A600033E040E050E00E946B3949016B017C015A
:105A70002AE0BA01A4018BE294E00E94A7116EE231
:105A80008BE294E00E94370FC701B60124E630E0B4
:105A900040E050E00E946B39BA01A9012AE08BE294
:105AA00094E00E94A71163E78BE294E00E94370F15
:105AB00001E410E010933A040093390410923C047E
:105AC00010923B0469E473E08BE294E00E94FF05CE
:105AD00010933A040093390480E190E090933C04E1
