:100000000C94910A0C94C80A0C94C80A0C94C80A5F
:100010000C94C80A0C94C80A0C94C80A0C943C2787
:100020000C94C80A0C94C80A0C94C80A0C94C80A08
:100030000C94C80A0C94C80A0C94C80A0C94C80AF8
:100040000C94D3250C94C80A0C94C80A0C94C80AC2
:100050000C94C80A0C94C80A0C94C80A0C94C80AD8
:100060000C941D260C94C80ADB40A4A62EAF2000D9
:10007000A1C8D300408DAED580A80000600000006C
:100080000000000000000000000000E00000000090
:1000900000000000000000000001E000000000007F
:1000A000000000000000000001F00000000000005F
:1000B0000000000000000003F0000000000000004D
:1000C00000000000000007F0000000000000000039
:1000D000000000000007F800000000000000000021
:1000E000000000000FF800000003C0007E000001C7
:1000F000E0007F0FF800000003C000FE000001E0F8
:1001000000FFEFF800000003C000FE000001E00067
:10011000FFFFF800000003C000F00000000F007FA8
:10012000FE7FC0000003C000F00000000F003FFE93
:100130007FF83FF1FBCFFCFEF3BC3DEFE01FFE7FFD
:10014000FF7FFBFFDFFEFEFFBC3DEFE01FC6FFFFB2
:100150007FFBFFDFFEFEFFBC3DEFE00FE3C7FE7855
:100160007BC3DE1EF0FFBC3DEF0007FF87FC787B02
:10017000C3DE1EF0F83C3DEF0001FFFFF0007BC343
:10018000C01EF0F03C3DEF0001F37FE03FFBC3CF2A
:10019000FEF0F03C3DEF0003E33F807FFBC3DFFE5A
:1001A000F0F03C3DEF0007E73C00787BC3DE1EF03B
:1001B000F03C3DEF0007FFBE00787BC3DE1EF0F091
:1001C0003C3DEF0007FFFE00787BC3DE1EF0F03CF5
:1001D0003DEF000FFFFE007FFBFFDFFEF0F03FFD75
:1001E000EFE00FFFFF007FFBFFDFFEF0F03FFDEFD2
:1001F000E00FF9FF003E79F9CF9EF0F01F3DE7E0F8
:100200001FF1FF0000000000000000000000001FC0
:1002100080FF007FFFFFFFFFFFFFFFFFFFE01C00ED
:100220007F007FFFFFFFFEB46D888D18E000001F88
:10023000007FFFFFFFFE95AD7DB577E000000F006A
:100240007FFFFFFFFEA5AD9D8D19E0000006007F3A
:10025000FFFFFFFEB5ADEDB57EE000000000000140
:10026000800000000000000000000380000000008B
:10027000000000000007C0000000000000000000B7
:1002800007C00000000000000000000FC0000000D8
:100290000000000000001FE000000000000000005F
:1002A000001FE00000000000000000003FE0000030
:1002B000000000000000003FF0000000000000000F
:1002C00000007FF0000000000000001FF87FF00039
:1002D0000000000000003FFE7FF000000000000072
:1002E000003FFF7FF0000000000000001FFFFBE068
:1002F000000000000000000FFFF9FFC00000000038
:1003000000000FFFF9FFF800000000000007FFF1F8
:10031000FFFF00000000000003FC73FFFF800000EF
:1003200000000001FE3FFFFF80000000000000FF12
:100330001E0FFF000000000000007FFE1FFC0000F9
:1003400000000000003FFFFFF80000000000000078
:100350000FDFFFE0000000000000001F19FFC000D9
:100360000000000000003F3CFF0000000000000013
:10037000007E7CF800000000000000007FFE7C0092
:1003800000000000000000FFFFFC00000000000073
:100390000000FFFFFE0000000000000000FFFFFE65
:1003A0000000000000000001FFEFFE000000000060
:1003B000000001FFCFFE0000000000000003FF0767
:1003C000FE0000000000000003FC07FE000000002B
:1003D00000000003F003FE000000000000000180A8
:1003E00000FE000000000000000000007E00000091
:1003F000000000000000003E0000000000000000BF
:1004000000000C000000000000078000FC0000035A
:10041000C0000000078001FC000003C000000007CE
:100420008001FC000003C0000000078001E0000024
:10043000001E000000078001E00000001E007FE3B6
:10044000F79FF9FDE7787BDFC0FFF7FFBFFDFDFFFA
:10045000787BDFC0FFF7FFBFFDFDFF787BDFC0F0DB
:10046000F787BC3DE1FF787BDE00F0F787BC3DE11C
:10047000F0787BDE0000F787803DE1E0787BDE00EE
:100480007FF7879FFDE1E0787BDE00FFF787BFFD08
:10049000E1E0787BDE00F0F787BC3DE1E0787BDED1
:1004A00000F0F787BC3DE1E0787BDE00F0F787BC29
:1004B0003DE1E0787BDE00FFF7FFBFFDE1E07FFB81
:1004C000DFC0FFF7FFBFFDE1E07FFBDFC07CF3F3A0
:1004D0009F3DE1E03E7BCFC0000000000000000037
:1004E000000000FFFFFFFFFFFFFFFFFFFFC0FFFF58
:1004F000FFFFFD68DB111A31C0FFFFFFFFFD2B5A24
:10050000FB6AEFC0FFFFFFFFFD4B5B3B1A33C0FFF1
:10051000FFFFFFFD6B5BDB6AFDC000000000000019
:1005200000000000000000000000000000000000CB
:1005300000000000000000000000000000000000BB
:1005400000000000000000000000000000000000AB
:10055000000000000000000000000000000000009B
:10056000000000000000000000000000000000008B
:100570000000000000000000000000000000003F3C
:10058000FFFFFFFFFF80000000000000000003C02D
:100590000F8001F0007F80000000000000003C00A0
:1005A00007C000FC00007800000000000001C0004F
:1005B00003F0007F000004000000000000060000BF
:1005C00000FC001F80000400000000000018000074
:1005D000003F0007E00004000000000000E00018F9
:1005E000001FC001F8000400000000000300003EEE
:1005F0000007F0007E000400000000000C00001F57
:100600008001F8003F800400000000003000000F6F
:10061000E0007E000FC00400000000000C0000039A
:10062000F0001F8003E00400000000000300000051
:10063000FC0007E000E004000000000000E0000013
:100640003F0003F800000400000000000018000054
:100650000FC000FC000004000000000000060000C5
:1006600007F0003F00000400000000000001C0008F
:1006700001FC000FC00004000000000000003C006E
:10068000007E0003E000780000000000000003C0CE
:10069000001F0001F07F8000000000000000003F0C
:1006A000FFFFFFFFFF8000000000000000000000CF
:1006B000000000000000000000000000000000003A
:1006C000000000000000000000000000000000002A
:1006D000000000000000000000000000000000001A
:1006E000000000000000000000000000000000000A
:1006F00000000000000000000000000000000000FA
:1007000000000000000000000000000000000000E9
:1007100000000000000000000000000000000000D9
:1007200000000000000000000000000000000000C9
:1007300000000000000000000000000000000000B9
:1007400000000000000000000000000000000000A9
:100750000000000000000000000000000000000099
:100760000000000000000000000000000000000089
:100770000000000000000000000000000000003F3A
:10078000FFFFFFFFFF80000000000000000003FEED
:100790000007C001F07F80000000000000003C1F47
:1007A0000003F000FC007800000000000001C00F12
:1007B000C001FC007F800400000000000006000370
:1007C000F0007F000FC004000000000000180000CF
:1007D000FC001F8003E004000000000000E00000B7
:1007E0007F0007E000C004000000000003000000DC
:1007F0001FC001F800000400000000000C00000011
:1008000007E0007E0000040000000000300000004F
:1008100001F8001F80000400000000000C00000030
:10082000007E0007E000040000000000030000302C
:10083000001F8003F80004000000000000E0007CBE
:10084000000FE000FE000400000000000018003E61
:100850000003F0003F800400000000000006001FBD
:100860008000FC000FC00400000000000001C00771
:10087000E0003F0003E004000000000000003C0135
:10088000F0000F8000E0780000000000000003C0CE
:10089000F80007C0007F8000000000000000003F5B
:1008A000FFFFFFFFFF8000000000000000000000CD
:1008B0000000000000000000000000000000000038
:1008C0000000000000000000000000000000000028
:1008D0000000000000000000000000000000000018
:1008E0000000000000000000000000000000000008
:1008F00000000000000000000000000000000000F8
:1009000000000000000000000000000000000000E7
:1009100000000000000000000000000000000000D7
:1009200000000000000000000000000000000000C7
:1009300000000000000000000000000000000000B7
:1009400000000000000000000E00000007FFFFFF95
:10095000FFFFFFFFFFFFFFFF9E0000000FFFFFFFF5
:10096000FFFFFFFFFFFFFFFFFE0000003C00000055
:100970000000000000000000FE0000007000000009
:100980000000000000000000DE000000E0000000A9
:100990000000000000000000DE0000FFC0000000BA
:1009A0000000000000000000DE0001FF0000000069
:1009B0000000000000000000DE00018000000000D8
:1009C0000000000000000000DE000180000060E187
:1009D0009C33F060C1F9F800DE0001800000F0F106
:1009E0009E33F0F0C1F9FC00DE0001800000F0F160
:1009F0009E3300F0C1818C00DE000180000198D997
:100A00009B330198C1818C00DE000180000198D9E0
:100A10009B33E198C1F1F800DE00018000030CCDAA
:100A200099B3E30CC1F1F000DE0001800003FCCDBE
:100A300099B303FCC1819800DE0001800003FCC76C
:100A400098F303FCC1819800DE000180000606C710
:100A500098F3F606FDF98C00DE000180000606C35F
:100A60009873F606FDF98C00DE000180000000009E
:100A70000000000000000000DE0001FF0000000098
:100A80000000000000000000DE0000FFC0000000C9
:100A90000000000000000000DE000000E000000098
:100AA0000000000000000000DE00000070000000F8
:100AB0000000000000000000DE0000003C0000001C
:100AC0000000000000000000FE0000000FFFFFFF1C
:100AD000FFFFFFFFFFFFFFFFFE00000007FFFFFF1C
:100AE000FFFFFFFFFFFFFFFF9E0000000000000070
:100AF00000000000000000000E00000000000000E8
:100B000000000000000000000000000000000000E5
:100B100000000000000000000000000000000000D5
:100B200000000000000000000000000000000000C5
:100B300000000000000000000000000000000000B5
:100B400000000000000000000E00000007FFFFFF93
:100B5000FFFFFFFFFFFFFFFF9E0000000FFFFFFFF3
:100B6000FFFFFFFFFFFFFFFFFE0000003C00000053
:100B70000000000000000000FE0000007000000007
:100B80000000000000000000DE000000E0000000A7
:100B90000000000000000000DE0000FFC0000000B8
:100BA0000000000000000000DE0001FF0000000067
:100BB0000000000000000000DE00018000000000D6
:100BC0000000000000000000DE00018000000001C5
:100BD000C33F30C780000000DE000180000000013C
:100BE000E33F30CFC0000000DE00018000000001C4
:100BF000E30330CC40000000DE0001800000000173
:100C0000B30630CC00000000DE00018000000001CF
:100C1000B30C3FCF80000000DE0001800000000127
:100C20009B1C3FC3C0000000DE00018000000001EB
:100C30008B1830C0C0000000DE0001800000000101
:100C40008F3030C8C0000000DE00018000000001CD
:100C5000873F30CFC0000000DE00018000000001AF
:100C6000873F30CF80000000DE00018000000000E0
:100C70000000000000000000DE0001FF0000000096
:100C80000000000000000000DE0000FFC0000000C7
:100C90000000000000000000DE000000E000000096
:100CA0000000000000000000DE00000070000000F6
:100CB0000000000000000000DE0000003C0000001A
:100CC0000000000000000000FE0000000FFFFFFF1A
:100CD000FFFFFFFFFFFFFFFFFE00000007FFFFFF1A
:100CE000FFFFFFFFFFFFFFFF9E000000000000006E
:100CF00000000000000000000E00000000000000E6
:100D000000000000000000000000000000000000E3
:100D1000000000000000000000004F4E4520534836
:100D20004F54004155544F204645454400465245D6
:100D3000452052554E0020434F4F4C210043004365
:100D4000415345533A200054494D450054494D45BF
:100D50003E0073002E0000000000003E5B4F5B3E33
:100D60003E6B4F6B3E1C3E7C3E1C183C7E3C181C70
:100D7000577D571C1C5E7F5E1C00183C1800FFE767
:100D8000C3E7FF0018241800FFE7DBE7FF30483A0D
:100D9000060E2629792926407F050507407F05256F
:100DA0003F5A3CE73C5A7F3E1C1C08081C1C3E7FF7
:100DB00014227F22145F5F005F5F06097F017F00BE
:100DC0006689956A606060606094A2FFA2940804DE
:100DD0007E040810207E201008082A1C08081C2AFF
:100DE00008081E101010100C1E0C1E0C30383E3857
:100DF00030060E3E0E06000000000000005F0000FE
:100E00000007000700147F147F14242A7F2A12236E
:100E10001308646236495620500008070300001C7E
:100E20002241000041221C002A1C7F1C2A08083E87
:100E3000080800807030000808080808000060609A
:100E40000020100804023E5149453E00427F400008
:100E500072494949462141494D331814127F1027E0
:100E6000454545393C4A494931412111090736492F
:100E7000494936464949291E000014000000403403
:100E80000000000814224114141414140041221408
:100E90000802015909063E415D594E7C1211127C2F
:100EA0007F494949363E414141227F4141413E7F90
:100EB000494949417F090909013E414151737F0870
:100EC00008087F00417F41002040413F017F081416
:100ED00022417F404040407F021C027F7F04081077
:100EE0007F3E4141413E7F090909063E4151215E55
:100EF0007F09192946264949493203017F01033FE9
:100F00004040403F1F2040201F3F4038403F631477
:100F100008146303047804036159494D43007F4179
:100F200041410204081020004141417F04020102B6
:100F300004404040404000030708002054547840DB
:100F40007F284444383844444428384444287F386F
:100F50005454541800087E090218A4A49C787F08F1
:100F600004047800447D40002040403D007F10286C
:100F7000440000417F40007C047804787C0804042D
:100F8000783844444438FC1824241818242418FCC5
:100F90007C08040408485454542404043F44243C6A
:100FA0004040207C1C2040201C3C4030403C4428D9
:100FB0001028444C9090907C4464544C4400083673
:100FC00041000000770000004136080002010204E1
:100FD000023C2623263C1EA1A161123A4040207A01
:100FE0003854545559215555794122545478422149
:100FF0005554784020545579400C1E527212395580
:10100000555559395454545939555454580000457C
:101010007C410002457D420001457C407D12111259
:101020007DF0282528F07C545545002054547C54EC
:101030007C0A097F4932494949323A4444443A32A8
:101040004A4848303A4141217A3A42402078009D4E
:10105000A0A07D3D4242423D3D4040403D3C24FFFA
:101060002424487E4943662B2FFC2F2BFF0929F6A9
:1010700020C0887E090320545479410000447D41FA
:101080003048484A32384040227A007A0A0A727D53
:101090000D19317D2629292F28262929292630486E
:1010A0004D4020380808080808080808382F10C8DC
:1010B000ACBA2F102834FA00007B000008142A1460
:1010C0002222142A14085500550055AA55AA55AADB
:1010D000FF55FF55FF000000FF00101010FF001427
:1010E0001414FF001010FF00FF1010F010F0141483
:1010F00014FC001414F700FF0000FF00FF1414F4A8
:1011000004FC141417101F10101F101F1414141FA8
:1011100000101010F0000000001F101010101F1021
:10112000101010F010000000FF1010101010101020
:101130001010FF10000000FF140000FF00FF00006F
:101140001F10170000FC04F414141710171414F4E3
:1011500004F40000FF00F714141414141414F7001E
:10116000F7141414171410101F101F141414F4146F
:101170001010F010F000001F101F0000001F1400DE
:101180000000FC140000F010F01010FF10FF141409
:1011900014FF141010101F00000000F010FFFFFFDC
:1011A000FFFFF0F0F0F0F0FFFFFF0000000000FF95
:1011B000FF0F0F0F0F0F3844443844FC4A4A4A349B
:1011C0007E02020606027E027E02635549416338B2
:1011D00044443C04407E201E2006027E020299A563
:1011E000E7A5991C2A492A1C4C7201724C304A4DC1
:1011F0004D303048784830BC625A463D3E494949F6
:10120000007E0101017E2A2A2A2A2A44445F44449E
:1012100040514A444040444A51400000FF0103E02D
:1012200080FF000008086B6B083612362436060F64
:10123000090F06000018180000001010003040FFD1
:101240000101001F01011E00191D1712003C3C3C4A
:101250003C0000000000000103070F1F3F7F0080DB
:10126000C0E0F0F8FCFE005EBCE2613FDD83C29CA2
:101270007E20A3FD1F41009D23BE46DB65F88C1137
:10128000AF32CA57E974444941474E4F535449431A
:10129000533E00494E464F203E0050524F46494C67
:1012A0004553203E0053455454494E4753203E0079
:1012B000494E464F203E0050524F46494C45532020
:1012C0003E0053455454494E4753203E0050524F20
:1012D00046494C4553203E0053455454494E4753CC
:1012E000203E0053455454494E4753203E0046414A
:1012F0004E204F46460046414E204F4E004241434D
:101300004B203E004F4646004F4E0044554D503A4C
:1013100020004F4646004F4E005245535441525410
:101320003A200053455454494E4753004F50454EC0
:10133000203E0050524F46494C45200050524F46E7
:10134000494C4553004241434B203E0050524F46CA
:10135000494C45530020414354494F4E53005000DF
:1013600053415645203E004241434B203E005341ED
:101370005645203E005E004E414D45205000424102
:10138000434B203E0044454C455445203E004445D7
:101390004C45544520500053415645440050524F4F
:1013A00046494C4553003F0053004300520044005F
:1013B00041007C002D005000450042005700525370
:1013C000543A004E0059004241434B203E00204316
:1013D00055523A0054454D503A00444941474E4F0A
:1013E0005354494353004241434B203E00342E3076
:1013F0002E300046573A200056002E0035563A202F
:10140000002D2D0041002E00424153453A20002579
:10141000204E004C4F573A2000494E464F00415550
:10142000544F204F4646004155544F204F4E0043E5
:1014300000434F4F4C444F574E00434845434B20C9
:1014400054454D500054454D50204552524F520086
:1014500043555252454E54204C4F2100434845437A
:101460004B204341534500434845434B20434F499C
:101470004C0021204641554C542021004845494705
:101480004854204F4B3F0043415345002026200045
:1014900054494D45004341534553004C4F4144008E
:1014A000430044524F5050494E470073002E0041B4
:1014B0002020002E00414E4E45414C494E47000031
:1014C000000000240027002A00000000002500285A
:1014D000002B002200FF2100000000080002010094
:1014E00000030407000000000000000000000000EE
:1014F0002300260029000404040404040404020256
:101500000202020203030303030301020408102082
:101510004080010204081020010204081020C9279D
:10152000D83811241FBECFEFD8E0DEBFCDBF84B7BF
:101530008093570314BE0FB6F894A895809160006D
:10154000886180936000109260000FBE11E0A0E0FF
:10155000B1E0EAEDF9E702C005900D92AC39B107B0
:10156000D9F723E0ACE9B1E001C01D92A635B2077E
:10157000E1F71AE0C0E9DAE004C02197FE010E9419
:101580008F3BCF38D107C9F70E946A280C94E03C02
:101590000C94000080E480937C0080917A00806449
:1015A00080937A0080917A0086FDFCCF809178004C
:1015B0009091790008950895833081F028F4813066
:1015C00099F08230A9F008958730A9F08830C9F0E9
:1015D0008430B1F4809180008F7D03C080918000C1
:1015E0008F7780938000089584B58F7784BD0895A8
:1015F00084B58F7DFBCF8091B0008F778093B00052
:1016000008958091B0008F7DF9CFCF93DF93282F7D
:1016100030E0F901E852FB4E8491F901E65FFA4EA1
:10162000D491F901EA50FB4EC491CC23A1F0811171
:101630000E94DC0AEC2FF0E0EE0FFF1FE451FB4E9E
:10164000A591B491EC91ED2381E090E009F480E064
:10165000DF91CF91089580E090E0FACF1F93CF9370
:10166000DF93282F30E0F901E852FB4E8491F90115
:10167000E65FFA4ED491F901EA50FB4EC491CC23B7
:10168000A9F0162F81110E94DC0AEC2FF0E0EE0F7A
:10169000FF1FE753FB4EA591B4918FB7F894EC91DF
:1016A000111108C0D095DE23DC938FBFDF91CF915D
:1016B0001F910895DE2BF8CFE1EEF4E1E491E330E1
:1016C00019F140F4E130B1F0E230C9F060E089E0B6
:1016D0000C942E0BE73011F1E83041F1E430B1F712
:1016E0002091800020622093800090938B00809353
:1016F0008A00089594B5906894BD87BD089594B507
:10170000906294BD88BD0895209180002068209348
:101710008000909389008093880008959091B00094
:1017200090689093B0008093B30008959091B000BA
:1017300090629093B0008093B4000895CF93DF93AC
:1017400090E0FC01E65FFA4E24918A509B4EFC012A
:1017500084918823C9F090E0880F991FFC01E1541F
:10176000FB4EA591B491FC01E753FB4EC591D4917A
:1017700061110DC09FB7F8948C91209582238C93B2
:101780008881282328839FBFDF91CF9108956230FD
:1017900051F49FB7F8943C91822F809583238C93CA
:1017A000E8812E2BEFCF8FB7F894EC912E2B2C9352
:1017B0008FBFEACF3FB7F8948091D9029091DA02B7
:1017C000A091DB02B091DC0226B5A89B05C02F3F9B
:1017D00019F00196A11DB11D3FBFBA2FA92F982F57
:1017E0008827BC01CD01620F711D811D911D42E052
:1017F000660F771F881F991F4A95D1F708958F921A
:101800009F92AF92BF92CF92DF92EF92FF926B01C5
:101810007C010E94DA0B4B015C01C114D104E1048C
:10182000F104B9F00E94DA0B681979098A099B0959
:10183000683E73408105910580F321E0C21AD1080A
:10184000E108F10888EE880E83E0981EA11CB11C07
:10185000E4CFFF90EF90DF90CF90BF90AF909F903C
:101860008F9008952FB7F8946091D5027091D602A9
:101870008091D7029091D8022FBF0895AF92BF9266
:10188000CF92DF92EF92FF920F931F93CF93DF934C
:101890006C017B018B01040F151FEB015E01AE187B
:1018A000BF08C017D10759F06991D601ED91FC919D
:1018B0000190F081E02DC6010995892B79F7C501CA
:1018C000DF91CF911F910F91FF90EF90DF90CF901C
:1018D000BF90AF900895DC0180E0615090F09D9141
:1018E0009827E92FEF70F0E0EA59FD4E2491E92F97
:1018F000E295EF70F0E0EA58FD4EE491822F8E27DA
:10190000ECCF0895DC012C911196ED91FC91F894A7
:101910008181822B81839281322F30959323928310
:1019200087E090E00197F1F781818323818383E24F
:1019300090E00197F1F790817894EFECF0E0319727
:10194000F1F7922381E009F480E00895FC01908191
:101950000180F281E02D292F209560FF14C0F894BA
:101960008281822382838181892B8183A3E2B0E0FB
:101970001197F1F78281982B9283789487ED90E00C
:101980000197F1F70895F8948281822382838181FF
:10199000892B8183AFEFB0E01197F1F78281982B0B
:1019A000928378948FE090E0EBCFDF92EF92FF92FA
:1019B0000F931F93CF93DF93EC01D62EE42E08E014
:1019C00010E0FF24F39461E08D2D8F2109F460E095
:1019D000CE010E94A60CFF0C01501109A1F7E110E5
:1019E00010C0F894E981FA819181888180958923DA
:1019F0008183E981FA81928188818095892382831C
:101A00007894DF91CF911F910F91FF90EF90DF902D
:101A10000895EF92FF920F931F93CF93DF938C0162
:101A20007B0140E065E50E94D50CE70188E0E80E07
:101A3000F11C699140E0C8010E94D50CCE15DF056C
:101A4000C1F7DF91CF911F910F91FF90EF90089513
:101A5000FC0190810180F281E02DF8948181292F91
:101A600020958223818378943DE743E050E0315014
:101A700029F1DA011197F1F780818923C1F3F894F4
:101A80008281822382838181892B81837894ABE751
:101A9000B7E01197F1F7F894818182238183A3E164
:101AA000B1E01197F1F78081982381E009F080E09F
:101AB0007894E3E6F6E03197F1F7089580E0089531
:101AC000CF92DF92EF92FF928091EA029091EB0227
:101AD0000E94280D40E06CEC8091EA029091EB02AC
:101AE0000E94D50C4091E10264E48091EA02909159
:101AF000EB020E94D50C8091E502882309F1E09168
:101B0000E4028091E602882301F18091E1028111D3
:101B10001CC00E94320C6B017C018091EA02909102
:101B2000EB020E94820C813059F00E94320C6C1939
:101B30007D098E099F096E3E72408105910568F30B
:101B4000FF90EF90DF90CF900895E9508EEE92E0F5
:101B5000E33038F4F0E0EE0FFF1FEB5EFE4F8081C4
:101B600091816C01990FEE08FF088091E2028823B1
:101B700029F060E08091E3020E942E0BC701B601BC
:101B80000E94FF0B8091E2028823D1F261E08091F4
:101B9000E302FF90EF90DF90CF900C942E0B6F92AA
:101BA0007F928F929F92AF92BF92CF92DF92EF92ED
:101BB000FF920F931F93CF93DF938C01EB018091E2
:101BC000EA029091EB020E94280D882309F43FC09D
:101BD000B8018091EA029091EB020E94090D40E069
:101BE0006EEB8091EA029091EB020E94D50C7E018F
:101BF0006E0189E0C80ED11C8E01A090EA02B0905F
:101C0000EB0288E0882E912C712C66246394C50128
:101C10000E94820C81117628660CE1E08E1A9108F0
:101C2000B1F7F80171928F01CE16DF0631F780917E
:101C3000EA029091EB020E94280D813041F4F701F5
:101C400081917F01811105C0E017F107C1F790E094
:101C500008C068E0CE010E946B0C91E02885281333
:101C6000F6CF892FDF91CF911F910F91FF90EF90C9
:101C7000DF90CF90BF90AF909F908F907F906F90AC
:101C80000895CF93DF93CDB7DEB729970FB6F894B9
:101C9000DEBF0FBECDBFBE016F5F7F4F0E94CF0D75
:101CA000882331F08D818F33A9F020F48F31A1F09A
:101CB00080E007C08F3521F08F37D1F78CE001C06D
:101CC0008BE029960FB6F894DEBF0FBECDBFDF9133
:101CD000CF9108958AE0F5CF89E0F3CFEF92FF929C
:101CE0000F931F93CF93DF93EC01EC80FD806E1573
:101CF0007F050CF070C057FF04C0240F351F50E063
:101D000040E08E819F81FA01E20FF31F8E179F073B
:101D10001CF49C01241B350B121613060CF05BC03F
:101D2000922F842F8695869586958E9DD0018F9DC6
:101D3000B00D11246A0F7B1FAF8DB8A1A60FB71F7E
:101D4000477049F188E0841B482F682F70E0FB0141
:101D5000E25AFD4EE491281708F063C0621B710936
:101D60002FEF30E002C0359527956A95E2F7E22320
:101D70000130110539F0B0F10230110561F58C9197
:101D8000E82702C08C91E82BEC93941720F12C816A
:101D90003D81A20FB31FE92FE41BE83078F0023039
:101DA000110521F58E2F9C9190959C932C813D815E
:101DB000A20FB31F88508830B0F7E770EE2359F0B8
:101DC000F0E0EA5AFD4EE49101301105F9F010F10E
:101DD0000230110519F1DF91CF911F910F91FF9002
:101DE000EF900895E0958C91E823CECF81E0011526
:101DF000110509F480E081959E2F8C932C813D8103
:101E0000A20FB31F98509830C0F7D7CF8C91E82B12
:101E1000EC93E1CFE0958C91E823FACF8C91E82701
:101E2000F7CF0130110509F4ADCFE0F20230110512
:101E300009F4A5CFAE0DBF1DAECF0F931F93CF9367
:101E4000DF9377FF04C0260F371F70E060E0DC01EE
:101E50001496CD91DC91FB01E20FF31FCE17DF0743
:101E60001CF49E01261B370B121613064CF5FA01C3
:101E700057FD3796A3E0F595E795AA95E1F7EC9F16
:101E8000D001ED9FB00DFC9FB00D11246A0F7B1F98
:101E9000DC015F96ED91FC91E60FF71F4770552727
:101EA00081E090E001C0880F4A95EAF7482F0130A1
:101EB000110559F0A8F02E0F3F1F02301105E1F077
:101EC000DF91CF911F910F9108952E0F3F1FE217C1
:101ED000F307B1F38191DF011197842B8C93F7CF36
:101EE00080952E0F3F1FE217F30751F39191DF0109
:101EF000119798239C93F7CFE217F30709F3819189
:101F0000DF01119784278C93F7CF0F931F93FA016A
:101F1000DC0156964C9156974230E9F04330A1F1DE
:101F2000413061F514964D915C91DA01AE1BBF0B07
:101F3000FD01E21BF30B77FD0BC0DC0116964D9102
:101F40005C916417750724F4AB01BF010E941D0F5B
:101F50001F910F91089514964D915C91DA01A61B83
:101F6000B70BBD0161507109DC0116964D915C9172
:101F7000DA01AE1BBF0BFD01E21BF30B77FDE8CFCF
:101F8000AF010E946E0EE4CF16964D915C91DA017E
:101F9000A61BB70BBD0161507109CDCF0F931F93E5
:101FA000FA01DC0156964C9156974230A9F0433025
:101FB00091F1413019F514964D915C91DA01AE1B07
:101FC000BF0BFD013197F7FD04C0AB01BF010E94BB
:101FD0006E0E1F910F91089514964D915C91DA0148
:101FE000A61BB70BBD01DC0116964D915C91DA0181
:101FF000AE1BBF0BFD013197621B730BF7FDE9CFE1
:10200000DC0116964D915C91E417F50714F7AF01CA
:102010000E941D0FDECF16964D915C91DA01A61B32
:10202000B70BBD01621B730BCECFFC0177FD64C003
:1020300080859185681779070CF05EC057FD5CC0FC
:1020400082859385481759070CF056C086898230DF
:10205000B1F0833029F1813041F484819581841B72
:10206000950BAB01BC01615071092130310509F1BB
:1020700008F443C02230310509F463C00895848117
:102080009581DC01A61BB70BBD01615071098681EA
:102090009781DC01A41BB50BAD0141505109E5CF7F
:1020A00086819781861B970BBA01AC01415051097B
:1020B000DCCFCA0157FD0796A3E095958795AA95B1
:1020C000E1F7A481B5818A9F90018B9F300D9A9F83
:1020D000300D1124620F731F078CF0A1E02DE60F65
:1020E000F71F4770552721E030E001C0220F4A95C5
:1020F000EAF78081822B80830895CA0157FD0796F5
:1021000033E0959587953A95E1F7A481B5818A9F4B
:1021100090018B9F300D9A9F300D1124620F731F19
:10212000078CF0A1E02DE60FF71F4770552781E0DF
:1021300090E001C0880F4A95EAF780959081892345
:10214000DACFCA0157FD079623E0959587952A9522
:10215000E1F7A481B5818A9F90018B9F300D9A9FF2
:10216000300D1124620F731F078CF0A1E02DE60FD4
:10217000F71F4770552721E030E001C0220F4A9534
:10218000EAF780818227B7CF08958EBD00000DB495
:1021900007FEFDCF8EB508958CBD9DBD08950895B1
:1021A000FC016370668B8481958126813781613063
:1021B00039F0633029F0918780873387228708952B
:1021C000318720879387828708952F923F924F927D
:1021D0005F926F927F928F929F92AF92BF92CF92B7
:1021E000DF92EF92FF920F931F93CF93DF93CDB7C0
:1021F000DEB76A970FB6F894DEBF0FBECDBF9A8FD9
:10220000898F7A8369834A01D22E18870F83370119
:10221000BC2CDC0159962D913C915A972115310522
:1022200009F015C118968D919C9119976817790737
:102230000CF0D7C11A968D919C91481759070CF054
:10224000D0C14C2C512CB6E0CB9E600D711D1124D9
:102250007C876B87161617060CF0C3C1EA2DF0E0D9
:10226000FA87E98793E0EE0FFF1F9A95E1F7F88B65
:10227000EF87CF01840F951F181619060CF0B1C116
:10228000A98DBA8D58968C91811104C0BFEABD15F5
:1022900008F4D394A98DBA8DED91FC911197028425
:1022A000F385E02DCD010995B5E0DB9EC001112439
:1022B000E981FA81FC83EB83312C212C9C012A5A81
:1022C000324F388F2F8B4A2D50E05E8B4D8BEF892C
:1022D000F88DE20DF31D44919E828D82D12CC12C8C
:1022E00069817A81620D731D7A8B698B842F90E0EE
:1022F0009C8B8B8BE98DFA8DA081B18140FF82C0D0
:10230000F1E0BF126FC0AF126DC01C96ED91FC9151
:102310002F813885A4014C0D5D1D69897A89898DCD
:102320009A8D0995EB89FC89F595E7954E2F5FEF1E
:10233000C51AD50A6D817E818D899E89680F791FA6
:102340007E836D8398E0C916D10481F6AFEF2A1A17
:102350003A0AEB81FC81E40DF51DFC83EB83F5E08B
:102360002F16310409F0B3CF2F8138852615370594
:10237000B9F0A98DBA8DED91FC91B1E0BB1257C0B7
:10238000AB1255C069817A816B5F7F4F0088F189FC
:10239000E02D830128E030E0A401898D9A8D099514
:1023A000A98DBA8DED91FC9111970688F789E02DE2
:1023B000CD016A960FB6F894DEBF0FBECDBFDF9198
:1023C000CF911F910F91FF90EF90DF90CF90BF9032
:1023D000AF909F908F907F906F905F904F903F90C5
:1023E0002F9009941E96ED91FC91EF80F884098559
:1023F0001A8592014D815E816B817C81898D9A8DD8
:10240000099590CF2F8138852615370509F48ACF95
:1024100031E0B31207C0A31205C01C96ED91FC91E8
:10242000930178CF1E96ED91FC917301E0CF6B85FF
:102430007C85641975090684F785E02D73010F8585
:1024400018899201A401898D9A8D0995A9CFF90166
:1024500034969491329745915491D91AB7E0DB9E06
:10246000400D511D1124F901259134913C8B2B8B8A
:10247000FA0125903490FA01329674903196349195
:10248000398B329664903196449041E04C1518F0A7
:102490004A1508F07FC0662D062C000C770B7C8354
:1024A0006B83842D042C000C990B9E838D83A98D46
:1024B000BA8DED91FC9111970284F385E02DCD0149
:1024C0000995512CD12CC12CEA2DF0E0FA87E9872F
:1024D0002B2D30E03C872B87A401440D511D47FC78
:1024E0005A95588F4F8B69817A81660D711D67FCF3
:1024F0007A957E876D877989C71608F051CF2C2D84
:1025000030E04D815E81420F531FA985BA854A9FF5
:10251000C0014B9F900D5A9F900D1124FC01E80DB6
:10252000F91DF88BEF87852D612C4F89588D420F4F
:10253000531F5E8B4D8B671408F050C044244394A6
:10254000480E877041F4C1010196EB89FC89E20DC8
:10255000F31DD4901C01D7FE19C0A98DBA8DED9141
:10256000FC91662D70E0B1E0BB1219C0AB1217C030
:102570002D853E85620F731F0484F585E02D2F8124
:1025800038854D895E89898D9A8D0995DD0C639416
:10259000842DD1CF1E821D821C821B8288CF4B814D
:1025A0005C81640F751FAB85BC856A9FC0016B9F02
:1025B000900D7A9F900D112469817A81680F791F9F
:1025C0000684F785E02DEF80F88409851A859D0142
:1025D0004F855889898D9A8D0995D8CF570CC3940A
:1025E0008ACF6A960FB6F894DEBF0FBECDBFDF91DB
:1025F000CF911F910F91FF90EF90DF90CF90BF9000
:10260000AF909F908F907F906F905F904F903F9092
:102610002F9008958F929F92AF92CF92EF92FF9258
:102620000F931F93CF93DF93EC01262F898D9A8D03
:10263000009709F051C06A30D1F41D861C868D893F
:1026400048E0849F900111248E859F85820F931FFF
:102650009F878E8781E090E0DF91CF911F910F914E
:10266000FF90EF90CF90AF909F908F9008956D3036
:1026700089F3CC88AD888F898823C1F08C859D85AE
:1026800036E0C39E800D911D112448855985481759
:10269000590764F44E855F851D861C8638E0A39E2D
:1026A000C0011124840F951F9F878E87EA88FB88BD
:1026B000088919894E855F856C857D85CE010E94CC
:1026C000E5102C898C859D8546E0249F800D911D09
:1026D00011249D878C87BECF6A3069F41D861C86C5
:1026E000FC013896E4912D898E859F85E29F800DAF
:1026F000911D1124ADCF6D3009F4ACCFFC0134969F
:102700003491631708F4A6CF3296E491E61708F4E3
:10271000A1CFFC01329685909490462F431B342F15
:1027200047E0349F800C911C1124F40132963491BF
:102730003196E4913323A9F1EE2399F1CC88F40189
:102740003596E491AD884F89442301F10E2E000C9B
:10275000FF0BE30FF11DCE9EA001CF9E500D112463
:102760006C857D85460F571F6885798564177507C9
:102770006CF44E855F851D861C86FC013896E491BD
:10278000AE9E400D511D11245F874E87EA88FB885D
:10279000088919894E855F856C857D85CE010E94EB
:1027A000E510F4013496E4912C898C859D85E29F97
:1027B000800D911D11248DCF0F931F93CF93DF9325
:1027C0008C01D0E0C0E0F801EC0FFD1F649166239E
:1027D00041F082E193E00E940A13892B11F02196C7
:1027E000F2CFCE01DF91CF911F910F910895682F05
:1027F00082E193E00C940A136F927F928F929F92E2
:10280000AF92BF92CF92DF92EF92FF920F931F93FE
:10281000CF93DF93EC016B015A0139014801E88144
:10282000F9810284F385E02D0995E881F981028818
:10283000F389E02D87019301A501B601CE01099529
:10284000A501480D591D41505109E881F9810288BF
:10285000F389E02D9301B601CE010995E881F98154
:102860000088F189E02D9401A501B601CE010995FA
:10287000C60CD71CB60161507109E881F981008846
:10288000F189E02D9401A501CE010995E881F98136
:102890000688F789E02DCE01DF91CF911F910F912E
:1028A000FF90EF90DF90CF90BF90AF909F908F9070
:1028B0007F906F9009946F927F928F929F92AF92C8
:1028C000BF92CF92DF92EF92FF920F931F93CF931D
:1028D000DF935C01EB016A01490138018701DC01EA
:1028E000ED91FC916217730719F5641675062CF0CB
:1028F000962D872D3A01C92ED82E96012619370913
:102900002F5F3F4F048CF58DE02DA301BE01C50163
:102910000995DF91CF911F910F91FF90EF90DF907C
:10292000CF90BF90AF909F908F907F906F900895C1
:102930004615570591F42617370724F0892D4B01CA
:10294000C22FD82F9E01281939092F5F3F4F068CBF
:10295000F78DE02DA601B401DACF0284F385E02DD6
:102960000995D501ED91FC910488F589E02D83014D
:102970009401A601BE01C5010995D501ED91FC9117
:102980000688F789E02DC501DF91CF911F910F9146
:10299000FF90EF90DF90CF90BF90AF909F908F907F
:1029A0007F906F900994EF92FF920F931F93DC0139
:1029B0001A960D911C911B9718962D913C91199781
:1029C000ED91FC9100A0F1A1E02D7B0150E040E0F1
:1029D00070E060E009951F910F91FF90EF900895CE
:1029E0004F925F926F927F928F929F92AF92BF921F
:1029F000CF92DF92EF92FF920F931F93CF93DF93CB
:102A00006C012B015A0139014801DC01ED91FC9167
:102A10000284F385E02D0995E201640C751CD60152
:102A2000ED91FC91C615D7055CF40088F189E02D85
:102A300087019401A501BE01C60109952196EFCF3A
:102A40000688F789E02DC601DF91CF911F910F9184
:102A5000FF90EF90DF90CF90BF90AF909F908F90BE
:102A60007F906F905F904F9009948F929F92AF925A
:102A7000BF92CF92DF92EF92FF920F931F93CF936B
:102A8000DF93EC015B014A016901E881F98102846D
:102A9000F385E02D099595012C0D3D1D215031093F
:102AA000E881F9810488F589E02D78018401A40189
:102AB000B501CE010995E881F9810688F789E02DF5
:102AC000CE01DF91CF911F910F91FF90EF90DF909A
:102AD000CF90BF90AF909F908F9009948F929F92CC
:102AE000AF92BF92CF92DF92EF92FF920F931F931C
:102AF000CF93DF93EC015B014A0169017801E88122
:102B0000F9810284F385E02D0995C80CD91C860152
:102B100001501109E881F9810488F589E02D9501BA
:102B2000A401B501CE010995E881F9810688F789EC
:102B3000E02DCE01DF91CF911F910F91FF90EF908B
:102B4000DF90CF90BF90AF909F908F900994EF92BD
:102B5000FF920F931F93DC01ED91FC9100A0F1A176
:102B6000E02D09951F910F91FF90EF9008950F931D
:102B70001F93DC01ED91FC91068CF78DE02D0995FA
:102B80001F910F9108950F931F93DC01ED91FC911C
:102B9000048CF58DE02D09951F910F910895DC01AE
:102BA000ED91FC910084F185E02D09943F924F92C4
:102BB0005F926F927F928F929F92AF92BF92CF92CD
:102BC000DF92EF92FF920F931F93CF93DF9300D08A
:102BD00000D0CDB7DEB75C013B016A014901280195
:102BE00087E0480E511C93E0559447949A95E1F77D
:102BF000CA018E0D9F1D9A838983F12CE12C312C03
:102C00001C821B828B819C8187709927330C892BB6
:102C100061F4EB81FC8183E0F595E7958A95E1F716
:102C2000EE0DFF1DE80DF91D349037FE0AC021E0BE
:102C300030E0A6016B817C81660D771DC5010E9485
:102C4000CF158B819C8101969C838B830817190774
:102C5000C9F69FEFC91AD90AE40CF51C89819A813B
:102C6000C816D90669F60F900F900F900F90DF915C
:102C7000CF911F910F91FF90EF90DF90CF90BF9079
:102C8000AF909F908F907F906F905F904F903F900C
:102C900008952F923F924F925F926F927F928F9200
:102CA0009F92AF92BF92CF92DF92EF92FF920F93DB
:102CB0001F93CF93DF9300D000D000D0CDB7DEB705
:102CC0003C016A013E832D83FC82EB825801A41AE9
:102CD000B50AB7FE03C0B194A194B1088D809E805F
:102CE000861A970A97FE03C09194819491088A14DA
:102CF0009B045CF0902F812F0D811E819D838E831C
:102D00009C2D8D2D6B01692F782F0C151D055CF006
:102D10009D818E817E836D83692F782F902F812FE7
:102D20008601C92ED82E1601201A310A2B012D81B9
:102D30003E81421A530A57FE03C0519441945108F0
:102D4000710137FE03C03FEFE31AF30AF594E794ED
:102D50008D819E81861797075CF5A1E0B0E0BA836C
:102D6000A983C016D1064CF1D301ED91FC910484E6
:102D7000F585E02D2B813C81A8016D817E818A142F
:102D80009B041CF04D815E81B801C3010995E418D4
:102D9000F508F7FE0AC02D813E8189819A81280FAE
:102DA000391F3E832D83E20CF31C0F5F1F4FD9CFD9
:102DB0002FEF3FEF3A832983D4CF26960FB6F894AE
:102DC000DEBF0FBECDBFDF91CF911F910F91FF905E
:102DD000EF90DF90CF90BF90AF909F908F907F90BB
:102DE0006F905F904F903F902F900895089520919D
:102DF0001502260F3327331F21323105ECF42091C1
:102E00003B02FC0190E080E0243069F082E008950C
:102E1000A09115022191AC014D505E4FA40FB52F2A
:102E2000B11D2C930196861798F380911502680FB7
:102E30006093150280E0089581E0089510923B02AE
:102E400081E080933D0210923C0261E082E10E94A9
:102E50002E0B61E083E10E942E0BE9EBF0E0808114
:102E60008E7F808380818D7F808388E48093B8000B
:102E700085E48093BC000895CF93DF9391E0909315
:102E8000F2018823B9F0C091B800D091BA008091C6
:102E9000BC008A7B8093BC0060E082E10E942E0B24
:102EA00060E083E10E942E0B0E941E17D093BA00AF
:102EB000C093B800DF91CF91089508950895E091EF
:102EC000EC018091EB01E81730F4F0E0E553FE4FA0
:102ED000808190E008958FEF9FEF08959091EC012D
:102EE0008091EB012FEF3FEF981748F4E92FF0E0C6
:102EF000E553FE4F208130E09F5F9093EC01C901C4
:102F000008958091EB019091EC01891B990B089534
:102F1000CF92DF92EF92FF920F931F93CF93DF93A5
:102F20007C01CB018A012091E002222389F0EB0190
:102F30006B01C40ED51ECC15DD0569F06991D70172
:102F4000ED91FC910190F081E02DC7010995F3CF3F
:102F5000642F0E94F716C801DF91CF911F910F9146
:102F6000FF90EF90DF90CF900895CF93DF931F9263
:102F7000CDB7DEB769832091E0022223F9F02091DA
:102F8000DD02203258F021E030E0FC01338322835F
:102F900090E080E00F90DF91CF9108958091DE0264
:102FA000E82FF0E0E555FE4F998190838F5F809385
:102FB000DE028093DD0281E090E0ECCF61E0CE01A3
:102FC00001960E94F716F7CFCF92DF92EF92FF9211
:102FD0000F931F93CF93DF93D091DD0281E0D13225
:102FE00008F09CC0C091DF020E94DA0B6B017C01EB
:102FF00080913B0281116CC082E080933B0281E0B2
:1030000080933D028FEF80933A0210925F02D0933B
:103010005E02ABEAB1E0EEE3F2E080E0D8138DC0EF
:103020001092600280916002CC0FC82BC0936002A6
:1030300080913C02813009F084C010923C020E94D1
:10304000DA0B6B017C01809160028093BB00809160
:10305000EE019091EF01A091F001B091F101892B67
:103060008A2B8B2BA1F00E94DA0B0091EE011091BC
:10307000EF012091F0013091F1016C197D098E0969
:103080009F09061717072807390708F442C08091DF
:10309000BC0083FDD8CF85EC8093BC000E94DA0B86
:1030A0006B017C0180913B02823009F44CC080911D
:1030B0003A028F3F09F469C080913A02803209F4E4
:1030C00066C080913A02803309F463C084E026C070
:1030D0008091EE019091EF01A091F001B091F1018A
:1030E000892B8A2B8B2B09F483CF0E94DA0B00915A
:1030F000EE011091EF012091F0013091F1016C1976
:103100007D098E099F09061717072807390708F058
:103110006FCF8091ED010E943C1785E01092DE0296
:103120001092DD021092E002DF91CF911F910F917A
:10313000FF90EF90DF90CF9008959D9191938F5FD6
:103140006DCF85EEA9CF8091EE019091EF01A09116
:10315000F001B091F101892B8A2B8B2B09F4A2CFBE
:103160000E94DA0B0091EE011091EF012091F00125
:103170003091F1016C197D098E099F090617170717
:103180002807390708F08ECFC4CF80E0C7CF82E090
:10319000C5CF83E0C3CFEF92FF920F931F93CF93DE
:1031A000DF937C01C62F80912F039091300300970D
:1031B00009F459C02091330331E03093E0022093A9
:1031C000DF021092DE021092DD02DC01ED91FC9133
:1031D0000190F081E02D60E009958701EE24E394F1
:1031E000F12CD1E0C15080912F0390913003CF3F5B
:1031F00091F1B0E2EB16F104D8F00E94E41780914F
:103200002F039091300320913303D093E002209359
:10321000DF021092DE021092DD02DC01ED91FC91E2
:103220000190F081E02D60E00995EE24E394F12C0B
:1032300080912F0390913003F8016491DC01ED91AE
:10324000FC910190F081E02D0995BFEFEB1AFB0A8C
:103250000F5F1F4FC7CFDF91CF911F910F91FF904D
:10326000EF900C94E417E0913F03F09140039081BC
:10327000809145038095892380838701C15008F49C
:1032800038C0F801849120912D0330912E03232B17
:1032900029F00E94C5100F5F1F4FF0CF28E030E0EB
:1032A00040E8E0913B03F0913C0390914303582F99
:1032B0005423D9F05081952B9083E0913D03F091F8
:1032C0003E03908150914403952B9083E0913D0300
:1032D000F0913E0350819091440390959523908303
:1032E000469521503109E9F6D6CF50819095952326
:1032F000E3CFDF91CF911F910F91FF90EF90089551
:103300001F93CF93DF93EC018D8D9E8D009721F15C
:10331000162F29A131E03093E0022093DF021092B2
:10332000DE021092DD02DC01ED91FC910190F08152
:10333000E02D60E009958D8D9E8DDC01ED91FC9175
:103340000190F081E02D612F09958D8D9E8DDF918B
:10335000CF911F910C94E417ADA5BEA59C918BA9AC
:10336000809589238C938B8D9C8D892B31F0862FB2
:10337000DF91CF911F910C94C51028E030E080E8D8
:10338000A9A5BAA599A9462F4823C1F04C91942B21
:103390009C93ABA5BCA59C914AA9942B9C93ABA5EF
:1033A000BCA54C919AA9909594239C938695215005
:1033B000310931F7DF91CF911F9108954C9190958C
:1033C0009423E6CFDF92EF92FF920F931F93CF9358
:1033D000DF9380912F0390913003892B09F498C0DB
:1033E00020914703309148034091490350914A038B
:1033F00060E074E284EF90E00E946D3B205131095F
:103400004109510956954795379527952093B8005E
:1034100065E083ED94E10E94CB1860911603615042
:1034200082E193E00E9480192091180330911903E2
:10343000C901079697FD079633E0959587953A95CC
:10344000E1F72091160330911703829F8001839F3B
:10345000100D929F100D1124C0913103D0913203B1
:1034600080912F03909130030C0F1D1F009709F4DA
:103470008FC02091330331E03093E0022093DF02CC
:103480001092DE021092DD02DC01ED91FC910190C0
:10349000F081E02D60E40995EE24E394F12CDD2425
:1034A000D39480912F03909130030C171D0709F4DA
:1034B00046C0B0E2EB16F104D8F00E94E417809108
:1034C0002F039091300320913303D092E002209398
:1034D000DF021092DE021092DD02DC01ED91FC9120
:1034E0000190F081E02D60E40995EE24E394F12C45
:1034F00080912F03909130036991DC01ED91FC9153
:103500000190F081E02D0995BFEFEB1AFB0AC9CFBE
:1035100080912D0390912E03892B31F080915003DF
:10352000909151030E94CC10E0914103F09142032D
:1035300090818091460380958923808369CF0E9482
:10354000E41780912F0390913003892B09F461C017
:1035500020914B0330914C0340914D0350914E0309
:1035600060E074E284EF90E00E946D3B20513109ED
:103570004109510956954795379527952093B800ED
:10358000DF91CF911F910F91FF90EF90DF90089501
:10359000E0913F03F0914003808190914503892B96
:1035A00080830C171D0769F2899120912D033091BA
:1035B0002E03232B19F00E94C510F3CF28E030E032
:1035C00040E8E0913B03F0913C0390914303582F76
:1035D0005423D9F05081952B9083E0913D03F091D5
:1035E0003E03908150914403952B9083E0913D03DD
:1035F000F0913E03508190914403909595239083E0
:10360000469521503109E9F6CCCF5081909595230C
:10361000E3CFE0914103F091420380819091460312
:10362000892B8083ADCF1F93CF93DF93EC01162FAF
:103630008D8D9E8D892BB1F12DA93EA94FA958AD35
:1036400060E074E284EF90E00E946D3B205131090C
:103650004109510956954795379527952093B8000C
:1036600066EA111167EACE010E9480198D8D9E8D48
:10367000892B41F129AD3AAD4BAD5CAD60E074E210
:1036800084EF90E00E946D3B2051310941095109BE
:1036900056954795379527952093B800DF91CF91A0
:1036A0001F9108958B8D9C8D892B21F08EAD9FAD40
:1036B0000E94CC10EFA5F8A990818CA98095892350
:1036C0008083CECFEFA5F8A980819CA9892B808328
:1036D000E5CF90E080E008952FB7F8948091A9019C
:1036E0009091AA01892B61F04091A9015091AA0102
:1036F00080E89CE0841B950B90937202809371028A
:103700002FBF08952FB7F8948091710290917202A3
:103710008057944F90937202809371022FBF089547
:103720000E94CA0A2091A7013091A80128173907E1
:1037300071F0AC01421B530B9A0141E3429FC0015F
:10374000439F900D1124893A51E6950710F090E0BF
:1037500080E0089560E084E00C942E0B60E086E049
:103760000C942E0B2FB7F89460937B0270937C021D
:1037700080937D0290937E022FBF089520910301D4
:103780003091040181E04091000150910101421704
:10379000530709F480E008959C019FB7F894409185
:1037A00003015091040150930101409300013093B3
:1037B0000401209303019FBF089581E090E090935E
:1037C000A5028093A40261E085E00E942E0B61E0D7
:1037D0008BE00C942E0BE0919F02F0E0EF59FD4F2F
:1037E0008181803219F481E4818308959FEB980FE1
:1037F000993110F48F5FF8CF8A3511F480E3F4CF5C
:1038000090ED980F9930B0F3893311F48DE2ECCF3D
:103810008D3211F48EE2E8CF80E2E6CF0F931F9352
:10382000CF93DF93CDB7DEB729970FB6F894DEBFFD
:103830000FBECDBF99E0E9E5F1E0DE011196019000
:103840000D929A95E1F7FB0197EC91939B01255F0F
:103850003F4FDF0190E29D93A217B307E1F78E017E
:103860000F5F1F4FAB01475F5F4F9F01D8019D91D5
:103870008D01D9019D939D01A417B507B9F78F5C00
:10388000DB011A968C931A9780919402909195027D
:103890001C969C938E931B978091A4021D968C93EB
:1038A0009091960280919702811182E0892BDB0131
:1038B0001E968C939B01215F3F4F80E09191892759
:1038C0002E173F07D9F7FB01878729960FB6F89483
:1038D000DEBF0FBECDBFDF91CF911F910F91089535
:1038E000BF92CF92DF92EF92FF920F931F93CF93ED
:1038F000DF93EC01B62EC72E8D85811105C0CE0158
:103900000E94280D81110EC01B861D861C8680E03A
:10391000DF91CF911F910F91FF90EF90DF90CF90AB
:10392000BF90089540E060EFCE010E94D50C01E009
:10393000E12CD12C11E0CE010E94820CF82ECE0198
:103940000E94820C91E0F91218C0813099F511346F
:10395000D8F2DB86D11002C081E08D878B8188236D
:1039600099F22396EB2DFC2DCF01089629912193F6
:10397000E817F907D9F781E0CBCFEE2DF0E0F81288
:103980000FC08B851817A0F4DE01AE0FBF1F139672
:103990008C91802379F4F12C193008F41C87D12EF6
:1039A000EC0FFD1F8381902F9095892383830AC09C
:1039B0008113F1CFFE01EE0DF11D8381802B8383F6
:1039C000FF24F3946F2DCE010E94A60C1F5F000F01
:1039D00011F4E39401E087E08E1508F0ACCFB7CF87
:1039E000FF920F931F93CF93DF938C01F62EE091FC
:1039F000EA02F091EB021386158614861286118670
:103A0000108617821682158214821382C0E0B801D4
:103A10008091EA029091EB020E94701CD82F8823BB
:103A200029F0FC1629F0CF5FFC1688F7D0E008C01B
:103A300067E0C8010E946B0CF80197818913F3CFEE
:103A40008D2FDF91CF911F910F91FF90089561E02D
:103A500089E00E949E0B85E090E00E945C0B61E093
:103A60008AE00C942E0B61E089E00E949E0B8FE0AF
:103A700090E00E945C0B60E08AE00C942E0BFC014D
:103A800001900020E9F73197AF01481B590BBC01A9
:103A900082E193E00C943E0CCF93DF930E94DC1301
:103AA000EC0182E691E00E943F1D8C0F9D1FDF918B
:103AB000CF91089528E330E030931F0320931E0335
:103AC00090E09093210380932003662351F010929D
:103AD00023031092220381E090E0909325038093CA
:103AE00024038091A4029091A5028130910579F47C
:103AF0008DE29DE00E944C1D81E090E090932503B3
:103B000080932403909323038093220308950297C4
:103B100019F483E29DE0EECF8AE19DE0EBCF8F9236
:103B20009F92AF92BF920F931F93CF93DF93CDB726
:103B3000DEB7A1970FB6F894DEBF0FBECDBF19A2B6
:103B4000423008F44AE08E010F5D1F4F842E912C05
:103B5000B12CA12CA50194010E946D3BE62FB90167
:103B6000CA01EA30F4F4E05DD801EE938D01232B15
:103B7000242B252B79F790E080E0109719F0CD01E8
:103B80000E943F1DA1960FB6F894DEBF0FBECDBFB9
:103B9000DF91CF911F910F91BF90AF909F908F9029
:103BA0000895E95CE1CF462FBC0190E080E00C94E1
:103BB0008F1DCF93DF9391E090932603909327037B
:103BC00021E030E030932503209324033093230336
:103BD0002093220310921F0310921E0310922103C0
:103BE00010922003811141C087E49DE00E94DC1304
:103BF00082E0809326038093270310921F03109284
:103C00001E0380E190E09093210380932003809134
:103C1000940290919502C8EED3E0BE010E94453B0C
:103C2000CB016AE070E00E94D31D84E59DE00E9414
:103C3000DC138091940290919502BE010E94453B55
:103C400064E670E00E94453BCB016AE070E00E94B0
:103C5000D31D82E59DE00E94DC1381E08093260362
:103C600080932703DF91CF9108958CE49DE0BECF30
:103C7000CF93DF93EB01E2E1F3E028E330E0358717
:103C8000248790E0978786878FE39DE00E94DC136E
:103C900061E070E0CE01DF91CF910C94D31DBC01A7
:103CA000990F880B990B4AE00C948F1D4F925F92ED
:103CB0006F927F928F929F92AF92BF92CF92DF923C
:103CC000EF92FF920F931F93CF936B017C01742EA1
:103CD000AC019B010E94343B882399F085E691E07A
:103CE000CF911F910F91FF90EF90DF90CF90BF90F9
:103CF000AF909F908F907F906F905F904F900C94BB
:103D00003F1D46015701E894B7F82FEF3FEF4FE70B
:103D10005FE7C501B4010E94343B81110DC02FEF54
:103D20003FEF4FE75FE7C501B4010E946A391816FB
:103D30001CF489E691E0D4CF2FEF3FEF4FE75FE42B
:103D4000C701B6010E94C23A18161CF48DE691E034
:103D5000C7CF2FEF3FEF4FE75FECC701B6010E94DF
:103D60006A3987FDF3CF20E030E0A901C701B60131
:103D70000E946A3910E000E087FF08C08DE20E94CF
:103D8000F7138C01F7FAF094F7F8F094C0E060E0D4
:103D900070E080E09FE37C1641F020E030E040E2FC
:103DA00051E40E946F39CF5FF6CFA70196010E94C0
:103DB000FE382B013C010E94E1394B015C014AE0D5
:103DC0000E948F1D7C01E00EF11ECC23A9F1C501DC
:103DD000B4010E94103A9B01AC01C301B2010E94E0
:103DE000FD384B015C018EE20E94F713E80EF91ECC
:103DF000C15010F120E030E040E251E4C501B401CF
:103E00000E94C73A2B013C010E94E1394B016AE054
:103E100070E0C4010E94D31DE80EF91EB40190E0C9
:103E200080E00E94103A9B01AC01C301B2010E94E4
:103E3000FD384B015C01DCCFC701CF911F910F9181
:103E4000FF90EF90DF90CF90BF90AF909F908F90BA
:103E50007F906F905F904F900895282F9091A601CA
:103E60009923F9F0CB01BA0148E350E050931F03C6
:103E700040931E0330E0309321032093200341E060
:103E80000E94561E88EF0E94F7138DE39DE00E946A
:103E9000DC138091AC02882321F086E39DE00C9432
:103EA000DC1308952091180330911903C901079676
:103EB00097FD079623E0959587952A95E1F7209140
:103EC000160330911703829FA001839F500D929F8C
:103ED000500D112470E060E0809131039091320325
:103EE0000C94D93C0E94D43C85ED8093BC00809119
:103EF000EE019091EF01A091F001B091F1010796D0
:103F0000A11DB11D23E0B695A795979587952A9594
:103F1000D1F72091BC0024FD03C010923B0208950C
:103F20004091EE015091EF016091F0017091F1012B
:103F3000452B462B472B69F30097A105B10541F0AE
:103F40002AE22A95F1F700C00197A109B109E1CF52
:103F50008091ED010C943C171F93CF93DF93EC01FC
:103F6000162F0E94E738181739F0612FCE01DF9124
:103F7000CF911F910C94EF38DF91CF911F9108954D
:103F80008093970260E0882351F00E94DD1B10921D
:103F9000960260E081E090E00E94AC1F61E083E067
:103FA00090E00C94AC1FCF92DF92EF92FF920F93B0
:103FB0001F93CF93DF93CDB7DEB760970FB6F8941A
:103FC000DEBF0FBECDBF082F10E00F5F1F4F94E084
:103FD000000F111F9A95E1F780E1FB01DE011196B8
:103FE00001900D928A95E1F787EC89836E0182E05A
:103FF000C80ED11C9E01205F3F4FF60180E09191D9
:104000008927E217F307D9F7888B60E0C8010E947F
:10401000AC1FEE24E394F12CF60161916F01C8010D
:104020008E0D9F1D0E94AC1FFFEFEF1AFF0A80E16B
:10403000E816F10489F767ECC80160960FB6F894AA
:10404000DEBF0FBECDBFDF91CF911F910F91FF90CB
:10405000EF90DF90CF900C94AC1F0C94E738CF9288
:10406000DF92EF92FF920F931F93CF93DF938830ED
:1040700010F080E039C08B01C82FD0E0219684E099
:10408000CC0FDD1F8A95E1F76B0120E1C20ED11C38
:104090007B01C61BD70BCE018E0D9F1D0E94E738FA
:1040A000F70181937F01EC15FD05A9F7F8018081E7
:1040B000873CF9F6978531969801215F3F4F80E064
:1040C00041918427E217F307D9F79813D2CFF8016B
:1040D00083859485805D97408137974150F681E0D4
:1040E000F8019585933028F6DF91CF911F910F91BC
:1040F000FF90EF90DF90CF900895CF93C82F61E6A7
:1041000072E00E942F20811105C061E672E08C2FC1
:104110000E940E1C10929F028BE090E0CF910C94B5
:10412000CC1BDF92EF92FF920F931F93CF93DF93FD
:10413000CDB7DEB729970FB6F894DEBF0FBECDBF5F
:10414000809156038A3519F083E18093580380915A
:104150005803809359038AE5809356038091810028
:10416000887F85608093810082E090E00E942D200E
:10417000843A51F060E081E090E00E94AC1F64EA74
:1041800082E090E00E94AC1F84E090E00E942D202D
:104190008C3351F060E083E090E00E94AC1F6CE350
:1041A00084E090E00E94AC1F1092B0001092B10029
:1041B0001092B2008AE08093B3008091B0008260D8
:1041C0008093B0008091B10084608093B1008091B1
:1041D000B10082608093B100809170008260809312
:1041E000700062E082E00E949E0B62E083E00E9429
:1041F0009E0B62E080E10E949E0B61E086E00E94DF
:104200009E0B61E084E00E949E0B61E08BE00E94C7
:104210009E0B61E087E00E949E0B61E08AE00E94B5
:104220009E0B61E089E00E949E0B61E08CE00E94A1
:104230009E0B61E08DE00E949E0B61E085E00E9494
:104240009E0B61E08DE00E942E0B60E085E00E94F5
:104250002E0B0E94331D0E94AA1B60E08BE00E947F
:104260002E0B0E94AE1B60E087E00E942E0B0E9486
:10427000331D68EC70E080E090E00E94FF0B8091BD
:10428000310390913203892B39F10E94521F8091A2
:1042900018039091190360911603709117038132EE
:1042A00091050CF02AC1AC014052510957FF02C0E0
:1042B0004F5F5F4F559547956357710977FF02C070
:1042C0006F5F7F4F75956795F0E2EF2EF12C03E756
:1042D00010E02AE730E029C120911803309119033A
:1042E000C901079697FD079623E0959587952A952E
:1042F000E1F72091160330911703AC01429FC001F2
:10430000439F900D529F900D11240E94AF3B9093BC
:10431000320380933103892B09F0B7CF0E94521FDB
:1043200082E0809326038093270381E090E09093BE
:1043300025038093240390932303809322031092F8
:104340001F0310921E03109221031092200330E2EB
:10435000E32EF12C00E810E02AE13BE050E040E0E1
:1043600070E060E082E193E00E94D6150E94E219BD
:1043700060ED77E080E090E00E94FF0B0E94521F0A
:104380002AE139E050E040E070E060E082E193E053
:104390000E94D6150E94E21960ED77E080E090E07F
:1043A0000E94FF0B45E1D42E0E94521F20E2E22E14
:1043B000F12C00E810E02AE137E050E040E070E046
:1043C00060E082E193E00E94D6150E94E21964E663
:1043D00070E080E090E00E94FF0B0E94521F2AE1F3
:1043E00035E050E040E070E060E082E193E00E9460
:1043F000D6150E94E21964E670E080E090E00E9429
:10440000FF0BDA94D110D0CF0E94521FE091EA0244
:10441000F091EB021386158614861286118610869B
:10442000178216821582148213821092E80210926B
:10443000E90211E0BE016F5F7F4F8091EA02909127
:10444000EB020E94701C882309F45BC267E0CE0176
:1044500001960E946B0C98858913ECCF8091E8023D
:104460008F5F8093E8028981883231F008F040C282
:10447000803111F08232F1F68091E9028F5F8093F2
:10448000E9028091E102811128C08091EA029091B5
:10449000EB020E94280DBE016F5F7F4F8091EA0200
:1044A0009091EB020E94090D40E064EB8091EA02DA
:1044B0009091EB020E94D50C8091EA029091EB0260
:1044C0000E94820C082F8091EA029091EB020E94D8
:1044D000280D011102C01093E1028981803109F495
:1044E0000EC2CE0101960E94410E9091E4029817EF
:1044F00008F0A0CF8093E4029DCFAC014054510955
:1045000057FF02C04F5F5F4F559547956255710940
:1045100077FF02C06F5F7F4F7595679510E4E12EBE
:10452000F12C02E510E02AE532E082E193E00E94FE
:10453000D61582E08093340380912F03909130034D
:10454000892B09F4DFC08CE3809333031092EC01D4
:104550001092EB011092DE021092DD020E941E17F3
:104560008DE597E190931402809313028EE597E115
:10457000909318028093170280913A0387FD1EC022
:1045800061E00E949E0B61E080913A030E942E0B35
:1045900061E070E080E090E00E94FF0B60E08091BD
:1045A0003A030E942E0B6AE070E080E090E00E94E7
:1045B000FF0B61E080913A030E942E0B80912F0344
:1045C00090913003892B09F45CC12091470330910D
:1045D00048034091490350914A0360E074E284EF3C
:1045E00090E00E946D3B20513109410951095695D7
:1045F0004795379527952093B80064E086E790E0CB
:104600000E94CB1860911803615082E193E00E94F0
:10461000801964E082E790E00E94CB188091340317
:1046200060E1813009F064E182E193E00E94801949
:1046300064E08EE690E00E94CB188FE880934F03F1
:1046400080911603909117038038910509F032C1CB
:1046500080911803909119038034910509F03AC1B3
:1046600080913403813009F023C18FE980934F0397
:1046700012E16AED82E193E00E948019612F82E1EC
:1046800093E00E94801961E882E193E00E94801922
:1046900060914F0382E193E00E94801969ED82E10D
:1046A00093E00E9480198091340362E2813009F026
:1046B00061EF82E193E00E94801966E088E690E075
:1046C0000E94CB1880912F0390913003892B09F41D
:1046D00005C120914B0330914C0340914D03509103
:1046E0004E0360E074E284EF90E00E946D3B205145
:1046F00031094109510956954795379527952093DA
:10470000B8000CCE61E0809138030E949E0B61E0FE
:10471000809139030E949E0B80913803082E000C73
:10472000990BFC01EA50FB4EE491F0E0EE0FFF1F05
:10473000E753FB4E259134913093400320933F0380
:10474000FC01E65FFA4EE491E09345038091390362
:10475000082E000C990BFC01EA50FB4EE491F0E0AE
:10476000EE0FFF1FE753FB4EA591B491B0934203A8
:10477000A0934103FC01E65FFA4EE491E093460307
:104780008C91E82BEC9380912D0390912E03892B33
:1047900009F434C01FB7F89480919C01811127C09F
:1047A000E0E0F5E18491E4E1F5E19491E82FF0E0B7
:1047B000EE0FFF1FE154FB4EA591B491EC91E9235C
:1047C00021F461E08AE00E942E0B61E08AE00E9401
:1047D0009E0B8CB580618CBD8CB580648CBD61E016
:1047E0008DE00E949E0B61E08BE00E949E0B809109
:1047F0009C018F5F80939C011FBFBECE61E08091C2
:1048000036030E949E0B61E0809137030E949E0B4D
:1048100080913603082E000C990BFC01EA50FB4EE8
:10482000E491F0E0EE0FFF1FE753FB4E259134912A
:1048300030933C0320933B03FC01E65FFA4EE49186
:10484000E093430380913703082E000C990BFC0181
:10485000EA50FB4EE491F0E0EE0FFF1FE753FB4EF2
:10486000A591B491B0933E03A0933D03FC01E65F94
:10487000FA4EE491E09344038C91E095E823EC93A5
:104880007BCE80912D0390912E03892B31F0809166
:104890005003909151030E94CC10E0914103F0919C
:1048A0004203908180914603809589238083A5CE21
:1048B0008FECDCCE8036910569F4809118039091DD
:1048C0001903409739F480913403813029F480E151
:1048D00080934F0312E0CDCE8FEAFACFE0914103EF
:1048E000F0914203808190914603892B808316CDFD
:1048F0008B3309F4C1CD823409F09CCDBDCD8CE061
:10490000F4CD8091E8028093A60190E1F92E0E94F7
:10491000CA0A0091A7011091A801080F191F10934E
:10492000A8010093A7016AE070E080E090E00E9497
:10493000FF0BFA94F110EBCF84E0169507958A955A
:10494000E1F71093A8010093A701093C110518F0A5
:1049500081E080937A0290E080E00E942D2054E66E
:10496000859FC00111249C01205D374021373741CC
:1049700008F4D2C080ED97E0909395028093940262
:1049800064E190E080E00E94AC1F81E090E00E9432
:104990002D2091E0813009F090E09093960283E021
:1049A00090E00E942D2091E0813009F090E09093FA
:1049B0009702109299021092980210929B02109204
:1049C0009A0210929C0210929E0210929D021092E6
:1049D0009F021092A002813011F40E94C01F60E07B
:1049E0008DE991E00E94F01C80919D01803109F4D5
:1049F0006FC0BE016F5F7F4F8DE991E00E94CF0DC8
:104A0000882309F465C08D818F3109F461C08FE17D
:104A10008D838091EA029091EB020E94280D6DE94E
:104A200071E08091EA029091EB020E94090D40E052
:104A30006EE48091EA029091EB020E94D50C40E076
:104A40006B818091EA029091EB020E94D50C40E0CC
:104A50006C818091EA029091EB020E94D50C8091CA
:104A60009D01803141F040E06D818091EA0290919A
:104A7000EB020E94D50C8091EA029091EB0220910A
:104A8000E702222319F10E94280D882309F16DE91C
:104A900071E08091EA029091EB020E94090D409131
:104AA000E10268E48091EA029091EB020E94D50C49
:104AB0008091E102811135C064E170E080E090E016
:104AC0000E94FF0B8091EA029091EB020E94280D58
:104AD00089E08093E4028091E8028230F0F110E0F6
:104AE0008091E8021817C8F58091E4028C30A9F192
:104AF000612FCE0101960E94F01C8981803159F10D
:104B0000CE0101960E94410E9091E402981710F494
:104B10008093E4021F5FE4CF909395028093940208
:104B200034CF8091E202882329F060E08091E30293
:104B30000E942E0B64E170E080E090E00E94FF0B89
:104B40008091E202882309F4BDCF61E08091E30205
:104B50000E942E0BB7CF8CE0D7CF0E94600D109231
:104B6000E50268E770E080E090E00E94FF0B88E1DA
:104B70009DE00FB6F894A895809360000FBE9093C7
:104B8000600061E085E00E942E0B29960FB6F89434
:104B9000DEBF0FBECDBFDF91CF911F910F91FF9070
:104BA000EF90DF9008951F920F920FB60F9211248D
:104BB0002F933F938F939F93AF93BF938091D50291
:104BC0009091D602A091D702B091D8023091D40230
:104BD00023E0230F2D3758F50196A11DB11D209319
:104BE000D4028093D5029093D602A093D702B093BB
:104BF000D8028091D9029091DA02A091DB02B091A3
:104C0000DC020196A11DB11D8093D9029093DA02B6
:104C1000A093DB02B093DC02BF91AF919F918F9183
:104C20003F912F910F900FBE0F901F90189526E87F
:104C3000230F0296A11DB11DD2CF1F920F920FB666
:104C40000F9211242F933F934F935F936F937F9312
:104C50008F939F93AF93BF93EF93FF938091B9008E
:104C6000887F803609F44AC0F0F5883209F4A7C07D
:104C700018F5803109F49BC0B8F4882309F4F9C011
:104C8000883009F494C0FF91EF91BF91AF919F914B
:104C90008F917F916F915F914F913F912F910F90E5
:104CA0000FBE0F901F901895883109F488C080328C
:104CB00051F780933A0214C0803409F49DC040F447
:104CC0008033B9F38833F9F680933A0285ECB0C0AB
:104CD000803509F485C0883509F496C0883499F682
:104CE0000E94741FD0CF883909F48CC038F58837FA
:104CF00029F050F4883611F0803729F683E080934C
:104D00003B021092390257C0883809F47BC08039C1
:104D100019F0803809F0B7CF80913902803208F05D
:104D200071C0E091390281E08E0F80933902809149
:104D3000BB00F0E0E75EFD4F80833DC0803B39F073
:104D4000E0F4803A09F479C0883A09F09CCF84E015
:104D500080933B021092160210921502E09113020A
:104D6000F091140209958091150281110FC081E024
:104D7000809315021092F30109C0803C09F4A6CF7C
:104D8000883C09F4A3CF883B09F07DCFE09116025F
:104D900081E08E0F80931602F0E0ED50FE4F80818F
:104DA0008093BB00909116028091150229C08091DA
:104DB00060028093BB0085EC8093BC0064CF90912F
:104DC0005F0280915E02981758F5E0915F0281E0E2
:104DD0008E0F80935F02F0E0E25CFD4F8081E9CFAF
:104DE000E0915F0281E08E0F80935F028091BB00B3
:104DF000F0E0E25CFD4F808390915F0280915E0263
:104E00009817C8F285E8D8CFE0915F0281E08E0F55
:104E100080935F028091BB00F0E0E25CFD4F8083F5
:104E200080913D0281115CCF81E080933C0284EA55
:104E30008093BC0010923B0226CF85EC8093BC008F
:104E400010923B0280913902803230F4E0913902B5
:104E5000F0E0E75EFD4F10826091390270E0E09172
:104E60001702F091180289E192E009951092390237
:104E70000ACF10923A0234CF1F920F920FB60F92C0
:104E800011240F931F932F933F934F935F936F932F
:104E90007F938F939F93AF93BF93EF93FF938091F3
:104EA000710290917202892B09F46BC08091A50167
:104EB000882309F466C061E08CE00E942E0B1092FA
:104EC000A5018091A9019091AA01019680389C408A
:104ED00008F442C01092AA011092A9018091A90180
:104EE0009091AA018036944008F040C087E08093FA
:104EF000B3008091710290917202019790937202B7
:104F0000809371028091030190910401029789F4CA
:104F10000E94320C00917B0210917C0220917D0254
:104F200030917E02601B710B820B930B97FF0E94E6
:104F3000AE1BFF91EF91BF91AF919F918F917F91A8
:104F40006F915F914F913F912F911F910F910F9012
:104F50000FBE0F901F9018958091A9019091AA0102
:104F600001969093AA018093A901B8CF8091A901DD
:104F70009091AA018032984010F482E3B8CF8AE081
:104F8000B6CF60E08CE00E942E0B81E08093A501FB
:104F9000B9CFCF93A6E0B3E013961C921E9212975E
:104FA00048EE53E060E070E014964D935D936D938E
:104FB0007C9317978FE191E011969C938E93E2E199
:104FC000F3E01382128220E830E03583248380E20C
:104FD00090E0978386833187208793878287168A1C
:104FE0001586148617861686C1E0C58BC48B8FEF95
:104FF0009FEF938B828B918B808BC78B108E128E41
:10500000118E81E391E091838083148E138EB68F8D
:10501000A58F10A2178E8FEF84A385A386A387A3E5
:1050200080A780E49DE0A3E0B0E085AB96ABA7ABA2
:10503000B0AF81AF92AFA3AFB4AF80E586AF17AE8C
:1050400060E088E00E949E0BE2E1F5E1E491A8EFC8
:10505000B2E0EC93EEEFF4E1E491F0E0EE0FFF1F2D
:10506000E451FB4E8591949112969C938E931197E7
:105070001B961C921B971D961C921D971C961C92AA
:105080001C971A961C921A9719961C9219971896A3
:105090001C92189717961C92179716961C921697A3
:1050A00015961C92159714961C92149713961C92A1
:1050B0001397E1EEF2E0168A158A1182B287A18772
:1050C00017821086108289E08383C483C583C683D8
:1050D000CF910895CF93DF93CDB7DEB7A6970FB6E4
:1050E000F894DEBF0FBECDBF789484B5826084BDD6
:1050F00084B5816084BD85B5826085BD85B58160DC
:1051000085BD80916E00816080936E001092810059
:105110008091810082608093810080918100816014
:1051200080938100809180008160809380008091D5
:10513000B10084608093B1008091B0008160809361
:10514000B00080917A00846080937A0080917A0028
:10515000826080937A0080917A00816080937A00E7
:1051600080917A00806880937A001092C1000E943A
:10517000912094E6292E312C24E6422E512C612CCC
:10518000712CDD24D394A8958091030190910401A2
:10519000809358030E94320C6093D0027093D10226
:1051A0008093D2029093D30282E00E94050B9AA3CF
:1051B00089A381E0E9A0FAA0EF2809F080E08093BC
:1051C000CF0283E00E94050B7C0181E0E114F10431
:1051D00009F080E08093CE0280E10E94050B8C01F3
:1051E00081E00115110509F080E08093CD0260E0B7
:1051F000CE0141960E94F01C81117BC0812C912C24
:105200008EEFA82E82ECB82E0E94600D8092C9020B
:105210009092CA02A092CB02B092CC028091AC02D2
:10522000882359F020E030E040E252E4C501B401A7
:105230000E946A3987FD1092AC0220E030E04CE514
:1052400052ECC501B4010E94C23A87FD0AC020E0B9
:1052500030E04AEF52E4C501B4010E946A391816E1
:1052600004F580910301909104014297D1F00E94CE
:10527000AE1B0E94331D0E94AA1B1092AB020E941B
:10528000320C60527C468B4F9F4F6093A702709305
:10529000A8028093A9029093AA0282E190E00E9462
:1052A000CC1B29A13AA1232B09F09FC08091A60213
:1052B00081119BC08091030190910401892B09F019
:1052C000C6C08091AC02811190C020E030E04CE576
:1052D00052E4C501B4010E94C23A18160CF054C041
:1052E000D092AC021092AB0285E090E00E94CC1B01
:1052F0007CC0BE016F5F7F4FCE0141960E94CF0DF3
:10530000882309F47BCF6A8170E0762F6627770FB8
:10531000770F770F298148E0249F90011124262BD5
:10532000372B89898031E1F468856623C9F070E004
:105330008F81DB01A81BB109CD019695982F882795
:10534000979587950E94593BCB018097B901A3E0BF
:10535000660F771FAA95E1F760789C01260F371F2B
:105360002138B4EE3B070CF449CFB901330F880B59
:10537000990B0E94123A20E030E040E05CE30E948A
:10538000C73A4B015C0140CF1092AB021092AD02C4
:105390001092AE021092AF021092B0021092B202BE
:1053A0001092B1021092B3021092B4021092B502A0
:1053B0001092B6021092B8021092B7021092BA027E
:1053C0001092B9021092C5021092C6021092C70242
:1053D0001092C80280910201882309F435C087E049
:1053E00090E00E94CC1B109202018091A202EF2853
:1053F00009F481C0882341F08091A102882321F023
:105400000E94331D1092A102E0910301F09104016A
:10541000E331F10510F00C947138EF5EF54D0C940A
:105420008F3B252B5F34EC31B9337534B0375138AD
:105430000B35A32D8C2E272F46302C319F3135353F
:10544000E235483764378A3782E090E04FCF809169
:10545000030190910401079719F490E080E046CF92
:105460008091030190910401089709F4BECF8091C7
:10547000030190910401099709F4B7CF80910301CA
:10548000909104010A9709F4B0CF809103019091A3
:1054900004010B9709F4A9CF8091030190910401B5
:1054A0000C9709F4A2CF80910301909104010D970C
:1054B00009F49BCF80910301909104010E9709F4A8
:1054C00094CF80910301909104010F9709F48DCF3F
:1054D0008091030190910401059719F41092AB0299
:1054E000BCCF8091030190910401059709F47DCF11
:1054F000D092A3027ACF811187CF8091030190913E
:105500000401409701F180910301909104014197BA
:10551000D1F080910301909104014297A1F0809114
:10552000030190910401892B99F480919802909144
:105530009902019666E070E00E94593B90939902AF
:105540008093980261CF90E080E00E94CC1B5CCFFA
:105550008091030190910401069739F38091030132
:1055600090910401089771F480919A0290919B02A6
:10557000019663E070E00E94593B90939B028093F8
:105580009A0242CF60910301709104016930710564
:1055900049F480919C0290E001960E94593B8093CF
:1055A0009C0232CF80910301909104010A9771F41B
:1055B00080919D0290919E02019665E070E00E94AC
:1055C000593B90939E0280939D021ECF80910301D0
:1055D000909104010B9759F480919F0290E00196FD
:1055E0006CE070E00E94593B80939F020DCF809148
:1055F0000301909104010C9731F48091A0028D2554
:105600008093A00201CF80910301909104010F9734
:1056100059F48091790290E0019663E070E00E9475
:10562000593B80937902F0CE80919702882309F448
:10563000EBCE8091A4029091A502019709F0E4CEEF
:105640000E94271DD092A102DFCE8091030190918C
:1056500004010E94CC1B80919802909199020097BE
:1056600009F037C1012B09F468C010929302009130
:105670008A0210918B028090C9029090CA02A09079
:10568000CB02B090CC02F09089020E94521F81E0C0
:105690002091980230919902232B09F080E00E941A
:1056A000D91D80919802909199028230910508F05D
:1056B00067C188E390E090931F0380931E031092CC
:1056C00021031092200386EF92E1F11002C08EEECA
:1056D00092E10E944C1D61E08091980290919902A4
:1056E000019709F060E088E00E945A1DB80180E14E
:1056F0000E94381EB501A40188E10E942D1FEE24EE
:10570000E394F12C00E210E026E330E050E040E0CA
:1057100066E370E082E193E00E945B140E94E2196C
:105720000E94AA1B0E94AE1B0E94901B90938802AD
:105730008093870290E080E049C4209193022F5F1C
:10574000209393022F30A0F020ED37E030939502A4
:1057500020939402D092920210929302109291029E
:1057600010928D0210928E0210928F02109290026F
:1057700020918C0221117BCF009711F00C949D3861
:105780000E94320CAB01BC0180918D0290918E027F
:10579000A0918F02B09190020097A105B10509F484
:1057A000A8C018E1E12E1CEFF12E0FEF1FEFE81A51
:1057B000F90A0A0B1B0BD801C701840F951FA61FFE
:1057C000B71FB7FF96C080919102853008F494C04E
:1057D00040938D0250938E0260938F0270939002DB
:1057E00080919102D092920224EF31E0853010F442
:1057F00024E630E0809194029091950240E45FE1CC
:10580000421B530B4817590708F47AC0820F931FA5
:1058100090939502809394028091030190910401EA
:10582000892B09F424CF8091CF028093A602809126
:10583000CE028093A2028091CD0280938C0280914F
:10584000030190910401429711F00C94793861E0C2
:1058500087E00E942E0BD09289020E94320CAB018D
:10586000BC018091D0029091D102A091D202B0915E
:10587000D30218E8E12EFF24FA940FEF1FEFE81A85
:10588000F90A0A0B1B0BD801C701840F951FA61F2D
:10589000B71FB7FD02C00C9493380E94320C7F737F
:1058A000882799276F3F7F4381059105B1F6809145
:1058B0009202882391F28091940290919502B10115
:1058C0000E94453B90E080E00E94AC1F1092920243
:1058D000C4CF109293021092910210928D021092F6
:1058E0008E0210928F0210929002012B09F440CF89
:1058F000BECED09291026CCF8F5F8093910268CF21
:1059000080ED97E085CF019779F482E090E0909365
:10591000A5028093A40260E085E00E942E0B61E066
:105920008BE00E942E0B78CF1092A5021092A40259
:1059300061E085E00E942E0B60E0F2CF823091059D
:1059400049F410929B0210929A0288E090E00E9423
:10595000CC1B62CF8330910529F410929C0289E020
:1059600090E0F5CF8430910529F4109279028FE010
:1059700090E0EDCF059709F04FCF8EE090E0E7CFB4
:105980008230910581F560E080E00E945A1DB801E7
:1059900088E00E94381EB501A40180E10E942D1FFD
:1059A00088E390E090931F0380931E0388E190E0CA
:1059B00090932103809320031092230310922203DB
:1059C00001E010E0109325030093240383EE92E19D
:1059D0000E94DC13109325030093240310932303E8
:1059E000009322038CCE8330910581F5B80180E0CD
:1059F0000E94381EB501A40188E00E942D1F08E313
:105A000010E010931F0300931E0380E190E0909339
:105A100021038093200388ED92E10E94DC13109310
:105A20001F0300931E0388E190E09093210380936D
:105A30002003109223031092220301E010E0109340
:105A40002503009324038DEC92E1C2CF0497D1F596
:105A5000B501A40180E00E942D1F08E310E010931F
:105A60001F0300931E0388E090E09093210380932E
:105A7000200382EC92E10E94DC1310931F03009339
:105A80001E0380E190E0909321038093200387EB35
:105A900092E10E94DC1310931F0300931E0388E120
:105AA00090E090932103809320031092230310929F
:105AB000220301E010E0109325030093240380EB00
:105AC00092E186CF08E310E010931F0300931E03BA
:105AD000109221031092200385EA92E10E94DC13C8
