:020000040000FA
:100000000C945A040C9491040C9491040C94910453
:100010000C9491040C9491040C9491040C941A3453
:100020000C9491040C9491040C9491040C949104FC
:100030000C9491040C9491040C9491040C949104EC
:100040000C9459320C9491040C94C9320C94A33240
:100050000C9491040C9491040C9491040C949104CC
:100060000C94FB320C949104444941474E4F535435
:100070004943533E00494E464F203E00414E414CBD
:10008000595345203E0050524F46494C4553203E5F
:100090000053455454494E4753203E00524546456F
:1000A00052454E4345203E0044454C455445203E74
:1000B0000052454E414D45203E004C4F4144203EAC
:1000C00000414E414C5953452C5354415254004D1C
:1000D00041580054494D450043415345533A20008F
:1000E0008F01910086007C007500680046414E201B
:1000F0004F46460046414E204F4E004F4646004F69
:100100004E0044554D503A200052455354415254EC
:100110003A200053455454494E4753004F50454EE2
:10012000203E0050524F46494C452000BA00A601DF
:10013000B100A8009C00350420414354494F4E5360
:10014000004E414D4520500044454C455445203E0D
:100150000044454C45544520500053415645440009
:100160004E4F204441544100454D505459004445A0
:100170004C45544544004C4F414445440050524F77
:1001800046494C455300434F4E464947203E005296
:100190004556494557203E004E4557203E00414EAA
:1001A000414C5953450053415645203E0050524F53
:1001B00046494C45200050524F46494C453A200094
:1001C0004D41582054494D453A200044524F503A31
:1001D000200054494D453A20007E4A3A20005045BF
:1001E000414B2044524F5000454E45524759005410
:1001F000494D4500545950453A2000524551554902
:10020000524544004355522053454E534F520050DF
:1002100052455353205354415254004C4F414420B3
:100220004341534500414E414C595345002C6375A1
:100230007272656E745F6D613D00414E414C595361
:10024000452C53414D504C452C745F6D733D00520D
:1002500053543A00204355523A0054454D503A0009
:10026000444941474E4F535449435300342E322E94
:10027000300046573A200035563A20002D2D0042D6
:100280004153453A200025204E004C4F573A20005C
:10029000494E464F004155544F204F464600415568
:1002A000544F204F4E00434F4F4C444F574E005237
:1002B00045515549524544004355522053454E53EC
:1002C0004F520054494D454F5554005441524745F3
:1002D0005400434845434B2054454D500054454D30
:1002E00050204552524F520043555252454E5420D1
:1002F0004C4F2100434845434B2043415345004365
:100300004845434B20434F494C0021204641554C22
:1003100054202100484549474854204F4B3F004353
:10032000415345002026200054494D450043415388
:100330004553004C4F41440044524F5050494E47A2
:1003400000202000414E4E45414C494E47002C7044
:1003500065616B5F7063743D002C656E65726779D3
:100360005F7063743D002C6D617463685F706374CB
:100370003D0050524F46494C452C524553554C5424
:100380002C736C6F743D00414E414C5953452C45C4
:100390004E442C745F6D733D00414E414C595345A2
:1003A0002C41424F52542C726561736F6E3D555310
:1003B00045522041424F52542C745F6D733D002CC6
:1003C0007065616B5F6D613D002C65666669636990
:1003D000656E63795F7063743D002C657374696D3D
:1003E000617465645F656E657267795F4A3D002C74
:1003F000696E7075745F656E657267795F4A3D00FE
:10040000414E414C5953452C474154455F4F50454F
:100410004E004F4E452053484F54004155544F20F5
:100420004645454400465245452052554E0020431E
:100430004F4F4C21004241434B203E007E4A004139
:100440003A00204E455854200025204E455854204F
:10045000002044524F5000252044524F50007E4A05
:10046000002520450044554D50494E472E2E2E0064
:100470000E9EFEFEDEDEDEDEDEDEDEDEDEDEDEDE6C
:10048000DEDEDEDEDEDEDEDEFEFE9E0E01C33F30A1
:10049000C78001E33F30CFC001E30330CC4001B35C
:1004A0000630CC0001B30C3FCF80019B1C3FC3C082
:1004B000018B1830C0C0018F3030C8C001873F3079
:1004C000CFC001873F30CF80000000000007000050
:1004D0000F00003C0000700000E000FFC001FF00C2
:1004E0000180000180000180000180000180000186
:1004F00080000180000180000180000180000180F7
:100500000001800001FF0000FFC00000E00000705B
:1005100000003C00000F0000070000000000000089
:100520000000005F00000007000700147F147F1424
:10053000242A7F2A12231308646236495620500069
:1005400008070300001C2241000041221C002A1C55
:100550007F1C2A08083E0808008070300008080840
:100560000808000060600020100804023E51494560
:100570003E00427F400072494949462141494D337E
:100580001814127F1027454545393C4A49493141E5
:10059000211109073649494936464949291E0000B3
:1005A0001400000040340000000814224114141408
:1005B0001414004122140802015909063E415D59F4
:1005C0004E7C1211127C7F494949363E41414122FD
:1005D0007F4141413E7F494949417F090909013E27
:1005E000414151737F0808087F00417F410020404E
:1005F000413F017F081422417F404040407F021C60
:10060000027F7F0408107F3E4141413E7F09090976
:10061000063E4151215E7F09192946264949493242
:1006200003017F01033F4040403F1F2040201F3F08
:100630004038403F6314081463030478040361598D
:10064000494D43007F4141410204081020004141CF
:10065000417F040201020440404040404854545449
:100660002400001818000201020402005EBCE261CE
:100670003FDD83C29C7E20A3FD1F41009D23BE461B
:10068000DB65F88C11AF32CA57E974AED580A81F6C
:10069000D300408D142000A1C8DA02818FD9F1DB8C
:1006A00040A4A62EAF3E0F87C1F1F0001F07C3F094
:1006B000FCFC000FC3F1FC7F7F8003F0FC7F1F8FE9
:1006C000C000FC3F1F87E3E0187F1FC7E1F8C03E72
:1006D0001FC7F1F87E001F87E1F87E3F800FE1F829
:1006E0007E1F8FC003F07E1F87E3E030FC1F87E38F
:1006F000F8E07C3F0FE3F8FE003E0FC3F0FC3F80C4
:100700001F87F0FC3F0FC007E1FC3F0FC3E001F083
:100710007E0F83E0E000F81F07C1F0000000003FFB
:10072000FFFFFFFFFF8000000003FE0007C001F095
:100730007F8000003C1F0003F000FC00780001C037
:100740000FC001FC007F800400060003F0007F0062
:100750000FC00400180000FC001F8003E00400E04C
:1007600000007F0007E000C004030000001FC0017C
:10077000F80000040C00000007E0007E00000430D8
:1007800000000001F8001F8000040C000000007E43
:100790000007E0000403000030001F8003F800049D
:1007A00000E0007C000FE000FE00040018003E00A6
:1007B00003F0003F80040006001F8000FC000FC013
:1007C000040001C007E0003F0003E00400003C011A
:1007D000F0000F8000E078000003C0F80007C000C0
:1007E0007F800000003FFFFFFFFFFF80000060E010
:1007F0005F0CC0A741F9F800F0F07D0CC03F01F993
:10080000FC00F0F07D30303C81818C0198D8283597
:100810003154C1818C0198D8283FDE5741F1F8034B
:100820000CCC02AFDCCF01F1F003FCCC12AB333CBB
:1008300001819803FCC617C333340181980606C6AC
:100840001FCCC6C93DF98C0606C21F4CC6C97DF92E
:100850008C00000000240027002A00000000002572
:100860000028002B0021007F220003000000080068
:100870000201000003040700000000000000000067
:1008800000000023002600290004040404040404DA
:10089000040202020202020303030303030102042F
:1008A00008102040800102040810200102040810F2
:1008B0002000BC3411241FBECFEFD8E0DEBFCDBF77
:1008C00084B780933E0614BE0FB6F894A895809125
:1008D0006000886180936000109260000FBE11E09C
:1008E000A0E0B1E0E8EEF3E702C005900D92A83475
:1008F000B107D9F726E0A8E4B1E001C01D92AD33FD
:10090000B207E1F714E0CAE5D4E004C02197FE0184
:100910000E94CB39C935D107C9F70E944A350C94DA
:10092000F2390C94000080E480937C0080917A007E
:10093000806480937A0080917A0086FDFCCF80915C
:100940007800909179000895833081F028F4813007
:1009500099F08230A9F008958730A9F08830C9F065
:100960008430B1F4809180008F7D03C0809180003D
:100970008F7780938000089584B58F7784BD089524
:1009800084B58F7DFBCF8091B0008F778093B000CE
:1009900008958091B0008F7DF9CFCF93DF93282FFA
:1009A00030E0F901E559F74F8491F901E356F74F2B
:1009B000D491F901E757F74FC491CC23A1F08111ED
:1009C0000E94A404EC2FF0E0EE0FFF1FE158F74F58
:1009D000A591B491EC91ED2381E090E009F480E0E1
:1009E000DF91CF91089580E090E0FACF1F93CF93ED
:1009F000DF93282F30E0F901E559F74F8491F90191
:100A0000E356F74FD491F901E757F74FC491CC2340
:100A1000A9F0162F81110E94A404EC2FF0E0EE0F34
:100A2000FF1FE55AF74FA591B4918FB7F894EC9159
:100A3000111108C0D095DE23DC938FBFDF91CF91D9
:100A40001F910895DE2BF8CFE4E7F8E0E491E3305E
:100A500019F140F4E130B1F0E230C9F060E089E032
:100A60000C94F604E73011F1E83041F1E430B1F7CD
:100A70002091800020622093800090938B008093CF
:100A80008A00089594B5906894BD87BD089594B583
:100A9000906294BD88BD08952091800020682093C5
:100AA0008000909389008093880008959091B00011
:100AB00090689093B0008093B30008959091B00037
:100AC00090629093B0008093B4000895CF93DF9329
:100AD00090E0FC01E356F74F24918757974FFC01B4
:100AE00084918823C9F090E0880F991FFC01EF5A88
:100AF000F74FA591B491FC01E55AF74FC591D491F8
:100B000061110DC09FB7F8948C91209582238C932E
:100B10008881282328839FBFDF91CF910895623079
:100B200051F49FB7F8943C91822F809583238C9346
:100B3000E8812E2BEFCF8FB7F894EC912E2B2C93CE
:100B40008FBFEACF3FB7F8948091050390910603D9
:100B5000A0910703B091080326B5A89B05C02F3FBD
:100B600019F00196A11DB11D3FBFBA2FA92F982FD3
:100B70008827BC01CD01620F711D811D911D42E0CE
:100B8000660F771F881F991F4A95D1F708958F9296
:100B90009F92AF92BF92CF92DF92EF92FF926B0142
:100BA0007C010E94A2054B015C01C114D104E10447
:100BB000F104B9F00E94A205681979098A099B0914
:100BC000683E73408105910580F321E0C21AD10887
:100BD000E108F10888EE880E83E0981EA11CB11C84
:100BE000E4CFFF90EF90DF90CF90BF90AF909F90B9
:100BF0008F9008952FB7F8946091010370910203CC
:100C000080910303909104032FBF089508950895E0
:100C1000DC01ED91FC910190F081E02D0994EF92BF
:100C2000FF920F931F93CF93DF938C017B01D0E052
:100C3000C0E0F701EC0FFD1F6491662361F0D8015D
:100C4000ED91FC910190F081E02DC8010995892B6F
:100C500011F02196EECFCE01DF91CF911F910F9130
:100C6000FF90EF900895AF92BF92CF92DF92EF92F4
:100C7000FF920F931F93CF93DF936C017B018B0146
:100C8000040F151FEB015E01AE18BF08C017D10796
:100C900059F06991D601ED91FC910190F081E02D20
:100CA000C6010995892B79F7C501DF91CF911F9175
:100CB0000F91FF90EF90DF90CF90BF90AF9008958D
:100CC000FC01538D448D252F30E0842F90E0821B52
:100CD000930B541710F0CF96089501970895FC01D7
:100CE000918D828D981761F0A28DAE0FBF2FB11D2F
:100CF0005D968C91928D9F5F9F73928F90E0089587
:100D00008FEF9FEF0895FC01918D828D981731F040
:100D1000828DE80FF11D858D90E008958FEF9FEF94
:100D20000895FC01918D228D892F90E0805C9F4F6A
:100D3000821B91098F739927089589E593E00E949A
:100D4000910621E0892B09F420E0822F089580E0AC
:100D500090E0892B29F00E949D0681110C940000DF
:100D60000895FC01A48DA80FB92FB11DA35ABF4F40
:100D70002C91848D90E001968F739927848FA6899A
:100D8000B7892C93A089B1898C91837080648C93EE
:100D9000938D848D981306C00288F389E02D80819D
:100DA0008F7D80830895EF92FF920F931F93CF93CF
:100DB000DF93EC0181E0888F9B8D8C8D98131AC096
:100DC000E889F989808185FF15C09FB7F894EE897D
:100DD000FF896083E889F9898081837080648083DA
:100DE0009FBF81E090E0DF91CF911F910F91FF9025
:100DF000EF900895F62E0B8D10E00F5F1F4F0F73CD
:100E00001127E02E8C8D8E110CC00FB607FCFACF87
:100E1000E889F989808185FFF5CFCE010E94B1066E
:100E2000F1CFEB8DEC0FFD2FF11DE35AFF4FF08258
:100E30009FB7F8940B8FEA89FB8980818062CFCFBE
:100E4000CF93DF93EC01888D8823B9F0AA89BB8901
:100E5000E889F9898C9185FD03C0808186FD0DC0EC
:100E60000FB607FCF7CF8C9185FFF2CF808185FF0D
:100E7000EDCFCE010E94B106E9CFDF91CF91089569
:100E8000DC0180E0615090F09D919827E92FEF7090
:100E9000F0E0E559F94F2491E92FE295EF70F0E089
:100EA000E558F94FE491822F8E27ECCF0895FC018D
:100EB000138615861486128611861086178216826E
:100EC0001582148213820895DC012C911196ED9104
:100ED000FC91F8948181822B81839281322F30950D
:100EE0009323928387E090E00197F1F78181832338
:100EF000818383E290E00197F1F790817894EFECA1
:100F0000F0E03197F1F7922381E009F480E0089551
:100F1000FC0190810180F281E02D292F209560FF56
:100F200014C0F8948281822382838181892B8183FA
:100F3000A3E2B0E01197F1F78281982B9283789425
:100F400087ED90E00197F1F70895F894828182236C
:100F500082838181892B8183AFEFB0E01197F1F714
:100F60008281982B928378948FE090E0EBCFDF9290
:100F7000EF92FF920F931F93CF93DF93EC01D62E46
:100F8000E42E08E010E0FF24F39461E08D2D8F2122
:100F900009F460E0CE010E948807FF0C015011099E
:100FA000A1F7E11010C0F894E981FA81918188815C
:100FB000809589238183E981FA8192818881809556
:100FC000892382837894DF91CF911F910F91FF90B5
:100FD000EF90DF900895EF92FF920F931F93CF93BE
:100FE000DF938C017B0140E065E50E94B707E701D4
:100FF00088E0E80EF11C699140E0C8010E94B70743
:10100000CE15DF05C1F7DF91CF911F910F91FF90B2
:10101000EF900895FC0190810180F281E02DF89419
:101020008181292F20958223818378943DE743E0B5
:1010300050E0315029F1DA011197F1F780818923CD
:10104000C1F3F8948281822382838181892B8183F9
:101050007894ABE7B7E01197F1F7F8948181822398
:101060008183A3E1B1E01197F1F78081982381E0BA
:1010700009F080E07894E3E6F6E03197F1F708951F
:1010800080E008958F929F92AF92BF92CF92DF92AD
:10109000EF92FF92CF93DF9300D000D01F92CDB795
:1010A000DEB78091FF03909100040E940A0840E09F
:1010B0006CEC8091FF03909100040E94B70740916F
:1010C000F60364E48091FF03909100040E94B70747
:1010D0000E94FA056B017C018091FA0381111EC008
:1010E00081E08983CA82DB82EC82FD8229813A8198
:1010F0004B815C816D8170E080E090E00F900F90FB
:101100000F900F900F90DF91CF91FF90EF90DF90B5
:10111000CF90BF90AF909F908F9008958091FB03E8
:101120008823C1F08091F603811114C08091FF03E0
:10113000909100040E946407813091F20E94FA05A8
:101140006C197D098E099F096E3E724081059105DB
:1011500068F3C6CFE091F903E9508EEE92E0E330F8
:1011600038F4F0E0EE0FFF1FEA5FFE4F80819181BF
:101170004C01B12CA12C8091F703882329F060E069
:101180008091F8030E94F604C501B4010E94C705CE
:101190008091F703882309F4A3CF61E08091F803DD
:1011A0000E94F6049DCF6F927F928F929F92AF9292
:1011B000BF92CF92DF92EF92FF920F931F93CF9344
:1011C000DF938C01EB018091FF03909100040E945A
:1011D0000A08882309F43FC0B8018091FF03909169
:1011E00000040E94EB0740E06EEB8091FF039091BA
:1011F00000040E94B7077E016E0189E0C80ED11C71
:101200008E01A090FF03B090000488E0882E912CFE
:10121000712C66246394C5010E94640781117628AD
:10122000660CE1E08E1A9108B1F7F80171928F0116
:10123000CE16DF0631F78091FF03909100040E94E3
:101240000A08813041F4F70181917F01811105C0C5
:10125000E017F107C1F790E008C068E0CE010E94F6
:10126000400791E028852813F6CF892FDF91CF9191
:101270001F910F91FF90EF90DF90CF90BF90AF90B4
:101280009F908F907F906F9008950F931F93CF93AF
:10129000DF93CDB7DEB729970FB6F894DEBF0FBE48
:1012A000CDBF8C01BE016F5F7F4F0E94D3088823A2
:1012B00061F08D81F80190819B3311F487FD0BC0A3
:1012C0008F3359F020F48F31A1F080E007C08F35C3
:1012D00091F08F37D1F78CE001C08AE029960FB6E4
:1012E000F894DEBF0FBECDBFDF91CF911F910F915C
:1012F000089589E0F3CF8BE0F1CF2091AF02260F64
:101300003327331F21323105ECF420912F03FC01E8
:1013100090E080E0243069F082E00895A091AF026F
:101320002191AC0141575D4FA40FB52FB11D2C93F6
:101330000196861798F38091AF02680F6093AF0211
:1013400080E0089581E0089510922F0381E080935A
:101350002E031092090361E082E10E94F60461E02D
:1013600083E10E94F604E9EBF0E080818E7F8083C8
:1013700080818D7F808388E48093B80085E48093AA
:10138000BC000895CF93DF9391E090938E02882361
:10139000B9F0C091B800D091BA008091BC008A7BAE
:1013A0008093BC0060E082E10E94F60460E083E18B
:1013B0000E94F6040E94A409D093BA00C093B8001A
:1013C000DF91CF910895CF92DF92EF92FF920F932A
:1013D0001F93CF93DF93D091580381E0D13208F06F
:1013E0009CC0C09157030E94A2056B017C018091B3
:1013F0002F0381116CC082E080932F0381E08093E2
:101400002E038FEF80932D0310922C03D0932B0388
:10141000A7E3B3E0EBE0F3E080E0D8138DC01092D7
:101420000A0380910A03CC0FC82BC0930A03809152
:101430000903813009F084C0109209030E94A205BB
:101440006B017C0180910A038093BB008091310382
:1014500090913203A0913303B0913403892B8A2BEE
:101460008B2BA1F00E94A205009131031091320351
:1014700020913303309134036C197D098E099F0943
:10148000061717072807390708F442C08091BC00E7
:1014900083FDD8CF85EC8093BC000E94A2056B0130
:1014A0007C0180912F03823009F44CC080912D0380
:1014B0008F3F09F469C080912D03803209F466C022
:1014C00080912D03803309F463C084E026C08091AD
:1014D000310390913203A0913303B0913403892BEF
:1014E0008A2B8B2B09F483CF0E94A2050091310334
:1014F0001091320320913303309134036C197D092C
:101500008E099F09061717072807390708F06FCFBC
:10151000809130030E94C20985E010923603109238
:10152000580310923503DF91CF911F910F91FF90D7
:10153000EF90DF90CF9008959D9191938F5F6DCF45
:1015400085EEA9CF8091310390913203A0913303AE
:10155000B0913403892B8A2B8B2B09F4A2CF0E94E4
:10156000A205009131031091320320913303309191
:1015700034036C197D098E099F0906171707280780
:10158000390708F08ECFC4CF80E0C7CF82E0C5CF47
:1015900083E0C3CF0895E091D7028091D602E81787
:1015A00030F4F0E0E259FD4F808190E008958FEF34
:1015B0009FEF08959091D7028091D6022FEF3FEFD1
:1015C000981748F4E92FF0E0E259FD4F208130E010
:1015D0009F5F9093D702C90108958091D6029091A0
:1015E000D702891B990B0895CF92DF92EF92FF9259
:1015F0000F931F93CF93DF937C01CB018A0120913E
:101600003503222389F0EB016B01C40ED51ECC15E6
:10161000DD0569F06991D701ED91FC910190F081B0
:10162000E02DC7010995F3CF642F0E947D09C80101
:10163000DF91CF911F910F91FF90EF90DF90CF90AE
:101640000895CF93DF931F92CDB7DEB769832091C2
:1016500035032223F9F020915803203258F021E07D
:1016600030E0FC013383228390E080E00F90DF9133
:10167000CF91089580913603E82FF0E0E95CFC4FAC
:10168000998190838F5F809336038093580381E024
:1016900090E0ECCF61E0CE0101960E947D09F7CF8A
:1016A000DF92EF92FF920F931F93CF93DF937C0112
:1016B000D62E072F142FDC018D919C9121E02093D1
:1016C00035032CE3209357031092360310925803EE
:1016D000DC01ED91FC910190F081E02D60E0099535
:1016E000CD2DD02F115070F0F70180819181FE0136
:1016F0006491DC01ED91FC910190F081E02D099560
:101700002196F0CFDF91CF911F910F91FF90EF9035
:10171000DF900C94E309CF92DF92EF92FF920F9348
:101720001F93CF93DF9320912D0430912E0440918D
:101730002F045091300460E074E284EF90E00E9446
:101740008A392051310941095109569547953795F4
:1017500027952093B80046E065E678E08BE294E0B8
:101760000E94500BD0E0C0E0FF24F3942CE3E22E63
:1017700080912B0490912C04F0923503E092570352
:101780001092360310925803DC01ED91FC91019008
:10179000F081E02D60E409958E01035C1B4F6E0122
:1017A000BFE1CB0ED11CC115E2E0DE0790F48091C1
:1017B0002B0490912C042196D8016D918D01DC01B0
:1017C000ED91FC910190F081E02D0995CC16DD069C
:1017D00051F70E94E309C115B2E0DB0748F22091FE
:1017E000310430913204409133045091340460E06C
:1017F00074E284EF90E00E948A3920513109410956
:10180000510956954795379527952093B800DF9154
:10181000CF911F910F91FF90EF90DF90CF9008959F
:101820002FB7F89480916C0290916D02892B61F032
:1018300040916C0250916D0280E89CE0841B950BF6
:1018400090936B0280936A022FBF08952FB7F8948C
:1018500080916A0290916B028057944F90936B0233
:1018600080936A022FBF08950E9493042091FD0285
:101870003091FE022817390771F0AC01421B530B5F
:101880009A0141E3429FC001439F900D1124893A80
:1018900051E6950710F090E080E0089560E084E064
:1018A0000C94F60460E086E00C94F6040E94520C5E
:1018B0000C944E0C2FB7F8946093660270936702F5
:1018C00080936802909369022FBF0895909101015F
:1018D00081E020910201291301C080E008959FB7A3
:1018E000F8942091010120930201809301019FBF90
:1018F0000895882331F010923A0481E080933B04EC
:10190000089581E080933A04F9CF1F93CF93DF933A
:10191000C7E2D4E01F861E8688E190E0998B888B11
:101920001B8A11E01C8B65E374E0CE010E940F0658
:101930001B8B1C8BDF91CF911F91089524E630E023
:10194000662311F024EF31E040E45FE1421B530BCA
:101950004817590718F0820F931F089580ED97E0FC
:10196000089581E080938F0161E085E00E94F60494
:1019700061E08BE00C94F6048F929F92AF92BF923D
:10198000EF92FF920F931F93CF93DF93EC0180911F
:10199000C6019091C7017A01E81AF90A8091CE0137
:1019A0009091CF018A01081B190B4093CE015093EF
:1019B000CF016093D0017093D10120E4E2162FE1B2
:1019C000F20620F04FE3E42E4FE1F42E9E01A4EA4C
:1019D000B5EB0E94D1396C507E4F8F4F9F4F38EE40
:1019E000832E33E0932EA12CB12CA50194010E94EB
:1019F0008A39D8010E94E7396C507E4F8F4F9F4F34
:101A0000A50194010E948A398091D6019091D70155
:101A1000A091D801B091D901820F931FA41FB51FC7
:101A20008093D6019093D701A093D801B093D901A8
:101A30008091DA019091DB018C179D0720F4D093FF
:101A4000DB01C093DA01B70190E080E027E0660F88
:101A5000771F881F991F2A95D1F720E43FE140E0C6
:101A600050E00E948A398091DE01821781F1209333
:101A7000DE01D093E001C093DF0181E08093E301B8
:101A80006091E30170E08091DF019091E0010E949C
:101A90006239CB017093E2016093E101F9016AEFD1
:101AA000843D20E3920720F462E370E00E946239F3
:101AB000EA53FE4F668FC801DF91CF911F910F91BE
:101AC000FF90EF90BF90AF909F908F90089580917E
:101AD000DF019091E001C80FD91FD093E001C093BE
:101AE000DF018091E3018F5FC9CF0E94FA05209149
:101AF000C6013091C701621B730B61348FE1780717
:101B000068F47093DD016093DC0181E09091DE0167
:101B10009F3F09F480E080936402089580E49FE190
:101B20009093DD018093DC01F0CF809164028823E3
:101B300049F080916502882329F01092EB0289E137
:101B40000C946F0C80E1FCCF80E00C946F0CE09162
:101B5000EE02F0E0E158FE4F8181803219F481E419
:101B6000818308959FEB980F993110F48F5FF8CF20
:101B70008A3511F480E3F4CF90ED980F9930B0F3EB
:101B8000893311F48DE2ECCF8D3211F48EE2E8CF7F
:101B900080E2E6CF0F931F93CF93DF93CDB7DEB7ED
:101BA00029970FB6F894DEBF0FBECDBF99E0ECE3E6
:101BB000F1E0DE01119601900D929A95E1F7FB019B
:101BC00099EC91939B01255F3F4FDF0190E29D933C
:101BD000A217B307E1F78E010F5F1F4FAB01475FFD
:101BE0005F4F9F01D8019D918D01D9019D939D016A
:101BF000A417B507B9F78F5CDB011A968C931A9777
:101C00008091E5029091E6021C969C938E931B971F
:101C100080918F011D968C938091E7029091E8024C
:101C2000911192E02091F002B4E02B9F90011124D9
:101C3000822B892BDB011E968C939B01215F3F4FEA
:101C400080E0919189272E173F07D9F7FB018787FD
:101C500029960FB6F894DEBF0FBECDBFDF91CF91AE
:101C60001F910F9108956038710508F540325105B4
:101C7000F0F4FA01A3E0F595E795AA95E1F7F6955A
:101C8000FE2FEE27F795E795E60FF71FBA0167706D
:101C9000772741E050E001C0440F6A95EAF7E80F6A
:101CA000F91F96892130310519F4492B468B089587
:101CB000232B19F440954923F9CF4927F7CF2F92C9
:101CC0003F924F925F926F927F928F929F92AF92CC
:101CD000BF92CF92DF92EF92FF920F931F93CF9319
:101CE000DF933C014A015901190127E0220E311C02
:101CF00093E0359427949A95E1F7EB012801460E7D
:101D0000571ED12CC12C10E000E0F80183E0F595BE
:101D1000E7958A95E1F7EC0DFD1DE80DF91DE491BD
:101D2000C8018770992720E830E002C035952795D3
:101D30008A95E2F7C901F0E0E223F923EF2B49F09D
:101D40009701AE01B801660D771D87E294E00E940D
:101D5000330E0F5F1F4FA016B106B9F6C20CD31C8D
:101D60002196C415D50579F6DF91CF911F910F917A
:101D7000FF90EF90DF90CF90BF90AF909F908F90AB
:101D80007F906F905F904F903F902F900895AF920B
:101D9000BF92CF92DF92EF92FF920F931F93CF9358
:101DA000DF936C015B01E9011C161D0664F47A01E6
:101DB0008FEFE81AF80A9801B501C6010E94330EA8
:101DC0002197A701F1CFDF91CF911F910F91FF9044
:101DD000EF90DF90CF90BF90AF9008954F925F92B9
:101DE0006F927F928F929F92AF92BF92CF92DF922B
:101DF000EF92FF920F931F93CF93DF93EC015B0160
:101E00006A01490128013701F12CE12CE814F90499
:101E10006CF4B7016A0D7B1D83019201A601CE010E
:101E20000E94C70E8FEFE81AF80AF0CFDF91CF912A
:101E30001F910F91FF90EF90DF90CF90BF90AF90E8
:101E40009F908F907F906F905F904F9008952F920A
:101E50003F924F925F926F927F928F929F92AF923A
:101E6000BF92CF92DF92EF92FF920F931F93CF9387
:101E7000DF9300D000D0CDB7DEB79C838B83DC012D
:101E800052968C91B6E08B9F90011124EB81FC81DE
:101E900095899923D1F046855785420F531F4138C4
:101EA00051059CF00088F189E02DAB81BC811F9623
:101EB0001C921E921E97B8E08B9FA00111244E0F1A
:101EC0005F1FEB81FC81518B408BAB81BC811E96E7
:101ED000CD90DC90B0E8CB16D1040CF08CC0EB8137
:101EE000FC81A088B188F0E2AF16B1040CF083C089
:101EF0002C0D3D1D121613060CF07DC028E0829FAC
:101F0000C00111248A0D9B1D181619060CF073C010
:101F100080EE860F803408F095C06052770B25E084
:101F2000269FC001279F900D11242601912C812C02
:101F3000DC01A45EBA4FBA83A983E981FA81E80D76
:101F4000F91DE491712C612C2E2E312C8E2F817075
:101F5000E0FF8AC0EB81FC81E388F12C811106C08F
:101F6000EB81FC8194898389981781F0AB81BC81D6
:101F700052962C915297213009F07BC09701A50110
:101F8000460D571DB201CD010E94330EF101F595AA
:101F9000E795BFEF6B1A7B0AF8E06F167104A1F6A4
:101FA0002FEF821A920A3FEF431A530A85E08816F0
:101FB000910409F0C2CFAB81BC815496EC90549748
:101FC00053968C915397E816B1F052968C91F12C60
:101FD000282F30E0890193E0000F111F9A95E1F757
:101FE000B601B5E08B9F600D711D1124A5018B8199
:101FF0009C810E94EE0EEB81FC812289868597856B
:10200000F6E02F9F800D911D1124AB81BC811F969E
:102010009C938E931E970F900F900F900F90DF91CF
:10202000CF911F910F91FF90EF90DF90CF90BF90D5
:10203000AF909F908F907F906F905F904F903F9068
:102040002F90089580E491E0633709F46ECF85E422
:1020500091E0683F09F469CF8AE491E06E3709F4B2
:1020600064CF8BE990E061CFAB81BC815496EC905A
:1020700074CF30E0269DA001279D500D369D500D58
:1020800011244A0D5B1D289DB001299D700D389DBE
:10209000700D11246C0D7D1D89018B819C810E9426
:1020A000EE0E74CFFC016A3081F4178616868289A1
:1020B00098E0899F9001112480899189820F931F54
:1020C000918B808B81E090E008956D30D9F30E9470
:1020D000270FF8CFEF92FF920F931F93EE24E39414
:1020E000F12C0CE110E028E130E048EC54E062E033
:1020F00070E090E080E00E945F0E0AE010E020E3D4
:1021000030E04CE854E06BE070E088E290E00E9440
:102110005F0E0CE110E028E030E040E754E062E0C0
:1021200070E080E790E00E945F0E02E010E028E59A
:1021300030E043E050E068E170E087E294E00E9424
:10214000EE0E28E530E04BE150E068E170E087E218
:1021500094E00E94EE0E1F910F91FF90EF90089572
:10216000089590E080E00895BF92CF92DF92EF92C1
:10217000FF920F931F93CF93DF93EC01B62EC72EE0
:102180008D85811105C0CE010E940A0881110EC003
:102190001B861D861C8680E0DF91CF911F910F91D9
:1021A000FF90EF90DF90CF90BF90089540E060EFF8
:1021B000CE010E94B70701E0E12CD12C11E0CE0145
:1021C0000E946407F82ECE010E94640791E0F91284
:1021D00018C0813099F51134D8F2DB86D11002C0D5
:1021E00081E08D878B81882399F22396EB2DFC2D3E
:1021F000CF01089629912193E817F907D9F781E0D3
:10220000CBCFEE2DF0E0F8120FC08B851817A0F49D
:10221000DE01AE0FBF1F13968C91802379F4F12C51
:10222000193008F41C87D12EEC0FFD1F8381902FED
:102230009095892383830AC08113F1CFFE01EE0DAF
:10224000F11D8381802B8383FF24F3946F2DCE01B6
:102250000E9488071F5F000F11F4E39401E087E0FC
:102260008E1508F0ACCFB7CF61E089E00E9466051B
:1022700085E090E00E94240561E08AE00C94F60479
:1022800061E089E00E9466058FE090E00E942405ED
:1022900060E08AE00C94F604EDE3F4E080E092E084
:1022A000DF019C011D9221503040E1F708950E940A
:1022B0004C11E7E2F4E081E0828B838B848B0895FC
:1022C000E6ECF1E06083718382839383648375839A
:1022D00086839783608771878287938764877587F2
:1022E00086879787108A118A128A138A158A148A18
:1022F000178A168A8FEF808F128E118E148E138E8E
:10230000158EE4EEF1E080E8DF011D928A95E9F791
:1023100010926402409365020895FB010190002031
:10232000E9F73197AF01461B570BDC01ED91FC91AA
:102330000280F381E02D09948F929F92AF92BF9219
:10234000EF92FF920F931F93CF93DF93CDB7DEB73A
:10235000A1970FB6F894DEBF0FBECDBF7C01FA0186
:10236000CB0119A2223008F42AE08E010F5D1F4F25
:10237000822E912CB12CA12CBF01A50194010E94A9
:102380008A39F901CA016A300CF5605DD8016E9393
:102390008D01232B242B252B79F790E080E01097DB
:1023A00021F0BD01C7010E948D11A1960FB6F894CE
:1023B000DEBF0FBECDBFDF91CF911F910F91FF9078
:1023C000EF90BF90AF909F908F900895695CDECFA3
:1023D000242FAB0170E060E00C949C110F931F93CD
:1023E000CF93C62F68EE73E00E9462398C014AE0F9
:1023F00050E087E294E00E94E8116EE287E294E008
:102400000E94270FC80164E670E00E9462394AE02A
:1024100050E087E294E00E94E8116C2F87E294E09C
:10242000CF911F910F910C945210CF93DF9368EED0
:1024300073E00E946239EC014AE050E087E294E0E8
:102440000E94E8116EE287E294E00E94270FCE011D
:1024500064E670E00E9462394AE050E087E294E06E
:102460000E94E81163E787E294E0DF91CF910C943A
:10247000270FCF92DF92EF92FF920F931F93CF938C
:10248000DF936C017B01C7E2D4E08AE290E09F8792
:102490008E8708E110E0198B088B6FE374E0CE01A2
:1024A0000E940F0661E4C6010E94EE118CE590E0E7
:1024B0009F878E87198B088B6CE374E0CE010E9496
:1024C0000F064AE050E0B701CE01DF91CF911F9196
:1024D0000F91FF90EF90DF90CF900C94E811EF9266
:1024E000FF920F931F93CF93C1E0C0933904F12C57
:1024F000E12C08E010E020E830E048E150E070E036
:1025000060E08823F9F087E294E00E94EE0E1092DA
:1025100036041092350488E190E09093380480935B
:102520003704C0933A04C0933B0465E674E087E245
:1025300094E00E940F06CF911F910F91FF90EF90B2
:102540000C948B0B87E294E00E94EE0E0E94850CA7
:102550002091D6013091D7014091D8015091D901F5
:10256000A0E5B0E00E94E7396E5C7F4F8F4F9F4F30
:1025700024E630E040E050E00E948A39CA01B90107
:102580006C507E4F8F4F9F4F28EE33E040E050E07D
:102590000E948A39B9018091DA019091DB010E9491
:1025A0003912C9CF8F929F92AF92BF92EF92FF9252
:1025B0000F931F93CF93DF93C6ECD1E0288939891D
:1025C0004A895B89A0E5B0E00E94E7396E5C7F4FE5
:1025D0008F4F9F4F24E630E040E050E00E948A3960
:1025E000CA01B9016C507E4F8F4F9F4F28EE33E0E8
:1025F00040E050E00E948A394901E7E2F4E081E0DE
:10260000828B838B848BF12CE12C08E010E02AE292
:1026100030E048E150E06AE270E0CF010E94EE0E47
:1026200024E230E048E150E06CE570E087E294E0BD
:102630000E94EE0EB4018B8D9C8DDF91CF911F9186
:102640000F91FF90EF90BF90AF909F908F900C9460
:102650003912462F50E070E060E02AE00C949C11A3
:10266000CF92DF92EF92FF920F931F93CF93DF935E
:102670006B01072E000CEE08FF0877FF1BC0EC0172
:102680006DE20E9408068C0144275527BA014C19B7
:102690005D096E097F092AE0CE010E949C11800F1E
:1026A000911FDF91CF911F910F91FF90EF90DF90DD
:1026B000CF9008952AE0B701A601DF91CF911F9135
:1026C0000F91FF90EF90DF90CF900C949C11CF92E0
:1026D000DF92EF92FF920F931F93CF93AC012AE00A
:1026E00030E0DC010E94E03900E410E020E030E05E
:1026F00057FF04C000EC1FEF2FEF3FEF600F711F7B
:10270000821F931F20E830E040E050E00E94AC3987
:102710006901890188279927821B930B37FFC9011B
:102720006AE070E00E947639C82F87EFC8168FEFF5
:10273000D80628F06DE287E294E00E94270FC801D6
:102740006AE070E00E94763987E294E00E943013DC
:102750006EE287E294E00E94270F6C2F87E294E0FC
:10276000CF911F910F91FF90EF90DF90CF900C943D
:102770002913282F8091FF02882311F1CB0148E310
:1027800050E0509336044093350430E030933804E1
:10279000209337040E94671368EF87E294E00E9459
:1027A000080663E487E294E00E94270F809191017C
:1027B000882331F06EE274E087E294E00C940F0617
:1027C00008958F929F92AF92BF92CF92DF92EF9235
:1027D000FF92CF93DF9328EE33E040E050E00E9479
:1027E0008A3949016B01EB012AE0BA01A40189E5AC
:1027F00093E00E949C116EE289E593E00E94D3066B
:10280000C436D10560F460E389E593E00E94D30605
:102810002A9728F460E389E593E00E94D3064AE012
:1028200050E0B60189E593E0DF91CF91FF90EF9002
:10283000DF90CF90BF90AF909F908F900C94E81155
:102840000F931F93CF93DF93EC010E940F068C012F
:1028500065E471E0CE010E948D11800F911FDF9120
:10286000CF911F910F910895EF92FF920F931F93B5
:10287000CF93DF937C018B010E944C11C7E2D4E01F
:1028800082E08A8B1F861E86198A188AB701CE01BC
:102890000E9420141F861E8680E190E0998B888B11
:1028A000B801CE010E942014DF91CF911F910F91AA
:1028B000FF90EF900C948B0B282F862F48E350E06D
:1028C000509336044093350430E03093380420931D
:1028D00037040E94790C80918F0165E274E08130A9
:1028E00031F06BE174E0823011F062E174E087E274
:1028F00094E00E94201481E080933A0480933B048A
:102900000895CF93DF936FEE73E089E593E00E9423
:102910000F06C6ECD1E0688979898A899B890E9473
:10292000E1136AED73E089E593E00E940F062889C0
:1029300039894A895B89A0E5B0E00E94E7396E5C7D
:102940007F4F8F4F9F4F24E630E040E050E00E94E1
:102950008A39CA01B9010E94E11369EC73E089E583
:1029600093E00E940F064AE050E060E570E089E5E0
:1029700093E00E94E8116FEB73E089E593E00E9419
:102980000F066C897D894AE050E089E593E00E945A
:10299000E81165E471E089E593E0DF91CF910C9453
:1029A0008D11CF93C82F0E94560C0E94750D69E9B6
:1029B00073E0C11102C067E873E089E593E00E940B
:1029C0000F066091DC017091DD014AE050E089E57D
:1029D00093E00E94E8110E94811483E1CF910C944E
:1029E0006F0CCF92DF92EF92FF928091C401882307
:1029F00009F4D4C08091C5018111D6C00E94750D23
:102A000010926502809164028093C501C090B30169
:102A1000D090B401E090B501F090B601C114D1049A
:102A2000E104F104A9F02091AF013091B00140918F
:102A3000B1015091B201A4E6B0E00E94E739A701CC
:102A400096010E948A39253631054105510520F04D
:102A500024E630E040E050E084E6821B8093C3012E
:102A6000C090B701D090B801E090B901F090BA01E0
:102A7000C114D104E104F10409F486C02091D60107
:102A80003091D7014091D8015091D901A4E6B0E02E
:102A90000E94E739A70196010E948A39C901DA012B
:102AA000883E23E09207A105B10520F087EE93E070
:102AB000A0E0B0E09093BE018093BD014091BB01C6
:102AC0005091BC014115510509F463C02091DA0110
:102AD0003091DB01A4E6B0E00E94D1399A0150E0C8
:102AE00040E00E948A39C901DA01883E23E092075A
:102AF000A105B10520F087EE93E0A0E0B0E090934F
:102B0000C0018093BF0162E773E089E593E00E9412
:102B10000F066091C20170E06F5F7F4F89E593E01F
:102B20000E94301366E673E089E593E00E940F0689
:102B30006091C30189E593E00E94291369E573E080
:102B400089E593E00E940F066091BD017091BE017E
:102B50004AE050E089E593E00E94E8116EE473E0FA
:102B600089E593E00E940F066091BF017091C0015A
:102B70004AE050E089E593E00E94E811FF90EF9071
:102B8000DF90CF900C94811420E030E040E050E0E2
:102B900085CF20E030E040E050E0A5CF0E94750DE9
:102BA000109265021092C501FF90EF90DF90CF90D8
:102BB000089585ED8093BC0080913103909132039C
:102BC000A0913303B09134030796A11DB11D23E0FA
:102BD000B695A795979587952A95D1F72091BC0032
:102BE00024FD03C010922F030895409131035091AA
:102BF00032036091330370913403452B462B472BEE
:102C000069F30097A105B10541F02AE22A95F1F791
:102C100000C00197A109B109E1CF809130030C9464
:102C2000C2091F93CF93DF93EC01162F0E94403906
:102C3000181739F0612FCE01DF91CF911F910C94BD
:102C40004839DF91CF911F9108958093E80260E0A9
:102C5000882351F00E94B10C1092E70260E081E0FD
:102C600090E00E94111661E083E090E00C94111650
:102C70001F93CF93DF93EC01172F0E941116612F42
:102C8000CE010196DF91CF911F910C941116CF9236
:102C9000DF92EF92FF920F931F93CF93DF93CDB705
:102CA000DEB760970FB6F894DEBF0FBECDBF082F1A
:102CB00010E00F5F1F4F94E0000F111F9A95E1F78E
:102CC00080E1FB01DE01119601900D928A95E1F7FA
:102CD00089EC89836E0182E0C80ED11C9E01205FC1
:102CE0003F4FF60180E091918927E217F307D9F76A
:102CF000888B60E0C8010E941116EE24E394F12C49
:102D0000F60161916F01C8018E0D9F1D0E94111681
:102D1000FFEFEF1AFF0A80E1E816F10489F769EC8A
:102D2000C80160960FB6F894DEBF0FBECDBFDF912D
:102D3000CF911F910F91FF90EF90DF90CF900C9467
:102D400011160C94403970E06F537F4F9B0148E49B
:102D5000849F200D311D1124C9010C94A1162F92BE
:102D60003F924F925F926F927F928F929F92AF921B
:102D7000BF92CF92DF92EF92FF920F931F93CF9368
:102D8000DF93CDB7DEB72A970FB6F894DEBF0FBE3C
:102D9000CDBF382E69834090DC015090DD01611178
:102DA00004C020E4422E2FE1522E5B824A8229E1A8
:102DB0004216510420F489E190E09B838A83AA8122
:102DC000BB819D0150E040E060E074EF81E090E065
:102DD0000E948A39C90163E070E00E9462393B01B8
:102DE000660C771C660E771EB3E06B16710418F440
:102DF00083E0682E712CC301B0E0A0E08C839D833A
:102E0000AE83BF832A813B81D3010E94D1396C50AC
:102E10007E4F8F4F9F4F28EE33E040E050E00E94FE
:102E20008A392038310510F02FE730E060E870E093
:102E3000621B730BDB01B695A795BB83AA832A801F
:102E4000FA2EF20E0E944C111A861986A2E3AA2EBF
:102E5000B12CB2E3DB2E11E7812E12E0912E06E1B8
:102E6000C02EE985FA856AEFE43D20E3F20721F000
:102E7000CF01B5010E9462396D9DC0011124885CAB
:102E80009E4FB4010E9462390C2D061BE22C10E00B
:102E9000FE1460F06E2D70E021E030E0A80187E2C2
:102EA00094E00E94330E83E0E80EF2CFA985BA8544
:102EB000AC53B64FBA87A987A839BA4391F6F12C1B
:102EC000E12CE8EE8E2EE3E09E2EA12CB12C930196
:102ED000D7010E94D139A50194010E948A39220D9F
:102EE00002E010E0822F90E09A87898721E030E0AD
:102EF000A80169857A8587E294E00E94330E0E5F0F
:102F00001F4F0831110591F798E1E91A9CEFF90A72
:102F10004E145F04E0F63110BDC08091DE018F3F9A
:102F200009F40AC18091E401A2E38A9FC00111243F
:102F3000885C9E4F61E772E00E946239B6E1B61B81
:102F4000BC831A81812C32E3532E41E7A42E42E048
:102F5000B42E56E1452E8091DE01881508F4ACC0F0
:102F6000482D50E09A01D3010E94D13924E0969572
:102F70008795779567952A95D1F7922C960E4A53A7
:102F80005E4FFA01868D859DC0011124885C9E4F9D
:102F9000B5010E946239F42DF61BF887C92CD12C9B
:102FA0004F2F50E021E030E0B60187E294E00E942C
:102FB000330E311003C02981222371F1882061F181
:102FC000612F70E09601261B370B2F5F3F4F8C81DE
:102FD000482F50E0EE24E394F12C01E010E087E26A
:102FE00094E00E94EE0E48859C81941708F4492FC6
:102FF000A885BC81BA1708F059C021E02B1BA20F8D
:10300000AA838A81282F30E050E001E010E0B60169
:1030100087E294E00E94C70E839498859C83192DC3
:103020009ACF4C145D0408F478CFD501C40163E055
:10303000B695A795979587956A95D1F7022D080FB4
:1030400068858091C2010E94A316819FC00111244E
:10305000885C9E4FB7010E94623946E1461B50E0F2
:10306000602F70E021E030E087E294E00E94330EB0
:10307000A885AF5FA887BDE7CB0ED11C8C819D8151
:10308000AE81BF81880E991EAA1EBB1E9885903402
:1030900041F643CF1886D12CC12C812C912C5401A0
:1030A00012E371E7E72E72E0F72EBFCFEC81EF5FFE
:1030B000F885EF1BEA83A5CFA981AA23E9F18F3F09
:1030C000D9F1F12CE12C08E010E028E130E050E0EB
:1030D00040E070E060E087E294E00E94EE0E81E064
:1030E0008093390480933A0480933B041092360411
:1030F0001092350410923804109237048091DC014C
:103100009091DD012A960FB6F894DEBF0FBECDBFB9
:10311000DF91CF911F910F91FF90EF90DF90CF90B3
:10312000BF90AF909F908F907F906F905F904F90E7
:103130003F902F900C9415122A960FB6F894DEBF8C
:103140000FBECDBFDF91CF911F910F91FF90EF90F8
:10315000DF90CF90BF90AF909F908F907F906F90B7
:103160005F904F903F902F900895CF92DF92EF9213
:10317000FF920F931F93CF93C82F6B0161E08111D2
:1031800001C060E08091C5010E94AF16C1110BC063
:103190000E94D212CF911F910F91FF90EF90DF907C
:1031A000CF900C948B0BF12CE12C08E010E020E880
:1031B00030E048E150E070E060E087E294E00E9497
:1031C000EE0E81E08093390480933A0480933B04AF
:1031D000109236041092350488E190E09093380400
:1031E000809337048091C501882351F16DE487E213
:1031F00094E00E94270F6091C30187E294E00E944F
:10320000291361E674E087E294E00E940F06609162
:10321000BD017091BE014AE050E087E294E00E9457
:10322000E8118091C501C130A9F567E574E081110D
:1032300002C061E574E087E294E00E940F06AACF25
:103240006EE574E087E294E00E940F062091D601BB
:103250003091D7014091D8015091D901A0E5B0E05B
:103260000E94E7396E5C7F4F8F4F9F4F24E630E01E
:1032700040E050E00E948A39CA01B9016C507E4F8B
:103280008F4F9F4F28EE33E040E050E00E948A3994
:10329000B901C1CF69E474E0811102C062E474E055
:1032A00087E294E00E940F06C6010E94151272CFB9
:1032B00060E080E00E94AF160E94D2120C948B0B4B
:1032C0000E94560C0E9458190E9434110E94FA055F
:1032D00068577C4E8F4F9F4F0E945A0C60E074E0FD
:1032E00089E593E00E94201482E10C946F0C8F9288
:1032F0009F92AF92BF92CF92DF92EF92FF92CF93C5
:10330000DF936A010E94BC0CEC018091C601909190
:10331000C701C81AD90A20E4C2162FE1D20620F04C
:103320004FE3C42E4FE1D42EF12CE12CC701B6019E
:1033300036E0660F771F881F991F3A95D1F720E472
:103340003FE140E050E00E948A39622F8091C10144
:103350000E94A316482F8091E1019091E2016AEF4B
:10336000843D20E3920720F462E370E00E9462391A
:10337000461708F083C0641B22E3429F70011124AA
:10338000262F30E0DE010E94D1398090AF0190906D
:10339000B001A090B101B090B201DC01CB01880D69
:1033A000991DAA1DBB1D8093AF019093B001A093FE
:1033B000B101B093B201242F30E0DE010E94D13977
:1033C0008090B3019090B401A090B501B090B60187
:1033D000DC01CB01880D991DAA1DBB1D8093B30193
:1033E0009093B401A093B501B093B6019701A4EAFC
:1033F000B5EB0E94D1396C507E4F8F4F9F4F28EE16
:10340000822E23E0922EA12CB12CA50194010E94C2
:103410008A39DE010E94E7396C507E4F8F4F9F4FF3
:10342000A50194010E948A398091B7019091B80159
:10343000A091B901B091BA01820F931FA41FB51FCB
:103440008093B7019093B801A093B901B093BA01EA
:103450008091BB019091BC018E159F0520F4F092E4
:10346000BC01E092BB01DF91CF91FF90EF90DF9024
:10347000CF90BF90AF909F908F900895842F861B20
:10348000682F7ACF1F93CF93DF93EC010E94A11690
:10349000182FCE0101960E94A116982F812FDF913F
:1034A000CF911F910895EF92FF920F931F93CF93A7
:1034B000DF93883008F046C028E4829FE0011124A1
:1034C000CE0180549F4F0E94A116883DD9F57E0100
:1034D00081ECE80EF11C11E000E0C7010E94A1168A
:1034E000113410F48B3F70F508271F5F9FEFE91A26
:1034F000F90A173491F7CE01895F9E4F0E94A116F9
:10350000801320C0CE018F5F9E4F0E94421A7C0123
:10351000CE018D5F9E4F0E94421A8C01CE018B5FBF
:103520009E4F0E94421A25EDE21620E3F20650F467
:103530000031174238F49C012150310981E02034D8
:103540003F4108F080E0DF91CF911F910F91FF90F4
:10355000EF900895CF92DF92EF92FF920F931F9317
:10356000CF93DF93883010F080E039C08B01C82FF3
:10357000D0E0219684E0CC0FDD1F8A95E1F76B0146
:1035800020E1C20ED11C7B01C61BD70BCE018E0DD4
:103590009F1D0E944039F70181937F01EC15FD05C5
:1035A000A9F7F8018081893CF9F697853196980151
:1035B000215F3F4F80E041918427E217F307D9F75D
:1035C0009813D2CFF80183859485805D9740813729
:1035D000974150F681E0F8019585933028F6DF9108
:1035E000CF911F910F91FF90EF90DF90CF900895B2
:1035F0003F924F925F926F927F928F929F92AF9283
:10360000BF92CF92DF92EF92FF920F931F93CF93CF
:10361000DF93CDB7DEB7A8970FB6F894DEBF0FBE25
:10362000CDBFA8958091010180933F060E94FA05C5
:1036300060937B0170937C0180937D0190937E0168
:1036400082E00E94CD047C0181E0E114F10409F0E4
:1036500080E080937A0183E00E94CD0421E0892BF1
:1036600009F020E02093790180E10E94CD0421E05F
:10367000892B09F020E020937801809101018131AC
:1036800009F471C080910101823021F48091FC0223
:10369000811169C08091FF0200E814EE882309F4CB
:1036A00057C0BE016F5F7F4F84EF92E00E94D30846
:1036B000882351F19A81812C912C540197FF06C0E7
:1036C000812C912CA8EFAA2EBB24BA944091F4022D
:1036D00089814B3309F08AC02D8127FF87C080FF85
:1036E00018C08B8100E011E82FEF3FEF80FD30C064
:1036F00000E811E82FEF3FEF81FD2AC000E012E85B
:103700002FEF3FEF82FD24C000E814EE2FEF3FEFD4
:103710001FC0082F10E030E020E0E3E0000F111F91
:10372000221F331FEA95D1F7007E17702227332717
:10373000892F90E0B0E0A0E0FBE0880F991FAA1F5E
:10374000BB1FFA95D1F7802B912B8C0108291929E1
:103750000E94420829A33AA34BA35CA36DA3109334
:103760007701009376011091FF021123A9F0809157
:103770007601909177019C012158344E21153A45EC
:1037800010F00C94203220919101222329F0811510
:10379000944114F410929101EF2879F48091710111
:1037A00081110BC0809101018111D4C08091E90287
:1037B000853009F079C00E94950D80916F0190913C
:1037C0007901911161C1882341F080916E018823B4
:1037D00021F00E94401110926E0110926A01109225
:1037E0006B0110926C0110926D017CC1092F10E0E9
:1037F000102F0027110F110F110F28E0829FB00129
:103800001124062B172B012E000C220B330B082939
:1038100019292A293B294832C9F4803561F49530A9
:1038200009F096CF8F818C3009F092CF00E812E832
:103830002FEF3FEF8DCF8F3F09F08ACF973009F000
:1038400087CF00E013E82FEF3FEF82CF403109F040
:103850007FCF6885662309F47BCF70E08F81AB0151
:10386000481B5109CA019695982F882797958795E7
:103870000E947639CB01770FAA0BBB0B63E0000FD8
:10388000111F221F331F6A95D1F700782770332745
:103890000052110921093109800F911FA21FB31F86
:1038A0008401082B192B54CF80919101811185CF70
:1038B000112381F0809176019091770181389B41AD
:1038C0004CF081E0809391011092900185E00E947C
:1038D0006F0C73CF8091F002882331F08091FC024D
:1038E000811102C08CE1F3CF1092900110929101EE
:1038F00010929201109293011092940110929501EE
:1039000010929701109296011092980110929901CD
:1039100010929A0110929B0110929D0110929C01AD
:1039200010929E011092A00110929F011092AB0183
:103930001092AC011092AD011092AE018091000185
:10394000882331F087E00E946F0C1092000135CF80
:1039500082E0BDCF80910101873011F480E0B7CFC4
:1039600080910101883009F428CF809101018930CC
:1039700009F423CF809101018A3009F41ECF809190
:1039800001018B3009F419CF809101018C3009F4C9
:1039900014CF809101018D3009F40FCF8091010186
:1039A0008E3009F40ACF809101018F3009F405CFE0
:1039B00080910101893109F400CF809101018A31A0
:1039C00009F4FBCE80910101843109F4F6CE809197
:1039D0000101853109F4F1CE80910101803109F0B6
:1039E0003EC08091FC02882309F4E7CE80919101CA
:1039F0008111E3CE112341F08091760190917701FE
:103A000081389B410CF0D9CE0E94FA056B017C01F4
:103A10000E944C1141E0C701B6010E9460110E9452
:103A20005819C701B601605C704E8F4F9F4F0E94BE
:103A30005A0C61E085E00E94F6040E94401161E0AA
:103A400084E00E94F60461E086E00E94F60461ECE6
:103A500070E089E593E00E94201481E138CF8091E5
:103A60000101833109F4A9CE80910101853019F457
:103A70001092900173CF80910101853009F49DCEA1
:103A800081E08093700199CE81110AC1809101017A
:103A9000863129F180910101873109F1809101017D
:103AA0008831E9F0809101018B31C9F080910101E9
:103AB0008C31A9F08091010181112FC08091E90220
:103AC0008F5F8770823041F4909164029923C1F135
:103AD00090916502911134C08093E90203C080E0A7
:103AE0000E946F0C80910101811105C08091E90253
:103AF000882309F40DC1809101018A3109F0FAC0CF
:103B00008091E2029091D8029111EFC0813009F0CA
:103B1000F1C0E9EDF2E000E0FEC0809101018630E5
:103B200069F280910101883069F48091EA0290E0A5
:103B3000019663E070E00E9476398093EA02D2CF6A
:103B400083E0CACF80910101893149F48091EB0271
:103B500090E00196837099278093EB02C3CF809108
:103B600001018A31D1F49091E20281E0890F209124
:103B7000D802213059F09150933010F40C94073250
:103B8000211104C0853011F40C940B32893018F4E3
:103B90008093E202A7CF80E0FBCF809101018930C2
:103BA00059F48091EC0290E0019669E070E00E9487
:103BB00076398093EC0296CF809101018A3059F4D6
:103BC0008091ED0290E0019666E070E00E94763907
:103BD0008093ED0287CF809101018B3009F482CF71
:103BE000809101018C3009F47DCF809101018D30ED
:103BF00059F48091EE0290E001966CE070E00E9432
:103C000076398093EE026ECF809101018E3039F4C7
:103C10008091EF0291E089278093EF0263CF80913A
:103C200001018F3009F45ECF80910101853159F493
:103C300080914F0190E0019663E070E00E94763938
:103C400080934F014FCF80910101823109F44ACF17
:103C500080910101833109F445CF809101018031C8
:103C600009F440CF80910101813159F40E94FA0595
:103C700060936A0170936B0180936C0190936D0166
:103C800031CF8091E802882309F42CCF10918F0165
:103C9000113009F027CF0E94341110936E0122CF0A
:103CA00080910101813109F01DCFC0906A01D0904F
:103CB0006B01E0906C01F0906D01C114D104E1043E
:103CC000F10409F40FCF0E94FA056C197D098E09E1
:103CD0009F096C5271408109910997FD03CF81E0E2
:103CE0000E94D1140E94601978CDEBEDF2E085308E
:103CF00009F411CF109269011092670110926301CB
:103D000010926401109265011092660110E009C0E2
:103D1000E5EEF2E001E01091780111112AC0109255
:103D20006901E0910101ED3110F00C94E031F0E017
:103D3000E456F14E0C94CB39161F812EC32AB62DB2
:103D4000952E2031C031282FF720AC212322A0232B
:103D500030244D243625C7255F29C729822AB22A57
:103D6000562FDA2FF030FC3005313A26C1260E31BD
:103D70001731809169018F5F809369018F30A8F0BE
:103D800080ED97E091838083002319F081E0809398
:103D900068011092690110926701109263011092FC
:103DA0006401109265011092660180916201811197
:103DB000ADCF0E94FA05AB01BC01809163019091E7
:103DC0006401A0916501B09166010097A105B1055C
:103DD00039F16A017B01C81AD90AEA0AFB0AD7013C
:103DE000C601885E9340A109B109B7FF19C080914F
:103DF00067018530C8F0409363015093640160937C
:103E000065017093660111E080916701853008F4C7
:103E100010E0002309F485CF81E08093680181CF11
:103E200081E080936701E7CF8F5FFBCF8091010135
:103E30000E946F0C8091780181119FC0A090600159
:103E4000B0906101809076019090770100915F01C0
:103E50000E944C111091E90281E080933904809313
:103E60003A0480933B041092360410923504109269
:103E70003804109237048091F0026FEC70E08111E9
:103E800002C063ED70E087E294E00E940F0611111A
:103E900005C06EE387E294E00E94270F82E08093E2
:103EA0003904109236041092350480E190E090932A
:103EB0003804809337048091E5029091E6020E94D5
:103EC000151281E0809339041091E902123008F054
:103ED0001FC188E390E090933604809335041092DC
:103EE00038041092370464EF70E0011102C06CEEE8
:103EF00070E087E294E00E94201461E08091E90282
:103F0000813009F060E088E00E945C1488E390E072
:103F1000909336048093350480E190E090933804C8
:103F20008093370468ED70E087E294E00E940F060A
:103F300041E050E0B50187E294E00E94E811B4014D
:103F400088E10E94B91301E010E020E230E050E087
:103F500040E066E370E087E294E00E94C70E0E94B2
:103F60008B0B0E944E0C0E94520C0E94340C9093BA
:103F70005E0180935D0180E0F0C280916201811159
:103F80005DCF8091E902811172C0612F8091E502BD
:103F90009091E6020E949E0C9093E6028093E502C7
:103FA00080910101882309F449CF80917A0180939F
:103FB00071018091790180936F01809178018093E4
:103FC000620180910101883111F00C94E63161E0C9
:103FD00087E00E94F60481E080935F0180910101F7
:103FE000813161F080910101823011F00C94003236
:103FF0008091FC02882311F40C94003299E1C92EBF
:10400000D12CE12CF12C04E610E00E94FA058090FE
:104010007B0190907C01A0907D01B0907E018C0C82
:104020009D1CAE1CBF1C681979098A099B0997FD64
:1040300002C00C9441320E94FA057F7388279927A9
:104040006F3F7F438105910501F7809168018823C7
:10405000E1F28091E5029091E602B8010E94623996
:1040600090E080E00E94111610926801CECF81305E
:1040700021F58091E802882319F080E00E9425163E
:1040800080918F01811103C00E94B10C89CF8130D2
:1040900061F482E080938F0160E085E00E94F60485
:1040A00061E08BE00E94F6047BCF10928F0161E00B
:1040B00085E00E94F60460E0F4CF853019F40E9498
:1040C000950D6ECF823069F480916402882309F4E3
:1040D00067CF80916502811163CF8CE00E946F0CE5
:1040E0005FCF833021F41092EA0288E0F7CF84306A
:1040F00021F41092EC0289E0F1CF863021F4109285
:104100004F0185E1EBCF873009F04ACF84E1E6CF5C
:1041100070906402772029F180916502811121C09D
:10412000125001E0010FF12CE12C48E3C42ED12CF8
:10413000109581E078262CEF720E0130D9F460E002
:104140008E2D0E945C140F5F38E0E30EF11C40E2FC
:10415000E416F10491F781E080933A0480933B04E4
:10416000F2CE123021F483E08093E90213E0135081
:10417000712CD7CF0230B1F4D0923604C0923504FE
:10418000F0923804E092370468ED70E087E294E042
:104190000E940F0641E050E0B50187E294E00E94E2
:1041A000E811D1CF033029F4B4018E2D0E94B91348
:1041B000CACFD0923604C0923504F0923804E0920F
:1041C000370481E0912F900F933009F080E00E9436
:1041D000790CE72DE00FF0E0EE0FFF1FE052FF4FEC
:1041E0006591749187E294E00E940F06ACCF8091B4
:1041F00001010E946F0C8091780181117FC00E94A3
:10420000571110923604109235041092380410920F
:10421000370463E171E087E294E00E940F06109298
:1042200036041092350488E090E09093380480932F
:10423000370481E09091EA02911180E00E94790CAC
:1042400069E071E087E294E00E940F068091E70246
:104250006BEF70E0882311F06FEF70E087E294E07D
:104260000E940F0681E080933A0480933B041092F1
:1042700036041092350480E190E0909338048093E6
:10428000370481E09091EA02913009F080E00E94C9
:10429000790C62E071E087E294E00E940F06809161
:1042A000E8026FEF70E0811102C06BEF70E087E20F
:1042B00094E00E940F0681E080933A0480933B04CF
:1042C000109236041092350488E190E090933804FF
:1042D0008093370481E09091EA02923009F080E007
:1042E0000E94790C65E374E087E294E00E940F0677
:1042F00081E080933A0480933B0404C28091620180
:1043000081117DCF8091EA0281111BC08091E7026B
:1043100091E089278093E702882339F01092E80220
:1043200060E083E090E00E9411166091E70281E076
:1043300090E00E94111680910101883009F035CE7D
:104340005ECF813031F49091E80289270E942516D2
:10435000F2CF0E94A40DEFCF809101010E946F0C5B
:1043600080917801882379F08091620181110BC0DE
:104370008091EC02883018F00E94A40D16CE1092A5
:10438000ED028AE0EAC00E945711109236041092A2
:10439000350410923804109237048091EC026DE7D6
:1043A00071E0883030F087E294E00E940F060C94B0
:1043B000D62F87E294E00E940F06109236041092E6
:1043C000350488E090E09093380480933704BE0170
:1043D0006F5F7F4F8091EC020E94AA1A882319F127
:1043E0004AE050E0BE016E5F7F4F87E294E00E949A
:1043F0003306109236041092350488E190E09093D1
:1044000038048093370410923A0411E010933B046F
:104410006CE171E087E294E00E940F0610933A0489
:1044200010933B046FC163E271E087E294E00E9465
:104430000F066091EC0270E06F5F7F4F87E294E0BF
:104440000E943013D6CF809101010E946F0C8091A1
:1044500078011091ED02882309F423C1F0906201E4
:10446000F1101FC11111A5C0BE016F5E7F4F809179
:10447000EC020E94AA1A882309F499C00C8D1D8DA4
:104480001093E6020093E5022F8D822F90E031E039
:10449000422F427021FF30E03093E80220FF04C039
:1044A000FF24F3944111F12CF092E7029595879542
:1044B000959587958370833009F452C08093F002FC
:1044C000D090EC0253E0D59E50011124C5018056D6
:1044D0009F4F0E94421A7C019093F2028093F10256
:1044E000C5018E559F4F0E94A1168093F3029091B3
:1044F000F0029130C1F581E0E81AF1089FE0E91679
:1045000097E2F906A8F58D2D0E94531A8093C401F5
:104510008111D092C1018E8D80938F01C80164E614
:1045200070E00E94623990E080E00E941116609174
:10453000E70281E090E00E9411166091E80283E0BA
:1045400090E00E9411168091E8028823D9F00E9421
:10455000B10C81E080935C018FE00E946F0C25CD4F
:104560001092F002ADCF923071F68150833658F23E
:104570001092F0021092F2021092F1028AE08093FF
:10458000F302C1CF80918F01823049F460E085E071
:104590000E94F60461E08BE00E94F604DACF8111FC
:1045A000D6CF61E085E00E94F60460E0F4CF83E0BE
:1045B000D1CF143059F48091EC020E94531A882311
:1045C00011F08BE0CACF10935C01C6CF113009F017
:1045D00055C0BE016F5E7F4F8091EC020E94AA1A07
:1045E000F82E0091EC02BE016F5F7F4F802F0E947A
:1045F000AA1A811106C0BE016F5F7F4F802F0E94F3
:10460000CA0D8091E5029091E6029D878C8780918A
:104610008F018E878091E7029091E802992361F1E2
:1046200092E02091F002A4E02A9F90011124822BB5
:10463000892B8F87BE016F5F7F4F802F0E944716A7
:10464000E090F302B3E00B9F800111246091F1022E
:104650007091F202C80180569F4F0E9438166E2D4D
:10466000C8018E559F4F0E941116F110C9C180914B
:10467000EC020E94A93499CC90E0D3CF1230B9F368
:10468000133009F0BAC2BE016F5E7F4F8091EC0219
:104690000E94AA1A882309F488CC1092EF028EE0B7
:1046A0005CCF1F5F133008F413E0BDEFEB2EE10E7B
:1046B0000E94571110E000E0DD24D39410923604DC
:1046C000109235041093380400933704E1101DC094
:1046D00060E587E294E00E94270F6091EC0270E0B1
:1046E0006F5F7F4F87E294E00E94301368E371E0D0
:1046F00087E294E00E940F06085F1F4FE3940032A8
:104700001105E1F60E948B0B50CCFF24FA94FE0CAD
:1047100081E09091ED029F1180E00E94790CEF2DD5
:10472000F0E0EE0FFF1FE45DFE4F6591749187E2AC
:1047300094E00E940F06D0923A04D0923B04DCCF62
:10474000809101010E946F0C80917801882329F0EB
:1047500080916201882309F414CE0091EC02E8E410
:104760000E9F80011124C8018F5F9E4F0E94421A44
:104770005C01C8018D5F9E4F0E94421A4C010E944D
:104780004C1160E08091EC020E94A316F2E38F9F2F
:10479000C0011124885C9E4F61E772E00E9462397B
:1047A00016E1161BD12CC12CE12C52E3552E61E7EA
:1047B000662E62E0762E76E1472E332433946E2DFA
:1047C0008091EC020E94A316859DC0011124885C93
:1047D0009E4FB3010E946239F42CF61A4F2D1F151B
:1047E00008F4412F1F15C8F5232D211B122F1F0D73
:1047F000212F30E050E001E010E0B60187E294E0C4
:104800000E94C70E4F2D50E0B6016F5F7F4F21E031
:1048100030E087E294E00E94330EE39402E0C00EA1
:10482000D11C1F2D20E4E212CACFF12CE12C08E0AC
:1048300010E020E830E048E150E070E060E087E21E
:1048400094E00E94EE0E81E0809339040E94850C72
:10485000B401C5010E94391255CF1F5F1F19C8CF7F
:10486000809101010E946F0C80917801882329F0CA
:1048700080916201882309F47FCD809164028823AE
:1048800009F47ACD80916502811176CD61E0809145
:10489000C5010E94AF1680E05DC6809101010E94B3
:1048A0006F0C80917801882311F40C940E32809162
:1048B000EE02909162019111ADC08A3008F077C08C
:1048C0000E94A70D0E94FA05609358017093590148
:1048D00080935A0190935B0168517C4F8F4F9F4F9B
:1048E0006093540170935501809356019093570142
:1048F0000E944C1181E0809339041092360410928A
:104900003504109238041092370461E471E087E2B4
:1049100094E00E940F066091EC0270E06F5F7F4FA1
:1049200087E294E00E94301310923604109235040E
:104930008AE090E090933804809337044AE050E096
:1049400060E871E087E294E00E9433068091EE0215
:1049500056E0859F9001112430933604209335044E
:1049600022E130E030933804209337048A3028F471
:104970006EE587E294E00E94270F109236041092B1
:10498000350488E190E0909338048093370481E007
:104990009091EE029A3009F080E00E94790C8091AB
:1049A000EE028B3009F45FC066EA71E09DCC909115
:1049B000E4028A3051F591111DC08091E502909179
:1049C000E60290938B0180938A0180918F018093FE
:1049D0008C018091E7029091E8029923A1F092E086
:1049E0002091F00244E0249F90011124822B892B16
:1049F00080938D016FE771E08091EC020E94471671
:104A000010925C01A9CD90E0EBCF992309F4B9CCC9
:104A10008AE1A3CD8A3008F06BCF80915801909144
:104A20005901A0915A01B0915B01892B8A2B8B2BE4
:104A300009F45ECF0E94FA050091540110915501CE
:104A40002091560130915701601B710B820B930B23
:104A500097FD4ECF0E94A70D0E94FA056A567F4F20
:104A60008F4F9F4F3DCF0E94850C42CC809101011A
:104A70000E946F0C80917801882309F442C08091D4
:104A8000620181113EC08091EF02882309F479CC44
:104A90001091EC02812F90E0019660E044E0880FD5
:104AA000991F4A95E1F70E941116A3E01A9FC001D1
:104AB00011246FEF80569F4F0E941116B8E41B9F80
:104AC000C001112460E080549F4F0E941116809114
:104AD000C401882331F08091C101181302C01092E3
:104AE000C40180916402882351F080916502811194
:104AF00006C08091C201181302C01092640282E0C5
:104B000029CD0E944C1111E0109339041092360403
:104B100010923504109238041092370461E571E068
:104B200087E294E00E940F066091EC0270E06F5FF4
:104B30007F4F87E294E00E94301310923604109267
:104B400035048CE090E09093380480933704809192
:104B5000EF020E94790C68E471E087E294E00E9421
:104B60000F0610933A0410933B04109236041092EF
:104B7000350488E190E09093380480933704809165
:104B8000EF0281270E94790C65E374E043CC0E9418
:104B9000660C882341F00E94FA0568517C4F8F4FC4
:104BA0009F4F0E945A0C809101010E946F0C0E943D
:104BB000FA05009166021091670220916802309117
:104BC0006902601B710B820B930B97FD18C08091DB
:104BD000E402882341F01092E4021092EB0284E098
:104BE0008093ED02CECB80915C01813019F410925C
:104BF000E902C2CB843009F4C4CB89E0AECC0E9478
:104C00005711109236041092350410923804109205
:104C100037046DE771E087E294E00E940F0682E0BE
:104C20008093390410923604109235048CE090E0A1
:104C3000909338048093370480915C016EE671E0B4
:104C4000823081F038F466E771E0813059F06AE52E
:104C500071E008C068E671E0833021F060E671E041
:104C60008430A9F787E294E00E940F0681E08093E8
:104C7000390448CD809101010E946F0C8091780128
:104C80001091EB028823D1F180916201811136C02D
:104C9000111102C080E161CC113061F48091640295
:104CA0008823C1F3809165028823A1F30E945819DB
:104CB00083E153CC123009F05FCB1092D80280917F
:104CC000E5029091E6029093DA028093D90280E4A3
:104CD0009FE19093DC028093DB02EDEDF2E084E053
:104CE000DF011D928A95E9F78AE08093E102109234
:104CF000E2021092E3021092E4028ACE1F5F1330A8
:104D000008F413E00E9457111450F12CE12CDD241B
:104D1000D3941092360410923504F0923804E09245
:104D2000370401E0010F79F46EE971E087E294E065
:104D30000E940F06B8E0EB0EF11C102FE0E2EE1619
:104D4000F10439F7DFCC81E09091EB02911380E020
:104D50000E94790C68E971E0112351F06FE871E06D
:104D6000113031F066E871E0123011F065E374E063
:104D700087E294E00E940F06D0923A04D0923B045E
:104D8000D9CF809101010E946F0C8091780181112F
:104D900050C01091D8028091E202882341F0853002
:104DA00008F4D5C193E0111101C094E0891B833050
:104DB00008F483E00DEF080F0E94571185E01111F0
:104DC00001C086E0F12CE12C2EEFD22ED80ECC249F
:104DD000C39410E0002329F01D2D100F013009F4B9
:104DE00011E01092360410923504F0923804E092EB
:104DF00037041111AEC181E09091E202911180E07F
:104E00000E94790C64EF71E087E294E00E940F0643
:104E10008091D8026FEE71E0882331F068EE71E086
:104E2000813011F06EED71E087E294E00E940F0690
:104E3000BCC1809162018111ACCFE091E202E1112D
:104E400010C08091D80290E0019663E070E00E946B
:104E500076398093D802809101018A3109F0A5C882
:104E600098CF8FEF8E0F843040F58091D80281303B
:104E700061F4E150FF0BE852FD4F8581893018F451
:104E80008F5F8583E8CF80E0FCCF81110CC0612F5C
:104E90008091D9029091DA020E949E0C9093DA02DE
:104EA0008093D902D8CF8091E102833620F48F5FBE
:104EB0008093E102D0CF81E0FBCFE53061F4612F38
:104EC0008091DB029091DC020E949E0C9093DC02A8
:104ED0008093DB02C0CFE63049F48091E30290E09A
:104EE0000196877099278093E302B5CFE73009F0E8
:104EF00029C19091DD028091DE022091DF02309184
:104F0000D802313069F491110BC0811109C021110F
:104F100007C03091E002311103C031E03093E0026C
:104F20001091E30248EE53E0949F7001959FF00CBE
:104F30001124670104E6809FC00CD11C1124E0906D
:104F4000E002EC0CFD2CF11C3AE0239FE00CF11C7C
:104F50001124BE016F5F7F4F812F0E94AA1A811119
:104F600006C0BE016F5F7F4F812F0E94CA0D209146
:104F7000D8028091D9029091DA02222321F0809107
:104F8000DB029091DC029D878C878F85837F44E0D4
:104F9000249F90011124822B8F87BE016F5F7F4F6A
:104FA000812F0E9447160091E10253E0159FC00136
:104FB0001124B7017C0180569F4F0E943816602F44
:104FC000C7018E559F4F0E941116183008F0ABC0D4
:104FD00080916402882309F4A6C080916502882329
:104FE00009F4A1C088E4189F60011124360190ECF7
:104FF000690E711C60E0C3010E9411165601A1ECFC
:10500000AA0EB11C36ECE32E31E0F32E812C00E029
:105010002091DE01912C281590F0F701868D90E00B
:1050200061E0821620F4278D820F911D62E0262F09
:105030002695820F911D70E00E946239962E692D8F
:10504000C5010E941116092583948394FFEFAF1ABE
:10505000BF0A22E0E20EF11C30E88312D9CF209182
:10506000D6013091D7014091D8015091D901A0E5E6
:10507000B0E00E94E7396E5C7F4F8F4F9F4F24E670
:1050800030E040E050E00E948A39CA01B9016C501A
:105090007E4F8F4F9F4F28EE33E040E050E00E945C
:1050A0008A398091DA019091DB019A8B898B3C8B54
:1050B0002B8B8091DC019091DD019E8B8D8B8091FB
:1050C000030190910401A09105018EA39FA3A8A7BD
:1050D0007E0141E1E40EF11C5E0156E2A50EB11C19
:1050E0004E0187E1880E911CD7014C9011965C907F
:1050F000B2E0EB0EF11CF50181915F01B201860D6A
:10510000972D911D0E943816542405258E149F0456
:1051100059F7602FC601895F9E4F0E94111668EDF6
:10512000C3010E941116109264021092650210933E
:10513000EC0281E08093E40210925C018FE00E9417
:105140006F0C89CE82E08093EB0289E1F8CF81E099
:105150002ECE113009F062C08091D802813099F5CD
:1051600069ED71E087E294E00E940F068DED882ED4
:1051700082E0982EAA24A394B12C9091E20281E0BF
:105180009A151B0409F080E00E94790CD4016D91FE
:105190004D01605D87E294E00E945210BFEFAB1AB0
:1051A000BB0AE5E0AE16B10441F7C0923A04C092E2
:1051B0003B040F5FF8E0EF0EF11C10E2E116F10482
:1051C00009F007CE9FCA81E09091E202913009F088
:1051D00080E00E94790C8091D80281110DC062EDAF
:1051E00071E087E294E00E940F068091D9029091CD
:1051F000DA020E941512D9CF6BEC71E087E294E0DD
:105200000E940F066091E10287E294E00E94291358
:1052100065E287E294E00E94270FC7CF9091E202F7
:1052200081E0153081F4953009F080E00E94790C1E
:1052300060EC71E087E294E00E940F068091DB024F
:105240009091DC02D6CF163071F5963009F080E0EF
:105250000E94790C66EB71E087E294E00E940F06F1
:10526000BE016F5F7F4F8091E3020E94AA1A8823DC
:1052700051F04AE050E0BE016E5F7F4F87E294E05C
:105280000E94330692CF6DEA71E087E294E00E94BB
:105290000F066091E30270E06F5F7F4F87E294E05A
:1052A0000E94301382CF191380E00E94790C66EAC5
:1052B00071E0173009F4B8CD65E374E0B5CD8091A5
:1052C00001010E946F0C80917801882391F08091F8
:1052D000620181110EC080916402882311F40C9444
:1052E000BB1F80916502882311F40C94BB1F89E1D8
:1052F00034C90E944C1182E0809339041092360424
:1053000010923504109238041092370465E272E06E
:1053100087E294E00E94201481E080933904109287
:1053200036041092350481E190E090933804809324
:1053300037048091FC028823B9F06BE172E087E2C8
:1053400094E00E942014109236041092350489E1F2
:1053500090E090933804809337046FE072E087E226
:1053600094E00E940F06CEC964E072E087E294E008
:105370000E942014109236041092350489E190E0C6
:1053800090933804809337046BEF71E0E8CF0E946C
:10539000FA054B015C01809101010E946F0C809124
:1053A000CA019091CB01A091CC01B091CD01A50192
:1053B0009401281B390B4A0B5B0BDA01C901B7FDBD
:1053C0005AC0D501C4014996A11DB11D8093CA01DF
:1053D0009093CB01A093CC01B093CD018091C601F5
:1053E0009091C7018401081B190B0E94340C7C01A9
:1053F000B501A4010E94BC0C6AE372E089E593E068
:105400000E940F06B80100341F4110F06FE37FE1E6
:105410004AE050E089E593E00E94E8116DE272E015
:1054200089E593E00E940F064AE050E0B70189E564
:1054300093E00E94E8116FEE73E089E593E00E942B
:105440000F066091D6017091D7018091D80190919B
:10545000D9010E94E11365E471E089E593E00E94BF
:105460008D114CE0E41640E3F40628F00E94560C3F
:1054700086E10E946F0C80910101813111F00C9442
:10548000D51F8091C6019091C701A091C801B0912C
:10549000C90175016401C81AD90AEA0AFB0AD701D1
:1054A000C60180549F41A109B109B7FD07C080E042
:1054B0000E94D1140E9460190C94D51F8091D201D2
:1054C0009091D301A091D401B091D50185017401CF
:1054D000E81AF90A0A0B1B0BD801C7018456910977
:1054E000A109B109B7FF02C00C94D51F0E94581939
:1054F0008092D2019092D301A092D401B092D501B2
:105500000C94D51F0E94FA056B017C018090660205
:1055100090906702A0906802B090690280910101AA
:105520000E946F0CD701C60188199909AA09BB0905
:10553000B7FD03C00E944011BBCBC818D908EA08C8
:10554000FB0800EAC00E0FE0D01EE11CF11CF7FEC4
:1055500005C081E00E946F120C94D51F0E9458195B
:105560000C94D51F809101010E946F0C80917801ED
:10557000882309F490C98091620181118CC981E06E
:105580008093EB02B4CE0E94FA056B017C010E946D
:10559000660CB090FC02882309F480C00E94FA05D2
:1055A0002091E5023091E602620F731F811D911D6B
:1055B0000E945A0C10929201109293011092940141
:1055C00010929501109297011092960110929801F5
:1055D0001092990110929A0110929B0110929D01D4
:1055E00010929C011092520110925101109253019D
:1055F0001092C5018091C401882309F457C0BB20D3
:1056000079F140E0C701B6010E9460111092AF012C
:105610001092B0011092B1011092B2011092B30138
:105620001092B4011092B5011092B6011092B70118
:105630001092B8011092B9011092BA011092BC01F7
:105640001092BB011092BE011092BD011092C001D8
:105650001092BF011092C3018091C1018093C201D9
:105660001092500161E084E00E94F60461E086E05F
:105670000E94F6040E94FA0560527C468B4F9F4FB1
:10568000609372017093730180937401909375011C
:1056900080918F01823011F40E94260C80910101CB
:1056A0000E946F0CB1100AC010E0A5C0BB20C1F26F
:1056B00040E0C701B6010E946011D2CF0E94340CB5
:1056C0008C0190935E0180935D012C01712C612C03
:1056D000409198015091990160919A0170919B01BC
:1056E000440D551D661D771D4093980150939901F7
:1056F00060939A0170939B0120919C0130919D01D0
:105700002F5F3F4F30939D0120939C01A090C401D7
:105710008C30904388F00E94560CB701A601C80156
:10572000AA2039F00E9477190E94F11486E10C94A6
:10573000AD220E94BC0CF8CF809192019091930110
:10574000A0919401B0919501840D951DA61DB71DE2
:105750008093920190939301A0939401B09395014B
:105760008091960190919701019690939701809373
:105770009601B701A601C801AA2009F49EC00E94A3
:1057800077198091F002882309F48ECF209151017E
:10579000309152012017310720F4109352010093E9
:1057A0005101813009F08CC02091F1023091F20258
:1057B000A8EEB3E00E94D1392B013C012091D60123
:1057C0003091D7014091D8015091D901A0E5B0E0C6
:1057D0000E94E7396E5C7F4F8F4F9F4F24E630E089
:1057E00040E050E00E948A3911E024153505460555
:1057F000570508F459CF8091660290916702A091F5
:105800006802B091690226013701481A590A6A0AEA
:105810007B0A2091F00221110DC0B301A201409535
:10582000509560957095442777FD439555276627D9
:105830007727142F111102C077FC18C10E94520C57
:105840008091F002882349F0111107C081E0809314
:1058500050018093700110929001BB2009F488C020
:1058600020919C0130919D012115310509F470C0F2
:1058700080919E01882309F46BC050E040E0609164
:1058800098017091990180919A0190919B010E94D9
:105890008A392536310508F05BC01092E70260E0D6
:1058A00081E090E00E941116109290010E944E0C2F
:1058B0000E94F11487E10C94AD220E94BC0C61CFD0
:1058C000409166025091670260916802709169028E
:1058D0008091E5029091E602B0E0A0E0841B950B78
:1058E000A60BB70B805D9740A109B1098C0D9D1DDA
:1058F000AE1DBF1DB7FDD8CE409151015091520150
:105900004536510508F4D0CE9801A4E6B0E00E94D7
:10591000D1392B013C018091F302A81BB1099A01F6
:105920000E94E039641575058605970570F0809131
:105930005301833018F48F5F8093530111E08091FD
:105940005301833008F057CFAFCE10925301F6CFFA
:1059500020919601309197012115310549F08091F0
:10596000AB01811114C081E08093AB011092AE01B4
:105970008091FC0281110E94F11480919E018F5F41
:1059800080939E010E94341183E00C94AD2250E07C
:1059900040E0609192017091930180919401909107
:1059A00095010E948A3969018091AC01853010F51A
:1059B000E82FF0E0EE0FFF1FE057FE4F328B218BF8
:1059C0008F5F8093AC0165E00E9456399093AD01E2
:1059D0002091AC01E1EAF1E030E060E070E0CB0161
:1059E0002317D1F141915191640F751F811D911DB4
:1059F0003F5FF6CFA4E6B0E0442755270E94E73981
:105A00004B015C0120919F013091A001A5E5B0E020
:105A10000E94D13986169706A806B90648F48091E7
:105A2000AE018F5F8093AE01882309F4A1CF3CCFF4
:105A30001092AE018091AD0190E0FC01EE0FFF1FCE
:105A4000E057FE4FD28AC18A019665E070E00E945D
:105A500076398093AD01BCCF30E050E040E00E9449
:105A60008A393093A00120939F0182CF2091C401F5
:105A7000222351F1BB2009F441C08091D2019091C1
:105A8000D301A091D401B091D50197018601081BE3
:105A9000190B2A0B3B0BD901C80184569109A109A6
:105AA000B109B7FF02C00C94D51F70E060E080E040
:105AB0000E94B518C092D201D092D301E092D401D5
:105AC000F092D5010C94D51FBB20C1F04091D201BA
:105AD0005091D3016091D4017091D5019701860155
